:100000000C9434000C9451000C9451000C94510049
:100010000C9451000C9451000C9451000C9451001C
:100020000C9451000C9451000C9451000C945809FC
:100030000C9451000C9451000C94380B0C9451000A
:100040000C9451000C9451000C94E10B0C94120C84
:100050000C9451000C9451000C9450010C945100DC
:100060000C9451000C94510011241FBECFEFD8E026
:10007000DEBFCDBF11E0A0E0B1E0E2EDFAE102C0E9
:1000800005900D92A43CB107D9F723E0A4ECB1E0B0
:1000900001C01D92A137B207E1F70E9451020C94F2
:1000A000530D0C940000CF93DF9300D0CDB7DEB793
:1000B00081E090E09A8389838091C401813461F466
:1000C0008091C501833541F48091C601853521F4C5
:1000D0008091C701882311F01A82198262E170E0D1
:1000E00084EC91E00E94F402892B11F41A821982A7
:1000F00089819A810F900F90DF91CF910895CF93CE
:10010000DF93CDB7DEB762E170E080E091E00E945E
:10011000B30242E160E071E080E490E00E94AA0155
:100120000000DF91CF910895CF93DF93CDB7DEB775
:1001300000000E944202892BE1F742E164EC71E089
:1001400080E490E00E94FA010E945300892B91F410
:1001500062E170E080E091E00E94B3020E947F00C3
:1001600042E164EC71E080E490E00E94FA011092B8
:10017000D60101C00000DF91CF910895CF93DF93A6
:10018000CDB7DEB70E94420218161906A4F080917E
:10019000D601882391F062E170E084EC91E00E9446
:1001A000B30242E164EC71E080E490E00E94AA01B5
:1001B0001092D60103C0000001C00000DF91CF9172
:1001C0000895CF93DF93CDB7DEB781E08093D6015A
:1001D0000000DF91CF910895FA9AF99A0895CF938C
:1001E000DF9300D0CDB7DEB79A83898382E490E0B5
:1001F00029813A81232F3327FC01208381E490E079
:100200002981FC01208300000F900F90DF91CF9196
:100210000895CF93DF9300D000D0CDB7DEB79B8396
:100220008A836C838FE590E0FC01808180788983EC
:10023000F89400008FE390E0FC018081082E000C10
:10024000990B82709927892BA9F78A819B810E943B
:10025000EF0080E490E02C81FC0120830E94EC0000
:100260008FE590E02FE530E0F90130812981232BE3
:10027000FC01208300000F900F900F900F90DF91F2
:10028000CF910895CF93DF93CDB7DEB700000E94E2
:10029000420218161906DCF30000DF91CF91089591
:1002A0001F920F9200905F000F9211242F933F93A3
:1002B0004F935F936F937F938F939F93AF93BF936E
:1002C000EF93FF93CF93DF93CDB7DEB790911702F3
:1002D000809118029817F0F480911702882F90E00F
:1002E00089529E4FFC0120818091190290911A023F
:1002F000622F0E9409018091190290911A020196C1
:1003000090931A0280931902809117028F5F809355
:1003100017020BC08FE390E02FE330E0F90120815A
:10032000277FFC01208310921B020000DF91CF91F8
:10033000FF91EF91BF91AF919F918F917F916F91BD
:100340005F914F913F912F910F9000925F000F901E
:100350001F901895CF93DF93CDB7DEB727970FB6D1
:10036000F894DEBF0FBECDBF9C838B837E836D83ED
:100370004F830E9442018B819C8190931A0280934B
:10038000190281E080931B02109217021A821982CF
:1003900013C089819A812D813E81820F931FFC01B8
:1003A000208189819A8189529E4FFC012083898115
:1003B0009A8101969A8389838F81282F30E08981E1
:1003C0009A81821793072CF38F81809318028FE311
:1003D00090E02FE330E0F90120812860FC012083C8
:1003E000000027960FB6F894DEBF0FBECDBFDF9199
:1003F000CF910895CF93DF93CDB7DEB727970FB690
:10040000F894DEBF0FBECDBF9C838B837E836D834C
:100410004F830E9442011A82198222C029813A81A7
:100420008B819C81820F931F0E94EF008FE390E0ED
:100430002FE330E0F90120812160FC0120838981D4
:100440009A812D813E81820F931F20E430E0F901D3
:100450002081FC01208389819A8101969A83898376
:100460008F81282F30E089819A8182179307B4F217
:10047000000027960FB6F894DEBF0FBECDBFDF9108
:10048000CF910895CF93DF93CDB7DEB790911B0244
:1004900081E0913009F080E0882F90E0DF91CF91EA
:1004A0000895CF93DF9300D0CDB7DEB70E94A409A3
:1004B0000E9494000E9401040E9433040E94F905E6
:1004C0000E946E038DE591E00E94AA0980E292E00D
:1004D0000E94AA098DE791E00E94AA098CE292E0AD
:1004E0000E94AA098DE791E00E94AA0984EC91E09C
:1004F0000E94AA098DE791E00E94AA098091520208
:100500000E94B60980E891E00E94950389E891E095
:100510000E94280681E08093D0010E94E1001A82A7
:1005200019828AEA0E942E058BEB0E942E058CEC24
:100530000E942E050E94BE000E94A7030E94F8049C
:100540000E944202892BB1F789819A81892B91F708
:1005500060E071E080E090E00E946E0A81E090E04F
:100560009A838983E7CFCF93DF93CDB7DEB7279701
:100570000FB6F894DEBF0FBECDBF9D838C837F8303
:100580006E8319821B821A8210C08A819B812C8102
:100590003D81820F931FFC0190818981890F89839E
:1005A0008A819B8101969B838A838E819F819C0196
:1005B000215031098A819B818217930730F38E8104
:1005C0009F8101972C813D81820F931F2981219565
:1005D000FC012083000027960FB6F894DEBF0FBE03
:1005E000CDBFDF91CF910895CF93DF93CDB7DEB725
:1005F00027970FB6F894DEBF0FBECDBF9D838C83C7
:100600007F836E8319821B821A8210C08A819B812C
:100610002C813D81820F931FFC0190818981890F7C
:1006200089838A819B8101969B838A832A813B816E
:100630008E819F812817390748F381E0998199239A
:1006400009F080E0882F90E027960FB6F894DEBF7F
:100650000FBECDBFDF91CF910895CF93DF9300D030
:10066000CDB7DEB781E090E09A83898380911C0248
:10067000833561F480911D02853441F480911E021E
:10068000823521F480911F02882311F01A82198289
:1006900067E370E08CE192E00E94F402892B11F490
:1006A0001A82198289819A810F900F90DF91CF91E0
:1006B0000895CF93DF93CDB7DEB767E370E082E1B3
:1006C00091E00E94B30247E362E171E080E090E0D4
:1006D0000E94AA010000DF91CF910895CF93DF938C
:1006E000CDB7DEB700000E944202892BE1F747E355
:1006F0006CE172E080E090E00E94FA010E942D031C
:10070000892B79F40E94590300000E944202892B30
:10071000E1F747E36CE172E080E090E00E94FA01CB
:1007200001C00000DF91CF9108959093540280930F
:10073000530210925702109256021092550260E036
:1007400070E080E090E00E94A40B0C94060480917D
:10075000530290915402892B09F452C080E090E03A
:100760000E948B0B892B09F44BC08091550281119B
:1007700034C02091560230915702E0915302F0911B
:100780005402E20FF31F80818032E9F03CF48111C2
:100790001DC0109257021092560208958D3239F002
:1007A0008E32A1F40E9404046AEF70E004C00E943B
:1007B00004046EEE72E080E090E00E94A40B81E001
:1007C00080935502089568EE73E00BC02F5F3F4F92
:1007D000309357022093560208950E94060464E65F
:1007E00070E080E090E00E94A40B1092550280918E
:1007F00056029091570201969093570280935602A9
:100800000895219A29980895299A08952998089574
:1008100085B18695817090E008958031910504F549
:1008200027E0289FA001299F500D1124FA01E55AC5
:10083000FD4F80818132A0F480E090E020E0FA0159
:10084000E80FF91FE55AFD4F3081230F01968730DD
:100850009105A9F781E090E0222321F080E008953E
:1008600080E090E008956F927F928F929F92AF9276
:10087000BF92CF92DF92EF92FF920F931F93CF938D
:10088000DF930E944202892BE1F70BEC12E0C0E8F3
:10089000D0E0BE0165527E4F47E0CE010E94FA01D2
:1008A000F80111928F012796C03FD10591F74BE5D2
:1008B000E42E42E0F42E8701C0E0D0E0D12CB12C30
:1008C00077247A94CE010E940D04892B41F0F8011F
:1008D0008081871520F4BC2E782EDD24D3942196B8
:1008E000095F1F4FC031D10569F7DD2009F46AC0E7
:1008F000B0925A0270925902CB2DD0E08E010F5F58
:100900001F4F872C2FE0A22E37E0932E6801FFE0C7
:10091000CF22DD24C6010E940D04892B61F4B09220
:1009200058028E0101501109609780E1A82EB12C68
:1009300097E0692E3AC09C9CF0019D9CF00D11241B
:10094000E55AFD4F4081242F30E0882D90E001963C
:100950008F7199272817390711F7C0925A024093CF
:100960005902AA940F5F1F4FAA20C9F2842ECECF3E
:10097000F701208130E0872D90E04F968F71992705
:100980002817390731F5C0925802689CF001699C1C
:10099000F00D1124E55AFD4F708001501109F7E068
:1009A000EF0EF11C0C171D07A1F0C801B5010E9444
:1009B000E40C6C014C019924C4010E940D04892BA4
:1009C000B9F607C08FE080935A0210925902109234
:1009D0005802DF91CF911F910F91FF90EF90DF9020
:1009E000CF90BF90AF909F908F907F906F90089521
:1009F000EF92FF921F93CF93DF930E944202892BC5
:100A000039F5EBECF2E0C0E0D0E081918823E1F031
:100A100017E01C9FC0011D9F900D11249C01255AB9
:100A20003D4F790167E070E0C9010E94B302C19FA8
:100A3000C001112447E0B70180589F4F0E94AA01CE
:100A4000C553DD4F188204C02196C031D105E9F6A7
:100A5000DF91CF911F91FF90EF900895EF92FF9259
:100A60000F931F93CF93DF93E82EC0915A02D0E0EB
:100A70002196CF70DD278091580290E00E940D04EE
:100A8000F82E809159028F5F813218F480935902B9
:100A900002C01092590287E08C9F80018D9F100D3B
:100AA0001124055A1D4F80915902F80180830E943C
:100AB000FB05F8016183728383839483E582C0938D
:100AC0005A0267E070E0C8010E94B302C553DD4FCF
:100AD00081E0888380915A0290915802891308C05E
:100AE000FF2031F090E001968F7099278093580293
:100AF000DF91CF911F910F91FF90EF900895EBE55B
:100B0000F2E0ABECB2E08FEF4FEF5FEFBA0191E0B4
:100B10008083858341835283638374839D93379657
:100B200022E0EB3CF207A1F78FE080935A0210928B
:100B300058021092590208950F931F93CF93DF9399
:100B400000915802C02F10E0D0E0CE010E940D04A9
:100B5000892B29F02196CF701F5F0C13F5CF812FC1
:100B6000DF91CF911F910F910895AF92BF92CF92D5
:100B7000DF92EF92FF920F931F93CF93DF936B015E
:100B80007C018A0159010E949C0590E0A0E0B0E040
:100B9000C816D906EA06FB06F8F48091580290E0E0
:100BA000C80ED91E8FE0C822DD2487E08C9DF0019D
:100BB0008D9DF00D1124E55AFD4F81819281A38115
:100BC000B481E80188839983AA83BB838581F50179
:100BD000808381E090E002C080E090E0DF91CF91DF
:100BE0001F910F91FF90EF90DF90CF90BF90AF904B
:100BF00008950C947D090F931F930E948C09009116
:100C0000ED021091EE022091EF023091F002600FA0
:100C1000711F821F931F1F910F9108959C0160E91E
:100C200071E00E94D00C892B79F0C901837099275B
:100C3000892B61F4C90164E670E00E94D00C9C012C
:100C400081E0232B21F402C081E0089580E0089523
:100C50002F923F924F925F926F927F928F929F92CC
:100C6000AF92BF92CF92DF92EF92FF920F931F93BA
:100C7000CF93DF93CDB7DEB767970FB6F894DEBF9B
:100C80000FBECDBF2CE0EDE9F1E0AE014F5F5F4F4D
:100C90001A01DA0101900D922A95E1F7DC012C91FD
:100CA000220F2056322F330F330F230F11963C9112
:100CB00011973153230F2D8713962C911397022EE2
:100CC000000C330B205331096AE0629FA001639F3F
:100CD000500D11241496CC900C2C000CDD08B0E3C0
:100CE000CB1AD108C40ED51E860101501109FC0192
:100CF0002681022E000C330B20533109E8EEF3E07D
:100D00002E9FA0012F9F500D3E9F500D1124DC01FE
:100D100017962C911797022E000C330B2053310994
:100D200074E6729F7001739FF00C1124E40EF51E9F
:100D300018964C911897042E000C550B40535109EE
:100D4000649F9001659F300D1124E20EF31E1996E9
:100D50002C911997F701E20FF11D27FDFA95AF01CC
:100D600058507A011B962C911B97220F2056322F38
:100D7000330F330F230F1C963C911C973053230FD6
:100D8000298B1E962C911E97220F2056322F330F3F
:100D9000330F230F1F963C911F973053230F2A8B3D
:100DA00051962C915197220F2056322F330F330F2B
:100DB000230F52968C918053280F2B8BCA010E94CF
:100DC0000E06882321F05D85523008F08601C701A8
:100DD00060E971E00E94D00CFC01DB0120E839E5FC
:100DE00040E650EF0E94480D2B013C01CF0164E624
:100DF00070E00E94D00CFC01DB0120E032EC47E106
:100E00005CEB0E94480D4B015C01DF01B695A79594
:100E1000B695A79520E83FE146E857E00E94480DC7
:100E20006B017C01DF01A370BB2720E833E341EEB7
:100E300051E00E94480D6C8B7D8B8E8B9F8BF10156
:100E40008E2F82199D85891720F48191080F111D1D
:100E5000F7CFA9892A2F30E0A0E1BEE00E94390D2A
:100E60006D877E878F87988BBA892B2F30E0ACE314
:100E7000B0E00E94390D2D853E854F855889260F9B
:100E8000371F481F591FDA01C9013B89830F911D84
:100E9000A11DB11D480E591E6A1E7B1E840C951C97
:100EA000A61CB71CC80CD91CEA1CFB1C8C899D898C
:100EB000AE89BF89C80ED91EEA1EFB1ED80120E8E4
:100EC00031E541E050E00E94480DDC01CB018C0D82
:100ED0009D1DAE1DBF1D8093ED029093EE02A09369
:100EE000EF02B093F00267960FB6F894DEBF0FBE24
:100EF000CDBFDF91CF911F910F91FF90EF90DF90C9
:100F0000CF90BF90AF909F908F907F906F905F90A9
:100F10004F903F902F900C949809EF92FF920F936F
:100F20001F93CF93DF93CDB7DEB768970FB6F894D2
:100F3000DEBF0FBECDBF7B012CE0EDE9F1E0DE01AD
:100F40001D9601900D922A95E1F78E010F5F1F4FBC
:100F50002CE0F80111922A95E9F70E940E068A8387
:100F6000DE011D9680E0F701408151819D91F801DD
:100F700021918F0130E0290F311D4217530740F0B6
:100F8000421B530BF701518340838F5F8C3059F71D
:100F900068960FB6F894DEBF0FBECDBFDF91CF913C
:100FA0001F910F91FF90EF9008954F925F926F9273
:100FB0007F928F929F92AF92BF92CF92DF92EF92E9
:100FC000FF92CF93DF9300D0CDB7DEB72B013C016A
:100FD00081E090E0A0E0B0E020E8421629E552066A
:100FE00020E6620620EF720618F480E090E0DC0153
:100FF00020E931E0829F5001839FB00C929FB00C9A
:10100000112480E3A81A88EFB80AC12CD12C7601EC
:10101000C39420E8421629E5520620E6620620EF36
:10102000720618F4C12CD12C7601A701960160E854
:1010300079E580E690EF0E94C00C73016201C61A48
:10104000D70AE80AF90A81E090E0A0E0B0E0C11414
:1010500022ECD20627E1E2062CEBF20618F480E03F
:1010600090E0DC0144E6489F9001499F300D112437
:10107000A20EB31E21E030E040E050E0C11482EC4B
:10108000D80687E1E8068CEBF80618F420E030E09B
:10109000A90160E072EC87E19CEB0E94C00CA70103
:1010A0009601261B370B480B590BCA01B90120E8E2
:1010B0003FE146E857E00E94F80C220F331F220F51
:1010C000331FA20EB31E20E833E341EE51E00E942D
:1010D000F80C7501E20EF31E20E831E541E050E026
:1010E0000E94F80C4B015C013A832983BE016F5FBB
:1010F0007F4FC7010E948D07D82EC501B40120E1A2
:101100003EE040E050E00E94F80C29013A014B011A
:101110005C0169EA71E089E491E00E94EC086D2DC0
:1011200070E06F5F7F4F42E089E491E00E94F60833
:1011300069817A816F5F7F4F42E08CE491E00E9489
:10114000F60844E0B7018FE491E00E94F60842E01F
:10115000B20184E591E00E94F608C501B4012CE3D8
:1011600030E040E050E00E94F80C49015A016B0168
:101170007C0142E0B40187E591E00E94F60842E07C
:10118000B6018AE591E00E94F60889E491E00F90AB
:101190000F90DF91CF91FF90EF90DF90CF90BF90B5
:1011A000AF909F908F907F906F905F904F90089539
:1011B0000F931F930E948C090091ED021091EE0293
:1011C0002091EF023091F002600F711F821F931F78
:1011D0001F910F910C94D507FC01DB018D91BD018E
:1011E000882311F08193F9CF108208959F92AF92D6
:1011F000BF92CF92DF92EF92FF920F931F93CF9304
:10120000DF9300D000D01F92CDB7DEB7FC016B0199
:101210009E012F5F3F4F8E010A5F1F4FEE24E39424
:10122000F12C9AE0992E9E9C50019F9CB00C1124A9
:10123000C601B5010E94D00CB7010E94D00CD901A3
:101240006D939D01C61AD10867FDD3947501A0174F
:10125000B10749F760E070E084E090E050E0D80129
:101260002E918D01211105C06115710511F40097B2
:1012700041F4841795072CF4205D219361E070E020
:1012800004C0841795070CF43196019740F70F902E
:101290000F900F900F900F90DF91CF911F910F91B2
:1012A000FF90EF90DF90CF90BF90AF909F90089508
:1012B0001F920F920FB60F9211248F939F93AF93AB
:1012C000BF938091DB029091DC02A091DD02B0918E
:1012D000DE020196A11DB11D8093DB029093DC021A
:1012E000A093DD02B093DE02BF91AF919F918F91E9
:1012F0000F900FBE0F901F90189583E294EF90937C
:10130000890080938800109280008CE08093810097
:1013100082E080936F0008952FB7F8946091DB020C
:101320007091DC028091DD029091DE022FBF089562
:101330008FB7F8941092DB021092DC021092DD025B
:101340001092DE028FBF08950E94CE0B789408950C
:101350000C94660CCF93DF93EC018991882319F0EC
:101360000E94660CFACFDF91CF910895CF93C82FDA
:1013700090E024E0959587952A95E1F78A3010F45E
:10138000805D01C0895C0E94660C8C2F8F708A3052
:1013900010F0895C01C0805DCF910C94660CCF93F6
:1013A000C82F892F0E94B6098C2FCF910C94B609B3
:1013B0002F923F924F925F926F927F928F929F9265
:1013C000AF92BF92CF92DF92EF92FF920F931F9353
:1013D000CF93DF93CDB7DEB763970FB6F894DEBF38
:1013E0000FBECDBF6B017C0197FF0DC0F094E09460
:1013F000D094C094C11CD11CE11CF11C81E090E090
:101400009B8B8A8B02C01B8A1A8AFE0131965F0170
:101410008E01055F1F4FF98BE88B66246394712C56
:10142000812C912CAAE0B0E09301A4010E94480D08
:101430001B012C01C701B6019101A2010E941A0DE6
:101440009301A4010E941A0DE889F9892193F98B6F
:10145000E88B822F220F990BAA0BBB0BC81AD90A53
:10146000EA0AFB0A310142010E171F07D9F68A89E1
:101470009B89892B11F08DE201C080E20E94660CED
:1014800020E030E0F80182918F01811106C0211522
:10149000310519F4EA15FB0529F4805D0E94660CFC
:1014A00021E030E00A151B0569F763960FB6F89442
:1014B000DEBF0FBECDBFDF91CF911F910F91FF9087
:1014C000EF90DF90CF90BF90AF909F908F907F90E4
:1014D0006F905F904F903F902F9008952F923F9282
:1014E0004F925F926F927F928F929F92AF92BF9234
:1014F000CF92DF92EF92FF920F931F93CF93DF93E0
:10150000CDB7DEB764970FB6F894DEBF0FBECDBF80
:101510008C016115710509F492C0812C912C540144
:10152000CB01A0E0B0E0898B9A8BAB8BBC8BDE014A
:1015300011961D0189899A89AB89BC8988169906FB
:10154000AA06BB0608F07BC0812F0E94B609802F37
:10155000807F0E94B60980E20E94A809610178019B
:10156000412C512C320141E0B601C7010E94FA0121
:10157000BFEFEB1AFB0AEFEF4E1A5E0A6E0A7E0A05
:10158000FFEF8F1A9F0AAF0ABF0A89899A89AB8930
:10159000BC8988169906AA06BB0650F068019FE030
:1015A000C922DD2400E010E032016C0C7D1C09C072
:1015B000AFEFCA1ADA0AC7018F709927892B99F6FB
:1015C000EDCF0C151D0518F00615170528F08DEB4D
:1015D00091E00E94AA090BC0F801EC19FD09E20D87
:1015E000F31D80810E94B60980E20E94A8090F5F66
:1015F0001F4F0031110529F700E010E0C016D10699
:1016000031F080E20E94A8090F5F1F4FF7CF8101E0
:10161000C801821993098415950558F4F801819140
:101620008F0190EE980F903608F08EE20E94A80984
:10163000EFCF81EC91E00E94AA0987017BCF6496ED
:101640000FB6F894DEBF0FBECDBFDF91CF911F91D3
:101650000F91FF90EF90DF90CF90BF90AF909F9051
:101660008F907F906F905F904F903F902F90089554
:101670001F920F920FB60F9211242F933F938F93C7
:101680009F932091E5023091E6028091E1029091D2
:10169000E2022817390749F08091E5029091E602AD
:1016A00001969093E6028093E5022091E702309143
:1016B000E8028091E3029091E4022817390749F08B
:1016C0008091E7029091E80201969093E80280935E
:1016D000E7029F918F913F912F910F900FBE0F9036
:1016E0001F90189589EF87BD82E084BD93E095BD7A
:1016F00080936E0008958230910550F4F894880F1D
:10170000991FFC01EB51FD4F8081918178940895E0
:1017100080E090E008958230910598F4880F991F39
:10172000FC01EB51FD4F20813181FC01EF51FD4F58
:1017300081E090E0408151814217530721F080E021
:10174000089580E090E008950F931F93CF93DF9367
:10175000EC018B018091DF029091E002892B41F432
:101760000E94720B81E090E09093E0028093DF0290
:10177000C230D10570F48FB7F894CC0FDD1FFE0195
:10178000EF51FD4F11830083CB51DD4F1982188239
:101790008FBFDF91CF911F910F9108951092C000DC
:1017A00087E690E09093C5008093C400E1ECF0E000
:1017B00088E1808386E08093C2008081806A808394
:1017C00008951F920F920FB60F9211242F938F93AB
:1017D0009F93EF93FF938091EB022091EC0290E0B6
:1017E000821B910901978F739927892B79F0E091DA
:1017F000EC02F0E08091C600EF50FD4F80838091B5
:10180000EC028F5F8F738093EC0202C08091C60060
:10181000FF91EF919F918F912F910F900FBE0F909D
:101820001F9018951F920F920FB60F9211242F93AD
:101830008F939F93EF93FF938091EA022091E902A7
:1018400090E0821B91098F739927892B79F0E091A1
:10185000E902F0E0EF5CFC4F80818093C60080914C
:10186000E9028F5F8F738093E90205C08091C10008
:101870008F7D8093C100FF91EF919F918F912F9168
:101880000F900FBE0F901F9018958091EC029091D1
:10189000EB02891B8F7308958091EC022091EB027B
:1018A00090E0821B91098F739927892B69F0E09151
:1018B000EB02F0E0EF50FD4F80819091EB029F5FD3
:1018C0009F739093EB02089580E008950FB607FE92
:1018D0000EC02091E9029091EA0230E0291B310903
:1018E000215031092F733327232B99F30DC02091F9
:1018F000E9029091EA0230E0291B310921503109B7
:101900002F733327232B61F0E091EA02F0E0EF5CC4
:10191000FC4F80838091EA028F5F8F738093EA028D
:101920008091C10080628093C10008951F93CF937E
:10193000DF93EC0180E011E0180FFE01E80FF11DCC
:101940008081882321F00E94660C812FF4CFDF91E3
:10195000CF911F9108951F93CF93DF93EC0180E007
:1019600011E0180FFE01E80FF11D8491882321F08A
:101970000E94660C812FF4CFDF91CF911F910895C3
:10198000DB018F939F930E94480DBF91AF91A29F5F
:10199000800D911DA39F900DB29F900D112408956D
:1019A000AA1BBB1B51E107C0AA1FBB1FA617B70785
:1019B00010F0A61BB70B881F991F5A95A9F78095A1
:1019C0009095BC01CD01089597FB072E16F4009465
:1019D00007D077FD09D00E94D00C07FC05D03EF45B
:1019E000909581959F4F0895709561957F4F0895CB
:1019F000A1E21A2EAA1BBB1BFD010DC0AA1FBB1F13
:101A0000EE1FFF1FA217B307E407F50720F0A21B84
:101A1000B30BE40BF50B661F771F881F991F1A94F1
:101A200069F760957095809590959B01AC01BD011B
:101A3000CF010895052E97FB1EF400940E94310DEE
:101A400057FD07D00E94F80C07FC03D04EF40C940D
:101A5000310D50954095309521953F4F4F4F5F4F39
:101A6000089590958095709561957F4F8F4F9F4F0A
:101A70000895A29FB001B39FC001A39F700D811D67
:101A80001124911DB29F700D811D1124911D089587
:101A90000E94390DA59F900DB49F900DA49F800DBD
:0A1AA000911D11240895F894FFCF62
:101AAA00030B443100802500002D00040B44300054
:101ABA00802500002D0002060024F400010C617448
:081ACA006D65676133323800DD
:101AD20041535500FF03FE030000010000C0A801AE
:101AE2006400534552004A617265640000000000C0
:101AF200000048616D00000000000000000031326B
:101B020033343536373839000000000000004A61AE
:101B12007248616D555341000030302F30302F3004
:101B22003030302030303A30303A30300053455285
:101B3200203438362050726F6A6563742032202D4B
:101B4200204A617265642048616D0A0D000A0D0029
:101B52002D2D2D202D2E2D200030312F30312F32E2
:101B62003031392030303A30303A3030001F1C1FCB
:101B72001E1F1E1F1F1E1F1E1F30302F30302F3002
:101B82003030302030303A30303A303000202020AF
:041B9200000D0A0038
:00000001FF
