:100000000C9447000C9464000C9464000C946400FD
:100010000C9464000C9464000C94E2230C9464002F
:100020000C9464000C9464000C9464000C940B1BFE
:100030000C9464000C9464000C9451050C946400BE
:100040000C9464000C9464000C9418240C944025C7
:100050000C9464000C9464000C94210C0C946400C7
:100060000C9464000C946400C800EB009A039101A6
:10007000E500F5006D0187019A039D01621A811A5E
:100080008F1A991AB31ABD1AC81AE11AEB1A112459
:100090001FBECFEFD8E0DEBFCDBF14E0A0E0B1E0DF
:1000A000EAE2FFE402C005900D92A434B107D9F74B
:1000B00026E0A4E4B4E001C01D92A734B207E1F742
:1000C0000E9423260C947F270C94000065E971E0C0
:1000D00080E00E947F166FEA71E080E00E947F1648
:1000E00063EE72E080E00E947F1680E00C94821440
:1000F00063EC71E080E00E947F166FEA71E080E0BF
:100100000E947F1663EE72E080E00E947F1680E01E
:100110000C9482141F93CF93DF931F92CDB7DEB759
:100120001EE141E050E0BE016F5F7F4F80E00E9422
:10013000CB1489818F3219F0115099F709C064ED01
:1001400071E080E00E943A1811E0811101C010E0D6
:10015000812F0F90DF91CF911F910895CF92DF9261
:10016000EF92FF920F931F93CF93DF9300D000D0B5
:100170001F92CDB7DEB7E09149048E2F90E08A3010
:10018000910508F0D7C2FC01EC5CFF4F0C94582796
:1001900062E072E080E00E943A18882311F084E067
:1001A00011C066E072E080E00E943A18882311F0E6
:1001B00085E008C06AE072E080E00E943A18882377
:1001C00041F086E080934404B5C00E948A0081110A
:1001D0003AC081E0AFC080E00E940515892B09F488
:1001E00094C280E00E949018F6CF0E948A00882373
:1001F00081F361E172E080E00E943A18882309F4FB
:100200004EC06AE172E080E00E943A188823E9F06B
:1002100084E292E00E945E1B1092480466E474E05F
:1002200080E00E94D9188823A1F260914604709161
:100230004704072E000C880B990B0E948C1B83EE41
:1002400092E00E945E1B87E075C063E472E080E08C
:100250000E943A18882331F08DE492E00E945E1BE0
:1002600081E01AC06CE672E080E00E943A188823B0
:1002700031F086E792E00E945E1B82E00DC065E9E6
:1002800072E080E00E943A18882309F4A2CF8FE937
:1002900092E00E945E1B83E080934804BFCF6EEB28
:1002A00072E080E00E943A18882309F492CF66EC4D
:1002B00072E080E00E943A18882319F010924504F9
:1002C000C2CF6EEC72E080E00E943A18882309F4F5
:1002D00080CF81E080934504B6CF0E948A008823B6
:1002E00009F477CF65ED72E080E00E943A18882328
:1002F00009F46FCFBE016F5F7F4F80E00E94091548
:100300008981803209F065CF0E94D60E9CCF6AEDBC
:1003100072E080E00E943A18882309F45ACF83E003
:1003200009C080E00E941818811103C00E94901833
:10033000F8CF89E080934904FDC180914404843062
:1003400009F0BDC163EC71E080E00E947F1666EEAB
:1003500072E080E00E947F166FEA71E080E00E9408
:100360007F1663EE72E080E00E947F1664E173E026
:1003700080E00E947F166FE073E080E00E94A0168C
:1003800063E173E080E00E947F1666E173E080E045
:100390000E94A0166CE173E080E00E947F1664E981
:1003A00075E080E00E94A01664E673E080E00E94A1
:1003B0007F166EE173E080E00E94A0166CE173E0AE
:1003C00080E00E947F1660EA75E080E00E94A0163F
:1003D00064E673E080E00E947F166BE273E080E0E9
:1003E0000E94A0166CE173E080E00E947F166CEA28
:1003F00075E080E00E94A01664E673E080E00E9451
:100400007F1669E373E080E00E94A0166CE173E060
:1004100080E00E947F164091B8055091B905609127
:10042000BA057091BB0580E00E94B31664E673E0E4
:1004300080E00E947F166AE473E080E00E94A016CC
:100440006CE173E080E00E947F166CEB75E080E069
:100450000E94DE1664E673E080E00E947F1666E587
:1004600073E080E00E94A0166CE173E080E00E94DF
:100470007F1662EC75E080E00E94A01663E673E0F0
:1004800080E00E947F1666E673E080E00E94A0167E
:100490006CE173E080E00E947F16609139057091F5
:1004A0003A0580E00E94141764E673E080E00E9441
:1004B0007F166FE673E080E00E94A0166CE173E0A7
:1004C00080E00E947F1660913B0570913C0580E0C2
:1004D0000E94141764E673E080E00E947F1668E7CC
:1004E00073E080E00E94A0166CE173E080E00E945F
:1004F0007F1660913D0570913E0580E00E941417C3
:1005000064E673E080E00E947F1661E873E080E0BB
:100510000E94A0166CE173E080E00E947F1660915B
:100520003F057091400580E00E94141764E673E077
:1005300080E00E947F166AE873E080E00E94A016C7
:100540006CE173E080E00E947F160E94341ABC01C7
:1005500080E00E94141764E673E080E00E947F163A
:1005600066E973E080E00E94A0166CE173E080E031
:100570000E947F160E94341A2091390530913A0565
:1005800082179307C4F420913B0530913C058217F4
:100590009307A4F420913D0530913E0528173907B3
:1005A00084F420913F05309140052817390764F401
:1005B0006BEF71E00BC06BED71E008C063EE71E0B2
:1005C00005C06BEE71E002C063EF71E080E00E9455
:1005D000A01664E673E080E00E947F1666ED72E08C
:1005E00080E00E94A0166CE973E080E00E947F1614
:1005F000C12CD12C760186010E94F30E90E0C81622
:10060000D9060CF04EC09E012B5F3F4FAE014F5FED
:100610005F4FC701B6010E940C0F64E173E080E0F8
:100620000E947F166FE973E080E00E94A0166CE1E3
:1006300073E080E00E947F1669817A818B819C81C2
:100640000E940412BC0180E00E94A01664E673E0E0
:1006500080E00E947F1669EA73E080E00E94A016A5
:100660006CE173E080E00E947F166D8170E080E0B5
:100670000E94141760EB73E080E00E947F160E94D6
:10068000F30E90E001970817190729F064E673E06C
:1006900080E00E947F168FEFC81AD80AE80AF80A8D
:1006A000AACF6FEA73E080E00E947F1663EE72E0EB
:1006B00080E00E947F1680E00E94821439C085305D
:1006C000A9F580914504882329F00E9478000E94B2
:1006D000FF232EC0809148048130D1F058F0823041
:1006E000F1F0833029F580914604909147040E94EF
:1006F000F70306C080914604909147040E94B1031D
:10070000892B19F40E94780013C00E94660010C063
:1007100080914604909147040E94C603F1CF8091D6
:100720004604909147040E94E203EACF863051F3D9
:10073000109249040F900F900F900F900F90DF913F
:10074000CF911F910F91FF90EF90DF90CF90089580
:100750001092490410924504089581E08093490461
:10076000089520913B0530913C05281739075CF42A
:1007700090933A05809339050E94D9040E9425057B
:1007800080E090E0089581E090E00895209139059F
:1007900030913A058217930794F420913F053091E8
:1007A0004005281739075CF490933C0580933B057E
:1007B0000E94D9040E94250580E090E0089581E020
:1007C00090E0089520913F053091400582179307EE
:1007D0005CF490933E0580933D050E94D9040E94ED
:1007E000250580E090E0089581E090E00895209153
:1007F0003D0530913E052817390794F420913B05BB
:1008000030913C05821793075CF4909340058093E8
:100810003F050E94D9040E94250580E090E00895DC
:1008200081E090E0089508958F929F92AF92BF92D9
:10083000EF92FF920F931F93CF93DF9300D000D0DE
:100840001F92CDB7DEB77C018091300190913101CC
:10085000A0913201B091330189839A83AB83BC8329
:1008600048EB52E2BE016F5F7F4F83E00E9490131E
:1008700048EB52E2BE016F5F7F4F83E00E94A717F3
:100880000E9407130E94B1198C010E94071398015E
:10089000AC0160E070E083E00E945C160E940713E8
:1008A0000E94B1198C0121E030E046ED53E0BC011B
:1008B00083E00E945C160F5F1F4F8CEA95E00E9458
:1008C000B1199C014CEA55E0B80183E00E945C1626
:1008D0008CEA95E00E94B119080F191F21E030E061
:1008E00046ED53E0B80183E00E945C16B8016F5FEB
:1008F0007F4FC70124E0969587952A95E1F78A30C6
:10090000910510F0895C01C0805D8D8321E030E0AD
:10091000AE014B5F5F4F83E00E945C16B8016E5FD3
:100920007F4F8E2D8F7097012F7033272A3031051E
:1009300010F0895C01C0805D8D8321E030E0AE0164
:100940004B5F5F4F83E00E945C1683E00E94CC17F0
:100950000E9407064B015C0125EF820E21E0921EEA
:10096000A11CB11C0E940706681579058A059B0524
:10097000C9F783E00E943D148EEC93E00E945E1B59
:10098000B70180E090E00E948C1B83EE92E00E9411
:100990005E1B0F900F900F900F900F90DF91CF91F3
:1009A0001F910F91FF90EF90BF90AF909F908F900D
:1009B000089581E080934A0408958091350581343B
:1009C00061F480913605833541F481E090E0209117
:1009D0003705253521F080E002C080E090E0E5E3B6
:1009E000F5E020E03191230F35E0E834F307D1F74B
:1009F000222311F080E090E0089562E170E082E04F
:100A000091E00E94911C42E162E071E080E490E09C
:100A10000C94670C0E94B00C892BE1F742E165E36E
:100A200075E080E490E00E949B0C0E94DD04892B1D
:100A300049F40E94FD0442E165E375E080E490E042
:100A40000E949B0C10924A0408950E94B00C892BBE
:100A500099F480914A04882379F062E170E085E39B
:100A600095E00E94911C42E165E375E080E490E02E
:100A70000E94670C10924A04089580914A048823CA
:100A800079F062E170E085E395E00E94911C42E11B
:100A900065E375E080E490E00E94840C10924A04C3
:100AA00008951F920F920FB60F9211242F933F9328
:100AB0008F939F93AF93BF93209155043091560429
:100AC00080914D0490914E042817390749F0809188
:100AD00055049091560401969093560480935504C2
:100AE000209157043091580480914F049091500404
:100AF0002817390749F080915704909158040196BE
:100B0000909358048093570480915104909152041B
:100B1000A0915304B09154040196A11DB11D80937E
:100B2000510490935204A0935304B0935404BF9182
:100B3000AF919F918F913F912F910F900FBE0F908A
:100B40001F90189589EF87BD82E084BD93E095BD25
:100B5000789480936E001092510410925204109277
:100B600053041092540408958230910550F4F8947F
:100B7000880F991FFC01EB5AFB4F8081918178947B
:100B8000089580E090E008958230910598F4880FF0
:100B9000991FFC01EB5AFB4F20813181FC01E35B83
:100BA000FB4F81E090E0408151814217530721F0D3
:100BB00080E0089580E090E008950F931F93CF9315
:100BC000DF93EC018B0180914B0490914C04892BB5
:100BD00041F40E94A20581E090E090934C04809340
:100BE0004B04C230D10570F48FB7F894CC0FDD1FE1
:100BF000FE01E35BFB4F11830083CB5ADB4F19826D
:100C000018828FBFDF91CF911F910F91089580912E
:100C10004B0490914C04892B41F40E94A20581E081
:100C200090E090934C0480934B04F89460915104AD
:100C300070915204809153049091540478940895D3
:100C400087E694E008958BE694E008958FE694E0BB
:100C5000089583E794E0089587E794E0089544E1D8
:100C600050E060E00E960C94861908952F923F9202
:100C70004F925F926F927F928F929F92AF92BF92AC
:100C8000CF92DF92EF92FF920F931F93CF93DF9358
:100C9000CDB7DEB7E6970FB6F894DEBF0FBECDBF77
:100CA0008C012A013B0119011AAA19AA0E94070600
:100CB0004B015C0182E00E940715892BF9F40E9428
:100CC0000706DC01CB0188199909AA09BB09481656
:100CD00059066A067B0608F4A7C00E9407066B0146
:100CE0007C0123E3C20ED11CE11CF11C0E9407060B
:100CF0006C157D058E059F05C9F7DCCF48E050E0F7
:100D0000BE016D5D7F4F82E00E946315FFA08BA145
:100D10008BA78CA18CA78DA18DA78EA18EA7E8A4EF
:100D200042E250E0BE016F5F7F4F82E00E94631598
:100D30008981823009F076C08F2D90E0982F882726
:100D40008E0D911D8334910509F06CC06D817E81FB
:100D50008F8198850E945E27F10160837183828371
:100D6000938346E050E0B801685F7F4FCE014D9617
:100D70000E949019892B09F059C0F101808191815D
:100D8000A281B381F801408151816281738184170E
:100D90009507A607B70708F449C0448155816681C5
:100DA0007781481759076A077B0708F43FC044E07A
:100DB00050E0BE016F5E7F4FC8010E960E947A1907
:100DC0008EECE82EF12C41E050E0BE01615D7F4FDA
:100DD00082E00E946315F1E0EF1AF108A1F7C80163
:100DE00082969CAB8BABF801B696FEABEDAB1801CF
:100DF000FAE22F0E311C08976C012E019BE2490E7E
:100E0000511C3801E2E16E0E711C5801F6E1AF0E83
:100E1000B11C48012EE1820E911C82E00E94071550
:100E2000892B31F48AA924C18FEF22C180E020C12F
:100E300041E050E0BE01605D7F4F82E00E9463159B
:100E400088A9833309F4E0C0D0F48130B9F128F3E4
:100E5000833009F442C0863009F0F5C041E050E02B
:100E6000BE016F5C7F4F82E00E94631544E050E05A
:100E7000B40182E00E946315E12CF12C51C08A3349
:100E800009F48DC030F4853359F0863309F45BC022
:100E9000DAC08B3309F49EC08F3F09F4BECFD3C0B4
:100EA00041E050E0BE016F5C7F4F82E00E9463151D
:100EB00041E050E0BE016E5C7F4F0BC041E050E06E
:100EC000BE016F5C7F4F82E00E94631544E050E0FA
:100ED000B30182E00E946315A0CF41E050E0BE0163
:100EE0006F5C7F4F82E00E94631544E050E0B501E3
:100EF00082E00E946315E12CF12C89A990E004970F
:100F0000E816F9060CF089CF41E050E0BE01615DC2
:100F10007F4F82E00E9463158FEFE81AF80AEDCF49
:100F200089A990E00497E816F9060CF076CF41E025
:100F300050E0BE01615D7F4F82E00E9463159FEF2C
:100F4000E91AF90AEDCF41E050E0BE016F5C7F4F36
:100F500082E00E946315F801828D811109C0838DA2
:100F6000811106C0848D811103C0858D882319F0FD
:100F70004C145D0421F444E050E0B601AACF89A9E5
:100F80009FEF980F99AB882309F447CF41E050E0D9
:100F9000BE01615D7F4F82E00E946315F0CF41E0AA
:100FA00050E0BE016F5C7F4F82E00E94631544E019
:100FB00050E06DA97EA982E00E946315F80166A148
:100FC00077A180A591A50E945E2766A377A380A73D
:100FD00091A723CF41E050E0BE016F5C7F4F82E0DC
:100FE0000E94631544E050E0B10182E00E94631565
:100FF000F80162A573A584A595A50E945E2762A746
:1010000073A784A795A709CF41E050E0BE016F5CAC
:101010007F4F82E00E94631544E050E06BA97CA9F9
:1010200082E00E946315F80162A173A184A195A1D9
:101030000E945E2762A373A384A395A366A777A7E4
:1010400080AB91ABEACE41E050E0BE016F5C7F4FD8
:1010500082E00E94631589A99FEF980F99AB8823BE
:1010600009F4DBCE41E050E0BE01615D7F4FF0CF7F
:10107000E6960FB6F894DEBF0FBECDBFDF91CF91DD
:101080001F910F91FF90EF90DF90CF90BF90AF90A6
:101090009F908F907F906F905F904F903F902F9098
:1010A00008950E96089542960895469608954A9694
:1010B00008954E96089580E3FB0180833296842F35
:1010C00082958F7090E1899F401911244A3014F461
:1010D000405D01C0495C4293482F8111F0CF0895D3
:1010E000AF92BF92DF92EF92FF920F931F93CF9335
:1010F000DF93CDB7DEB7AA970FB6F894DEBF0FBE69
:10110000CDBF8C01D62EF42EE52E40E250E060E0FB
:10111000CE0101960E94861980913401909135018B
:10112000A0913601B09137018DA39EA3AFA3B8A7BC
:1011300043E450E0BE016B5D7F4F82E00E94A71741
:10114000892B09F4FBC081E089838A8386E08B8345
:101150001C82F80164817581868197810E945E27D7
:1011600069A37AA38BA39CA344E050E0BE016F5D0A
:101170007F4FCE0105960E947A19E986FA8680E8AB
:1011800090E09AA789A742E050E0BE01675D7F4FDB
:10119000CE010B960E947A192CE130E0AE014F5F30
:1011A0005F4F60E070E082E00E945C1640E250E039
:1011B00060E0CE0101960E9486195801F8E0AF0E5A
:1011C000B11C46E050E0B501CE0101960E947A19AB
:1011D00020E130E0AE014F5F5F4F6CE170E082E0F4
:1011E0000E945C1640E250E060E0CE0101960E9451
:1011F00086198CE2E82EF12C20E230E0AE014F5F40
:101200005F4FB70182E00E945C1680E2E80EF11C9D
:10121000ECEEEE16F10481F783E6898392E89A8377
:1012200093E59B838C8385E38D8381E08E83DF82CE
:101230009DE3988797E099878A8746E050E0B5015B
:10124000CE010B960E947A198CE0898B88ED93E091
:101250000E94B1198A5F8A8B68ED73E0CE014396D4
:101260000E94A719F8014385BE01675E7F4FC80140
:101270000E945B08F8014485BE01655E7F4FC8018E
:101280000E945B08F8014585BE01635E7F4FC8017F
:101290000E945B082EE130E0AE014F5F5F4F6CEEC5
:1012A00070E082E00E945C16F3E0DF1227C082E368
:1012B000898384E08A83F80196859B8397859C8344
:1012C00090899D8391899E8396E39F838887828DF1
:1012D0008987838D8A87848D8B87858D8C872CE089
:1012E00030E0AE014F5F5F4F6AE071E082E00E9444
:1012F0005C1666E171E080E090E004C06AE071E0B5
:1013000080E090E027E3298326E02A8331E03B83D5
:1013100033E03C832D832FE02E832AE32F832BE3BE
:1013200028872FEF298729E030E0AE014F5F5F4F1C
:1013300082E00E945C1682E00E94CC17AA960FB64B
:10134000F894DEBF0FBECDBFDF91CF911F910F91FB
:10135000FF90EF90DF90BF90AF9008952F923F9253
:101360004F925F926F927F928F929F92AF92BF92B5
:10137000CF92DF92EF92FF920F931F93CF93DF9361
:1013800000D000D0CDB7DEB78C0120ED37E040E0D3
:1013900050E061E070E080E090E00E94C01CA0E0BE
:1013A000B0E0F80184839583A683B783808391831B
:1013B000A283B38382E00E943D1464E470E082E083
:1013C0000E943514882309F42EC10E9407064B01A0
:1013D0005C01212C312C7801F2E4EF0EF11C48EE77
:1013E000442E43E0542E612C712C52E0C52ED701BF
:1013F0008C91833009F4FEC081111FC0F8018481F3
:101400009581A681B7810196A11DB11D8483958325
:10141000A683B7830E940706681979098A099B0980
:10142000A30192010E941727A90161E0C8010E944F
:10143000700881E0D7018C93C5C08430F1F4F801C5
:1014400084819581A681B7810196A11DB11D8483F8
:101450009583A683B7830E940706681979098A09CC
:101460009B09A30192010E941727A90163E0C8010B
:101470000E947008D701CC92A5C0813051F5F801C7
:1014800042AD53AD64AD75AD9E012F5F3F4FC801B6
:101490000E943606D82EF2E08F138FC089819A8180
:1014A000AB81BC81F80184839583A683B7830E94B6
:1014B0000706681979098A099B09A30192010E940C
:1014C0001727A90163E0C8010E947008D701DC92C8
:1014D00079C0823009F076C0F80142AD53AD64ADF9
:1014E00075AD9E012F5F3F4FC8010E943606D82E72
:1014F000F5E08F135CC0E3E0D701EC93F80182A123
:1015000093A1A4A1B5A1892B8A2B8B2B41F484E84C
:1015100093E0A0E0B0E082A393A3A4A3B5A3F80155
:1015200086A197A1A0A5B1A5892B8A2B8B2B61F44D
:1015300082A193A1A4A1B5A1B695A79597958795EA
:1015400086A397A3A0A7B1A7F80182A593A5A4A5F8
:10155000B5A5892B8A2B8B2BA9F482A193A1A4A1D9
:10156000B5A1AC01BD0123E07695679557954795E8
:101570002A95D1F7841B950BA60BB70B82A793A7CF
:10158000A4A7B5A7F80186A197A1A0A5B1A586A794
:1015900097A7A0ABB1AB82A593A5A4A5B5A582AB37
:1015A00093ABA4ABB5AB22242394312C0BC0F6E053
:1015B0008F1303C0D7011C9205C0BFEFDB1202C01E
:1015C000F7011082F1E02F16310409F410CF0E94C8
:1015D0000706DC01CB0188199909AA09BB09F801A2
:1015E00026A937A940AD51AD281739074A075B072F
:1015F00008F0FDCE82E00E943D14F80184819581BF
:10160000A681B7810196A11DB11D84839583A68310
:10161000B7830E940706F801FE9660837183828378
:101620009383C10102C080E090E00F900F900F9073
:101630000F90DF91CF911F910F91FF90EF90DF906E
:10164000CF90BF90AF909F908F907F906F905F9062
:101650004F903F902F900895CF92DF92EF92FF929C
:101660000F931F93CF93DF93EC016B011AA21BA280
:101670001CA21DA21EA21FA218A619A61AA61BA66E
:101680001CA61DA62EAB3FAB48AF59AFEAAEFBAED2
:101690000CAF1DAF8C01085F1F4F46E050E060E0CB
:1016A000C8010E948619CE010E942F0646E050E034
:1016B000B601C8010E947A19FE01EE5BFF4F10824D
:1016C000CE01DF91CF911F910F91FF90EF90DF90AE
:1016D000CF900C94AE09EF92FF920F931F93780175
:1016E00089019A01AB01BC0189E594E00E942C0BB1
:1016F0001F910F91FF90EF900895CF92DF92EF929C
:10170000FF920F931F93CF93DF93EC010E94070684
:101710006B017C018E01025C1F4FF8018081918179
:10172000A281B381A7019601281B390B4A0B5B0BE1
:10173000CA01B901683E33E073078105910508F4D9
:1017400041C028EE33E040E050E00E941727C61A5F
:10175000D70AE80AF90AF801C082D182E282F3824C
:101760008EA59FA5A8A9B9A969017A01CC0CDD1C99
:10177000EE1CFF1C8C159D05AE05BF0528F41EA6AA
:101780001FA618AA19AA08C0821B930BA40BB50B9D
:101790008EA79FA7A8ABB9AB8AA99BA9ACA9BDA9E5
:1017A0008C159D05AE05BF0528F41AAA1BAA1CAA14
:1017B0001DAA08C0821B930BA40BB50B8AAB9BAB75
:1017C000ACABBDAB8EA59FA5A8A9B9A9892B8A2BC7
:1017D0008B2B69F4FE01EE5BFF4F8081833039F47F
:1017E00084E08083CE010E94AE09019602C080E0B1
:1017F00090E04AA95BA96CA97DA9452B462B472BF4
:1018000081F4FE01EE5BFF4F2081233011F02111A6
:1018100008C01082CE010E942F06CE010E94AE09A0
:101820000396DF91CF911F910F91FF90EF90DF9082
:10183000CF90089589E594E00C947D0BFA9AF99A7B
:1018400008951F920F920FB60F9211242F933F937A
:101850004F935F936F937F938F939F93AF93BF93B8
:10186000EF93FF93E0918B0580914A05E81720F0F4
:10187000FB98109247051AC0809148059091490540
:1018800092BD81BD81E08E0F80938B05F0E0E55B1A
:10189000FA4F808180BD809148059091490501965D
:1018A00090934905809348050E941E0CFF91EF918B
:1018B000BF91AF919F918F917F916F915F914F9168
:1018C0003F912F910F900FBE0F901F901895209170
:1018D00047052111FCCF909349058093480581E08D
:1018E0008093470510928B0540934A05962FABE4F1
:1018F000B5E0FB018E2F891B841718F481918D931D
:10190000F9CF7894FB9A0895FB01861B970B50E062
:10191000DC01AE0FBF1F9F01261B370B24173507B5
:1019200048F4F999FECFB2BDA1BD219120BDFA9A2C
:10193000F99AEECF0895209147052111FCCFFB01C4
:10194000861B970B2E2F261B241748F49C012E0F65
:101950003F1F32BD21BDF89A20B52193F3CF0895E2
:101960008091470590E0089560E070E080E090E0AD
:101970000E94DD05219A29980895299A08952998A9
:10198000089590939D0480939C041092A00410925B
:101990009F0410929E0460E070E080E090E00E945E
:1019A000DD050C94BF0C80919C0490919D04892BC3
:1019B00009F452C080E090E00E94C405892B09F42C
:1019C0004BC080919E04811134C020919F043091BE
:1019D000A004E0919C04F0919D04E20FF31F80812C
:1019E0008032E9F03CF481111DC01092A0041092E5
:1019F0009F0408958D3239F08E32A1F40E94BD0CFF
:101A00006AEF70E004C00E94BD0C6EEE72E080E0F0
:101A100090E00E94DD0581E080939E04089568EEC9
:101A200073E00BC02F5F3F4F3093A00420939F04BF
:101A300008950E94BF0C64E670E080E090E00E9490
:101A4000DD0510929E0480919F049091A004019660
:101A50009093A00480939F04089585B1869581702A
:101A600090E008958031910504F527E0289FA001BA
:101A7000299F500D1124FA01EC55FB4F80818132D2
:101A8000A0F480E090E020E0FA01E80FF91FEC55A7
:101A9000FB4F3081230F019687309105A9F781E034
:101AA00090E0222321F080E0089580E090E0089506
:101AB0006F927F928F929F92AF92BF92CF92DF925E
:101AC000EF92FF920F931F93CF93DF930E94B00C7E
:101AD000892BE1F704E115E0C0E8D0E0BE016C5DC0
:101AE0007B4F47E0CE010E949B0CF80111928F01C1
:101AF0002796C03FD10591F744EAE42E44E0F42E46
:101B00008701C0E0D0E0D12CB12C77247A94CE01AB
:101B10000E94320D892B41F0F8018081871520F455
:101B2000BC2E782EDD24D3942196095F1F4FC0313F
:101B3000D10569F7DD2009F46AC0B092A304709260
:101B4000A204CB2DD0E08E010F5F1F4F872C2FE01A
:101B5000A22E37E0932E6801FFE0CF22DD24C601DC
:101B60000E94320D892B61F4B092A1048E010150C4
:101B70001109609780E1A82EB12C97E0692E3AC038
:101B80009C9CF0019D9CF00D1124EC55FB4F408175
:101B9000242F30E0882D90E001968F719927281727
:101BA000390711F7C092A3044093A204AA940F5FCF
:101BB0001F4FAA20C9F2842ECECFF701208130E03A
:101BC000872D90E04F968F7199272817390731F5A7
:101BD000C092A104689CF001699CF00D1124EC55A1
:101BE000FB4F708001501109F7E0EF0EF11C0C174C
:101BF0001D07A1F0C801B5010E9403276C014C012B
:101C00009924C4010E94320D892BB9F607C08FE0D8
:101C10008093A3041092A2041092A104DF91CF91AB
:101C20001F910F91FF90EF90DF90CF90BF90AF90FA
:101C30009F908F907F906F900895EF92FF921F93E7
:101C4000CF93DF930E94B00C892B39F5E4E1F5E0E6
:101C5000C0E0D0E081918823E1F017E01C9FC00133
:101C60001D9F900D11249C012C553B4F790167E07D
:101C700070E0C9010E94911CC19FC001112447E07E
:101C8000B70180589F4F0E94670CCC5EDA4F1882D4
:101C900004C02196C031D105E9F6DF91CF911F91A3
:101CA000FF90EF900895EF92FF921F93CF93DF93F1
:101CB000E4E1F5E0C0E0D0E081918823E1F017E0B5
:101CC0001C9FC0011D9F900D11249C012C553B4F62
:101CD000790167E070E0C9010E94911CC19FC001B9
:101CE000112447E0B70180589F4F0E94840CCC5EBE
:101CF000DA4F188204C02196C031D105E9F6DF9190
:101D0000CF911F91FF90EF900895EF92FF920F9364
:101D10001F93CF93DF93E82EC091A304D0E02196C8
:101D2000CF70DD278091A10490E00E94320DF82E43
:101D30008091A2048F5F813218F48093A20402C0C4
:101D40001092A20487E08C9F80018D9F100D1124BA
:101D50000C551B4F8091A204F80180830E94311022
:101D6000F8016183728383839483E582C093A30423
:101D700067E070E0C8010E94911CCC5EDA4F81E000
:101D800088838091A3049091A104891308C0FF2047
:101D900031F090E001968F7099278093A104DF9134
:101DA000CF911F910F91FF90EF900895E4EAF4E036
:101DB000A4E1B5E08FEF4FEF5FEFBA0191E08083D0
:101DC000858341835283638374839D93379625E093
:101DD000E431F207A1F78FE08093A3041092A104ED
:101DE0001092A20408950F931F93CF93DF93009155
:101DF000A104C02F10E0D0E0CE010E94320D892B4B
:101E000029F02196CF701F5F0C13F5CF812FDF9142
:101E1000CF911F910F910895AF92BF92CF92DF9211
:101E2000EF92FF920F931F93CF93DF936B017C018F
:101E30008A0159010E94F30E90E0A0E0B0E0C816BC
:101E4000D906EA06FB06F8F48091A10490E0C80EDA
:101E5000D91E8FE0C822DD2487E08C9DF0018D9D86
:101E6000F00D1124EC55FB4F81819281A381B48147
:101E7000E80188839983AA83BB838581F5018083E8
:101E800081E090E002C080E090E0DF91CF911F916F
:101E90000F91FF90EF90DF90CF90BF90AF9008959B
:101EA0004F925F926F927F928F929F92AF92BF926A
:101EB000CF92DF92EF92FF920F931F93CF93DF9316
:101EC000CDB7DEB7CA57D1090FB6F894DEBF0FBE43
:101ED000CDBFF82E8091380190913901A0913A013F
:101EE000B0913B01E9968CAF9DAFAEAFBFAFE99724
:101EF00083E00E940014882329F06BE770E083E000
:101F00000E94351450E3E52E6E0101E4C00ED11C91
:101F100063E2462E512C612C712CFF2009F482C003
:101F2000F6010E2D11920A95E9F7F60140825182D1
:101F3000628273820BE710E09E012B583F4F40E313
:101F400050E0B60183E00E941115C09709F06AC005
:101F50000E9407064B015C01F9EE8F0EF3E09F1E15
:101F6000A11CB11C0E940706681579058A059B050E
:101F7000C9F783E00E940715009709F451C08E014C
:101F800007581F4F9E012F583F4FAC01BE016F5F96
:101F90007F4F83E00E948415C09709F041C069A576
:101FA000862F90E0A0E0B0E0BA2FA92F982F8827C5
:101FB0002AA5820F911DA11DB11DBA2FA92F982FFF
:101FC00088272BA5820F911DA11DB11DBA2FA92F06
:101FD000982F88274CA550E060E070E040585341AE
:101FE00069417C4B8A019B01080F191F2A1F3B1F67
:101FF000C901B8010E9404120E9457108FED93E0AE
:102000000E945E1B0E9407130E945E1B8CEE93E0F1
:102010000E945E1B83E00E943D1481E090E007C0B7
:10202000FA947BCF83E00E943D1480E090E0C65894
:10203000DF4F0FB6F894DEBF0FBECDBFDF91CF915B
:102040001F910F91FF90EF90DF90CF90BF90AF90D6
:102050009F908F907F906F905F904F9008950C9419
:10206000301B0C94401B60938C0570938D058093FE
:102070008E0590938F050C944C1B9C0160E971E0D8
:102080000E94EF26892B79F0C90183709927892B4B
:1020900061F4C90164E670E00E94EF269C0181E0D2
:1020A000232B21F402C081E0089580E008952F924F
:1020B0003F924F925F926F927F928F929F92AF92D8
:1020C000BF92CF92DF92EF92FF920F931F93CF9325
:1020D000DF93CDB7DEB767970FB6F894DEBF0FBEBC
:1020E000CDBF2CE0ECE3F1E0AE014F5F5F4F1A0192
:1020F000DA0101900D922A95E1F7DC012C91220F73
:102100002056322F330F330F230F11963C91119726
:102110003153230F2D8713962C911397022E000C09
:10212000330B205331096AE0629FA001639F500D79
:1021300011241496CC900C2C000CDD08B0E3CB1AC3
:10214000D108C40ED51E860101501109FC0126815B
:10215000022E000C330B20533109E8EEF3E02E9FE2
:10216000A0012F9F500D3E9F500D1124DC011796AA
:102170002C911797022E000C330B2053310974E673
:10218000729F7001739FF00C1124E40EF51E1896D7
:102190004C911897042E000C550B40535109649F25
:1021A0009001659F300D1124E20EF31E19962C91BB
:1021B0001997F701E20FF11D27FDFA95AF0158506D
:1021C0007A011B962C911B97220F2056322F330F2A
:1021D000330F230F1C963C911C973053230F298BF0
:1021E0001E962C911E97220F2056322F330F330F3D
:1021F000230F1F963C911F973053230F2A8B519624
:102200002C915197220F2056322F330F330F230F6B
:1022100052968C918053280F2B8BCA010E943D103F
:10222000882321F05D85523008F08601C70160E9FE
:1022300071E00E94EF26FC01DB0120E839E540E671
:1022400050EF0E9474272B013C01CF0164E670E03F
:102250000E94EF26FC01DB0120E032EC47E15CEB61
:102260000E9474274B015C01DF01B695A795B695D6
:10227000A79520E83FE146E857E00E9474276B01EC
:102280007C01DF01A370BB2720E833E341EE51E07E
:102290000E9474276C8B7D8B8E8B9F8BF1018E2F10
:1022A00082199D85891720F48191080F111DF7CFA0
:1022B000A9892A2F30E0A0E1BEE00E9465276D8742
:1022C0007E878F87988BBA892B2F30E0ACE3B0E004
:1022D0000E9465272D853E854F855889260F371F1B
:1022E000481F591FDA01C9013B89830F911DA11DA8
:1022F000B11D480E591E6A1E7B1E840C951CA61C1F
:10230000B71CC80CD91CEA1CFB1C8C899D89AE89A2
:10231000BF89C80ED91EEA1EFB1ED80120E831E590
:1023200041E050E00E947427DC01CB018C0D9D1D23
:10233000AE1DBF1D80938C0590938D05A0938E05D7
:10234000B0938F0567960FB6F894DEBF0FBECDBF72
:10235000DF91CF911F910F91FF90EF90DF90CF9081
:10236000BF90AF909F908F907F906F905F904F90B5
:102370003F902F900C944C1BEF92FF920F931F9362
:10238000CF93DF93CDB7DEB768970FB6F894DEBF73
:102390000FBECDBF7B012CE0ECE3F1E0DE011D962A
:1023A00001900D922A95E1F78E010F5F1F4F2CE0EF
:1023B000F80111922A95E9F70E943D108A83DE0107
:1023C0001D9680E0F701408151819D91F801219196
:1023D0008F0130E0290F311D4217530740F0421B97
:1023E000530BF701518340838F5F8C3059F7689608
:1023F0000FB6F894DEBF0FBECDBFDF91CF911F9116
:102400000F91FF90EF9008954F925F926F927F929D
:102410008F929F92AF92BF92CF92DF92EF92FF92F4
:10242000CF93DF9300D0CDB7DEB72B013C0181E025
:1024300090E0A0E0B0E020E8421629E5520620E650
:10244000620620EF720618F480E090E0DC0120E9DB
:1024500031E0829F5001839FB00C929FB00C1124F9
:1024600080E3A81A88EFB80AC12CD12C7601C39456
:1024700020E8421629E5520620E6620620EF7206A1
:1024800018F4C12CD12C7601A701960160E879E5FA
:1024900080E690EF0E94DF2673016201C61AD70A18
:1024A000E80AF90A81E090E0A0E0B0E0C11422EC73
:1024B000D20627E1E2062CEBF20618F480E090E069
:1024C000DC0144E6489F9001499F300D1124A20E83
:1024D000B31E21E030E040E050E0C11482ECD806A9
:1024E00087E1E8068CEBF80618F420E030E0A9015B
:1024F00060E072EC87E19CEB0E94DF26A701960169
:10250000261B370B480B590BCA01B90120E83FE1E4
:1025100046E857E00E941727220F331F220F331F70
:10252000A20EB31E20E833E341EE51E00E941727CC
:102530007501E20EF31E20E831E541E050E00E9413
:1025400017274B015C013A832983BE016F5F7F4FE0
:10255000C7010E94BC11D82EC501B40120E13EE0A4
:1025600040E050E00E94172729013A014B015C012D
:1025700062EF73E084E191E00E94A7196D2D70E095
:102580006F5F7F4F42E084E191E00E94BA19698158
:102590007A816F5F7F4F42E087E191E00E94BA1934
:1025A00044E0B7018AE191E00E94BA1942E0B20129
:1025B0008FE191E00E94BA19C501B4012CE330E02B
:1025C00040E050E00E94172749015A016B017C014D
:1025D00042E0B40182E291E00E94BA1942E0B60101
:1025E00085E291E00E94BA1984E191E00F900F908A
:1025F000DF91CF91FF90EF90DF90CF90BF90AF90A1
:102600009F908F907F906F905F904F9008950F9361
:102610001F930E94401B00918C0510918D05209105
:102620008E0530918F05600F711F821F931F1F91C0
:102630000F910C940412EF92FF920F931F93CF937C
:10264000DF938C01EB017A01009721F0209711F0C4
:10265000452B29F486E094E00E945E1BFFCF6BE1DE
:1026600074E00E94761C892B29F486E094E00E9495
:102670005E1B44C065E274E0CE010E94761C892B8B
:10268000A1F36EE274E0C7010E94761C892B69F306
:102690004CE050E0B80184E995E00E947A1910926C
:1026A0009F054CE050E0BE0180EA95E00E947A1957
:1026B0001092AB054CE050E0B7018CEA95E00E9427
:1026C0007A191092B705F80180818E7F8093BC053E
:1026D00081818093BD0582818093BE05888180932E
:1026E000BF0589818093C0058A818093C105DF91F0
:1026F000CF911F910F91FF90EF900895FFCF0E940F
:102700007325882361F00E947A258435C1F786E31A
:1027100094E00E945E1B8FEF90E00C9414040895E7
:10272000EF92FF921F93CF93DF9300D000D000D0A1
:10273000CDB7DEB7182F7A0186E0E8E4F1E0DE01DC
:10274000119601900D928A95E1F7FB0181818F77B7
:102750008C8382818D8383818E83812F0E94C62109
:10276000BE016F5F7F4F812F0E94B821B701812F7B
:102770000E94D421B701812F0E948F2162E8812F0E
:102780000E94602161E0812F0E94722181E02696E3
:102790000FB6F894DEBF0FBECDBFDF91CF911F9172
:1027A000FF90EF9008950E948B2191E0823209F012
:1027B00090E0892F08950E948B21882341F08C316D
:1027C00031F091E08A3109F490E0892F089580E09A
:1027D00008950E948B2191E0843109F090E0892FC7
:1027E00008950E948B2191E0873109F090E0892FB4
:1027F00008950E948B2191E0811190E0892F089526
:102800000C94F913CF93C82F60E10E9472216FEFEF
:102810008C2FCF910C947D210F931F93CF93DF9337
:10282000C82FD62F8A010E9402146D2F8C2F0E9470
:1028300060210115110511F0B8010AC0609124054D
:10284000709125056F5F7F4F709325056093240578
:102850008C2F0E948F2161E08C2F0E94722181E0D9
:10286000DF91CF911F910F910895AB0162E00C941D
:102870000C14AB0161E00C940C140C940214CF9373
:10288000C82F0E948B21833131F462E08C2F0E948B
:10289000722181E001C080E0CF9108950F931F93D2
:1028A000CF93FB0190819F3F51F491819F3F91F421
:1028B00092819F3F79F493819F3F61F41DC09111F4
:1028C00009C09181911106C09281911103C0938139
:1028D000992399F04115510579F08A01BF01C82F5C
:1028E0000E94C621B8018C2F0E94D42164E08C2F55
:1028F0000E94722191E001C090E0892FCF911F9139
:102900000F91089568E00C947221CF92DF92EF92BC
:10291000FF920F931F93CF93C82F7B018A01413001
:10292000584010F000E018E08C2F0E944F226C01FC
:102930008C2F0E948B21873111F08C3121F4C0162D
:10294000D10690F302C000E010E0A801B7018C2F7F
:102950000E94F02260E28C2F0E9472218C2F0E9434
:10296000822184FD0BC08C2F0E948B218111F6CF18
:102970008C2F0E94021480E090E005C060E18C2F53
:102980000E947D21C801CF911F910F91FF90EF9080
:10299000DF90CF900895CF92DF92EF92FF921F9336
:1029A000CF93DF93182F6B017A010E943723EC013C
:1029B000009789F4812F0E948B218431E9F08823CC
:1029C000D9F0C1E0D0E08C3111F4C0E0D0E0D19575
:1029D000C195D10911C0E816F9060CF4E7011C16DF
:1029E0001D0654F420E0AE01B601812F0E94B123F0
:1029F00060E4812F0E947221CE01DF91CF911F915F
:102A0000FF90EF90DF90CF9008950C9437230C94B3
:102A1000372321E041E050E00E94B12381E090E0C3
:102A20000895CF92DF92EF92FF920F931F93CF936F
:102A3000F9019081911109C09181911106C0928193
:102A4000911103C093819923A1F10115110589F119
:102A50007A014130584018F0E12C98E0F92EE11449
:102A6000F10439F16B01C82FBF010E94C621B801E2
:102A70008C2F0E94D421A701B6018C2F0E94F02236
:102A800060E28C2F0E9472218C2F0E94822184FD93
:102A90000AC08C2F0E94822183FFF6CF68E18C2F21
:102AA0000E947D2106C060E18C2F0E947D21C7011C
:102AB00002C080E090E0CF911F910F91FF90EF90C6
:102AC000DF90CF900895EF92FF921F93CF93DF9303
:102AD0004115510589F0EA017B01182F0E94372327
:102AE0008C179D0708F4EC0120E0AE01B701812F9F
:102AF0000E94B123CE0102C080E090E0DF91CF912F
:102B00001F91FF90EF9008958F929F92BF92CF9266
:102B1000DF92EF92FF920F931F93CF93DF93CDB786
:102B2000DEB728970FB6F894DEBF0FBECDBF452B9A
:102B300009F47EC049016B01B82E0E9464237C0118
:102B40008B2D0E9465218770833059F1843009F400
:102B500045C0823009F065C028E030E0AE014F5F2B
:102B60005F4FB7018B2D0E94042088E0E80EF11C16
:102B70008981F40180838A8181838B8182838C8126
:102B800083838D8190E0982F88272E81820F911D5D
:102B9000F801918380830F8110E0102F0027888532
:102BA0001AC026E030E0AE014F5F5F4FB7018B2DBA
:102BB0000E940420F6E0EF0EF11C8981F40180836D
:102BC0008A8181838B8182838C8183830D8110E054
:102BD000102F00278E81080F111D16C022E030E053
:102BE000AE014F5F5F4FB7018B2D0E940420F2E0D2
:102BF000EF0EF11C098110E0902F88270A8110E068
:102C000002501109080F191F9801A601B7018B2D59
:102C10000E940420B701600F711F8B2D0E94532367
:102C200002C000E010E060E48B2D0E94722102C01F
:102C300000E010E0C80128960FB6F894DEBF0FBE82
:102C4000CDBFDF91CF911F910F91FF90EF90DF905B
:102C5000CF90BF909F908F9008951F93CF93DF9355
:102C6000182FEA014130584018F42097F9F002C0BB
:102C7000C0E0D8E0AE01812F0E94F02260E2812FF7
:102C80000E947221812F0E94822184FD09C0812F20
:102C90000E94822183FFF6CF812F0E94021406C07A
:102CA00060E1812F0E947D21CE0102C080E090E092
:102CB000DF91CF911F910895CF92DF92EF92FF9213
:102CC0001F93CF93DF93182F7B016A01E9010E94C4
:102CD0004F228C179D0720F4812F0E944F22EC0178
:102CE0009E01A601B701812F0E94A522CE01DF918E
:102CF000CF911F91FF90EF90DF90CF9008951F9399
:102D0000CF93DF93182FEB01CB010E94B119AC01D7
:102D1000BE01812FDF91CF911F910C948514CF9329
:102D2000DF931F92CDB7DEB7698341E050E0BE016B
:102D30006F5F7F4F0E9485140F90DF91CF910895B0
:102D40000F931F93CF93C82F8B0162E20E948F16BF
:102D5000B8018C2F0E947F1662E28C2FCF911F91B9
:102D60000F910C948F16CF93C82FCB01BA010E94FC
:102D70000412FC011286BC018C2FCF910C94A0167A
:102D8000CF93DF93D82FC62F70E084E075956795B9
:102D90008A95E1F76A3010F4605D01C0695C8D2F9F
:102DA0000E948F166C2F6F706A3010F0695C01C042
:102DB000605D8D2FDF91CF910C948F16EF92FF9273
:102DC0000F931F93CF93C82F7B0162E20E948F164F
:102DD000F70161918F018C2F0E94C016F6E0EF0E73
:102DE000F11C6AE38C2F0E948F16F80161918F010C
:102DF0008C2F0E94C0160E151F0599F762E28C2FCA
:102E0000CF911F910F91FF90EF900C948F16CF935D
:102E1000DF93C82FD62F672F0E94C0166D2F8C2FDF
:102E2000DF91CF910C94C0162F923F924F925F92F8
:102E30006F927F928F929F92AF92BF92CF92DF92CA
:102E4000EF92FF920F931F93CF93DF93CDB7DEB72F
:102E500062970FB6F894DEBF0FBECDBF782E7B0110
:102E600077FF08C0F194E194F10881E090E0998B3C
:102E7000888B02C0198A188AFE0131961F018E01C3
:102E8000055F1F4F6F0188248394912CA12CB12CD6
:102E9000AAE0B0E09401A5010E9474276A8B472E36
:102EA000582E692EB7010F2C000C880B990B2A891C
:102EB000342D452D562D0E9439279401A5010E94DD
:102EC0003927F60121936F01E21AF10827FDF394E7
:102ED0008A88942CA52CB62C0E171F07C9F6888952
:102EE0009989892B21F06DE2872D0E948F1680E051
:102EF00090E0F80162918F01611105C0009719F40B
:102F00002E163F0641F4605DF8016083872D0E9414
:102F10008F1681E090E02016310659F762960FB6C1
:102F2000F894DEBF0FBECDBFDF91CF911F910F91FF
:102F3000FF90EF90DF90CF90BF90AF909F908F90D9
:102F40007F906F905F904F903F902F9008950F93D8
:102F50001F93CF93FB019081911109C09181911131
:102F600006C09281911103C09381992379F0411594
:102F7000510561F08A01BF01C82F0E94C621B80126
:102F80008C2F0E94D42181E090E002C080E090E08C
:102F9000CF911F910F910895CF93C82F60E20E94A7
:102FA00072218C2F0E94822184FD0CC08C2F0E94E4
:102FB000822183FFF6CF68E18C2F0E947D2180E083
:102FC00090E006C060E18C2F0E947D2181E090E0BE
:102FD000CF910895EF92FF920F931F93CF93DF93BA
:102FE0001F92CDB7DEB7182FE12CF12C812F0E9454
:102FF0003723E816F90688F401E0970141E050E034
:10300000BE016F5F7F4F812F0E947C2389818A30B0
:1030100031F08FEFE81AF80AE9CF80E001C081E0D3
:103020000F90DF91CF911F910F91FF90EF90089536
:103030001F93CF93DF931F92CDB7DEB7182F0E9457
:103040003723892B89F021E041E050E0BE016F5F1A
:103050007F4F812F0E94B123998181E09D3029F01B
:103060009A3019F080E001C081E00F90DF91CF919C
:103070001F9108958F929F92AF92BF92CF92DF924D
:10308000EF92FF920F931F93CF93DF931F92CDB7D1
:10309000DEB7182F5B010E9437237C01C5010E9417
:1030A000B119E816F90668F175016701CA18DB085D
:1030B0004701F7018081882399F001E0960141E002
:1030C00050E0BE016F5F7F4F812F0E947C238FEF06
:1030D000E81AF80AF40190818981981731F311C038
:1030E000C114D10461F041E050E0BE016F5F7F4F39
:1030F000812F0E94CB14F1E0CF1AD108F1CF81E0EB
:1031000001C080E00F90DF91CF911F910F91FF9050
:10311000EF90DF90CF90BF90AF909F908F900895E9
:103120001F93CF93DF931F92CDB7DEB7182F812F58
:103130000E943723892BC1F141E050E0BE016F5F4F
:103140007F4F812F0E94CB1489818D30D1F4812F44
:103150000E943723892B59F321E041E050E0BE0162
:103160006F5F7F4F812F0E94B12389818A30E1F404
:1031700041E050E0BE016F5F7F4F812F0E94CB1472
:1031800013C08A30A1F6812F0E943723892B79F250
:1031900021E041E050E0BE016F5F7F4F812F0E9430
:1031A000B12389818D3021F30F90DF91CF911F9151
:1031B0000895BF92CF92DF92EF92FF920F931F93E9
:1031C000CF93DF931F92CDB7DEB7C82E8B01FB01E3
:1031D000118210820E943723892B09F451C0D12C0F
:1031E000EE24E394F12C2AE0B22E8C2D0E9437239A
:1031F000892BB9F121E041E050E0BE016F5F7F4FC4
:103200008C2D0E94B12389818D3231F4D11038C0C8
:10321000EE24EA94FE2C1CC090ED980F9A3090F4A6
:10322000F80140815181B49E9001B59E300D11246A
:10323000082E000C990BC097820F931F91838083F7
:10324000D39406C08A3069F08D3059F0803249F04D
:1032500041E050E0BE016F5F7F4F8C2D0E94CB1488
:10326000C4CFF801208131812E9DC0012F9D900D8A
:103270003E9D900D11249183808381E0D11001C087
:1032800080E00F90DF91CF911F910F91FF90EF9011
:10329000DF90CF90BF9008959FB7F894229B2A9A11
:1032A000229A259A239A2D988CB580618CBD8CB575
:1032B00080648CBD109226059FBF089580912605DD
:1032C000089590912605911109C09FB7F8948CBD7F
:1032D0006DBD81E0809326059FBF2A9808958EBD1D
:1032E00000000DB407FEFDCF8EB508952A9A109206
:1032F00026050895FB01480F591F8417950729F0EB
:103300002191DC012D93CD01F8CF0895480F591F6D
:103310008417950721F0FC016193CF01F9CF08953F
:10332000FB01480F591F8417950759F0DC013D91A7
:10333000CD012191321740F02317A8F781E090E0EA
:10334000089580E090E008958FEF9FEF0895FC01CD
:10335000DB018D91BD01882311F08193F9CF10829B
:103360000895FC019F01281B390B41914111FACFAF
:10337000C90108959F92AF92BF92CF92DF92EF92D0
:10338000FF920F931F93CF93DF9300D000D01F9233
:10339000CDB7DEB7FC016B019E012F5F3F4F8E0161
:1033A0000A5F1F4FEE24E394F12C9AE0992E9E9C25
:1033B00050019F9CB00C1124C601B5010E94EF265C
:1033C000B7010E94EF26D9016D939D01C61AD1085D
:1033D00067FDD3947501A017B10749F760E070E06D
:1033E00084E090E050E0D8012E918D01211105C0BC
:1033F0006115710511F4009741F4841795072CF4B9
:10340000205D219361E070E004C0841795070CF4FF
:103410003196019740F70F900F900F900F900F90FB
:10342000DF91CF911F910F91FF90EF90DF90CF90A0
:10343000BF90AF909F90089588EC80937C0086E8C1
:1034400080937A00089580917A008295869586957A
:10345000837091E08927817090E00895EAE7F0E0B9
:103460008081806480830895809178002091790024
:1034700030E0322F2227A901330F660B770B9A0118
:10348000AB01282BA5E6B0E00E94742724E630E0CB
:1034900040E050E00E943927DA01C9018151914092
:1034A000A109B109089508950F931F93E09127058D
:1034B000F0912805E930F10508F09BC0E25CFF4F70
:1034C0000C9458278417950764F080E494E00E94D8
:1034D000C10C86E00E94850E86E090E00E941404F4
:1034E00025C0081719070CF48EC080E494E00E94F0
:1034F000C10C88E00E94850E88E090E00E941404D0
:103500000BC0841795070CF7081719070CF47BC03C
:1035100080E494E00E94C10C86E090E065C08417CE
:103520009507FCF280E494E00E94C10C83E090E0F7
:103530005BC08617970764F082E494E00E94C10C98
:1035400085E00E94850E85E090E00E94140412C080
:10355000841795070CF057C086ED93E00E94C10CCC
:1035600082E090E041C08617970794F382E494E0EC
:103570000E94C10C85E090E037C0861797070CF0D9
:1035800042C080E494E00E94C10C84E090E02CC032
:103590002817390764F082E494E00E94C10C87E0A8
:1035A0000E94850E87E090E00E94140411C0081765
:1035B00019074CF586ED93E00E94C10C81E090E084
:1035C00013C0281739079CF382E494E00E94C10CD1
:1035D00088E090E009C028173907ACF480E494E053
:1035E0000E94C10C87E090E0909328058093270506
:1035F0000AC0109228051092270586ED93E01F91CE
:103600000F910C94C10C1F910F91089510922805F1
:103610001092270508951F920F920FB60F92112452
:103620008F939F93AF93BF938091290590912A0523
:10363000A0912B05B0912C050196A11DB11D809381
:10364000290590932A05A0932B05B0932C05BF91D3
:10365000AF919F918F910F900FBE0F901F90189573
:1036600083E294EF90938900809388001092800009
:103670008CE080938100789482E080936F000895BD
:103680002FB7F8946091290570912A0580912B0538
:1036900090912C052FBF08958FB7F89410922905AB
:1036A00010922A0510922B0510922C058FBF0895B9
:1036B0000E940524789408950C94C925CF93DF9334
:1036C000EC018991882319F00E94C925FACFDF9176
:1036D000CF910895CF93C82F90E024E095958795DA
:1036E0002A95E1F78A3010F4805D01C0895C0E9460
:1036F000C9258C2F8F708A3010F0895C01C0805DE5
:10370000CF910C94C925CF93C82F892F0E946A1B93
:103710008C2FCF910C946A1B2F923F924F925F9205
:103720006F927F928F929F92AF92BF92CF92DF92D1
:10373000EF92FF920F931F93CF93DF93CDB7DEB736
:1037400063970FB6F894DEBF0FBECDBF6B017C014F
:1037500097FF0DC0F094E094D094C094C11CD11C8C
:10376000E11CF11C81E090E09B8B8A8B02C01B8ADC
:103770001A8AFE0131965F018E01055F1F4FF98B9A
:10378000E88B66246394712C812C912CAAE0B0E024
:103790009301A4010E9474271B012C01C701B601EB
:1037A0009101A2010E9439279301A4010E943927A7
:1037B000E889F9892193F98BE88B822F220F990BE5
:1037C000AA0BBB0BC81AD90AEA0AFB0A310142014B
:1037D0000E171F07D9F68A899B89892B19F08DE26C
:1037E0000E94C92520E030E0F80182918F0181110B
:1037F00006C02115310519F4EA15FB0529F4805D91
:103800000E94C92521E030E00A151B0569F763967F
:103810000FB6F894DEBF0FBECDBFDF91CF911F91E1
:103820000F91FF90EF90DF90CF90BF90AF909F905F
:103830008F907F906F905F904F903F902F90089562
:103840000C949F250C94C625FF920F931F93CF9342
:10385000DF93EC01062FF72E18820E949F2510E0BF
:103860008823D9F00E9473258823B9F00E947A2515
:10387000803210F089931F5FE02FFF2D482F50E01A
:103880002191222339F0022E000C330B42175307EB
:10389000B9F702C08D3051F71882812FDF91CF9197
:1038A0001F910F91FF9008950F931F93CF93DF9374
:1038B0008C01EC01699170E080E090E00E948C1B2B
:1038C0000C5F1F4F8EE20E94C925699170E080E075
:1038D00090E00E948C1BC017D107A1F783EE92E005
:1038E000DF91CF911F910F910C945E1BDC01FB01C6
:1038F0009D91992341F08191891784F09817C4F71D
:103900008FEF9FEF089581E090E02081211102C0A8
:1039100080E090E0919581959109089581E090E093
:103920000895DC0190E020E061507109422F50E0E1
:10393000FD01E40FF51F4617570720F48081980F0B
:103940002F5FF4CF919590830895611571058105DE
:10395000910541F060932C0170932D0180932E010D
:1039600090932F01211531054105510541F0209318
:1039700028013093290140932A0150932B01089587
:103980004F925F926F927F928F929F92AF92BF926F
:10399000CF92DF92EF92FF92CF93DF9300D000D0CF
:1039A000CDB7DEB72B013C0129833A834B835C837F
:1039B000C0902801D0902901E0902A01F0902B01BD
:1039C000A701960144275527A9E6B0E90E9474276C
:1039D0006701EE24FF244B015C018C0C9D1CAE1C86
:1039E000BF1C8092280190922901A0922A01B092D6
:1039F0002B01C0902C01D0902D01E0902E01F09071
:103A00002F01A701960144275527A0E5B6E40E949F
:103A100074276701EE24FF24C60ED71EE81EF91E88
:103A2000C0922C01D0922D01E0922E01F0922F0134
:103A3000D40199278827BC01CD016C0D7D1D8E1DF9
:103A40009F1D29813A814B815C81241935094609E2
:103A500057090E941727CB01840D951D0F900F90D9
:103A60000F900F90DF91CF91FF90EF90DF90CF906C
:103A7000BF90AF909F908F907F906F905F904F908E
:103A80000895CF93DB01FC0120812D3221F40196B2
:103A90006FEF7FEF02C061E070E011961C921E9202
:103AA000FC01CAE020818D919C9111972223C1F0E5
:103AB000C89FA001C99F500D112411965C934E938D
:103AC000219180ED820F8A30B8F4022E000C330B66
:103AD00020533109240F351F11963C932E93E2CFCA
:103AE000869F9001879F300D969F300D11242D9356
:103AF0003C9381E090E002C080E090E0CF91089597
:103B000080919005833561F480919105853441F46D
:103B100081E090E020919205223521F080E002C002
:103B200080E090E0E0E9F5E020E03191230F35E01E
:103B3000E83CF307D1F7222311F080E090E00895EC
:103B4000CF93DF93CDB7DEB7E7970FB6F894DEBF1C
:103B50000FBECDBF87E3EEE4F1E0DE0111960190E8
:103B60000D928A95E1F767E370E0CE0101960E941D
:103B7000911C47E3BE016F5F7F4F80E090E00E94A1
:103B8000670CE7960FB6F894DEBF0FBECDBFDF918E
:103B9000CF9108950E94B00C892BE1F747E360E9CB
:103BA00075E080E090E00E949B0C0E94801D892BB4
:103BB00049F40E94A01D47E360E975E080E090E0D1
:103BC0000C949B0C0895AF92BF92DF92EF92FF92FC
:103BD0000F931F93CF93DF93EC01D62EE72E8A012C
:103BE00080912D058333F9F4A62EB72E7E01E40EC5
:103BF000F51ECE15DF0509F45EC062E080E50E9487
:103C0000611980EF0E946F198D2F0E946F198C2F00
:103C10000E946F192196F50181915F010E946F1931
:103C20000E947619E6CF62E080E50E946119C11515
:103C3000F4E0DF0718F4FC2EC4E00DC0C11528E045
:103C4000D20758F4FC2ED45033E0D695C7953A9558
:103C5000E1F7C07ECC6080E018C0CE019770892F5C
:103C6000FC2EC115E0E6DE0740F426E0D695C795A8
:103C70002A95E1F7C07EC46108C0D05696E0D6957B
:103C8000C7959A95E1F7C07ECC610E946F198F2D80
:103C90000E946F198C2F0E946F19CD2DDE2D7E0191
:103CA000E00EF11ECE15DF0521F089910E946F19FB
:103CB000F9CF0E947619C801DF91CF911F910F9122
:103CC000FF90EF90DF90BF90AF900895CF93DF9378
:103CD0001F92CDB7DEB7698341E050E0BE016F5F50
:103CE0007F4F0E94E31D0F90DF91CF9108958F9237
:103CF0009F92AF92BF92CF92DF92EF92FF920F937B
:103D00001F93CF93DF93EC018B016A017901FA01D4
:103D1000608181E090E00E94661EF601618182E090
:103D200090E00E94661EF601628183E090E00E94AE
:103D3000661EF601638184E090E00E94661E0E9488
:103D400007064B015C01F2E08F0E911CA11CB11C17
:103D50000E940706681579058A059B05C9F76881E1
:103D600089E090E00E94661E69818AE090E00E94EE
:103D7000661E6A818BE090E00E94661E6B818CE07B
:103D800090E00E94661E6C818DE090E00E94661EAD
:103D90006D818EE090E00E94661E0E9407064B0136
:103DA0005C0122E0820E911CA11CB11C0E9407063E
:103DB000681579058A059B05C9F7F701608185E0DB
:103DC00090E00E94661EF701618186E090E00E940B
:103DD000661EF701628187E090E00E94661EF7018F
:103DE000638188E090E00E94661E0E9407066B01D6
:103DF0007C01F2E0CF0ED11CE11CF11C0E940706F1
:103E00006C157D058E059F05C9F7F80160818FE06F
:103E100090E00E94661EF801618180E190E00E94BE
:103E2000661EF801628181E190E00E94661EF80141
:103E3000638182E190E00E94661E0E9407066B018A
:103E40007C01F2E0CF0ED11CE11CF11C0E940706A0
:103E50006C157D058E059F05C9F765E58AE190E043
:103E60000E94661E65E58BE190E00E94661E80E080
:103E7000DF91CF911F910F91FF90EF90DF90CF9046
:103E8000BF90AF909F908F900895AF92BF92DF92B6
:103E9000EF92FF920F931F93CF93DF93EC01D62EF7
:103EA000E72E8A0180912D05833301F5A62EB72ECA
:103EB0007E01E40EF51ECE15DF0509F460C062E058
:103EC00080E50E9461198FE00E946F198D2F0E947A
:103ED0006F198C2F0E946F19219680E00E946F1934
:103EE000F50181935F010E947619E5CF62E080E5DC
:103EF0000E946119C115F4E0DF0718F4FC2EC0E040
:103F00000DC0C11528E0D20758F4FC2ED45033E080
:103F1000D695C7953A95E1F7C07EC86080E018C095
:103F2000CE019770892FFC2EC115E0E6DE0740F424
:103F300026E0D695C7952A95E1F7C07EC06108C0F6
:103F4000D05696E0D695C7959A95E1F7C07EC861A0
:103F50000E946F198F2D0E946F198C2F0E946F196C
:103F6000CD2DDE2D7E01E00EF11ECE15DF0529F0F0
:103F700080E00E946F198993F8CF0E947619C801DA
:103F8000DF91CF911F910F91FF90EF90DF90BF9045
:103F9000AF900895CF93DF931F92CDB7DEB741E086
:103FA00050E0BE016F5F7F4F0E94451F89810F90D7
:103FB000DF91CF91089590E00496982F8827860F7F
:103FC000971F0C94CA1F9B0190E00496982F882796
:103FD000642F820F931F0E94661E0895FB01BA0191
:103FE00090E00496982F8827A9018E0F9F1F0C94AC
:103FF000451FFB01BA0190E00496982F8827A9017C
:104000008E0F9F1F0C94E31DAF92BF92CF92DF9251
:10401000EF92FF920F931F93CF93DF9300D0CDB712
:10402000DEB77A836983BA01A901A981BA81B77021
:10403000E82FF0E0EE0FFF1FEB57FE4FE080F1801E
:10404000CD018E0D9F1D9D01240F351F213038405D
:1040500080F06A015B0100E018E00A1B1B0BA8015D
:104060000E94451FA601401B510BB501600F711F37
:10407000C7010F900F90DF91CF911F910F91FF908B
:10408000EF90DF90CF90BF90AF900C94451F682FBA
:1040900080E090E00C94661E80E090E00C94CA1FD3
:1040A000CF92DF92EF92FF9283E380932D0560E839
:1040B00080E090E00E94661E0E9407066B017C0172
:1040C00022E0C20ED11CE11CF11C0E9407066C15F7
:1040D0007D058E059F05C9F780E10E9447200E945B
:1040E0004C20803121F010922D0580E00FC082E13C
:1040F0000E9447200E944C208231A9F780E00E9454
:1041000047200E944C208111EECF81E0FF90EF907C
:10411000DF90CF900895CF92DF92EF92FF9287E3E6
:1041200080932D0560E880E090E00E94661E0E946A
:1041300007066B017C0122E0C20ED11CE11CF11CC0
:104140000E9407066C157D058E059F05C9F788E05E
:104150000E9447200E944C20883021F010922D05AB
:1041600080E00FC080E10E9447200E944C208031F7
:10417000A9F780E00E9447200E944C208111EECFD9
:1041800081E0FF90EF90DF90CF9008950E94502043
:10419000811102C00C948B20089544E050E0BC01D2
:1041A00081E090E00C94E31D44E050E0BC0181E02C
:1041B00090E00C94451F44E050E0BC0185E090E0A5
:1041C0000C94E31D44E050E0BC0185E090E00C94C9
:1041D000451F46E050E0BC0189E090E00C94E31DEF
:1041E00046E050E0BC0189E090E00C94451F44E0BB
:1041F00050E0BC018FE090E00C94E31D44E050E0FF
:10420000BC018FE090E00C94451F682F85E190E0A1
:104210000C94661E85E190E00C94CA1FCF93C82FC2
:10422000692F87E190E00E94661E6C2F88E190E084
:10423000CF910C94661ECF93DF9387E190E00E94AC
:10424000CA1FC82FD0E0DC2FCC2788E190E00E9465
:10425000CA1F9E01280F311DC901DF91CF9108951A
:1042600044E050E0BC018AE290E00C94E31D44E09D
:1042700050E0BC018AE290E00C94451FCF93C82F18
:10428000692F8EE290E00E94661E6C2F8FE290E014
:10429000CF910C94661ECF93DF938EE290E00E9444
:1042A000CA1FC82FD0E0DC2FCC278FE290E00E94FD
:1042B000CA1F9E01280F311DC901DF91CF910895BA
:1042C000462F60E070E00C94E31F60E070E00C9417
:1042D000DB1F462F61E070E00C94E31F61E070E0AB
:1042E0000C94DB1FCF93C82F0E9469218C2F0E9452
:1042F0006E218111FBCFCF910895462F62E070E0CF
:104300000C94E31F62E070E00C94DB1F462F63E027
:1043100070E00C94E31F63E070E00C94DB1FCF931C
:10432000DF93C82FD62F472F64E070E00E94E31F71
:104330004D2F65E070E08C2FDF91CF910C94E31F3F
:104340001F93CF93DF93182F64E070E00E94DB1F70
:10435000C82FD0E065E070E0812F0E94DB1FDC2FCA
:10436000CC279E01282BC901DF91CF911F91089581
:10437000AB0126E030E066E070E00C94F91FAB0181
:1043800026E030E066E070E00C94EE1FAB0124E024
:1043900030E06CE070E00C94F91FAB0124E030E0F9
:1043A0006CE070E00C94EE1FCF93DF93C82FD62FF4
:1043B000472F60E170E00E94E31F4D2F61E170E044
:1043C0008C2FDF91CF910C94E31F1F93CF93DF933A
:1043D000182F60E170E00E94DB1FC82FD0E061E180
:1043E00070E0812F0E94DB1FDC2FCC279E01282B41
:1043F000C901DF91CF911F910895CF93DF93C82F0B
:10440000D62F472F62E170E00E94E31F4D2F63E13A
:1044100070E08C2FDF91CF910C94E31F1F93CF930B
:10442000DF93182F62E170E00E94DB1FC82FD0E0FD
:1044300063E170E0812F0E94DB1FDC2FCC279E01FF
:10444000282BC901DF91CF911F910895CF93DF935E
:10445000C82FD62F472F60E270E00E94E31F4D2F38
:1044600061E270E08C2FDF91CF910C94E31F1F93DA
:10447000CF93DF93182F60E270E00E94DB1FC82FFC
:10448000D0E061E270E0812F0E94DB1FDC2FCC279F
:104490009E01282BC901DF91CF911F910895FF92B2
:1044A0000F931F93CF93DF93F82EC0E0D0E08F2DB2
:1044B0000E9437228C01892B21F08F2D0E943722F8
:1044C000EC01C017D10799F7CE01DF91CF911F9171
:1044D0000F91FF900895CF93DF93C82FD62F472FCA
:1044E00062E270E00E94E31F4D2F63E270E08C2FC8
:1044F000DF91CF910C94E31F1F93CF93DF93182F7D
:1045000062E270E00E94DB1FC82FD0E063E270E03F
:10451000812F0E94DB1FDC2FCC279E01282BC90195
:10452000DF91CF911F910895CF93DF93C82FD62F9E
:10453000472F64E270E00E94E31F4D2F65E270E0B8
:104540008C2FDF91CF910C94E31F9F92AF92BF927B
:10455000CF92DF92EF92FF920F931F93CF93DF934F
:10456000982E7B016A0189010E947C22E80EF91EC7
:1045700097013770E92DF0E0EE0FFF1FE357FE4F74
:10458000A080B180C9018A0D9B1DA901400F511F58
:104590004130584080F0C0E0D8E0C21BD30BAE01E0
:1045A000B6010E94E31DA8014C1B5D0BB6016C0F08
:1045B0007D1FC50102C0A801B6010E94E31DB7011D
:1045C000600F711F892DDF91CF911F910F91FF9087
:1045D000EF90DF90CF90BF90AF909F900C9494227B
:1045E0009A01AB0160E070E00C94A5221F93CF9379
:1045F000DF93182F64E270E00E94DB1FC82FD0E029
:1046000065E270E0812F0E94DB1FDC2FCC279E012A
:10461000282BC901DF91CF911F910895CF93DF938C
:10462000C82FD62F472F66E270E00E94E31F4D2F60
:1046300067E270E08C2FDF91CF910C94E31F1F9302
:10464000CF93DF93182F66E270E00E94DB1FC82F24
:10465000D0E067E270E0812F0E94DB1FDC2FCC27C7
:104660009E01282BC901DF91CF911F910895FF92E0
:104670000F931F93CF93DF93F82EC0E0D0E08F2DE0
:104680000E941F238C01892B21F08F2D0E941F2354
:10469000EC01C017D10799F7CE01DF91CF911F919F
:1046A0000F91FF900895CF93DF93C82FD62F472FF8
:1046B00068E270E00E94E31F4D2F69E270E08C2FEA
:1046C000DF91CF910C94E31F1F93CF93DF93182FAB
:1046D00068E270E00E94DB1FC82FD0E069E270E062
:1046E000812F0E94DB1FDC2FCC279E01282BC901C4
:1046F000DF91CF911F910895CF92DF92EF92FF92B9
:104700000F931F93CF93DF93182F6B017A01E90169
:104710000E9464238C0F9D1FEC01D7709701A601A6
:10472000BE01812F0E940420011112C0BE016E0D36
:104730007F1D812F0E94532360E4812FDF91CF9151
:104740001F910F91FF90EF90DF90CF900C9472210A
:10475000DF91CF911F910F91FF90EF90DF90CF905D
:1047600008950F93022F20E030E00E947C230F91E8
:104770000895CF93DF93C82FD62F472F6AE270E0BA
:104780000E94E31F4D2F6BE270E08C2FDF91CF91E1
:104790000C94E31F1F93CF93DF93182F6AE270E00E
:1047A0000E94DB1FC82FD0E06BE270E0812F0E94D7
:1047B000DB1FDC2FCC279E01282BC901DF91CF9175
:1047C0001F9108951F920F920FB60F9211240E940D
:1047D000BD0C82E00E94850E0E94530E0E943D0592
:1047E000FBCF9FB7F894A895E0E6F0E08081886160
:1047F00080838FE480839FBF0895A895089580915A
:1048000060008B7080936000FFCF1092C00087E63D
:1048100090E09093C5008093C400E1ECF0E088E163
:10482000808386E08093C2008081806A80830895BF
:104830001F920F920FB60F9211242F933F938F93D5
:104840009F93EF93FF9380913405882309F4F0C080
:104850008091C60090913305992309F4E3C090EE4E
:10486000980F9F3518F08D3009F059C02091300510
:104870009091310530E0291B3109215031092F7306
:104880003327232B61F0E0913105F0E0E953FA4F33
:104890008083909131059F5F9F73909331052091A4
:1048A0002E0590912F0530E0291B31092150310947
:1048B0002F733327232B89F0E0912F05F0E0E95F78
:1048C000F94F808390912F059F5F9F7390932F05E1
:1048D0009091C10090629093C1008D3009F0C5C0E5
:1048E00080912E0520912F0590E0821B9109019760
:1048F0008F739927892B69F0E0912F05F0E0E95F2C
:10490000F94F8AE0808380912F058F5F8F738093AA
:104910002F05809132058F5F80933205A6C08830C5
:1049200011F08F37C1F5809131052091300590E06D
:10493000821B91098F739927892B09F496C0E09106
:104940003105F0E0E953FA4F8081809131058150C3
:104950008F738093310580912E0520912F0590E073
:10496000821B910901978F739927892B09F47DC0C8
:10497000E0912F05F0E0E95FF94F8FE780838091A8
:104980002F058F5F8F7380932F058091C100806208
:104990008093C1006AC0843009F067C080913105FE
:1049A0002091300590E0821B91098F739927892B04
:1049B00031F1E0913105F0E0E953FA4F80818D301B
:1049C000F1F0809130052091310590E0821B910932
:1049D00001978F739927892B91F0E0913105F0E0D1
:1049E000E953FA4F8DE08083809131058F5F8F739B
:1049F00080933105809132058F5F809332058091DD
:104A000030052091310590E0821B910901978F7349
:104A10009927892B51F1E0913105F0E0E953FA4FE4
:104A200084E019C0833009F581E0809333051DC00F
:104A3000809130052091310590E0821B910901970A
:104A40008F739927892B79F0E0913105F0E08091FF
:104A5000C600E953FA4F8083809131058F5F8F73D1
:104A60008093310502C08091C600FF91EF919F9124
:104A70008F913F912F910F900FBE0F901F9018951F
:104A80001F920F920FB60F9211242F938F939F9323
:104A9000EF93FF9380912F0520912E0590E0821BCC
:104AA00091098F739927892B79F0E0912E05F0E019
:104AB000E95FF94F80818093C60080912E058F5F5A
:104AC0008F7380932E0505C08091C1008F7D8093E8
:104AD000C100FF91EF919F918F912F910F900FBE89
:104AE0000F901F9018958091310590913005891B8A
:104AF0008F730895809131052091300590E0821BDD
:104B000091098F739927892BC1F0E0913005F0E06E
:104B1000E953FA4F8081909130059F5F9F73909386
:104B2000300590913405992349F08D3039F49091F6
:104B30003205915090933205089580E0089581E008
:104B400080933405809131052091300590E0821BDF
:104B500091098F739927892BB1F0E0913005F0E02E
:104B6000E953FA4F8081843071F410923305E0915B
:104B70003005F0E0E953FA4F8081809130058F5F76
:104B80008F738093300580913305089580913205AD
:104B900008950FB607FE0EC020912E0590912F05A7
:104BA00030E0291B3109215031092F733327232B82
:104BB00099F30DC020912E0590912F0530E0291B0F
:104BC0003109215031092F733327232B61F0E091F4
:104BD0002F05F0E0E95FF94F808380912F058F5F0B
:104BE0008F7380932F058091C10080628093C100F4
:104BF00008951F93CF93DF93EC0180E011E0180F2D
:104C0000FE01E80FF11D8081882321F00E94C92553
:104C1000812FF4CFDF91CF911F9108951F93CF93F0
:104C2000DF93EC0180E011E0180FFE01E80FF11DA9
:104C30008491882321F00E94C925812FF4CFDF9130
:104C4000CF911F910895CF93DF9300D000D0CDB7BF
:104C5000DEB70E94581B0E94B40C0E94CA1D0E941D
:104C60000A050E94580D0E942F100E944C190E94A4
:104C70001C1A0E94C6200E94531A0E94A8030E9478
:104C8000D60E42EB53E069EB73E08DEB93E00E94AC
:104C90001B1319821A821B821C829E012F5F3F4FB9
:104CA000A901B9018CEB95E00E94771E00EA1FE094
:104CB00020E030E040E65AEE60E070E08CEB95E0FA
:104CC0000E946B0B892B91F383EC93E00E945E1B97
:104CD0000E9420060E94541C0E9423067C010E9410
:104CE00026068C010E9420069701A801BC018CEBCE
:104CF00095E00E94771E83E00E94850E85E00E9469
:104D0000500F84E00E94850E0E94F12380E00E94F3
:104D1000850E80E090E00E9414040E947F130E94A0
:104D20002E1A68E873E181E090E00E94DD050E94A0
:104D3000FD230E94D30C81E090E00E94C405892BE2
:104D4000C9F00E94341A00913F051091400520914E
:104D50003D0530913E0540913B0550913C056091E9
:104D6000390570913A050E94541A0E942E1A68EE75
:104D700073E0D9CF80E00E94F913882349F060E9FD
:104D80007FE180E00E94391480E00E943F14CFCF81
:104D900080E00E940515181619061CF40E94AE004A
:104DA000C6CF0E94B00C892B11F40E941D0E0E94E8
:104DB000B00C892B09F0BBCF0E942505B8CFDB01D1
:104DC0008F939F930E947427BF91AF91A29F800DF4
:104DD000911DA39F900DB29F900D11240895AA1BC1
:104DE000BB1B51E107C0AA1FBB1FA617B70710F0D6
:104DF000A61BB70B881F991F5A95A9F78095909508
:104E0000BC01CD01089597FB072E16F4009407D03E
:104E100077FD09D00E94EF2607FC05D03EF490955F
:104E200081959F4F0895709561957F4F0895A1E2F8
:104E30001A2EAA1BBB1BFD010DC0AA1FBB1FEE1F14
:104E4000FF1FA217B307E407F50720F0A21BB30B5F
:104E5000E40BF50B661F771F881F991F1A9469F7DB
:104E600060957095809590959B01AC01BD01CF0137
:104E70000895052E97FB1EF400940E94502757FDBD
:104E800007D00E94172707FC03D04EF40C9450273C
:104E900050954095309521953F4F4F4F5F4F089566
:104EA00090958095709561957F4F8F4F9F4F089596
:104EB000EE0FFF1F0590F491E02D099469279627C6
:104EC00069277827872778270895A29FB001B39F85
:104ED000C001A39F700D811D1124911DB29F700D03
:104EE000811D1124911D08950E946527A59F900D95
:104EF000B49F900DA49F800D911D11240895F894E6
:024F0000FFCFE1
:104F0200030B443100802500002D00040B443000C7
:104F1200802500002D0002060024F400010C6174BB
:084F22006D6567613332380050
:104F2A004B0041535500FF03FE030000010000C07F
:104F3A00A801640030302F30302F3030303020302C
:104F4A00303A30303A303000E5559A15B53B121FE9
:104F5A00EF010101FFFFFFFFC0A801011F1C1F1E77
:104F6A001F1E1F1F1E1F1E1F01005E00000053454B
:104F7A00520053616E647900000000000000446F23
:104F8A0075676C617300000000005F554E41535312
:104F9A0049474E45440000000000444F5553414ED6
:104FAA00555341000000600048007000780040003E
:104FBA004800500058485454502F312E3120343074
:104FCA00302042616420526571756573740A00432A
:104FDA006F6E6E656374696F6E3A20636C6F73658A
:104FEA000D0A00485454502F312E312032303020CF
:104FFA004F4B0A0064657669636500435249545F02
:10500A004849005741524E5F484900435249545F4C
:10501A004C4F005741524E5F4C4F004E4F524D413C
:10502A004C00474554005055540044454C4554459E
:10503A00002F636F6E6669673F0074637269745FFD
:10504A0068693D005570646174696E6720746372A3
:10505A0069745F686920776974682076616C756520
:10506A003A2000747761726E5F68693D005570641A
:10507A006174696E6720747761726E5F6869207700
:10508A006974682076616C75653A20007463726988
:10509A00745F6C6F3D005570646174696E6720744B
:1050AA00637269745F6C6F20776974682076616CCB
:1050BA0075653A2000747761726E5F6C6F3D0055BA
:1050CA0070646174696E6720747761726E5F6C6F69
:1050DA0020776974682076616C75653A20003F72A2
:1050EA00657365743D002266616C736522002274E3
:1050FA0072756522002F6C6F670020485454502F38
:10510A00312E310D0A00436F6E74656E742D547919
:10511A0070653A206170706C69636174696F6E2F93
:10512A00766E642E6170692B6A736F6E0D0A007653
:10513A007064003A7B006D6F64656C003A006D61C3
:10514A006E75666163747572657200736572696102
:10515A006C5F6E756D626572006D616E7566616316
:10516A00747572655F64617465006D61635F616423
:10517A00647265737300636F756E7472795F636FBF
:10518A006465007D2C0074637269745F68690074D9
:10519A007761726E5F68690074637269745F6C6FBD
:1051AA0000747761726E5F6C6F0074656D70657202
:1051BA006174757265007374617465003A5B00749A
:1051CA00696D657374616D70006576656E74005DF6
:1051DA007D006A6C68616D320068616D006A617297
:1051EA006564006C6F63616C2069703A20000D0A77
:1051FA00414C41524D3A200057495A6E6574007429
:10520A00696D652073796E63656420005554430D9A
:10521A000A0030302F30302F303030302030303AE2
:10522A0030303A30300050726F6A656374206E6FA6
:10523A0074207369676E65640D0A00666972737417
:10524A006E616D65006C6173746E616D650061738A
:10525A0075726974650054657374696E670D0A0026
:04526A002D002E00E5
:00000001FF
