:100000000C9447000C9464000C9464000C946400FD
:100010000C9464000C9464000C948C230C94640085
:100020000C9464000C9464000C9464000C94B51A55
:100030000C9464000C9464000C94FB040C94640015
:100040000C9464000C9464000C94C2230C94EA2475
:100050000C9464000C9464000C94CB0B0C9464001E
:100060000C9464000C946400C800ED004003660129
:10007000F700E70051015C01400372010C1A2B1AD2
:10008000391A431A5D1A671A721A8B1A951A1124B3
:100090001FBECFEFD8E0DEBFCDBF13E0A0E0B1E0E0
:1000A000EEE7FEE402C005900D92A23AB107D9F73F
:1000B00025E0A2EAB3E001C01D92A53AB207E1F73C
:1000C0000E94CD250C9429270C94000065E971E06D
:1000D00080E00E9429166FEA71E080E00E942916F4
:1000E00060E472E080E00E94291680E00C942C14F9
:1000F00063EC71E080E00E9429166FEA71E080E015
:100100000E94291660E472E080E00E94291680E0D7
:100110000C942C141F93CF93DF931F92CDB7DEB7AF
:100120001EE141E050E0BE016F5F7F4F80E00E9422
:10013000751489818F3219F0115099F709C064ED57
:1001400071E080E00E94E41711E0811101C010E02D
:10015000812F0F90DF91CF911F910895CF92DF9261
:10016000EF92FF920F931F93CF93DF9300D000D0B5
:100170001F92CDB7DEB7E091A7038E2F90E08A30B3
:10018000910508F07DC2FC01EC5CFF4F0C94022746
:100190001092A3036BED71E080E00E94E4178823C6
:1001A00011F084E011C06FED71E080E00E94E4176F
:1001B000882311F085E008C063EE71E080E00E94C2
:1001C000E417882341F086E08093A20388C00E9450
:1001D0008A0081110FC081E082C080E00E94AF14CC
:1001E000892B09F43AC280E00E943A18F6CF0E94A7
:1001F0008A0034C06AEE71E080E00E94E417882330
:1002000091F163EF71E080E00E94E417882319F018
:100210001092A6031CC06DEF71E080E00E94E4170D
:10022000882311F081E011C067E072E080E00E9455
:10023000E417882311F082E008C061E172E080E0F9
:100240000E94E417882339F283E08093A60310927A
:10025000A30364EA73E080E00E948318882309F412
:10026000BACF87E03CC06BE172E080E00E94E41707
:10027000882309F4B0CF63E272E080E00E94E417C3
:10028000882319F01092A303ECCF6BE272E080E0B8
:100290000E94E417882309F49ECF81E08093A30392
:1002A000E0CF0E948A00882309F495CF62E372E0D0
:1002B00080E00E94E417D2CF67E372E080E00E9402
:1002C000E417882309F487CF83E009C080E00E9407
:1002D000C217811103C00E943A18F8CF89E08093B9
:1002E000A703CEC18091A203843009F090C163ECD2
:1002F00071E080E00E94291663E472E080E00E94D1
:1003000029166FEA71E080E00E94291660E472E02D
:1003100080E00E94291661E772E080E00E942916C1
:100320006CE672E080E00E944A1660E772E080E0CE
:100330000E94291663E772E080E00E944A1669E78E
:1003400072E080E00E94291662EF74E080E00E9473
:100350004A1661EC72E080E00E9429166BE772E0B9
:1003600080E00E944A1669E772E080E00E94291648
:100370006EEF74E080E00E944A1661EC72E080E06B
:100380000E94291668E872E080E00E944A1669E738
:1003900072E080E00E9429166AE075E080E00E9429
:1003A0004A1661EC72E080E00E94291666E972E06C
:1003B00080E00E944A1669E772E080E00E942916F8
:1003C0004091160550911705609118057091190517
:1003D00080E00E945D1661EC72E080E00E942916C8
:1003E00067EA72E080E00E944A1669E772E080E006
:1003F0000E9429166AE175E080E00E94881661EC8F
:1004000072E080E00E94291663EB72E080E00E94B7
:100410004A1669E772E080E00E94291660E275E002
:1004200080E00E944A1660EC72E080E00E9429168B
:1004300063EC72E080E00E944A1669E772E080E0B7
:100440000E942916609197047091980480E00E94A0
:10045000BE1661EC72E080E00E9429166CEC72E03E
:1004600080E00E944A1669E772E080E00E94291647
:100470006091990470919A0480E00E94BE1661EC2C
:1004800072E080E00E94291665ED72E080E00E9433
:100490004A1669E772E080E00E94291660919B0489
:1004A00070919C0480E00E94BE1661EC72E080E0D6
:1004B0000E9429166EED72E080E00E944A1669E7FC
:1004C00072E080E00E94291660919D0470919E0464
:1004D00080E00E94BE1661EC72E080E00E94291666
:1004E00067EE72E080E00E944A1669E772E080E001
:1004F0000E9429160E94DE19BC0180E00E94BE16EF
:1005000061EC72E080E00E94291663EF72E080E007
:100510000E944A1669E772E080E00E94291663E3B0
:1005200073E080E00E944A1661EC72E080E00E9475
:10053000291663E372E080E00E944A1669EF72E0D8
:1005400080E00E942916C12CD12C760186010E94E0
:100550009D0E90E0C816D9060CF04BC09E012B5F93
:100560003F4FAE014F5F5F4FC701B6010E94B60E0D
:1005700061E772E080E00E9429166CEF72E080E093
:100580000E944A1669E772E080E00E9429164981BC
:100590005A816B817C8180E00E945D1661EC72E083
:1005A00080E00E94291666E073E080E00E944A160F
:1005B00069E772E080E00E9429166D8170E080E0BA
:1005C0000E94BE166DE073E080E00E9429160E9432
:1005D0009D0E90E001970817190729F061EC72E071
:1005E00080E00E9429168FEFC81AD80AE80AF80A94
:1005F000ADCF6CE073E080E00E94291660E472E009
:1006000080E00E94291680E00E942C1437C08530BB
:10061000A9F58091A303882329F00E9478000E9405
:10062000A9232CC08091A6038130D1F058F08230EC
:10063000F1F0833019F58091A4039091A5030E94F5
:10064000A10306C08091A4039091A5030E945703C3
:10065000892B19F40E94780011C00E9466000EC018
:100660008091A4039091A5030E947003F1CF809123
:10067000A4039091A5030E948C03EACF1092A703D4
:100680000F900F900F900F900F90DF91CF911F91CF
:100690000F91FF90EF90DF90CF9008951092A703F5
:1006A0001092A303089581E08093A70308952091F9
:1006B000990430919A04281739077CF4811524E0B5
:1006C00092075CF490939804809397040E948304AB
:1006D0000E94CF0480E090E0089581E090E00895CA
:1006E00020919D0430919E048217930794F02091ED
:1006F000970430919804281739075CF090939A0476
:10070000809399040E9483040E94CF0480E090E0CB
:10071000089581E090E0089520919D0430919E0419
:10072000821793075CF490939C0480939B040E942F
:1007300083040E94CF0480E090E0089581E090E07F
:10074000089520919B0430919C042817390794F454
:100750002091990430919A04821793075CF4909346
:100760009E0480939D040E9483040E94CF0480E035
:1007700090E0089581E090E0089508958F929F920F
:10078000AF92BF92EF92FF920F931F93CF93DF939D
:1007900000D000D01F92CDB7DEB77C018091300130
:1007A00090913101A0913201B091330189839A83F4
:1007B000AB83BC8348EB52E2BE016F5F7F4F83E0A7
:1007C0000E943A1348EB52E2BE016F5F7F4F83E015
:1007D0000E9451170E94B1120E945B198C010E9465
:1007E000B1129801AC0160E070E083E00E9406164F
:1007F0000E94B1120E945B198C0121E030E043E3BA
:1008000053E0BC0183E00E9406160F5F1F4F8AE091
:1008100095E00E945B199C014AE055E0B80183E035
:100820000E9406168AE095E00E945B19080F191FC6
:1008300021E030E043E353E0B80183E00E94061674
:10084000B8016F5F7F4FC70124E0969587952A9581
:10085000E1F78A30910510F0895C01C0805D8D83DD
:1008600021E030E0AE014B5F5F4F83E00E9406164F
:10087000B8016E5F7F4F8E2D8F7097012F703327D9
:100880002A30310510F0895C01C0805D8D8321E044
:1008900030E0AE014B5F5F4F83E00E94061683E0BD
:1008A0000E9476170E94B1054B015C0125EF820E74
:1008B00021E0921EA11CB11C0E94B10568157905AA
:1008C0008A059B05C9F783E00E94E7138BE293E05A
:1008D0000E94081BB70180E090E00E94361B80E474
:1008E00092E00E94081B0F900F900F900F900F90B6
:1008F000DF91CF911F910F91FF90EF90BF90AF903C
:100900009F908F90089581E08093A803089580912F
:100910009304813461F480919404833541F481E03F
:1009200090E020919504253521F080E002C080E020
:1009300090E0E3E9F4E020E03191230F34E0E63A7F
:10094000F307D1F7222311F080E090E0089562E1EF
:1009500070E082E091E00E943B1C42E162E071E0C5
:1009600080E490E00C94110C0E945A0C892BE1F762
:1009700042E163E974E080E490E00E94450C0E944B
:100980008704892B49F40E94A70442E163E974E0DB
:1009900080E490E00E94450C1092A80308950E9404
:1009A0005A0C892B99F48091A803882379F062E18D
:1009B00070E083E994E00E943B1C42E163E974E04B
:1009C00080E490E00E94110C1092A8030895809199
:1009D000A803882379F062E170E083E994E00E9443
:1009E0003B1C42E163E974E080E490E00E942E0C3D
:1009F0001092A80308951F920F920FB60F92112420
:100A00002F933F938F939F93AF93BF932091B30303
:100A10003091B4038091AB039091AC032817390750
:100A200049F08091B3039091B40301969093B4037D
:100A30008093B3032091B5033091B6038091AD0349
:100A40009091AE032817390749F08091B503909132
:100A5000B60301969093B6038093B5038091AF03DC
:100A60009091B003A091B103B091B2030196A11D82
:100A7000B11D8093AF039093B003A093B103B093E3
:100A8000B203BF91AF919F918F913F912F910F90A2
:100A90000FBE0F901F90189589EF87BD82E084BD2F
:100AA00093E095BD789480936E001092AF031092FE
:100AB000B0031092B1031092B203089582309105F1
:100AC00050F4F894880F991FFC01ED54FC4F80817D
:100AD00091817894089580E090E0089582309105A6
:100AE00098F4880F991FFC01ED54FC4F208131814F
:100AF000FC01E555FC4F81E090E0408151814217B7
:100B0000530721F080E0089580E090E008950F936E
:100B10001F93CF93DF93EC018B018091A9039091F8
:100B2000AA03892B41F40E944C0581E090E0909348
:100B3000AA038093A903C230D10570F48FB7F8944B
:100B4000CC0FDD1FFE01E555FC4F11830083CD5412
:100B5000DC4F198218828FBFDF91CF911F910F91C7
:100B600008958091A9039091AA03892B41F40E94D2
:100B70004C0581E090E09093AA038093A903F89438
:100B80006091AF037091B0038091B1039091B20373
:100B90007894089585EC93E0089589EC93E00895A6
:100BA0008DEC93E0089581ED93E0089585ED93E059
:100BB000089544E150E060E00E960C9430190895D9
:100BC0002F923F924F925F926F927F928F929F925D
:100BD000AF92BF92CF92DF92EF92FF920F931F934B
:100BE000CF93DF93CDB7DEB7E6970FB6F894DEBFAD
:100BF0000FBECDBF8C012A013B0119011AAA19AA07
:100C00000E94B1054B015C0182E00E94B114892B66
:100C1000F9F40E94B105DC01CB0188199909AA09F0
:100C2000BB09481659066A067B0608F4A7C00E944D
:100C3000B1056B017C0123E3C20ED11CE11CF11C48
:100C40000E94B1056C157D058E059F05C9F7DCCFA7
:100C500048E050E0BE016D5D7F4F82E00E940D15BF
:100C6000FFA08BA18BA78CA18CA78DA18DA78EA196
:100C70008EA7E8A442E250E0BE016F5F7F4F82E0A2
:100C80000E940D158981823009F076C08F2D90E089
:100C9000982F88278E0D911D8334910509F06CC023
:100CA0006D817E818F8198850E940827F101608384
:100CB00071838283938346E050E0B801685F7F4F81
:100CC000CE014D960E943A19892B09F059C0F101C5
:100CD00080819181A281B381F8014081518162813B
:100CE000738184179507A607B70708F449C04481A4
:100CF000558166817781481759076A077B0708F491
:100D00003FC044E050E0BE016F5E7F4FC8010E96C9
:100D10000E9424198EECE82EF12C41E050E0BE0137
:100D2000615D7F4F82E00E940D15F1E0EF1AF1083E
:100D3000A1F7C80182969CAB8BABF801B696FEABCF
:100D4000EDAB1801FAE22F0E311C08976C012E0151
:100D50009BE2490E511C3801E2E16E0E711C5801F4
:100D6000F6E1AF0EB11C48012EE1820E911C82E02B
:100D70000E94B114892B31F48AA924C18FEF22C1BA
:100D800080E020C141E050E0BE01605D7F4F82E025
:100D90000E940D1588A9833309F4E0C0D0F4813096
:100DA000B9F128F3833009F442C0863009F0F5C068
:100DB00041E050E0BE016F5C7F4F82E00E940D1564
:100DC00044E050E0B40182E00E940D15E12CF12CCA
:100DD00051C08A3309F48DC030F4853359F086331D
:100DE00009F45BC0DAC08B3309F49EC08F3F09F46D
:100DF000BECFD3C041E050E0BE016F5C7F4F82E0C8
:100E00000E940D1541E050E0BE016E5C7F4F0BC0AB
:100E100041E050E0BE016F5C7F4F82E00E940D1503
:100E200044E050E0B30182E00E940D15A0CF41E004
:100E300050E0BE016F5C7F4F82E00E940D1544E0E0
:100E400050E0B50182E00E940D15E12CF12C89A93A
:100E500090E00497E816F9060CF089CF41E050E0E5
:100E6000BE01615D7F4F82E00E940D158FEFE81A91
:100E7000F80AEDCF89A990E00497E816F9060CF07E
:100E800076CF41E050E0BE01615D7F4F82E00E947D
:100E90000D159FEFE91AF90AEDCF41E050E0BE01D0
:100EA0006F5C7F4F82E00E940D15F801828D8111E9
:100EB00009C0838D811106C0848D811103C0858D89
:100EC000882319F04C145D0421F444E050E0B6018D
:100ED000AACF89A99FEF980F99AB882309F447CF30
:100EE00041E050E0BE01615D7F4F82E00E940D1540
:100EF000F0CF41E050E0BE016F5C7F4F82E00E9486
:100F00000D1544E050E06DA97EA982E00E940D1508
:100F1000F80166A177A180A591A50E94082766A384
:100F200077A380A791A723CF41E050E0BE016F5C7B
:100F30007F4F82E00E940D1544E050E0B10182E055
:100F40000E940D15F80162A573A584A595A50E94C0
:100F5000082762A773A784A795A709CF41E050E0AF
:100F6000BE016F5C7F4F82E00E940D1544E050E0AF
:100F70006BA97CA982E00E940D15F80162A173A102
:100F800084A195A10E94082762A373A384A395A3BB
:100F900066A777A780AB91ABEACE41E050E0BE01F7
:100FA0006F5C7F4F82E00E940D1589A99FEF980F1B
:100FB00099AB882309F4DBCE41E050E0BE01615DCE
:100FC0007F4FF0CFE6960FB6F894DEBF0FBECDBFD1
:100FD000DF91CF911F910F91FF90EF90DF90CF9015
:100FE000BF90AF909F908F907F906F905F904F9049
:100FF0003F902F9008950E96089542960895469634
:1010000008954A9608954E96089580E3FB018083E3
:101010003296842F82958F7090E1899F4019112418
:101020004A3014F4405D01C0495C4293482F81115D
:10103000F0CF0895AF92BF92DF92EF92FF920F939D
:101040001F93CF93DF93CDB7DEB7AA970FB6F8946F
:10105000DEBF0FBECDBF8C01D62EF42EE52E40E2B2
:1010600050E060E0CE0101960E9430198091340179
:1010700090913501A0913601B09137018DA39EA3C7
:10108000AFA3B8A743E450E0BE016B5D7F4F82E0A1
:101090000E945117892B09F4FBC081E089838A8360
:1010A00086E08B831C82F80164817581868197813B
:1010B0000E94082769A37AA38BA39CA344E050E075
:1010C000BE016F5D7F4FCE0105960E942419E9860F
:1010D000FA8680E890E09AA789A742E050E0BE0136
:1010E000675D7F4FCE010B960E9424192CE130E002
:1010F000AE014F5F5F4F60E070E082E00E94061635
:1011000040E250E060E0CE0101960E9430195801A3
:10111000F8E0AF0EB11C46E050E0B501CE010196FB
:101120000E94241920E130E0AE014F5F5F4F6CE177
:1011300070E082E00E94061640E250E060E0CE01DE
:1011400001960E9430198CE2E82EF12C20E230E06A
:10115000AE014F5F5F4FB70182E00E94061680E24A
:10116000E80EF11CECEEEE16F10481F783E68983BC
:1011700092E89A8393E59B838C8385E38D8381E05A
:101180008E83DF829DE3988797E099878A8746E080
:1011900050E0B501CE010B960E9424198CE0898B9A
:1011A00085E393E00E945B198A5F8A8B65E373E0B5
:1011B000CE0143960E945119F8014385BE01675E36
:1011C0007F4FC8010E940508F8014485BE01655E95
:1011D0007F4FC8010E940508F8014585BE01635E86
:1011E0007F4FC8010E9405082EE130E0AE014F5F3D
:1011F0005F4F6CEE70E082E00E940616F3E0DF12B3
:1012000027C082E3898384E08A83F80196859B83E3
:1012100097859C8390899D8391899E8396E39F8384
:101220008887828D8987838D8A87848D8B87858D3A
:101230008C872CE030E0AE014F5F5F4F6AE071E0D9
:1012400082E00E94061666E171E080E090E004C052
:101250006AE071E080E090E027E3298326E02A83BA
:1012600031E03B8333E03C832D832FE02E832AE360
:101270002F832BE328872FEF298729E030E0AE0169
:101280004F5F5F4F82E00E94061682E00E94761751
:10129000AA960FB6F894DEBF0FBECDBFDF91CF91F7
:1012A0001F910F91FF90EF90DF90BF90AF90089546
:1012B0002F923F924F925F926F927F928F929F9266
:1012C000AF92BF92CF92DF92EF92FF920F931F9354
:1012D000CF93DF9300D000D0CDB7DEB78C0120EDE7
:1012E00037E040E050E061E070E080E090E00E9494
:1012F0006A1CA0E0B0E0F80184839583A683B783DD
:1013000080839183A283B38382E00E94E71364E425
:1013100070E082E00E94DF13882309F42EC10E944E
:10132000B1054B015C01212C312C7801F2E4EF0E68
:10133000F11C48EE442E43E0542E612C712C52E0F7
:10134000C52ED7018C91833009F4FEC081111FC0D6
:10135000F80184819581A681B7810196A11DB11DF7
:1013600084839583A683B7830E94B10568197909A0
:101370008A099B09A30192010E94C126A90161E08B
:10138000C8010E941A0881E0D7018C93C5C084303F
:10139000F1F4F80184819581A681B7810196A11DA0
:1013A000B11D84839583A683B7830E94B105681914
:1013B00079098A099B09A30192010E94C126A9010A
:1013C00063E0C8010E941A08D701CC92A5C0813001
:1013D00051F5F80142AD53AD64AD75AD9E012F5F7F
:1013E0003F4FC8010E94E005D82EF2E08F138FC056
:1013F00089819A81AB81BC81F80184839583A6831E
:10140000B7830E94B105681979098A099B09A3016C
:1014100092010E94C126A90163E0C8010E941A0836
:10142000D701DC9279C0823009F076C0F80142AD74
:1014300053AD64AD75AD9E012F5F3F4FC8010E9453
:10144000E005D82EF5E08F135CC0E3E0D701EC9304
:10145000F80182A193A1A4A1B5A1892B8A2B8B2B82
:1014600041F484E893E0A0E0B0E082A393A3A4A3B6
:10147000B5A3F80186A197A1A0A5B1A5892B8A2BB8
:101480008B2B61F482A193A1A4A1B5A1B695A795D8
:101490009795879586A397A3A0A7B1A7F80182A5E2
:1014A00093A5A4A5B5A5892B8A2B8B2BA9F482A182
:1014B00093A1A4A1B5A1AC01BD0123E076956795E8
:1014C000579547952A95D1F7841B950BA60BB70B1B
:1014D00082A793A7A4A7B5A7F80186A197A1A0A565
:1014E000B1A586A797A7A0ABB1AB82A593A5A4A5EC
:1014F000B5A582AB93ABA4ABB5AB22242394312C1E
:101500000BC0F6E08F1303C0D7011C9205C0BFEFDC
:10151000DB1202C0F7011082F1E02F16310409F44A
:1015200010CF0E94B105DC01CB0188199909AA09E5
:10153000BB09F80126A937A940AD51AD28173907D5
:101540004A075B0708F0FDCE82E00E94E713F8012E
:1015500084819581A681B7810196A11DB11D8483E7
:101560009583A683B7830E94B105F801FE96608338
:10157000718382839383C10102C080E090E00F9069
:101580000F900F900F90DF91CF911F910F91FF90CF
:10159000EF90DF90CF90BF90AF909F908F907F9013
:1015A0006F905F904F903F902F900895CF92DF9271
:1015B000EF92FF920F931F93CF93DF93EC016B0198
:1015C0001AA21BA21CA21DA21EA21FA218A619A627
:1015D0001AA61BA61CA61DA62EAB3FAB48AF59AF43
:1015E000EAAEFBAE0CAF1DAF8C01085F1F4F46E0AB
:1015F00050E060E0C8010E943019CE010E94D90578
:1016000046E050E0B601C8010E942419FE01EE5BDD
:10161000FF4F1082CE01DF91CF911F910F91FF906C
:10162000EF90DF90CF900C945809EF92FF920F93B8
:101630001F93780189019A01AB01BC0187EB93E00C
:101640000E94D60A1F910F91FF90EF900895CF92BC
:10165000DF92EF92FF920F931F93CF93DF93EC01F2
:101660000E94B1056B017C018E01025C1F4FF801E5
:1016700080819181A281B381A7019601281B390B3A
:101680004A0B5B0BCA01B901683E33E07307810561
:10169000910508F441C028EE33E040E050E00E949C
:1016A000C126C61AD70AE80AF90AF801C082D1820F
:1016B000E282F3828EA59FA5A8A9B9A969017A0142
:1016C000CC0CDD1CEE1CFF1C8C159D05AE05BF056A
:1016D00028F41EA61FA618AA19AA08C0821B930BDD
:1016E000A40BB50B8EA79FA7A8ABB9AB8AA99BA9E2
:1016F000ACA9BDA98C159D05AE05BF0528F41AAA95
:101700001BAA1CAA1DAA08C0821B930BA40BB50B15
:101710008AAB9BABACABBDAB8EA59FA5A8A9B9A965
:10172000892B8A2B8B2B69F4FE01EE5BFF4F8081A6
:10173000833039F484E08083CE010E9458090196F9
:1017400002C080E090E04AA95BA96CA97DA9452B65
:10175000462B472B81F4FE01EE5BFF4F20812330A7
:1017600011F0211108C01082CE010E94D905CE01CE
:101770000E9458090396DF91CF911F910F91FF901E
:10178000EF90DF90CF90089587EB93E00C94270BB8
:10179000FA9AF99A08951F920F920FB60F92112498
:1017A0002F933F934F935F936F937F938F939F9369
:1017B000AF93BF93EF93FF93E091E9048091A80466
:1017C000E81720F0FB981092A5041AC08091A60497
:1017D0009091A70492BD81BD81E08E0F8093E904B2
:1017E000F0E0E755FB4F808180BD8091A604909189
:1017F000A70401969093A7048093A6040E94C80BA7
:10180000FF91EF91BF91AF919F918F917F916F91D8
:101810005F914F913F912F910F900FBE0F901F90AE
:1018200018952091A5042111FCCF9093A7048093D3
:10183000A60481E08093A5041092E9044093A804D3
:10184000962FA9EAB4E0FB018E2F891B841718F4A8
:1018500081918D93F9CF7894FB9A0895FB01861BB3
:10186000970B50E0DC01AE0FBF1F9F01261B370B0B
:101870002417350748F4F999FECFB2BDA1BD2191D7
:1018800020BDFA9AF99AEECF08952091A50421116E
:10189000FCCFFB01861B970B2E2F261B241748F429
:1018A0009C012E0F3F1F32BD21BDF89A20B5219318
:1018B000F3CF08958091A50490E0089560E070E072
:1018C00080E090E00E948705219A29980895299A3E
:1018D0000895299808959093FB038093FA0310923A
:1018E000FE031092FD031092FC0360E070E080E0C4
:1018F00090E00E9487050C94690C8091FA03909106
:10190000FB03892B09F452C080E090E00E946E0531
:10191000892B09F44BC08091FC03811134C02091C4
:10192000FD033091FE03E091FA03F091FB03E20F17
:10193000F31F80818032E9F03CF481111DC01092C8
:10194000FE031092FD0308958D3239F08E32A1F41A
:101950000E94670C6AEF70E004C00E94670C6EEE94
:1019600072E080E090E00E94870581E08093FC03B4
:10197000089568EE73E00BC02F5F3F4F3093FE0376
:101980002093FD0308950E94690C64E670E080E0F6
:1019900090E00E9487051092FC038091FD039091D6
:1019A000FE0301969093FE038093FD03089585B195
:1019B0008695817090E008958031910504F527E0C7
:1019C000289FA001299F500D1124FA01EE5FFB4FC3
:1019D00080818132A0F480E090E020E0FA01E80FFD
:1019E000F91FEE5FFB4F3081230F01968730910581
:1019F000A9F781E090E0222321F080E0089580E0C3
:101A000090E008956F927F928F929F92AF92BF92D3
:101A1000CF92DF92EF92FF920F931F93CF93DF93BA
:101A20000E945A0C892BE1F702E714E0C0E8D0E0ED
:101A3000BE016E577C4F47E0CE010E94450CF80175
:101A400011928F012796C03FD10591F742E0E42E15
:101A500044E0F42E8701C0E0D0E0D12CB12C7724F3
:101A60007A94CE010E94DC0C892B41F0F801808130
:101A7000871520F4BC2E782EDD24D3942196095F9F
:101A80001F4FC031D10569F7DD2009F46AC0B0925B
:101A9000010470920004CB2DD0E08E010F5F1F4F28
:101AA000872C2FE0A22E37E0932E6801FFE0CF2293
:101AB000DD24C6010E94DC0C892B61F4B092FF0387
:101AC0008E0101501109609780E1A82EB12C97E09A
:101AD000692E3AC09C9CF0019D9CF00D1124EE5F94
:101AE000FB4F4081242F30E0882D90E001968F71CC
:101AF00099272817390711F7C09201044093000471
:101B0000AA940F5F1F4FAA20C9F2842ECECFF701EF
:101B1000208130E0872D90E04F968F71992728170C
:101B2000390731F5C092FF03689CF001699CF00D04
:101B30001124EE5FFB4F708001501109F7E0EF0EAA
:101B4000F11C0C171D07A1F0C801B5010E94AD26BC
:101B50006C014C019924C4010E94DC0C892BB9F65C
:101B600007C08FE080930104109200041092FF03DD
:101B7000DF91CF911F910F91FF90EF90DF90CF9069
:101B8000BF90AF909F908F907F906F900895EF924D
:101B9000FF921F93CF93DF930E945A0C892B39F544
:101BA000E2E7F4E0C0E0D0E081918823E1F017E0C3
:101BB0001C9FC0011D9F900D11249C012E5F3B4F67
:101BC000790167E070E0C9010E943B1CC19FC00120
:101BD000112447E0B70180589F4F0E94110CCE5846
:101BE000DB4F188204C02196C031D105E9F6DF91A0
:101BF000CF911F91FF90EF900895EF92FF921F9366
:101C0000CF93DF93E2E7F4E0C0E0D0E08191882356
:101C1000E1F017E01C9FC0011D9F900D11249C0155
:101C20002E5F3B4F790167E070E0C9010E943B1CC9
:101C3000C19FC001112447E0B70180589F4F0E9407
:101C40002E0CCE58DB4F188204C02196C031D1052E
:101C5000E9F6DF91CF911F91FF90EF900895EF92F9
:101C6000FF920F931F93CF93DF93E82EC09101044F
:101C7000D0E02196CF70DD278091FF0390E00E9495
:101C8000DC0CF82E809100048F5F813218F4809371
:101C9000000402C01092000487E08C9F80018D9F99
:101CA000100D11240E5F1B4F80910004F8018083FA
:101CB0000E94DB0FF8016183728383839483E58242
:101CC000C093010467E070E0C8010E943B1CCE583D
:101CD000DB4F81E08883809101049091FF03891399
:101CE00008C0FF2031F090E001968F709927809313
:101CF000FF03DF91CF911F910F91FF90EF90089517
:101D0000E2E0F4E0A2E7B4E08FEF4FEF5FEFBA015B
:101D100091E08083858341835283638374839D93A1
:101D2000379624E0E237F207A1F78FE080930104B1
:101D30001092FF031092000408950F931F93CF9306
:101D4000DF930091FF03C02F10E0D0E0CE010E948E
:101D5000DC0C892B29F02196CF701F5F0C13F5CF77
:101D6000812FDF91CF911F910F910895AF92BF9274
:101D7000CF92DF92EF92FF920F931F93CF93DF9357
:101D80006B017C018A0159010E949D0E90E0A0E048
:101D9000B0E0C816D906EA06FB06F8F48091FF0306
:101DA00090E0C80ED91E8FE0C822DD2487E08C9D0C
:101DB000F0018D9DF00D1124EE5FFB4F818192812A
:101DC000A381B481E80188839983AA83BB83858139
:101DD000F501808381E090E002C080E090E0DF9137
:101DE000CF911F910F91FF90EF90DF90CF90BF9018
:101DF000AF9008954F925F926F927F928F929F92D1
:101E0000AF92BF92CF92DF92EF92FF920F931F9308
:101E1000CF93DF93CDB7DEB7CA57D1090FB6F89489
:101E2000DEBF0FBECDBFF82E8091380190913901F1
:101E3000A0913A01B0913B01E9968CAF9DAFAEAF56
:101E4000BFAFE99783E00E94AA13882329F06BE7CC
:101E500070E083E00E94DF1350E3E52E6E0101E4A1
:101E6000C00ED11C63E2462E512C612C712CFF2038
:101E700009F482C0F6010E2D11920A95E9F7F601D8
:101E800040825182628273820BE710E09E012B58E0
:101E90003F4F40E350E0B60183E00E94BB14C0977F
:101EA00009F06AC00E94B1054B015C01F9EE8F0E8A
:101EB000F3E09F1EA11CB11C0E94B10568157905B5
:101EC0008A059B05C9F783E00E94B114009709F4C5
:101ED00051C08E0107581F4F9E012F583F4FAC0134
:101EE000BE016F5F7F4F83E00E942E15C09709F0FF
:101EF00041C069A5862F90E0A0E0B0E0BA2FA92FDD
:101F0000982F88272AA5820F911DA11DB11DBA2FD8
:101F1000A92F982F88272BA5820F911DA11DB11DD8
:101F2000BA2FA92F982F88274CA550E060E070E0C9
:101F30004058534169417C4B8A019B01080F191F8E
:101F40002A1F3B1FC901B8010E94AE110E94011057
:101F50008CE393E00E94081B0E94B1120E94081BB0
:101F600089E493E00E94081B83E00E94E71381E06C
:101F700090E007C0FA947BCF83E00E94E71380E0F3
:101F800090E0C658DF4F0FB6F894DEBF0FBECDBF4E
:101F9000DF91CF911F910F91FF90EF90DF90CF9045
:101FA000BF90AF909F908F907F906F905F904F9079
:101FB00008950C94DA1A0C94EA1A6093EA04709368
:101FC000EB048093EC049093ED040C94F61A9C01BE
:101FD00060E971E00E949926892B79F0C90183702C
:101FE0009927892B61F4C90164E670E00E94992663
:101FF0009C0181E0232B21F402C081E0089580E060
:1020000008952F923F924F925F926F927F928F929C
:102010009F92AF92BF92CF92DF92EF92FF920F9377
:102020001F93CF93DF93CDB7DEB767970FB6F894C2
:10203000DEBF0FBECDBF2CE0ECE3F1E0AE014F5FA1
:102040005F4F1A01DA0101900D922A95E1F7DC0148
:102050002C91220F2056322F330F330F230F11965E
:102060003C9111973153230F2D8713962C91139781
:10207000022E000C330B205331096AE0629FA0014D
:10208000639F500D11241496CC900C2C000CDD088D
:10209000B0E3CB1AD108C40ED51E86010150110938
:1020A000FC012681022E000C330B20533109E8EE8F
:1020B000F3E02E9FA0012F9F500D3E9F500D112445
:1020C000DC0117962C911797022E000C330B20532E
:1020D000310974E6729F7001739FF00C1124E40EB5
:1020E000F51E18964C911897042E000C550B405372
:1020F0005109649F9001659F300D1124E20EF31E7B
:1021000019962C911997F701E20FF11D27FDFA9509
:10211000AF0158507A011B962C911B97220F205625
:10212000322F330F330F230F1C963C911C973053E3
:10213000230F298B1E962C911E97220F2056322F8B
:10214000330F330F230F1F963C911F973053230FEC
:102150002A8B51962C915197220F2056322F330FF4
:10216000330F230F52968C918053280F2B8BCA016B
:102170000E94E70F882321F05D85523008F0860128
:10218000C70160E971E00E949926FC01DB0120E8AB
:1021900039E540E650EF0E941E272B013C01CF019C
:1021A00064E670E00E949926FC01DB0120E032EC3D
:1021B00047E15CEB0E941E274B015C01DF01B695F5
:1021C000A795B695A79520E83FE146E857E00E941D
:1021D0001E276B017C01DF01A370BB2720E833E3DE
:1021E00041EE51E00E941E276C8B7D8B8E8B9F8B66
:1021F000F1018E2F82199D85891720F48191080F96
:10220000111DF7CFA9892A2F30E0A0E1BEE00E947E
:102210000F276D877E878F87988BBA892B2F30E0A9
:10222000ACE3B0E00E940F272D853E854F8558898D
:10223000260F371F481F591FDA01C9013B89830F39
:10224000911DA11DB11D480E591E6A1E7B1E840CD6
:10225000951CA61CB71CC80CD91CEA1CFB1C8C893D
:102260009D89AE89BF89C80ED91EEA1EFB1ED80102
:1022700020E831E541E050E00E941E27DC01CB015F
:102280008C0D9D1DAE1DBF1D8093EA049093EB0441
:10229000A093EC04B093ED0467960FB6F894DEBFFC
:1022A0000FBECDBFDF91CF911F910F91FF90EF90A7
:1022B000DF90CF90BF90AF909F908F907F906F9066
:1022C0005F904F903F902F900C94F61AEF92FF92F0
:1022D0000F931F93CF93DF93CDB7DEB768970FB6F9
:1022E000F894DEBF0FBECDBF7B012CE0ECE3F1E044
:1022F000DE011D9601900D922A95E1F78E010F5F88
:102300001F4F2CE0F80111922A95E9F70E94E70F80
:102310008A83DE011D9680E0F701408151819D9105
:10232000F80121918F0130E0290F311D4217530729
:1023300040F0421B530BF701518340838F5F8C3079
:1023400059F768960FB6F894DEBF0FBECDBFDF9188
:10235000CF911F910F91FF90EF9008954F925F9250
:102360006F927F928F929F92AF92BF92CF92DF92A5
:10237000EF92FF92CF93DF9300D0CDB7DEB72B0162
:102380003C0181E090E0A0E0B0E020E8421629E5C1
:10239000520620E6620620EF720618F480E090E014
:1023A000DC0120E931E0829F5001839FB00C929FB5
:1023B000B00C112480E3A81A88EFB80AC12CD12CE4
:1023C0007601C39420E8421629E5520620E662060B
:1023D00020EF720618F4C12CD12C7601A7019601CA
:1023E00060E879E580E690EF0E948926730162013A
:1023F000C61AD70AE80AF90A81E090E0A0E0B0E046
:10240000C11422ECD20627E1E2062CEBF20618F406
:1024100080E090E0DC0144E6489F9001499F300D48
:102420001124A20EB31E21E030E040E050E0C114C0
:1024300082ECD80687E1E8068CEBF80618F420E079
:1024400030E0A90160E072EC87E19CEB0E948926F4
:10245000A7019601261B370B480B590BCA01B9017E
:1024600020E83FE146E857E00E94C126220F331FD3
:10247000220F331FA20EB31E20E833E341EE51E0DA
:102480000E94C1267501E20EF31E20E831E541E00D
:1024900050E00E94C1264B015C013A832983BE01B2
:1024A0006F5F7F4FC7010E946611D82EC501B4012E
:1024B00020E13EE040E050E00E94C12629013A01BF
:1024C0004B015C016FE473E084E191E00E945119DB
:1024D0006D2D70E06F5F7F4F42E084E191E00E94DC
:1024E000641969817A816F5F7F4F42E087E191E0F3
:1024F0000E94641944E0B7018AE191E00E946419E6
:1025000042E0B2018FE191E00E946419C501B4017B
:102510002CE330E040E050E00E94C12649015A011E
:102520006B017C0142E0B40182E291E00E946419F7
:1025300042E0B60185E291E00E94641984E191E0F5
:102540000F900F90DF91CF91FF90EF90DF90CF90A1
:10255000BF90AF909F908F907F906F905F904F90C3
:1025600008950F931F930E94EA1A0091EA041091B4
:10257000EB042091EC043091ED04600F711F821F79
:10258000931F1F910F910C94AE11EF92FF920F9336
:102590001F93CF93DF938C01EB017A01009721F019
:1025A000209711F0452B29F483E693E00E94081B45
:1025B000FFCF68E773E00E94201C892B29F483E693
:1025C00093E00E94081B44C062E873E0CE010E94C1
:1025D000201C892BA1F36BE873E0C7010E94201C2B
:1025E000892B69F34CE050E0B80182EF94E00E943F
:1025F00024191092FD044CE050E0BE018EEF94E0EF
:102600000E942419109209054CE050E0B7018AE0BD
:1026100095E00E94241910921505F80180818E7FA3
:1026200080931A05818180931B05828180931C050C
:10263000888180931D05898180931E058A818093FE
:102640001F05DF91CF911F910F91FF90EF9008959B
:10265000FFCF0E941D25882361F00E942425843528
:10266000C1F783E993E00E94081B8FEF90E00C9480
:10267000BE030895EF92FF921F93CF93DF9300D094
:1026800000D000D0CDB7DEB7182F7A0186E0E8E49D
:10269000F1E0DE01119601900D928A95E1F7FB01C0
:1026A00081818F778C8382818D8383818E83812F3B
:1026B0000E947021BE016F5F7F4F812F0E946221B7
:1026C000B701812F0E947E21B701812F0E943921FD
:1026D00062E8812F0E940A2161E0812F0E941C2163
:1026E00081E026960FB6F894DEBF0FBECDBFDF9116
:1026F000CF911F91FF90EF9008950E94352191E0B6
:10270000823209F090E0892F08950E9435218823B4
:1027100041F08C3131F091E08A3109F490E0892F59
:10272000089580E008950E94352191E0843109F0F8
:1027300090E0892F08950E94352191E0873109F0BA
:1027400090E0892F08950E94352191E0811190E059
:10275000892F08950C94A313CF93C82F60E10E9492
:102760001C216FEF8C2FCF910C9427210F931F9377
:10277000CF93DF93C82FD62F8A010E94AC136D2F01
:102780008C2F0E940A210115110511F0B8010AC011
:1027900060918204709183046F5F7F4F7093830414
:1027A000609382048C2F0E94392161E08C2F0E945B
:1027B0001C2181E0DF91CF911F910F910895AB0112
:1027C00062E00C94B613AB0161E00C94B6130C9468
:1027D000AC13CF93C82F0E943521833131F462E0CE
:1027E0008C2F0E941C2181E001C080E0CF910895D0
:1027F0000F931F93CF93FB0190819F3F51F49181E1
:102800009F3F91F492819F3F79F493819F3F61F4C0
:102810001DC0911109C09181911106C09281911141
:1028200003C09381992399F04115510579F08A01EC
:10283000BF01C82F0E947021B8018C2F0E947E21F9
:1028400064E08C2F0E941C2191E001C090E0892F50
:10285000CF911F910F91089568E00C941C21CF92A5
:10286000DF92EF92FF920F931F93CF93C82F7B01BC
:102870008A014130584010F000E018E08C2F0E948F
:10288000F9216C018C2F0E943521873111F08C3198
:1028900021F4C016D10690F302C000E010E0A801B8
:1028A000B7018C2F0E949A2260E28C2F0E941C217B
:1028B0008C2F0E942C2184FD0BC08C2F0E9435216F
:1028C0008111F6CF8C2F0E94AC1380E090E005C000
:1028D00060E18C2F0E942721C801CF911F910F9199
:1028E000FF90EF90DF90CF900895CF92DF92EF921C
:1028F000FF921F93CF93DF93182F6B017A010E94F1
:10290000E122EC01009789F4812F0E943521843166
:10291000E9F08823D9F0C1E0D0E08C3111F4C0E0B7
:10292000D0E0D195C195D10911C0E816F9060CF493
:10293000E7011C161D0654F420E0AE01B601812FFC
:102940000E945B2360E4812F0E941C21CE01DF9155
:10295000CF911F91FF90EF90DF90CF9008950C944E
:10296000E1220C94E12221E041E050E00E945B234F
:1029700081E090E00895CF92DF92EF92FF920F9363
:102980001F93CF93F9019081911109C09181911109
:1029900006C09281911103C093819923A1F1011581
:1029A000110589F17A014130584018F0E12C98E086
:1029B000F92EE114F10439F16B01C82FBF010E9417
:1029C0007021B8018C2F0E947E21A701B6018C2FA7
:1029D0000E949A2260E28C2F0E941C218C2F0E9460
:1029E0002C2184FD0AC08C2F0E942C2183FFF6CF5E
:1029F00068E18C2F0E94272106C060E18C2F0E9485
:102A00002721C70102C080E090E0CF911F910F9174
:102A1000FF90EF90DF90CF900895EF92FF921F9379
:102A2000CF93DF934115510589F0EA017B01182FFF
:102A30000E94E1228C179D0708F4EC0120E0AE0112
:102A4000B701812F0E945B23CE0102C080E090E09D
:102A5000DF91CF911F91FF90EF9008958F929F92F9
:102A6000BF92CF92DF92EF92FF920F931F93CF937B
:102A7000DF93CDB7DEB728970FB6F894DEBF0FBE51
:102A8000CDBF452B09F47EC049016B01B82E0E94D1
:102A90000E237C018B2D0E940F218770833059F10A
:102AA000843009F445C0823009F065C028E030E088
:102AB000AE014F5F5F4FB7018B2D0E94AE1F88E0C4
:102AC000E80EF11C8981F40180838A8181838B81E6
:102AD00082838C8183838D8190E0982F88272E813B
:102AE000820F911DF801918380830F8110E0102FD8
:102AF000002788851AC026E030E0AE014F5F5F4FA7
:102B0000B7018B2D0E94AE1FF6E0EF0EF11C8981FC
:102B1000F40180838A8181838B8182838C8183838A
:102B20000D8110E0102F00278E81080F111D16C097
:102B300022E030E0AE014F5F5F4FB7018B2D0E9466
:102B4000AE1FF2E0EF0EF11C098110E0902F8827F4
:102B50000A8110E002501109080F191F9801A601FF
:102B6000B7018B2D0E94AE1FB701600F711F8B2D17
:102B70000E94FD2202C000E010E060E48B2D0E9464
:102B80001C2102C000E010E0C80128960FB6F8949E
:102B9000DEBF0FBECDBFDF91CF911F910F91FF9090
:102BA000EF90DF90CF90BF909F908F9008951F93EC
:102BB000CF93DF93182FEA014130584018F4209743
:102BC000F9F002C0C0E0D8E0AE01812F0E949A2245
:102BD00060E2812F0E941C21812F0E942C2184FD04
:102BE00009C0812F0E942C2183FFF6CF812F0E94E4
:102BF000AC1306C060E1812F0E942721CE0102C0E4
:102C000080E090E0DF91CF911F910895CF92DF9205
:102C1000EF92FF921F93CF93DF93182F7B016A01EE
:102C2000E9010E94F9218C179D0720F4812F0E9451
:102C3000F921EC019E01A601B701812F0E944F22CC
:102C4000CE01DF91CF911F91FF90EF90DF90CF9059
:102C500008951F93CF93DF93182FEB01CB010E94B0
:102C60005B19AC01BE01812FDF91CF911F910C94B4
:102C70002F14CF93DF931F92CDB7DEB7698341E066
:102C800050E0BE016F5F7F4F0E942F140F90DF91C5
:102C9000CF9108950F931F93CF93C82F8B0162E2BA
:102CA0000E943916B8018C2F0E94291662E28C2FDF
:102CB000CF911F910F910C943916CF93C82FCB0150
:102CC000BA010E94AE11FC011286BC018C2FCF917B
:102CD0000C944A16CF93DF93D82FC62F70E084E070
:102CE000759567958A95E1F76A3010F4605D01C0CB
:102CF000695C8D2F0E9439166C2F6F706A3010F04E
:102D0000695C01C0605D8D2FDF91CF910C94391605
:102D1000EF92FF920F931F93CF93C82F7B0162E234
:102D20000E943916F70161918F018C2F0E946A165B
:102D3000F6E0EF0EF11C6AE38C2F0E943916F801C1
:102D400061918F018C2F0E946A160E151F0599F74D
:102D500062E28C2FCF911F910F91FF90EF900C9416
:102D60003916CF93DF93C82FD62F672F0E946A168C
:102D70006D2F8C2FDF91CF910C946A162F923F927A
:102D80004F925F926F927F928F929F92AF92BF927B
:102D9000CF92DF92EF92FF920F931F93CF93DF9327
:102DA000CDB7DEB762970FB6F894DEBF0FBECDBFCA
:102DB000782E7B0177FF08C0F194E194F10881E05F
:102DC00090E0998B888B02C0198A188AFE0131968F
:102DD0001F018E01055F1F4F6F0188248394912C82
:102DE000A12CB12CAAE0B0E09401A5010E941E27FD
:102DF0006A8B472E582E692EB7010F2C000C880BBA
:102E0000990B2A89342D452D562D0E94E3269401D5
:102E1000A5010E94E326F60121936F01E21AF10851
:102E200027FDF3948A88942CA52CB62C0E171F0727
:102E3000C9F688899989892B21F06DE2872D0E9436
:102E4000391680E090E0F80162918F01611105C0B0
:102E5000009719F42E163F0641F4605DF801608377
:102E6000872D0E94391681E090E02016310659F72F
:102E700062960FB6F894DEBF0FBECDBFDF91CF9143
:102E80001F910F91FF90EF90DF90CF90BF90AF9088
:102E90009F908F907F906F905F904F903F902F907A
:102EA00008950F931F93CF93FB019081911109C057
:102EB0009181911106C09281911103C09381992350
:102EC00079F04115510561F08A01BF01C82F0E94B8
:102ED0007021B8018C2F0E947E2181E090E002C019
:102EE00080E090E0CF911F910F910895CF93C82F6C
:102EF00060E20E941C218C2F0E942C2184FD0CC0BA
:102F00008C2F0E942C2183FFF6CF68E18C2F0E942A
:102F1000272180E090E006C060E18C2F0E942721ED
:102F200081E090E0CF910895EF92FF920F931F936D
:102F3000CF93DF931F92CDB7DEB7182FE12CF12C82
:102F4000812F0E94E122E816F90688F401E097013A
:102F500041E050E0BE016F5F7F4F812F0E9426232A
:102F600089818A3031F08FEFE81AF80AE9CF80E0E2
:102F700001C081E00F90DF91CF911F910F91FF90E1
:102F8000EF9008951F93CF93DF931F92CDB7DEB7D5
:102F9000182F0E94E122892B89F021E041E050E0C6
:102FA000BE016F5F7F4F812F0E945B23998181E07B
:102FB0009D3029F09A3019F080E001C081E00F9037
:102FC000DF91CF911F9108958F929F92AF92BF9200
:102FD000CF92DF92EF92FF920F931F93CF93DF93E5
:102FE0001F92CDB7DEB7182F5B010E94E1227C0152
:102FF000C5010E945B19E816F90668F175016701C1
:10300000CA18DB084701F7018081882399F001E0A5
:10301000960141E050E0BE016F5F7F4F812F0E941B
:1030200026238FEFE81AF80AF40190818981981716
:1030300031F311C0C114D10461F041E050E0BE0190
:103040006F5F7F4F812F0E947514F1E0CF1AD10876
:10305000F1CF81E001C080E00F90DF91CF911F910F
:103060000F91FF90EF90DF90CF90BF90AF909F9027
:103070008F9008951F93CF93DF931F92CDB7DEB744
:10308000182F812F0E94E122892BC1F141E050E0ED
:10309000BE016F5F7F4F812F0E94751489818D3033
:1030A000D1F4812F0E94E122892B59F321E041E0E4
:1030B00050E0BE016F5F7F4F812F0E945B238981AB
:1030C0008A30E1F441E050E0BE016F5F7F4F812F15
:1030D0000E94751413C08A30A1F6812F0E94E1224C
:1030E000892B79F221E041E050E0BE016F5F7F4F14
:1030F000812F0E945B2389818D3021F30F90DF9116
:10310000CF911F910895BF92CF92DF92EF92FF92DD
:103110000F931F93CF93DF931F92CDB7DEB7C82EC7
:103120008B01FB01118210820E94E122892B09F49C
:1031300051C0D12CEE24E394F12C2AE0B22E8C2D38
:103140000E94E122892BB9F121E041E050E0BE016B
:103150006F5F7F4F8C2D0E945B2389818D3231F40C
:10316000D11038C0EE24EA94FE2C1CC090ED980FCC
:103170009A3090F4F80140815181B49E9001B59E3F
:10318000300D1124082E000C990BC097820F931F4D
:1031900091838083D39406C08A3069F08D3059F0D2
:1031A000803249F041E050E0BE016F5F7F4F8C2DCF
:1031B0000E947514C4CFF801208131812E9DC00179
:1031C0002F9D900D3E9D900D11249183808381E071
:1031D000D11001C080E00F90DF91CF911F910F912E
:1031E000FF90EF90DF90CF90BF9008959FB7F89435
:1031F000229B2A9A229A259A239A2D988CB580612F
:103200008CBD8CB580648CBD109284049FBF0895E2
:1032100080918404089590918404911109C09FB70E
:10322000F8948CBD6DBD81E0809384049FBF2A9883
:1032300008958EBD00000DB407FEFDCF8EB5089534
:103240002A9A109284040895FB01480F591F84178D
:10325000950729F02191DC012D93CD01F8CF089538
:10326000480F591F8417950721F0FC016193CF0186
:10327000F9CF0895FB01480F591F8417950759F09E
:10328000DC013D91CD012191321740F02317A8F7C1
:1032900081E090E0089580E090E008958FEF9FEF47
:1032A0000895FC01DB018D91BD01882311F081930C
:1032B000F9CF10820895FC019F01281B390B419121
:1032C0004111FACFC90108959F92AF92BF92CF9258
:1032D000DF92EF92FF920F931F93CF93DF9300D073
:1032E00000D01F92CDB7DEB7FC016B019E012F5FAE
:1032F0003F4F8E010A5F1F4FEE24E394F12C9AE0BA
:10330000992E9E9C50019F9CB00C1124C601B501C2
:103310000E949926B7010E949926D9016D939D01BB
:10332000C61AD10867FDD3947501A017B10749F7F4
:1033300060E070E084E090E050E0D8012E918D01D3
:10334000211105C06115710511F4009741F484172E
:1033500095072CF4205D219361E070E004C0841790
:1033600095070CF43196019740F70F900F900F904E
:103370000F900F90DF91CF911F910F91FF90EF90E1
:10338000DF90CF90BF90AF909F90089588EC80938E
:103390007C0086E880937A00089580917A00829577
:1033A00086958695837091E08927817090E00895D5
:1033B000EAE7F0E08081806480830895809178005E
:1033C0002091790030E0322F2227A901330F660BBC
:1033D000770B9A01AB01282BA5E6B0E00E941E27CF
:1033E00024E630E040E050E00E94E326DA01C90123
:1033F00081519140A109B109089508950F931F9338
:10340000E0918504F0918604E930F10508F09BC055
:10341000E25CFF4F0C9402278417950764F08DE956
:1034200093E00E946B0C86E00E942F0E86E090E0F5
:103430000E94BE0325C0081719070CF48EC08DE941
:1034400093E00E946B0C88E00E942F0E88E090E0D1
:103450000E94BE030BC0841795070CF708171907C5
:103460000CF47BC08DE993E00E946B0C86E090E049
:1034700065C084179507FCF28DE993E00E946B0C00
:1034800083E090E05BC08617970764F08FE993E0D4
:103490000E946B0C85E00E942F0E85E090E00E9458
:1034A000BE0312C0841795070CF057C083E393E066
:1034B0000E946B0C82E090E041C08617970794F35E
:1034C0008FE993E00E946B0C85E090E037C086178F
:1034D00097070CF042C08DE993E00E946B0C84E0EA
:1034E00090E02CC02817390764F08FE993E00E9420
:1034F0006B0C87E00E942F0E87E090E00E94BE03D5
:1035000011C0081719074CF583E393E00E946B0C78
:1035100081E090E013C0281739079CF38FE993E00E
:103520000E946B0C88E090E009C028173907ACF4C2
:103530008DE993E00E946B0C87E090E09093860405
:10354000809385040AC0109286041092850483E358
:1035500093E01F910F910C946B0C1F910F910895A4
:10356000109286041092850408951F920F920FB650
:103570000F9211248F939F93AF93BF9380918704F1
:1035800090918804A0918904B0918A040196A11DAC
:10359000B11D8093870490938804A0938904B0930D
:1035A0008A04BF91AF919F918F910F900FBE0F90A2
:1035B0001F90189583E294EF909389008093880080
:1035C000109280008CE080938100789482E0809358
:1035D0006F0008952FB7F894609187047091880464
:1035E0008091890490918A042FBF08958FB7F89431
:1035F00010928704109288041092890410928A0411
:103600008FBF08950E94AF23789408950C9473257A
:10361000CF93DF93EC018991882319F00E947325E1
:10362000FACFDF91CF910895CF93C82F90E024E097
:10363000959587952A95E1F78A3010F4805D01C051
:10364000895C0E9473258C2F8F708A3010F0895C02
:1036500001C0805DCF910C947325CF93C82F892F23
:103660000E94141B8C2FCF910C94141B2F923F920D
:103670004F925F926F927F928F929F92AF92BF9282
:10368000CF92DF92EF92FF920F931F93CF93DF932E
:10369000CDB7DEB763970FB6F894DEBF0FBECDBFD0
:1036A0006B017C0197FF0DC0F094E094D094C0941E
:1036B000C11CD11CE11CF11C81E090E09B8B8A8B2A
:1036C00002C01B8A1A8AFE0131965F018E01055FD6
:1036D0001F4FF98BE88B66246394712C812C912CFD
:1036E000AAE0B0E09301A4010E941E271B012C0157
:1036F000C701B6019101A2010E94E3269301A40132
:103700000E94E326E889F9892193F98BE88B822FBF
:10371000220F990BAA0BBB0BC81AD90AEA0AFB0A9B
:10372000310142010E171F07D9F68A899B89892B1F
:1037300019F08DE20E94732520E030E0F8018291BB
:103740008F01811106C02115310519F4EA15FB0519
:1037500029F4805D0E94732521E030E00A151B05E5
:1037600069F763960FB6F894DEBF0FBECDBFDF9149
:10377000CF911F910F91FF90EF90DF90CF90BF906E
:10378000AF909F908F907F906F905F904F903F9001
:103790002F9008950C9449250C947025FF920F9357
:1037A0001F93CF93DF93EC01062FF72E18820E9410
:1037B000492510E08823D9F00E941D258823B9F0FF
:1037C0000E942425803210F089931F5FE02FFF2D87
:1037D000482F50E02191222339F0022E000C330BA8
:1037E00042175307B9F702C08D3051F71882812F65
:1037F000DF91CF911F910F91FF9008950F931F9329
:10380000CF93DF938C01EC01699170E080E090E050
:103810000E94361B0C5F1F4F8EE20E947325699138
:1038200070E080E090E00E94361BC017D107A1F73E
:1038300080E492E0DF91CF911F910F910C94081BCF
:10384000DC01FB019D91992341F08191891784F05E
:103850009817C4F78FEF9FEF089581E090E02081E3
:10386000211102C080E090E0919581959109089521
:1038700081E090E00895DC0190E020E06150710962
:10388000422F50E0FD01E40FF51F4617570720F4C3
:103890008081980F2F5FF4CF9195908308956115E3
:1038A00071058105910541F060932C0170932D0104
:1038B00080932E0190932F0121153105410551056B
:1038C00041F0209328013093290140932A0150931D
:1038D0002B0108954F925F926F927F928F929F92E9
:1038E000AF92BF92CF92DF92EF92FF92CF93DF938E
:1038F00000D000D0CDB7DEB72B013C0129833A833D
:103900004B835C83C0902801D0902901E0902A016C
:10391000F0902B01A701960144275527A9E6B0E9AD
:103920000E941E276701EE24FF244B015C018C0CD2
:103930009D1CAE1CBF1C8092280190922901A09270
:103940002A01B0922B01C0902C01D0902D01E09063
:103950002E01F0902F01A701960144275527A0E5DD
:10396000B6E40E941E276701EE24FF24C60ED71E70
:10397000E81EF91EC0922C01D0922D01E0922E017A
:10398000F0922F01D40199278827BC01CD016C0D3D
:103990007D1D8E1D9F1D29813A814B815C812419DB
:1039A0003509460957090E94C126CB01840D951D92
:1039B0000F900F900F900F90DF91CF91FF90EF90AD
:1039C000DF90CF90BF90AF909F908F907F906F903F
:1039D0005F904F900895CF93DB01FC0120812D3241
:1039E00021F401966FEF7FEF02C061E070E0119665
:1039F0001C921E92FC01CAE020818D919C9111972E
:103A00002223C1F0C89FA001C99F500D1124119617
:103A10005C934E93219180ED820F8A30B8F4022E90
:103A2000000C330B20533109240F351F11963C93A2
:103A30002E93E2CF869F9001879F300D969F300D89
:103A400011242D933C9381E090E002C080E090E04F
:103A5000CF9108958091EE04833561F48091EF0455
:103A6000853441F481E090E02091F004223521F08A
:103A700080E002C080E090E0EEEEF4E020E03191E2
:103A8000230F35E0E632F307D1F7222311F080E06F
:103A900090E00895CF93DF93CDB7DEB7E7970FB6E9
:103AA000F894DEBF0FBECDBF87E3EEE4F1E0DE01A8
:103AB000119601900D928A95E1F767E370E0CE01CF
:103AC00001960E943B1C47E3BE016F5F7F4F80E081
:103AD00090E00E94110CE7960FB6F894DEBF0FBE7F
:103AE000CDBFDF91CF9108950E945A0C892BE1F749
:103AF00047E36EEE74E080E090E00E94450C0E9487
:103B00002A1D892B49F40E944A1D47E36EEE74E09A
:103B100080E090E00C94450C0895AF92BF92DF9244
:103B2000EF92FF920F931F93CF93DF93EC01D62E6A
:103B3000E72E8A0180918B048333F9F4A62EB72EE9
:103B40007E01E40EF51ECE15DF0509F45EC062E0CD
:103B500080E50E940B1980EF0E9419198D2F0E9499
:103B600019198C2F0E9419192196F50181915F0175
:103B70000E9419190E942019E6CF62E080E50E9498
:103B80000B19C115F4E0DF0718F4FC2EC4E00DC0DA
:103B9000C11528E0D20758F4FC2ED45033E0D69556
:103BA000C7953A95E1F7C07ECC6080E018C0CE01A1
:103BB0009770892FFC2EC115E0E6DE0740F426E061
:103BC000D695C7952A95E1F7C07EC46108C0D05646
:103BD00096E0D695C7959A95E1F7C07ECC610E9494
:103BE00019198F2D0E9419198C2F0E941919CD2D8A
:103BF000DE2D7E01E00EF11ECE15DF0521F089914C
:103C00000E941919F9CF0E942019C801DF91CF91A4
:103C10001F910F91FF90EF90DF90BF90AF900895AC
:103C2000CF93DF931F92CDB7DEB7698341E050E0B9
:103C3000BE016F5F7F4F0E948D1D0F90DF91CF916E
:103C400008958F929F92AF92BF92CF92DF92EF92A0
:103C5000FF920F931F93CF93DF93EC018B016A01C7
:103C60007901FA01608181E090E00E94101EF60166
:103C7000618182E090E00E94101EF601628183E083
:103C800090E00E94101EF601638184E090E00E94A3
:103C9000101E0E94B1054B015C01F2E08F0E911CD9
:103CA000A11CB11C0E94B105681579058A059B0508
:103CB000C9F7688189E090E00E94101E69818AE05E
:103CC00090E00E94101E6A818BE090E00E94101E1E
:103CD0006B818CE090E00E94101E6C818DE090E082
:103CE0000E94101E6D818EE090E00E94101E0E94C6
:103CF000B1054B015C0122E0820E911CA11CB11C9C
:103D00000E94B105681579058A059B05C9F7F70179
:103D1000608185E090E00E94101EF701618186E0DD
:103D200090E00E94101EF701628187E090E00E94FF
:103D3000101EF701638188E090E00E94101E0E942F
:103D4000B1056B017C01F2E0CF0ED11CE11CF11C2E
:103D50000E94B1056C157D058E059F05C9F7F80118
:103D600060818FE090E00E94101EF801618180E187
:103D700090E00E94101EF801628181E190E00E94B3
:103D8000101EF801638182E190E00E94101E0E94E3
:103D9000B1056B017C01F2E0CF0ED11CE11CF11CDE
:103DA0000E94B1056C157D058E059F05C9F765E577
:103DB0008AE190E00E94101E65E58BE190E00E9490
:103DC000101E80E0DF91CF911F910F91FF90EF9037
:103DD000DF90CF90BF90AF909F908F900895AF925B
:103DE000BF92DF92EF92FF920F931F93CF93DF93D7
:103DF000EC01D62EE72E8A0180918B04833301F5E6
:103E0000A62EB72E7E01E40EF51ECE15DF0509F4B1
:103E100060C062E080E50E940B198FE00E941919D2
:103E20008D2F0E9419198C2F0E941919219680E05C
:103E30000E941919F50181935F010E942019E5CFB5
:103E400062E080E50E940B19C115F4E0DF0718F469
:103E5000FC2EC0E00DC0C11528E0D20758F4FC2E9E
:103E6000D45033E0D695C7953A95E1F7C07EC86047
:103E700080E018C0CE019770892FFC2EC115E0E6B6
:103E8000DE0740F426E0D695C7952A95E1F7C07E77
:103E9000C06108C0D05696E0D695C7959A95E1F7CF
:103EA000C07EC8610E9419198F2D0E9419198C2F8C
:103EB0000E941919CD2DDE2D7E01E00EF11ECE15CA
:103EC000DF0529F080E00E9419198993F8CF0E943C
:103ED0002019C801DF91CF911F910F91FF90EF90B2
:103EE000DF90BF90AF900895CF93DF931F92CDB72F
:103EF000DEB741E050E0BE016F5F7F4F0E94EF1ED2
:103F000089810F90DF91CF91089590E00496982FCA
:103F10008827860F971F0C94741F9B0190E00496CE
:103F2000982F8827642F820F931F0E94101E0895D8
:103F3000FB01BA0190E00496982F8827A9018E0F03
:103F40009F1F0C94EF1EFB01BA0190E00496982F7E
:103F50008827A9018E0F9F1F0C948D1DAF92BF92D1
:103F6000CF92DF92EF92FF920F931F93CF93DF9345
:103F700000D0CDB7DEB77A836983BA01A901A981E0
:103F8000BA81B770E82FF0E0EE0FFF1FEB57FE4F3E
:103F9000E080F180CD018E0D9F1D9D01240F351F06
:103FA0002130384080F06A015B0100E018E00A1B14
:103FB0001B0BA8010E94EF1EA601401B510BB5016F
:103FC000600F711FC7010F900F90DF91CF911F916C
:103FD0000F91FF90EF90DF90CF90BF90AF900C9437
:103FE000EF1E682F80E090E00C94101E80E090E0BF
:103FF0000C94741FCF92DF92EF92FF9283E3809331
:104000008B0460E880E090E00E94101E0E94B105E1
:104010006B017C0122E0C20ED11CE11CF11C0E944C
:10402000B1056C157D058E059F05C9F780E10E94DD
:10403000F11F0E94F61F803121F010928B0480E066
:104040000FC082E10E94F11F0E94F61F8231A9F782
:1040500080E00E94F11F0E94F61F8111EECF81E0E7
:10406000FF90EF90DF90CF900895CF92DF92EF9284
:10407000FF9287E380938B0460E880E090E00E94E9
:10408000101E0E94B1056B017C0122E0C20ED11C02
:10409000E11CF11C0E94B1056C157D058E059F0584
:1040A000C9F788E00E94F11F0E94F61F883021F0B6
:1040B00010928B0480E00FC080E10E94F11F0E94EB
:1040C000F61F8031A9F780E00E94F11F0E94F61FC1
:1040D0008111EECF81E0FF90EF90DF90CF900895B7
:1040E0000E94FA1F811102C00C943520089544E00B
:1040F00050E0BC0181E090E00C948D1D44E050E064
:10410000BC0181E090E00C94EF1E44E050E0BC0163
:1041100085E090E00C948D1D44E050E0BC0185E00A
:1041200090E00C94EF1E46E050E0BC0189E090E086
:104130000C948D1D46E050E0BC0189E090E00C94A9
:10414000EF1E44E050E0BC018FE090E00C948D1D28
:1041500044E050E0BC018FE090E00C94EF1E682F2B
:1041600085E190E00C94101E85E190E00C94741FA2
:10417000CF93C82F692F87E190E00E94101E6C2F0B
:1041800088E190E0CF910C94101ECF93DF9387E1EC
:1041900090E00E94741FC82FD0E0DC2FCC2788E16C
:1041A00090E00E94741F9E01280F311DC901DF910C
:1041B000CF91089544E050E0BC018AE290E00C9475
:1041C0008D1D44E050E0BC018AE290E00C94EF1EAB
:1041D000CF93C82F692F8EE290E00E94101E6C2FA3
:1041E0008FE290E0CF910C94101ECF93DF938EE27C
:1041F00090E00E94741FC82FD0E0DC2FCC278FE204
:1042000090E00E94741F9E01280F311DC901DF91AB
:10421000CF910895462F60E070E00C948D1F60E010
:1042200070E00C94851F462F61E070E00C948D1FA8
:1042300061E070E00C94851FCF93C82F0E9413217A
:104240008C2F0E9418218111FBCFCF910895462F0A
:1042500062E070E00C948D1F62E070E00C94851FAA
:10426000462F63E070E00C948D1F63E070E00C94C7
:10427000851FCF93DF93C82FD62F472F64E070E0C0
:104280000E948D1F4D2F65E070E08C2FDF91CF9144
:104290000C948D1F1F93CF93DF93182F64E070E071
:1042A0000E94851FC82FD0E065E070E0812F0E943A
:1042B000851FDC2FCC279E01282BC901DF91CF91D0
:1042C0001F910895AB0126E030E066E070E00C94A9
:1042D000A31FAB0126E030E066E070E00C94981F6D
:1042E000AB0124E030E06CE070E00C94A31FAB0164
:1042F00024E030E06CE070E00C94981FCF93DF93E3
:10430000C82FD62F472F60E170E00E948D1F4D2FE0
:1043100061E170E08C2FDF91CF910C948D1F1F9382
:10432000CF93DF93182F60E170E00E94851FC82FA4
:10433000D0E061E170E0812F0E94851FDC2FCC2747
:104340009E01282BC901DF91CF911F910895CF9332
:10435000DF93C82FD62F472F62E170E00E948D1F98
:104360004D2F63E170E08C2FDF91CF910C948D1F66
:104370001F93CF93DF93182F62E170E00E94851F97
:10438000C82FD0E063E170E0812F0E94851FDC2FF1
:10439000CC279E01282BC901DF91CF911F91089551
:1043A000CF93DF93C82FD62F472F60E270E00E9493
:1043B0008D1F4D2F61E270E08C2FDF91CF910C9417
:1043C0008D1F1F93CF93DF93182F60E270E00E9440
:1043D000851FC82FD0E061E270E0812F0E94851F09
:1043E000DC2FCC279E01282BC901DF91CF911F9193
:1043F0000895FF920F931F93CF93DF93F82EC0E0A1
:10440000D0E08F2D0E94E1218C01892B21F08F2D8E
:104410000E94E121EC01C017D10799F7CE01DF918D
:10442000CF911F910F91FF900895CF93DF93C82FE5
:10443000D62F472F62E270E00E948D1F4D2F63E25E
:1044400070E08C2FDF91CF910C948D1F1F93CF9331
:10445000DF93182F62E270E00E94851FC82FD0E022
:1044600063E270E0812F0E94851FDC2FCC279E0124
:10447000282BC901DF91CF911F910895CF93DF932E
:10448000C82FD62F472F64E270E00E948D1F4D2F5A
:1044900065E270E08C2FDF91CF910C948D1F9F927D
:1044A000AF92BF92CF92DF92EF92FF920F931F9342
:1044B000CF93DF93982E7B016A0189010E94262207
:1044C000E80EF91E97013770E92DF0E0EE0FFF1F9F
:1044D000E357FE4FA080B180C9018A0D9B1DA90141
:1044E000400F511F4130584080F0C0E0D8E0C21B5F
:1044F000D30BAE01B6010E948D1DA8014C1B5D0BB4
:10450000B6016C0F7D1FC50102C0A801B6010E9453
:104510008D1DB701600F711F892DDF91CF911F9104
:104520000F91FF90EF90DF90CF90BF90AF909F9052
:104530000C943E229A01AB0160E070E00C944F2293
:104540001F93CF93DF93182F64E270E00E94851FC2
:10455000C82FD0E065E270E0812F0E94851FDC2F1C
:10456000CC279E01282BC901DF91CF911F9108957F
:10457000CF93DF93C82FD62F472F66E270E00E94BB
:104580008D1F4D2F67E270E08C2FDF91CF910C943F
:104590008D1F1F93CF93DF93182F66E270E00E9468
:1045A000851FC82FD0E067E270E0812F0E94851F31
:1045B000DC2FCC279E01282BC901DF91CF911F91C1
:1045C0000895FF920F931F93CF93DF93F82EC0E0CF
:1045D000D0E08F2D0E94C9228C01892B21F08F2DD4
:1045E0000E94C922EC01C017D10799F7CE01DF91D3
:1045F000CF911F910F91FF900895CF93DF93C82F14
:10460000D62F472F68E270E00E948D1F4D2F69E280
:1046100070E08C2FDF91CF910C948D1F1F93CF935F
:10462000DF93182F68E270E00E94851FC82FD0E04A
:1046300069E270E0812F0E94851FDC2FCC279E014C
:10464000282BC901DF91CF911F910895CF92DF925E
:10465000EF92FF920F931F93CF93DF93182F6B016D
:104660007A01E9010E940E238C0F9D1FEC01D77087
:104670009701A601BE01812F0E94AE1F011112C039
:10468000BE016E0D7F1D812F0E94FD2260E4812FEF
:10469000DF91CF911F910F91FF90EF90DF90CF901E
:1046A0000C941C21DF91CF911F910F91FF90EF90FF
:1046B000DF90CF9008950F93022F20E030E00E940A
:1046C00026230F910895CF93DF93C82FD62F472F1E
:1046D0006AE270E00E948D1F4D2F6BE270E08C2F1C
:1046E000DF91CF910C948D1F1F93CF93DF93182FE1
:1046F0006AE270E00E94851FC82FD0E06BE270E094
:10470000812F0E94851FDC2FCC279E01282BC901F9
:10471000DF91CF911F9108951F920F920FB60F92C4
:1047200011240E94670C82E00E942F0E0E94FD0D52
:104730000E94E704FBCF9FB7F894A895E0E6F0E06D
:104740008081886180838FE480839FBF0895A895CE
:104750000895809160008B7080936000FFCF10926D
:10476000C00087E690E09093C5008093C400E1EC20
:10477000F0E088E1808386E08093C2008081806AD7
:10478000808308951F920F920FB60F9211242F93DA
:104790003F938F939F93EF93FF938091920488238D
:1047A00009F4F0C08091C60090919104992309F416
:1047B000E3C090EE980F9F3518F08D3009F059C086
:1047C00020918E0490918F0430E0291B31092150F3
:1047D00031092F733327232B61F0E0918F04F0E030
:1047E000EB5DFA4F808390918F049F5F9F7390934E
:1047F0008F0420918C0490918D0430E0291B3109A5
:10480000215031092F733327232B89F0E0918D0438
:10481000F0E0EB59FA4F808390918D049F5F9F7376
:1048200090938D049091C10090629093C1008D305F
:1048300009F0C5C080918C0420918D0490E0821B0A
:10484000910901978F739927892B69F0E0918D0465
:10485000F0E0EB59FA4F8AE0808380918D048F5FFE
:104860008F7380938D04809190048F5F8093900468
:10487000A6C0883011F08F37C1F580918F04209148
:104880008E0490E0821B91098F739927892B09F47C
:1048900096C0E0918F04F0E0EB5DFA4F808180914B
:1048A0008F0481508F7380938F0480918C042091AA
:1048B0008D0490E0821B910901978F739927892BB2
:1048C00009F47DC0E0918D04F0E0EB59FA4F8FE7D9
:1048D000808380918D048F5F8F7380938D0480918E
:1048E000C10080628093C1006AC0843009F067C053
:1048F00080918F0420918E0490E0821B91098F7328
:104900009927892B31F1E0918F04F0E0EB5DFA4FAC
:1049100080818D30F1F080918E0420918F0490E0A1
:10492000821B910901978F739927892B91F0E09150
:104930008F04F0E0EB5DFA4F8DE0808380918F046F
:104940008F5F8F7380938F04809190048F5F80932B
:10495000900480918E0420918F0490E0821B910935
:1049600001978F739927892B51F1E0918F04F0E023
:10497000EB5DFA4F84E019C0833009F581E0809344
:1049800091041DC080918E0420918F0490E0821BC1
:10499000910901978F739927892B79F0E0918F0402
:1049A000F0E08091C600EB5DFA4F808380918F0428
:1049B0008F5F8F7380938F0402C08091C600FF9138
:1049C000EF919F918F913F912F910F900FBE0F907C
:1049D0001F9018951F920F920FB60F9211242F93CC
:1049E0008F939F93EF93FF9380918D0420918C047C
:1049F00090E0821B91098F739927892B79F0E091C0
:104A00008C04F0E0EB59FA4F80818093C6008091CE
:104A10008C048F5F8F7380938C0405C08091C100DC
:104A20008F7D8093C100FF91EF919F918F912F9186
:104A30000F900FBE0F901F90189580918F0490914A
:104A40008E04891B8F73089580918F0420918E04AA
:104A500090E0821B91098F739927892BC1F0E09117
:104A60008E04F0E0EB5DFA4F808190918E049F5FA1
:104A70009F7390938E0490919204992349F08D3006
:104A800039F490919004915090939004089580E0AF
:104A9000089581E08093920480918F0420918E0488
:104AA00090E0821B91098F739927892BB1F0E091D7
:104AB0008E04F0E0EB5DFA4F8081843071F4109247
:104AC0009104E0918E04F0E0EB5DFA4F80818091DB
:104AD0008E048F5F8F7380938E048091910408956C
:104AE0008091900408950FB607FE0EC020918C04AB
:104AF00090918D0430E0291B3109215031092F7329
:104B00003327232B99F30DC020918C0490918D04B1
:104B100030E0291B3109215031092F733327232B12
:104B200061F0E0918D04F0E0EB59FA4F80838091C1
:104B30008D048F5F8F7380938D048091C10080629C
:104B40008093C10008951F93CF93DF93EC0180E021
:104B500011E0180FFE01E80FF11D8081882321F07C
:104B60000E947325812FF4CFDF91CF911F9108957B
:104B70001F93CF93DF93EC0180E011E0180FFE014B
:104B8000E80FF11D8491882321F00E947325812F65
:104B9000F4CFDF91CF911F910895CF93DF9300D091
:104BA00000D0CDB7DEB70E94021B0E945E0C0E94AF
:104BB000741D0E94B4040E94020D0E94D90F0E942D
:104BC000F6180E94C6190E9470200E94FD190E94CA
:104BD0004E030E94800E4FE053E066E173E08AE1ED
:104BE00093E00E94C51219821A821B821C829E01C8
:104BF0002F5F3F4FA901B9018AE195E00E94211E74
:104C000000EA1FE020E030E040E65AEE60E070E0AD
:104C10008AE195E00E94150B892B91F380E293E0E5
:104C20000E94081B0E94CA050E94FE1B0E94CD051F
:104C30007C010E94D0058C010E94CA059701A80141
:104C4000BC018AE195E00E94211E83E00E942F0EA4
:104C500085E00E94FA0E84E00E942F0E0E949B23A2
:104C600080E00E942F0E80E090E00E94BE030E9430
:104C700029130E94D81968E873E181E090E00E944E
:104C800087050E94A7230E947D0C81E090E00E948E
:104C90006E05892BC9F00E94DE1900919D041091C8
:104CA0009E0420919B0430919C0440919904509162
:104CB0009A0460919704709198040E94FE190E94D2
:104CC000D81968EE73E0D9CF80E00E94A31388233F
:104CD00049F060E97FE180E00E94E31380E00E94F8
:104CE000E913CFCF80E00E94AF14181619061CF408
:104CF0000E94AE00C6CF0E945A0C892B11F40E946C
:104D0000C70D0E945A0C892B09F0BBCF0E94CF041B
:104D1000B8CFDB018F939F930E941E27BF91AF9165
:104D2000A29F800D911DA39F900DB29F900D112405
:104D30000895AA1BBB1B51E107C0AA1FBB1FA617E2
:104D4000B70710F0A61BB70B881F991F5A95A9F734
:104D500080959095BC01CD01089597FB072E16F420
:104D6000009407D077FD09D00E94992607FC05D052
:104D70003EF4909581959F4F0895709561957F4F72
:104D80000895A1E21A2EAA1BBB1BFD010DC0AA1F8C
:104D9000BB1FEE1FFF1FA217B307E407F50720F0A4
:104DA000A21BB30BE40BF50B661F771F881F991F1F
:104DB0001A9469F760957095809590959B01AC0168
:104DC000BD01CF010895052E97FB1EF400940E94AB
:104DD000FA2657FD07D00E94C12607FC03D04EF4E7
:104DE0000C94FA2650954095309521953F4F4F4FA2
:104DF0005F4F089590958095709561957F4F8F4F87
:104E00009F4F0895EE0FFF1F0590F491E02D099438
:104E10006927962769277827872778270895A29FEB
:104E2000B001B39FC001A39F700D811D1124911D7E
:104E3000B29F700D811D1124911D08950E940F27AE
:104E4000A59F900DB49F900DA49F800D911D1124DE
:064E50000895F894FFCF65
:104E5600030B443100802500002D00040B44300074
:104E6600802500002D0002060024F400010C617468
:084E76006D65676133323800FD
:104E7E004B0041535500FF03FE030000010000C02C
:104E8E00A801640030302F30302F303030302030D9
:104E9E00303A30303A303000E5559A15B53B121F96
:104EAE00EF010101FFFFFFFFC0A801011F1C1F1E24
:104EBE001F1E1F1F1E1F1E1F01005E0000005345F8
:104ECE00520053616E647900000000000000446FD0
:104EDE0075676C617300000000005F554E415353BF
:104EEE0049474E45440000000000444F5553414E83
:104EFE0055534100000060004800700078004000EB
:104F0E004800500058485454502F312E3120343020
:104F1E00302042616420526571756573740A0043D6
:104F2E006F6E6E656374696F6E3A20636C6F736536
:104F3E000D0A00485454502F312E3120323030207B
:104F4E004F4B0A006465766963650047455400500F
:104F5E0055540044454C455445002F636F6E6669A9
:104F6E00673F0074637269745F68693D00747761AE
:104F7E00726E5F68693D0074637269745F6C6F3D39
:104F8E0000747761726E5F6C6F3D003F7265736582
:104F9E00743D002266616C73652200227472756521
:104FAE0022002F6C6F670020485454502F312E3141
:104FBE000D0A00436F6E74656E742D547970653AE8
:104FCE00206170706C69636174696F6E2F766E64A8
:104FDE002E6170692B6A736F6E0D0A007670640015
:104FEE003A7B006D6F64656C003A006D616E75669C
:104FFE00616374757265720073657269616C5F6E60
:10500E00756D626572006D616E7566616374757241
:10501E00655F64617465006D61635F616464726590
:10502E00737300636F756E7472795F636F6465007E
:10503E007D2C0074637269745F68690074776172A5
:10504E006E5F68690074637269745F6C6F00747769
:10505E0061726E5F6C6F0074656D706572617475F0
:10506E007265007374617465003A5B0074696D65F6
:10507E007374616D70006576656E74005D7D006A97
:10508E006C68616D320068616D006A617265640002
:10509E006C6F63616C2069703A20000D0A414C41BF
:1050AE00524D3A200057495A6E65740074696D6509
:1050BE002073796E63656420005554430D0A0030E9
:1050CE00302F30302F303030302030303A30303AD0
:1050DE0030300050726F6A656374206E6F74207387
:1050EE0069676E65640D0A0066697273746E616D30
:1050FE0065006C6173746E616D65006173757269C4
:10510E0074650054657374696E670D0A002D002E68
:02511E0000008F
:00000001FF
