:100000000C943D000C945A000C945A000C945A0025
:100010000C945A000C945A000C94A2020C945A00AE
:100020000C945A000C945A000C945A000C94360B01
:100030000C945A000C945A000C9470030C945A00BF
:100040000C945A000C945A000C94B8110C94E012C1
:100050000C945A000C945A000C9442040C945A00CC
:100060000C945A000C945A001C013B015A01750172
:100070008C01A301AE01C101D00111241FBECFEF3D
:10008000D8E0DEBFCDBF13E0A0E0B1E0E4EEF8E2DF
:1000900002C005900D92AE3FB107D9F725E0AEEF53
:1000A000B3E001C01D92A33FB207E1F70E945C00DC
:1000B0000C945C140C9400000F931F93CF93DF9368
:1000C0001F92CDB7DEB70E9429030E948C110E94B7
:1000D00071070E9479050E94E5020E94830B0E942D
:1000E000D5040E94FF0A0E94C4020E9443021982A2
:1000F00080E391E00E94890B81E591E00E94890BE9
:100100008BE591E00E94890B80E00E94A6060E9488
:10011000110B68E873E181E090E00E94FC030E940B
:10012000CE020E94F40481E090E00E94E303892B58
:1001300031F10E94170B9093010180930001E0912F
:10014000EB04F091EC042091E9043091EA04409131
:10015000E7045091E8046091E5047091E604809111
:100160000001909101018F010E94EC000E94110B8F
:1001700068EE73E081E090E00E94FC03D0CF8981BB
:10018000882359F40E94FC0C882349F28EE591E003
:100190000E94890B81E08983C2CF0E94FE0C8823D4
:1001A00069F00E94420D0E94FC0C882309F0B7CF31
:1001B00087E791E00E94F40C1982B1CF0E94D1042C
:1001C000892B11F40E943E060E94D104892B09F06C
:1001D000A6CF0E944403A3CF0F931F93CF93DF9327
:1001E000CDB7DEB72B970FB6F894DEBF0FBECDBFED
:1001F0009B838A837D836C835F834E8339872887C3
:100200001B870A878091FE0389838091FE03882FD4
:1002100090E0092E000CAA0BBB0B41E050E028E057
:1002200030E0841B950B2817390708F4C4C08C5C98
:100230009F4FFC010C943C142A813B818E819F814D
:100240002817390744F086E090E00E94E60284E037
:100250008093FE03B4C02A813B818A859B858217E7
:1002600093070CF4ACC088E090E00E94E60287E0BF
:100270008093FE03A4C02A813B818E819F81281731
:10028000390764F086E090E00E94E60289E891E098
:100290000E94E20484E08093FE0393C02A813B81A4
:1002A0008A859B85821793070CF48BC087E0809327
:1002B000FE0387C02A813B818A859B85821793072D
:1002C00044F088E090E00E94E60287E08093FE031D
:1002D0007AC02A813B818A859B85821793070CF41B
:1002E00072C084E08093FE036EC02A813B818C81C2
:1002F0009D812817390764F08BE891E00E94F40C87
:1003000085E090E00E94E60286E08093FE0362C0F2
:1003100083E08093FE035EC02A813B818C819D81B6
:100320002817390724F086E08093FE034EC02A8107
:100330003B818E819F81281739070CF046C083E0EE
:100340008093FE0342C02A813B818C819D812817C6
:100350003907ECF585E08093FE0339C02A813B81A3
:10036000888599858217930744F087E090E00E9482
:10037000E60289E08093FE032DC082E08093FE03B5
:1003800029C02A813B81888599858217930724F0AB
:1003900089E08093FE031EC082E08093FE031AC0B2
:1003A0002A813B81888599858217930794F488E098
:1003B0008093FE030EC081E08093FE030BC000001B
:1003C00009C0000007C0000005C0000003C0000015
:1003D00001C000008091FE0399819817B9F081EB6C
:1003E00091E00E94890B8981882F90E00E94950BF3
:1003F0008EEB91E00E94890B8091FE03882F90E0A4
:100400000E94950B8DEC91E00E94890B8091FE0378
:10041000863021F08091FE03893029F480ED91E04F
:100420000E94E20419C08091FE03843061F0809143
:10043000FE03853041F08091FE03873021F08091EA
:10044000FE03883029F489E891E00E94E20404C0A8
:1004500082ED91E00E94E20400002B960FB6F89422
:10046000DEBF0FBECDBFDF91CF911F910F910895D9
:10047000CF93DF93CDB7DEB781E08093FE0300001A
:10048000DF91CF910895CF93DF93CDB7DEB781E0B1
:100490008093FE030000DF91CF910895CF93DF9307
:1004A00000D0CDB7DEB79A83898389819A819093F2
:1004B000E6048093E5040E94440300000F900F902F
:1004C000DF91CF910895CF93DF9300D0CDB7DEB702
:1004D0009A83898389819A819093E8048093E704C1
:1004E0000E94440300000F900F90DF91CF91089578
:1004F000CF93DF9300D0CDB7DEB79A83898389810C
:100500009A819093EA048093E9040E9444030000D6
:100510000F900F90DF91CF910895CF93DF9300D08C
:10052000CDB7DEB79A83898389819A819093EC0451
:100530008093EB040E94440300000F900F90DF9122
:10054000CF9108951F920F9200905F000F92112497
:100550002F933F934F935F936F937F938F939F93CB
:10056000AF93BF93EF93FF93CF93DF93CDB7DEB7F6
:100570000E94DE040E94F40482E00E94A6060E940B
:1005800074060E945C03FFCFF894E0E6F0E08081FF
:10059000886180838FE4808378940895CF93DF937C
:1005A000CDB7DEB7A8950000DF91CF910895CF9326
:1005B000DF93CDB7DEB780E690E020E630E0F901CA
:1005C00020812F7BFC012083FFCF0895CF93DF9301
:1005D000EC0187E192E00E94890BBE0180E090E08F
:1005E0000E94B70B8CE392E0DF91CF910C94890BC2
:1005F00081E08093FF0308958091E104813461F4E8
:100600008091E204833541F481E090E02091E3049D
:10061000253521F080E002C080E090E0E1EEF4E0DA
:1006200020E03191230F34E0E43FF307D1F7222398
:1006300011F080E090E0089562E170E082E091E0E6
:100640000E94531042E162E071E080E490E00C947B
:1006500088040E94D104892BE1F742E161EE74E045
:1006600080E490E00E94BC040E94FC02892B49F4C3
:100670000E941C0342E161EE74E080E490E00E947D
:10068000BC041092FF0308950E94D104892B99F4B1
:100690008091FF03882379F062E170E081EE94E0BD
:1006A0000E94531042E161EE74E080E490E00E9409
:1006B00088041092FF0308958091FF03882379F046
:1006C00062E170E081EE94E00E94531042E161EE3D
:1006D00074E080E490E00E94A5041092FF03089566
:1006E0001F920F920FB60F9211242F933F938F9367
:1006F0009F93AF93BF9320910A0430910B04809194
:100700000204909103042817390749F080910A04E4
:1007100090910B04019690930B0480930A0420910E
:100720000C0430910D048091040490910504281765
:10073000390749F080910C0490910D040196909333
:100740000D0480930C048091060490910704A091FD
:100750000804B09109040196A11DB11D80930604FF
:1007600090930704A0930804B0930904BF91AF913C
:100770009F918F913F912F910F900FBE0F901F90DF
:10078000189589EF87BD82E084BD93E095BD78948C
:1007900080936E00109206041092070410920804D1
:1007A0001092090408958230910550F4F894880F4E
:1007B000991FFC01E65FFB4F808191817894089539
:1007C00080E090E008958230910598F4880F991F99
:1007D000FC01E65FFB4F20813181FC01EE5FFB4FA6
:1007E00081E090E0408151814217530721F080E081
:1007F000089580E090E008950F931F93CF93DF93C7
:10080000EC018B018091000490910104892B41F44B
:100810000E94C10381E090E0909301048093000462
:10082000C230D10570F48FB7F894CC0FDD1FFE01F4
:10083000EE5FFB4F11830083C65FDB4F1982188286
:100840008FBFDF91CF911F910F9108958091000488
:1008500090910104892B41F40E94C10381E090E052
:100860009093010480930004F894609106047091C1
:100870000704809108049091090478940895FA9AE5
:10088000F99A08951F920F920FB60F9211242F9389
:100890003F934F935F936F937F938F939F93AF9308
:1008A000BF93EF93FF93E09137058091F604E8172B
:1008B00020F0FB981092F3041AC08091F4049091F8
:1008C000F50492BD81BD81E08E0F80933705F0E085
:1008D000E950FB4F808180BD8091F4049091F50434
:1008E00001969093F5048093F4040E943F04FF91D5
:1008F000EF91BF91AF919F918F917F916F915F9198
:100900004F913F912F910F900FBE0F901F90189510
:100910002091F3042111FCCF9093F5048093F4040B
:1009200081E08093F304109237054093F604962FEC
:10093000A7EFB4E0FB018E2F891B841718F4819177
:100940008D93F9CF7894FB9A0895FB01861B970B42
:1009500050E0DC01AE0FBF1F9F01261B370B241791
:10096000350748F4F999FECFB2BDA1BD219120BD54
:10097000FA9AF99AEECF08952091F3042111FCCF51
:10098000FB01861B970B2E2F261B241748F49C0176
:100990002E0F3F1F32BD21BDF89A20B52193F3CF12
:1009A00008958091F30490E0089560E070E080E0A5
:1009B00090E00E94FC03219A29980895299A0895AD
:1009C0002998089590930F0480930E0410921204B6
:1009D000109211041092100460E070E080E090E04A
:1009E0000E94FC030C94E00480910E0490910F048B
:1009F000892B09F452C080E090E00E94E303892B28
:100A000009F44BC080911004811134C0209111046D
:100A100030911204E0910E04F0910F04E20FF31FE5
:100A200080818032E9F03CF481111DC010921204E3
:100A30001092110408958D3239F08E32A1F40E9483
:100A4000DE046AEF70E004C00E94DE046EEE72E025
:100A500080E090E00E94FC0381E080931004089500
:100A600068EE73E00BC02F5F3F4F3093120420936A
:100A7000110408950E94E00464E670E080E090E0D4
:100A80000E94FC03109210048091110490911204B2
:100A900001969093120480931104089585B1869570
:100AA000817090E008958031910504F527E0289F3A
:100AB000A001299F500D1124FA01EA5EFB4F8081AD
:100AC0008132A0F480E090E020E0FA01E80FF91F05
:100AD000EA5EFB4F3081230F019687309105A9F71D
:100AE00081E090E0222321F080E0089580E090E012
:100AF00008956F927F928F929F92AF92BF92CF9202
:100B0000DF92EF92FF920F931F93CF93DF930E9498
:100B1000D104892BE1F706E814E0C0E8D0E0BE017B
:100B20006A567C4F47E0CE010E94BC04F801119246
:100B30008F012796C03FD10591F746E1E42E44E0AE
:100B4000F42E8701C0E0D0E0D12CB12C77247A9428
:100B5000CE010E945305892B41F0F8018081871551
:100B600020F4BC2E782EDD24D3942196095F1F4FEC
:100B7000C031D10569F7DD2009F46AC0B0921504CF
:100B800070921404CB2DD0E08E010F5F1F4F872C85
:100B90002FE0A22E37E0932E6801FFE0CF22DD2464
:100BA000C6010E945305892B61F4B09213048E0193
:100BB00001501109609780E1A82EB12C97E0692EB1
:100BC0003AC09C9CF0019D9CF00D1124EA5EFB4F05
:100BD0004081242F30E0882D90E001968F71992775
:100BE0002817390711F7C092150440931404AA94EA
:100BF0000F5F1F4FAA20C9F2842ECECFF7012081AC
:100C000030E0872D90E04F968F719927281739078C
:100C100031F5C0921304689CF001699CF00D112419
:100C2000EA5EFB4F708001501109F7E0EF0EF11CF6
:100C30000C171D07A1F0C801B5010E94E7136C0154
:100C40004C019924C4010E945305892BB9F607C0B1
:100C50008FE0809315041092140410921304DF9116
:100C6000CF911F910F91FF90EF90DF90CF90BF90A9
:100C7000AF909F908F907F906F900895EF92FF922A
:100C80001F93CF93DF930E94D104892B39F5E6E8B7
:100C9000F4E0C0E0D0E081918823E1F017E01C9FF0
:100CA000C0011D9F900D11249C012A5E3B4F7901CC
:100CB00067E070E0C9010E945310C19FC001112478
:100CC00047E0B70180589F4F0E948804CA57DB4F06
:100CD000188204C02196C031D105E9F6DF91CF9189
:100CE0001F91FF90EF900895EF92FF921F93CF9383
:100CF000DF93E6E8F4E0C0E0D0E081918823E1F002
:100D000017E01C9FC0011D9F900D11249C012A5EBD
:100D10003B4F790167E070E0C9010E945310C19F09
:100D2000C001112447E0B70180589F4F0E94A504DD
:100D3000CA57DB4F188204C02196C031D105E9F6AD
:100D4000DF91CF911F91FF90EF900895EF92FF9266
:100D50000F931F93CF93DF93E82EC0911504D0E03B
:100D60002196CF70DD278091130490E00E945305F7
:100D7000F82E809114048F5F813218F4809314044C
:100D800002C01092140487E08C9F80018D9F100D8B
:100D900011240A5E1B4F80911404F80180830E9485
:100DA0007307F8016183728383839483E582C09320
:100DB000150467E070E0C8010E945310CA57DB4F6A
:100DC00081E088838091150490911304891308C0F1
:100DD000FF2031F090E001968F70992780931304E3
:100DE000DF91CF911F910F91FF90EF900895E6E171
:100DF000F4E0A6E8B4E08FEF4FEF5FEFBA0191E0C7
:100E00008083858341835283638374839D93379664
:100E100024E0E638F207A1F78FE0809315041092E2
:100E200013041092140408950F931F93CF93DF932C
:100E300000911304C02F10E0D0E0CE010E945305B2
:100E4000892B29F02196CF701F5F0C13F5CF812FCE
:100E5000DF91CF911F910F910895AF92BF92CF92E2
:100E6000DF92EF92FF920F931F93CF93DF936B016B
:100E70007C018A0159010E94140790E0A0E0B0E0D3
:100E8000C816D906EA06FB06F8F48091130490E030
:100E9000C80ED91E8FE0C822DD2487E08C9DF001AA
:100EA0008D9DF00D1124EA5EFB4F81819281A3811B
:100EB000B481E80188839983AA83BB838581F50186
:100EC000808381E090E002C080E090E0DF91CF91EC
:100ED0001F910F91FF90EF90DF90CF90BF90AF9058
:100EE00008950C945B0B0C946B0B60933805709316
:100EF000390580933A0590933B050C94770B9C0140
:100F000060E971E00E94D313892B79F0C9018370E5
:100F10009927892B61F4C90164E670E00E94D3131C
:100F20009C0181E0232B21F402C081E0089580E040
:100F300008952F923F924F925F926F927F928F927D
:100F40009F92AF92BF92CF92DF92EF92FF920F9358
:100F50001F93CF93DF93CDB7DEB767970FB6F894A3
:100F6000DEBF0FBECDBF2CE0E4EDF1E0AE014F5F80
:100F70005F4F1A01DA0101900D922A95E1F7DC0129
:100F80002C91220F2056322F330F330F230F11963F
:100F90003C9111973153230F2D8713962C91139762
:100FA000022E000C330B205331096AE0629FA0012E
:100FB000639F500D11241496CC900C2C000CDD086E
:100FC000B0E3CB1AD108C40ED51E86010150110919
:100FD000FC012681022E000C330B20533109E8EE70
:100FE000F3E02E9FA0012F9F500D3E9F500D112426
:100FF000DC0117962C911797022E000C330B20530F
:10100000310974E6729F7001739FF00C1124E40E95
:10101000F51E18964C911897042E000C550B405352
:101020005109649F9001659F300D1124E20EF31E5B
:1010300019962C911997F701E20FF11D27FDFA95EA
:10104000AF0158507A011B962C911B97220F205606
:10105000322F330F330F230F1C963C911C973053C4
:10106000230F298B1E962C911E97220F2056322F6C
:10107000330F330F230F1F963C911F973053230FCD
:101080002A8B51962C915197220F2056322F330FD5
:10109000330F230F52968C918053280F2B8BCA014C
:1010A0000E947F07882321F05D85523008F0860179
:1010B000C70160E971E00E94D313FC01DB0120E865
:1010C00039E540E650EF0E9451142B013C01CF015D
:1010D00064E670E00E94D313FC01DB0120E032ECF7
:1010E00047E15CEB0E9451144B015C01DF01B695B6
:1010F000A795B695A79520E83FE146E857E00E94FE
:1011000051146B017C01DF01A370BB2720E833E39E
:1011100041EE51E00E9451146C8B7D8B8E8B9F8B26
:10112000F1018E2F82199D85891720F48191080F76
:10113000111DF7CFA9892A2F30E0A0E1BEE00E945F
:1011400042146D877E878F87988BBA892B2F30E06A
:10115000ACE3B0E00E9442142D853E854F8558894E
:10116000260F371F481F591FDA01C9013B89830F1A
:10117000911DA11DB11D480E591E6A1E7B1E840CB7
:10118000951CA61CB71CC80CD91CEA1CFB1C8C891E
:101190009D89AE89BF89C80ED91EEA1EFB1ED801E3
:1011A00020E831E541E050E00E945114DC01CB0120
:1011B0008C0D9D1DAE1DBF1D809338059093390584
:1011C000A0933A05B0933B0567960FB6F894DEBF3F
:1011D0000FBECDBFDF91CF911F910F91FF90EF9088
:1011E000DF90CF90BF90AF909F908F907F906F9047
:1011F0005F904F903F902F900C94770BEF92FF925F
:101200000F931F93CF93DF93CDB7DEB768970FB6D9
:10121000F894DEBF0FBECDBF7B012CE0E4EDF1E022
:10122000DE011D9601900D922A95E1F78E010F5F68
:101230001F4F2CE0F80111922A95E9F70E947F07D1
:101240008A83DE011D9680E0F701408151819D91E6
:10125000F80121918F0130E0290F311D421753070A
:1012600040F0421B530BF701518340838F5F8C305A
:1012700059F768960FB6F894DEBF0FBECDBFDF9169
:10128000CF911F910F91FF90EF9008954F925F9231
:101290006F927F928F929F92AF92BF92CF92DF9286
:1012A000EF92FF92CF93DF9300D0CDB7DEB72B0143
:1012B0003C0181E090E0A0E0B0E020E8421629E5A2
:1012C000520620E6620620EF720618F480E090E0F5
:1012D000DC0120E931E0829F5001839FB00C929F96
:1012E000B00C112480E3A81A88EFB80AC12CD12CC5
:1012F0007601C39420E8421629E5520620E66206EC
:1013000020EF720618F4C12CD12C7601A7019601AA
:1013100060E879E580E690EF0E94C31373016201F3
:10132000C61AD70AE80AF90A81E090E0A0E0B0E026
:10133000C11422ECD20627E1E2062CEBF20618F4E7
:1013400080E090E0DC0144E6489F9001499F300D29
:101350001124A20EB31E21E030E040E050E0C114A1
:1013600082ECD80687E1E8068CEBF80618F420E05A
:1013700030E0A90160E072EC87E19CEB0E94C313AE
:10138000A7019601261B370B480B590BCA01B9015F
:1013900020E83FE146E857E00E94FB13220F331F8D
:1013A000220F331FA20EB31E20E833E341EE51E0BB
:1013B0000E94FB137501E20EF31E20E831E541E0C7
:1013C00050E00E94FB134B015C013A832983BE016C
:1013D0006F5F7F4FC7010E94FE08D82EC501B40180
:1013E00020E13EE040E050E00E94FB1329013A0179
:1013F0004B015C0161E272E084E191E00E948A0AA3
:101400006D2D70E06F5F7F4F42E084E191E00E94BC
:101410009D0A69817A816F5F7F4F42E087E191E0A9
:101420000E949D0A44E0B7018AE191E00E949D0A72
:1014300042E0B2018FE191E00E949D0AC501B40132
:101440002CE330E040E050E00E94FB1349015A01D8
:101450006B017C0142E0B40182E291E00E949D0AAE
:1014600042E0B60185E291E00E949D0A84E191E0AC
:101470000F900F90DF91CF91FF90EF90DF90CF9082
:10148000BF90AF909F908F907F906F905F904F90A4
:1014900008950F931F930E946B0B009138051091D4
:1014A000390520913A0530913B05600F711F821F6D
:1014B000931F1F910F910C944609FB01480F591F70
:1014C0008417950729F02191DC012D93CD01F8CFE8
:1014D0000895480F591F8417950721F0FC01619367
:1014E000CF01F9CF0895FB01480F591F84179507C5
:1014F00059F0DC013D91CD012191321740F02317C5
:10150000A8F781E090E0089580E090E008958FEFE3
:101510009FEF0895FC01DB018D91BD01882311F03F
:101520008193F9CF10820895FC019F01281B390B8C
:1015300041914111FACFC90108959F92AF92BF9294
:10154000CF92DF92EF92FF920F931F93CF93DF938F
:1015500000D000D01F92CDB7DEB7FC016B019E0119
:101560002F5F3F4F8E010A5F1F4FEE24E394F12C53
:101570009AE0992E9E9C50019F9CB00C1124C601AC
:10158000B5010E94D313B7010E94D313D9016D9303
:101590009D01C61AD10867FDD3947501A017B10744
:1015A00049F760E070E084E090E050E0D8012E91CF
:1015B0008D01211105C06115710511F4009741F4E9
:1015C000841795072CF4205D219361E070E004C03E
:1015D000841795070CF43196019740F70F900F9000
:1015E0000F900F900F90DF91CF911F910F91FF906F
:1015F000EF90DF90CF90BF90AF909F90089588ECD0
:1016000080937C0086E880937A00089580917A0028
:10161000829586958695837091E08927817090E008
:101620000895EAE7F0E080818064808308958091E6
:1016300078002091790030E0322F2227A901330F62
:10164000660B770B9A01AB01282BA5E6B0E00E9450
:10165000511424E630E040E050E00E941D14DA010D
:10166000C90181519140A109B10908951F920F92BA
:101670000FB60F9211248F939F93AF93BF938091D6
:10168000960490919704A0919804B09199040196C2
:10169000A11DB11D8093960490939704A093980484
:1016A000B0939904BF91AF919F918F910F900FBE0E
:1016B0000F901F90189583E294EF90938900809388
:1016C0008800109280008CE080938100789482E002
:1016D00080936F0008952FB7F894609196047091ED
:1016E000970480919804909199042FBF08958FB723
:1016F000F894109296041092970410929804109205
:1017000099048FBF08950E94A511789408950C94B0
:101710006913CF93DF93EC018991882319F00E941C
:101720006913FACFDF91CF910895CF93C82F90E03E
:1017300024E0959587952A95E1F78A3010F4805D2D
:1017400001C0895C0E9469138C2F8F708A3010F061
:10175000895C01C0805DCF910C946913CF93C82F31
:10176000892F0E94950B8C2FCF910C94950B2F9263
:101770003F924F925F926F927F928F929F92AF9221
:10178000BF92CF92DF92EF92FF920F931F93CF936E
:10179000DF93CDB7DEB763970FB6F894DEBF0FBE09
:1017A000CDBF6B017C0197FF0DC0F094E094D09405
:1017B000C094C11CD11CE11CF11C81E090E09B8B0A
:1017C0008A8B02C01B8A1A8AFE0131965F018E0144
:1017D000055F1F4FF98BE88B66246394712C812C75
:1017E000912CAAE0B0E09301A4010E9451141B01C6
:1017F0002C01C701B6019101A2010E941D149301A1
:10180000A4010E941D14E889F9892193F98BE88BC2
:10181000822F220F990BAA0BBB0BC81AD90AEA0A0E
:10182000FB0A310142010E171F07D9F68A899B89ED
:10183000892B19F08DE20E94691320E030E0F80155
:1018400082918F01811106C02115310519F4EA1525
:10185000FB0529F4805D0E94691321E030E00A1540
:101860001B0569F763960FB6F894DEBF0FBECDBFB8
:10187000DF91CF911F910F91FF90EF90DF90CF906C
:10188000BF90AF909F908F907F906F905F904F90A0
:101890003F902F9008950C943F130C946613FF9281
:1018A0000F931F93CF93DF93EC01062FF72E18822F
:1018B0000E943F1310E08823D9F00E94131388235D
:1018C000B9F00E941A13803210F089931F5FE02F45
:1018D000FF2D482F50E02191222339F0022E000CD9
:1018E000330B42175307B9F702C08D3051F71882F6
:1018F000812FDF91CF911F910F91FF9008950F934A
:101900001F93CF93DF938C01EC01699170E080E02D
:1019100090E00E94B70B0C5F1F4F8EE20E9469138C
:10192000699170E080E090E00E94B70BC017D1078A
:10193000A1F78CE392E0DF91CF911F910F910C946E
:10194000890BCF93DF93EC0182E20E94870BCE01DB
:101950000E94890B82E2DF91CF910C94870B85E383
:1019600092E00C94890BDC0180919A048D3229F469
:101970008FEF9FEFEBE9F4E004C081E090E0EAE94B
:10198000F4E011961C921E926AE040812D913C91E8
:1019900011974423C1F0629FA001639F500D112451
:1019A00011965C934E93219130ED320F3A30B8F49A
:1019B000022E000C330B20533109240F351F1196D2
:1019C0003C932E93E2CF289FA001299F500D389F72
:1019D000500D11244D935C9381E090E0089580E0D8
:1019E00090E008950C94870B0C94890B0C94950B44
:1019F0000C94AE0B0C94B70B0C943F130C94661321
:101A0000FF920F931F93CF93DF93EC01062FF72ED6
:101A100018820E943F1310E08823D9F00E9413130C
:101A20008823B9F00E941A13803210F089931F5F47
:101A3000E02FFF2D482F50E02191222339F0022E74
:101A4000000C330B42175307B9F702C08D3051F722
:101A50001882812FDF91CF911F910F91FF900895F0
:101A60006FE372E08AE994E00E94000D882349F058
:101A7000E82FF0E0E756FB4F80818F3289F3803208
:101A800079F308950F931F93CF93DF9300D000D085
:101A90001F92CDB7DEB76FE372E08AE994E00E944F
:101AA000000D62E472E08AE994E00E943810892B0C
:101AB00009F0BBC16FE372E08AE994E00E94000D77
:101AC0006DEB73E08AE994E00E943810892B09F0ED
:101AD00081C26FE372E08AE994E00E94000D67E43E
:101AE00072E08AE994E00E943810892B09F072C2F2
:101AF0008AE593E00E94890B8CE392E00E94890BB7
:101B00008EE492E00E94890B8CE392E00E94890BA4
:101B100088E592E00E94890B80E495E00E94A10C88
:101B20008CE20E94870B8CE392E00E94890B85E691
:101B300092E00E94890B8CE495E00E94A10C8CE25B
:101B40000E94870B8CE392E00E94890B89E792E068
:101B50000E94890B88E595E00E94A10C8CE20E940E
:101B6000870B8CE392E00E94890B8EE892E00E9442
:101B7000890B60916405709165058091660590916F
:101B800067050E9446098C01FC01128682E20E94D0
:101B9000870BC8010E94890B82E20E94870B8CE2AE
:101BA0000E94870B8CE392E00E94890B86EA92E008
:101BB0000E94890B809168050E94950B09E615E04B
:101BC0008AE30E94870BF80181918F010E94950B97
:101BD000F5E00E361F07A1F78AEB92E00E94890B11
:101BE0008CE392E00E94890B8DEB92E00E94890BBE
:101BF0008EE695E00E94A10C8CE392E00E94890B96
:101C00008DE793E00E94890B8CE392E00E94890BA0
:101C100081ED92E00E94890B6091E5047091E604E9
:101C2000072E000C880B990B0E94B70B8CE20E94C8
:101C3000870B8CE392E00E94890B8FED92E00E946B
:101C4000890B6091E7047091E804072E000C880B63
:101C5000990B0E94B70B8CE20E94870B8CE392E0F9
:101C60000E94890B8DEE92E00E94890B6091E9043D
:101C70007091EA04072E000C880B990B0E94B70B99
:101C80008CE20E94870B8CE392E00E94890B8BEF21
:101C900092E00E94890B6091EB047091EC04072E96
:101CA000000C880B990B0E94B70B8CE20E94870BEB
:101CB0008CE392E00E94890B89E093E00E94890BFB
:101CC0006091000170910101072E000C880B990BA7
:101CD0000E94B70B8CE20E94870B8CE392E00E947B
:101CE000890B8AE193E00E94890B80910001909119
:101CF00001012091E5043091E604821793071CF05E
:101D000085E293E020C02091E7043091E804821737
:101D100093071CF08DE293E016C02091EB04309104
:101D2000EC04281739071CF485E393E00CC02091DC
:101D3000E9043091EA04281739071CF48CE393E096
:101D400002C084E493E00E94890B8CE20E94870B1E
:101D50008CE392E00E94890B8CE493E00E94890B53
:101D60008CE392E00E94890B10E00E941407181780
:101D700008F048C0812F90E0A0E0B0E09E012B5F0A
:101D80003F4FAE014F5F5F4FBC01CD010E942D0759
:101D9000112339F08CE20E94870B8CE392E00E94C1
:101DA000890B86E593E00E94890B8CE392E00E9408
:101DB000890B8CE593E00E94890B82E20E94870BDD
:101DC00069817A818B819C810E9446090E94890BDE
:101DD00082E20E94870B8CE20E94870B8FE693E0E1
:101DE0000E94890B6D8170E080E090E00E94B70B4B
:101DF0008CE392E00E94890B8BE793E00E94890BB1
:101E00001F5FB3CF8CE392E00E94890B81E893E0DF
:101E10000E94890B8CE392E00E94890B8FE793E08C
:101E20000E94890B8CE392E017C165E873E08AE9B0
:101E300094E00E943810892B09F0D8C06FE372E05B
:101E40008AE994E00E94000D6DEB73E08AE994E06A
:101E50000E943810892B09F0BDC06AE873E08AE956
:101E600094E00E94000D6EE873E08AE994E00E941D
:101E70003810892B89F566E973E08AE994E00E94BD
:101E8000000D6AE973E08AE994E00E943810892B1A
:101E900009F0A0C06FE372E08AE994E00E94000DAF
:101EA00061EA73E08AE994E00E943810892B29F4F2
:101EB00089EA93E00E94890B8FC060EB73E08AE9A6
:101EC00094E00E943810892B09F084C089EA93E0DD
:101ED0000E94890B0E94D70267EB73E08AE994E0C5
:101EE0000E943810892B09F075C06AE873E08AE90E
:101EF00094E00E94000D6FEB73E08AE994E00E9489
:101F00003810892B09F066C067EC73E08AE994E029
:101F10000E94000D6AEC73E08AE994E00E94381098
:101F2000892B91F46FE372E08AE994E00E94000D3E
:101F3000CE0101960E94B30C892B09F44BC0898114
:101F40009A810E944E024FC064ED73E08AE994E0EA
:101F50000E943810892B89F46FE372E08AE994E0DB
:101F60000E94000DCE0101960E94B30C892B91F1C5
:101F700089819A810E94630236C06EED73E08AE91E
:101F800094E00E943810892B89F46FE372E08AE9AB
:101F900094E00E94000DCE0101960E94B30C892BA3
:101FA000C9F089819A810E9478021DC068EE73E0B1
:101FB0008AE994E00E943810892B61F46FE372E0A3
:101FC0008AE994E00E94000DCE0101960E94B30CB4
:101FD000892B29F40E94AF0C0E94300D3FC08981EB
:101FE0009A810E948D02892BA9F1F4CF62EF73E0F0
:101FF0008AE994E00E943810892B61F76FE372E060
:102000008AE994E00E94000D6DEB73E08AE994E0A8
:102010000E943810892BF1F66FE372E08AE994E0B0
:102020000E94000D67EB73E08AE994E00E9438108B
:10203000892B81F66FE372E08AE994E00E94000D3B
:102040006AEF73E08AE994E00E943810892B11F658
:102050000E94F70689EA93E00E94890B0F900F9087
:102060000F900F900F90DF91CF911F910F910895D6
:10207000DC01FB019D91992341F08191891784F046
:102080009817C4F78FEF9FEF089581E090E02081CB
:10209000211102C080E090E0919581959109089509
:1020A00081E090E00895DC0190E020E0615071094A
:1020B000422F50E0FD01E40FF51F4617570720F4AB
:1020C0008081980F2F5FF4CF9195908308956115CB
:1020D00071058105910541F060932C0170932D01EC
:1020E00080932E0190932F01211531054105510553
:1020F00041F0209328013093290140932A01509305
:102100002B0108954F925F926F927F928F929F92D0
:10211000AF92BF92CF92DF92EF92FF92CF93DF9375
:1021200000D000D0CDB7DEB72B013C0129833A8324
:102130004B835C83C0902801D0902901E0902A0154
:10214000F0902B01A701960144275527A9E6B0E995
:102150000E9451146701EE24FF244B015C018C0C9A
:102160009D1CAE1CBF1C8092280190922901A09258
:102170002A01B0922B01C0902C01D0902D01E0904B
:102180002E01F0902F01A701960144275527A0E5C5
:10219000B6E40E9451146701EE24FF24C60ED71E38
:1021A000E81EF91EC0922C01D0922D01E0922E0162
:1021B000F0922F01D40199278827BC01CD016C0D25
:1021C0007D1D8E1D9F1D29813A814B815C812419C3
:1021D0003509460957090E94FB13CB01840D951D53
:1021E0000F900F900F900F90DF91CF91FF90EF9095
:1021F000DF90CF90BF90AF909F908F907F906F9027
:102200005F904F900895CF93DB01FC0120812D3228
:1022100021F401966FEF7FEF02C061E070E011964C
:102220001C921E92FC01CAE020818D919C91119715
:102230002223C1F0C89FA001C99F500D11241196FF
:102240005C934E93219180ED820F8A30B8F4022E78
:10225000000C330B20533109240F351F11963C938A
:102260002E93E2CF869F9001879F300D969F300D71
:1022700011242D933C9381E090E002C080E090E037
:10228000CF91089580913C05833561F480913D059F
:10229000853441F481E090E020913E05223521F023
:1022A00080E002C080E090E0ECE3F5E020E03191D6
:1022B000230F35E0E437F307D1F7222311F080E054
:1022C00090E00895CF93DF93CDB7DEB7E7970FB6D1
:1022D000F894DEBF0FBECDBF87E3E0EEF1E0DE0194
:1022E000119601900D928A95E1F767E370E0CE01B7
:1022F00001960E94531047E3BE016F5F7F4F80E05D
:1023000090E00E948804E7960FB6F894DEBF0FBEF7
:10231000CDBFDF91CF9108950E94D104892BE1F7C1
:1023200047E36CE375E080E090E00E94BC040E940B
:102330004211892B49F40E94621147E36CE375E076
:1023400080E090E00C94BC0408951092C00087E6F1
:1023500090E09093C5008093C400E1ECF0E088E148
:10236000808386E08093C2008081806A80830895A4
:102370001F920F920FB60F9211242F933F938F93BA
:102380009F93EF93FF938091E004882309F4F0C0BA
:102390008091C6009091DF04992309F4E3C090EE88
:1023A000980F9F3518F08D3009F059C02091DC044A
:1023B0009091DD0430E0291B3109215031092F7340
:1023C0003327232B61F0E091DD04F0E0ED58FA4F64
:1023D00080839091DD049F5F9F739093DD04209133
:1023E000DA049091DB0430E0291B310921503109D6
:1023F0002F733327232B89F0E091DB04F0E0ED54B9
:10240000FA4F80839091DB049F5F9F739093DB046E
:102410009091C10090629093C1008D3009F0C5C0C9
:102420008091DA042091DB0490E0821B91090197EE
:102430008F739927892B69F0E091DB04F0E0ED546C
:10244000FA4F8AE080838091DB048F5F8F738093E3
:10245000DB048091DE048F5F8093DE04A6C08830A9
:1024600011F08F37C1F58091DD042091DC0490E0FC
:10247000821B91098F739927892B09F496C0E091EB
:10248000DD04F0E0ED58FA4F80818091DD04815049
:102490008F738093DD048091DA042091DB0490E057
:1024A000821B910901978F739927892B09F47DC0AD
:1024B000E091DB04F0E0ED54FA4F8FE780838091E8
:1024C000DB048F5F8F738093DB048091C100806297
:1024D0008093C1006AC0843009F067C08091DD0438
:1024E0002091DC0490E0821B91098F739927892B3E
:1024F00031F1E091DD04F0E0ED58FA4F80818D304C
:10250000F1F08091DC042091DD0490E0821B9109C0
:1025100001978F739927892B91F0E091DD04F0E00A
:10252000ED58FA4F8DE080838091DD048F5F8F73CB
:102530008093DD048091DE048F5F8093DE048091C0
:10254000DC042091DD0490E0821B910901978F73D8
:102550009927892B51F1E091DD04F0E0ED58FA4F15
:1025600084E019C0833009F581E08093DF041DC049
:102570008091DC042091DD0490E0821B9109019799
:102580008F739927892B79F0E091DD04F0E0809139
:10259000C600ED58FA4F80838091DD048F5F8F7302
:1025A0008093DD0402C08091C600FF91EF919F915E
:1025B0008F913F912F910F900FBE0F901F90189504
:1025C0001F920F920FB60F9211242F938F939F9308
:1025D000EF93FF938091DB042091DA0490E0821B5B
:1025E00091098F739927892B79F0E091DA04F0E053
:1025F000ED54FA4F80818093C6008091DA048F5F9A
:102600008F738093DA0405C08091C1008F7D809321
:10261000C100FF91EF919F918F912F910F900FBE6D
:102620000F901F9018958091DD049091DC04891B18
:102630008F7308958091DD042091DC0490E0821B6B
:1026400091098F739927892BC1F0E091DC04F0E0A8
:10265000ED58FA4F80819091DC049F5F9F739093B7
:10266000DC049091E004992349F08D3039F4909185
:10267000DE0491509093DE04089580E0089581E097
:102680008093E0048091DD042091DC0490E0821BC3
:1026900091098F739927892BB1F0E091DC04F0E068
:1026A000ED58FA4F8081843071F41092DF04E0918C
:1026B000DC04F0E0ED58FA4F80818091DC048F5FFC
:1026C0008F738093DC048091DF0408958091DE0491
:1026D00008950FB607FE0EC02091DA049091DB0436
:1026E00030E0291B3109215031092F733327232B67
:1026F00099F30DC02091DA049091DB0430E0291B9E
:102700003109215031092F733327232B61F0E091D8
:10271000DB04F0E0ED54FA4F80838091DB048F5F9F
:102720008F738093DB048091C10080628093C1002D
:1027300008951F93CF93DF93EC0180E011E0180F11
:10274000FE01E80FF11D8081882321F00E946913AA
:10275000812FF4CFDF91CF911F9108951F93CF93D5
:10276000DF93EC0180E011E0180FFE01E80FF11D8E
:102770008491882321F00E946913812FF4CFDF9187
:10278000CF911F910895DB018F939F930E94511465
:10279000BF91AF91A29F800D911DA39F900DB29FFD
:1027A000900D11240895AA1BBB1B51E107C0AA1F5D
:1027B000BB1FA617B70710F0A61BB70B881F991FE2
:1027C0005A95A9F780959095BC01CD01089597FB86
:1027D000072E16F4009407D077FD09D00E94D3137A
:1027E00007FC05D03EF4909581959F4F0895709514
:1027F00061957F4F0895A1E21A2EAA1BBB1BFD0114
:102800000DC0AA1FBB1FEE1FFF1FA217B307E407CF
:10281000F50720F0A21BB30BE40BF50B661F771F27
:10282000881F991F1A9469F7609570958095909507
:102830009B01AC01BD01CF010895052E97FB1EF44D
:1028400000940E94341457FD07D00E94FB1307FC2C
:1028500003D04EF40C943414509540953095219546
:102860003F4F4F4F5F4F08959095809570956195BC
:102870007F4F8F4F9F4F0895EE0FFF1F0590F491EC
:10288000E02D0994A29FB001B39FC001A39F700DDA
:10289000811D1124911DB29F700D811D1124911D68
:1028A00008950E944214A59F900DB49F900DA49F7F
:0C28B000800D911D11240895F894FFCFB5
:1028BC00030B443100802500002D00040B44300034
:1028CC00802500002D0002060024F400010C617428
:0828DC006D65676133323800BD
:1028E400580041535500FF03FE030000010000C0DF
:1028F400A801640030302F30302F30303030203099
:10290400303A30303A303000E5559A15B53B121F55
:102914005345523438362050726F6A6563742033DD
:10292400202D20496E746567726174696F6E0D0A9B
:10293400006A617265645F68616D000D0A00436F2F
:102944006E6E656374696F6E2045737461626C6941
:10295400736865640D0A00436F6E6E656374696F16
:102964006E204C6F73740D0A002D00696E20776120
:10297400726E20686920312C207472616E697374E0
:10298400696F6E696E6720746F2063727420686962
:1029940000507265762073746174653A20000A0DE4
:1029A4004E6578742073746174653A20000A0D00D2
:1029B4002E0020001F1C1F1E1F1E1F1F1E1F1E1F58
:1029C4005345520053616E6479000000000000001A
:1029D400446F75676C617300000000005F554E41E1
:1029E400535349474E45440000000000444F55539B
:1029F400414E55534100000D0A414C41524D3A207D
:102A04000030302F30302F303030302030303A30FA
:102A1400303A303000494E56414C49440D0A002F9B
:102A240020004745542000646576696365002020D2
:102A340022767064223A7B0020202020226D6F646D
:102A4400656C223A0020202020226D616E7566613B
:102A5400637475726572223A002020202022736507
:102A64007269616C5F6E756D626572223A00202036
:102A74002020226D616E75666163747572655F6492
:102A8400617465223A0020202020226D61635F6119
:102A9400646472657373223A2200222C0020202081
:102AA4002022636F756E7472795F636F6465223A76
:102AB4000020202274637269745F6869223A0020DE
:102AC4002022747761726E5F6869223A00202022A6
:102AD40074637269745F6C6F223A002020227477E9
:102AE40061726E5F6C6F223A0020202274656D70F3
:102AF40065726174757265223A00202022737461D4
:102B04007465223A00435249545F48490057415280
:102B14004E5F4849004E4F524D414C005741524E72
:102B24005F4C4F00435249545F4C4F002020226CAD
:102B34006F67223A5B00202020207B002020202089
:102B440020202274696D657374616D70223A0022CD
:102B54006576656E746E756D223A00202020207DA6
:102B64000020205D0050555420002F203F00646554
:102B7400766963653F002F203D0072657365743D7F
:102B8400002266616C736522004F4B41590D0A00A7
:102B9400227472756522006465766963652F00632B
:102BA4006F6E6669673F003D200074637269745FED
:102BB40068693D00747761726E5F68693D00746393
:102BC4007269745F6C6F3D00747761726E5F6C6FD5
:0E2BD4003D0044454C45544520006C6F6700A1
:00000001FF
