:100000000C943D000C945A000C945A000C945A0025
:100010000C945A000C945A000C945C010C945A00F5
:100020000C945A000C945A000C945A000C94DA095F
:100030000C945A000C945A000C9414020C945A001C
:100040000C945A000C945A000C945C100C9484117B
:100050000C945A000C945A000C94E6020C945A002A
:100060000C945A000C945A0070008700900098007D
:10007000A300AD00B200BD00C70011241FBECFEF2A
:10008000D8E0DEBFCDBF13E0A0E0B1E0EAE2F7E2E6
:1000900002C005900D92A43BB107D9F725E0A4EB6F
:1000A000B3E001C01D92A93AB207E1F70E946712BE
:1000B0000C947F130C940000CF92DF92EF92FF928A
:1000C0000F931F93E091B403CE2ED12CF6013197FC
:1000D000E930F10508F060C0EC5CFF4F0C945F1351
:1000E0008417950744F086E090E00E948A0186E03C
:1000F0000E944A051BC0081719070CF450C088E07D
:1001000090E00E948A0188E00E944A0507C0841797
:1001100095074CF7081719070CF441C087E03DC05C
:100120000817190764F784179507CCF184E035C0E8
:10013000861797075CF085E090E00E948A0185E0D1
:100140000E944A0508C0861797072CF48417950764
:1001500034F583E022C086E020C086179707FCF4C0
:1001600085E01BC0281739075CF087E090E00E940B
:100170008A0187E00E944A0508C0281739072CF435
:100180000817190764F482E008C089E006C0281740
:1001900039072CF488E001C081E08093B4030E9409
:1001A000E2048091B403863011F0893019F489ECAF
:1001B00091E00CC09CEF980F923018F0875082307D
:1001C00018F48BEC91E002C086EF91E01F910F9143
:1001D000FF90EF90DF90CF900C94860381E08093A6
:1001E000B403089581E08093B403089520919D04A1
:1001F00030919E04281739077CF4811524E092077A
:100200005CF490939C0480939B040E949C010E9448
:10021000E80180E090E0089581E090E00895209169
:10022000A1043091A2048217930794F020919B04BB
:1002300030919C04281739075CF090939E048093BA
:100240009D040E949C010E94E80180E090E00895D6
:1002500081E090E008952091A1043091A2048217DA
:1002600093075CF49093A00480939F040E949C01E8
:100270000E94E80180E090E0089581E090E0089518
:1002800020919F043091A0042817390794F42091FD
:100290009D0430919E04821793075CF49093A2040E
:1002A0008093A1040E949C010E94E80180E090E0FC
:1002B000089581E090E008951F920F920FB60F927B
:1002C00011240E9482030E94980382E00E944A0542
:1002D000C0E0D0E00E94B80590E0C817D90724F428
:1002E0000E9418052196F6CF0E940002FFCFF894D5
:1002F000E0E6F0E08081886180838FE480837894F9
:100300000895A8950895809160008F7B8093600088
:10031000FFCF0895CF93DF93EC018DEC91E00E9425
:100320002D0ABE0180E090E00E945B0A82EF91E01E
:10033000DF91CF910C942D0A81E08093B50308954D
:1003400080919704813461F480919804833541F45D
:1003500081E090E020919904253521F080E002C0F1
:1003600080E090E0E7E9F4E020E03191230F34E011
:10037000EA3AF307D1F7222311F080E090E00895E4
:1003800062E170E082E091E00E94F70E42E162E0FB
:1003900071E080E490E00C942C030E947503892B9B
:1003A000E1F742E167E974E080E490E00E946003D5
:1003B0000E94A001892B49F40E94C00142E167E933
:1003C00074E080E490E00E9460031092B503089509
:1003D0000E947503892B99F48091B503882379F0E5
:1003E00062E170E087E994E00E94F70E42E167E97C
:1003F00074E080E490E00E942C031092B50308950D
:100400008091B503882379F062E170E087E994E098
:100410000E94F70E42E167E974E080E490E00E94F8
:1004200049031092B50308951F920F920FB60F92D1
:1004300011242F933F938F939F93AF93BF9320915A
:10044000C0033091C1038091B8039091B90328177C
:10045000390749F08091C0039091C10301969093B0
:10046000C1038093C0032091C2033091C3038091E4
:10047000BA039091BB032817390749F08091C20352
:100480009091C30301969093C3038093C20380911C
:10049000BC039091BD03A091BE03B091BF03019630
:1004A000A11DB11D8093BC039093BD03A093BE0317
:1004B000B093BF03BF91AF919F918F913F912F91C7
:1004C0000F900FBE0F901F90189589EF87BD82E0A7
:1004D00084BD93E095BD789480936E001092BC0328
:1004E0001092BD031092BE031092BF030895823094
:1004F000910550F4F894880F991FFC01E054FC4FCB
:10050000808191817894089580E090E00895823010
:10051000910598F4880F991FFC01E054FC4F20814D
:100520003181FC01E854FC4F81E090E04081518131
:100530004217530721F080E0089580E090E008958D
:100540000F931F93CF93DF93EC018B018091B60340
:100550009091B703892B41F40E94650281E090E0FD
:100560009093B7038093B603C230D10570F48FB770
:10057000F894CC0FDD1FFE01E854FC4F118300837B
:10058000C054DC4F198218828FBFDF91CF911F9129
:100590000F9108958091B6039091B703892B41F490
:1005A0000E94650281E090E09093B7038093B603C8
:1005B000F8946091BC037091BD038091BE0390914B
:1005C000BF0378940895FA9AF99A08951F920F92AA
:1005D0000FB60F9211242F933F934F935F936F9316
:1005E0007F938F939F93AF93BF93EF93FF93E0918C
:1005F000ED048091AC04E81720F0FB981092A90458
:100600001AC08091AA049091AB0492BD81BD81E093
:100610008E0F8093ED04F0E0E355FB4F808180BDA9
:100620008091AA049091AB0401969093AB048093BF
:10063000AA040E94E302FF91EF91BF91AF919F91B5
:100640008F917F916F915F914F913F912F910F907B
:100650000FBE0F901F9018952091A9042111FCCF77
:100660009093AB048093AA0481E08093A904109234
:10067000ED044093AC04962FADEAB4E0FB018E2F5D
:10068000891B841718F481918D93F9CF7894FB9A84
:100690000895FB01861B970B50E0DC01AE0FBF1FD6
:1006A0009F01261B370B2417350748F4F999FECF15
:1006B000B2BDA1BD219120BDFA9AF99AEECF08955D
:1006C0002091A9042111FCCFFB01861B970B2E2F33
:1006D000261B241748F49C012E0F3F1F32BD21BD5D
:1006E000F89A20B52193F3CF08958091A90490E062
:1006F000089560E070E080E090E00E94A002219AFE
:1007000029980895299A0895299808959093C503E2
:100710008093C4031092C8031092C7031092C603BB
:1007200060E070E080E090E00E94A0020C948403FE
:100730008091C4039091C503892B09F452C080E0D5
:1007400090E00E948702892B09F44BC08091C60378
:10075000811134C02091C7033091C803E091C403D4
:10076000F091C503E20FF31F80818032E9F03CF481
:1007700081111DC01092C8031092C70308958D32D5
:1007800039F08E32A1F40E9482036AEF70E004C057
:100790000E9482036EEE72E080E090E00E94A00270
:1007A00081E08093C603089568EE73E00BC02F5F6D
:1007B0003F4F3093C8032093C70308950E948403DA
:1007C00064E670E080E090E00E94A0021092C60310
:1007D0008091C7039091C80301969093C8038093BA
:1007E000C703089585B18695817090E008958031A2
:1007F000910504F527E0289FA001299F500D1124A1
:10080000FA01E453FC4F80818132A0F480E090E053
:1008100020E0FA01E80FF91FE453FC4F3081230F69
:10082000019687309105A9F781E090E0222321F01D
:1008300080E0089580E090E008956F927F928F921B
:100840009F92AF92BF92CF92DF92EF92FF920F935F
:100850001F93CF93DF930E947503892BE1F70CE37D
:1008600014E0C0E8D0E0BE01645B7C4F47E0CE01FD
:100870000E946003F80111928F012796C03FD105B5
:1008800091F74CECE42E43E0F42E8701C0E0D0E079
:10089000D12CB12C77247A94CE010E94F703892BB6
:1008A00041F0F8018081871520F4BC2E782EDD24DC
:1008B000D3942196095F1F4FC031D10569F7DD2020
:1008C00009F46AC0B092CB037092CA03CB2DD0E07A
:1008D0008E010F5F1F4F872C2FE0A22E37E0932E43
:1008E0006801FFE0CF22DD24C6010E94F703892BB7
:1008F00061F4B092C9038E0101501109609780E143
:10090000A82EB12C97E0692E3AC09C9CF0019D9CCA
:10091000F00D1124E453FC4F4081242F30E0882D4A
:1009200090E001968F7199272817390711F7C09227
:10093000CB034093CA03AA940F5F1F4FAA20C9F2AA
:10094000842ECECFF701208130E0872D90E04F96A6
:100950008F7199272817390731F5C092C903689C10
:10096000F001699CF00D1124E453FC4F708001509C
:100970001109F7E0EF0EF11C0C171D07A1F0C801DB
:10098000B5010E940A136C014C019924C4010E9414
:10099000F703892BB9F607C08FE08093CB03109241
:1009A000CA031092C903DF91CF911F910F91FF905D
:1009B000EF90DF90CF90BF90AF909F908F907F90FF
:1009C0006F900895EF92FF921F93CF93DF930E9451
:1009D0007503892B39F5ECE3F4E0C0E0D0E08191B8
:1009E0008823E1F017E01C9FC0011D9F900D11248A
:1009F0009C0124533C4F790167E070E0C9010E94DB
:100A0000F70EC19FC001112447E0B70180589F4FE6
:100A10000E942C03C45CDB4F188204C02196C031B5
:100A2000D105E9F6DF91CF911F91FF90EF900895E6
:100A3000EF92FF921F93CF93DF93ECE3F4E0C0E0DB
:100A4000D0E081918823E1F017E01C9FC0011D9F39
:100A5000900D11249C0124533C4F790167E070E014
:100A6000C9010E94F70EC19FC001112447E0B701E0
:100A700080589F4F0E944903C45CDB4F188204C01A
:100A80002196C031D105E9F6DF91CF911F91FF90FA
:100A9000EF900895EF92FF920F931F93CF93DF9300
:100AA000E82EC091CB03D0E02196CF70DD27809156
:100AB000C90390E00E94F703F82E8091CA038F5F6C
:100AC000813218F48093CA0302C01092CA0387E0EF
:100AD0008C9F80018D9F100D112404531C4F809119
:100AE000CA03F80180830E941706F80161837283AC
:100AF00083839483E582C093CB0367E070E0C801F1
:100B00000E94F70EC45CDB4F81E088838091CB03A9
:100B10009091C903891308C0FF2031F090E001963D
:100B20008F7099278093C903DF91CF911F910F9107
:100B3000FF90EF900895ECECF3E0ACE3B4E08FEFBE
:100B40004FEF5FEFBA0191E0808385834183528349
:100B5000638374839D93379624E0EC33F207A1F707
:100B60008FE08093CB031092C9031092CA030895BB
:100B70000F931F93CF93DF930091C903C02F10E011
:100B8000D0E0CE010E94F703892B29F02196CF7087
:100B90001F5F0C13F5CF812FDF91CF911F910F9124
:100BA0000895AF92BF92CF92DF92EF92FF920F9390
:100BB0001F93CF93DF936B017C018A0159010E943F
:100BC000B80590E0A0E0B0E0C816D906EA06FB063A
:100BD000F8F48091C90390E0C80ED91E8FE0C822B6
:100BE000DD2487E08C9DF0018D9DF00D1124E453F0
:100BF000FC4F81819281A381B481E801888399832C
:100C0000AA83BB838581F501808381E090E002C0E7
:100C100080E090E0DF91CF911F910F91FF90EF90D6
:100C2000DF90CF90BF90AF9008950C94FF090C9483
:100C30000F0A6093EE047093EF048093F004909396
:100C4000F1040C941B0A9C0160E971E00E94F61209
:100C5000892B79F0C90183709927892B61F4C90127
:100C600064E670E00E94F6129C0181E0232B21F4DF
:100C700002C081E0089580E008952F923F924F9244
:100C80005F926F927F928F929F92AF92BF92CF921C
:100C9000DF92EF92FF920F931F93CF93DF93CDB725
:100CA000DEB767970FB6F894DEBF0FBECDBF2CE05E
:100CB000E0E3F1E0AE014F5F5F4F1A01DA0101900E
:100CC0000D922A95E1F7DC012C91220F2056322F4C
:100CD000330F330F230F11963C9111973153230F8C
:100CE0002D8713962C911397022E000C330B205353
:100CF00031096AE0629FA001639F500D1124149690
:100D0000CC900C2C000CDD08B0E3CB1AD108C40E3B
:100D1000D51E860101501109FC012681022E000C0E
:100D2000330B20533109E8EEF3E02E9FA0012F9FF3
:100D3000500D3E9F500D1124DC0117962C911797F2
:100D4000022E000C330B2053310974E6729F7001A0
:100D5000739FF00C1124E40EF51E18964C91189711
:100D6000042E000C550B40535109649F9001659F60
:100D7000300D1124E20EF31E19962C911997F701EC
:100D8000E20FF11D27FDFA95AF0158507A011B962D
:100D90002C911B97220F2056322F330F330F230F26
:100DA0001C963C911C973053230F298B1E962C9137
:100DB0001E97220F2056322F330F330F230F1F960B
:100DC0003C911F973053230F2A8B51962C915197AA
:100DD000220F2056322F330F330F230F52968C9150
:100DE0008053280F2B8BCA010E942306882321F0F1
:100DF0005D85523008F08601C70160E971E00E940C
:100E0000F612FC01DB0120E839E540E650EF0E94D4
:100E100074132B013C01CF0164E670E00E94F612CE
:100E2000FC01DB0120E032EC47E15CEB0E94741333
:100E30004B015C01DF01B695A795B695A79520E813
:100E40003FE146E857E00E9474136B017C01DF012B
:100E5000A370BB2720E833E341EE51E00E947413F6
:100E60006C8B7D8B8E8B9F8BF1018E2F82199D85D4
:100E7000891720F48191080F111DF7CFA9892A2F16
:100E800030E0A0E1BEE00E9465136D877E878F870A
:100E9000988BBA892B2F30E0ACE3B0E00E94651349
:100EA0002D853E854F855889260F371F481F591FAE
:100EB000DA01C9013B89830F911DA11DB11D480EA7
:100EC000591E6A1E7B1E840C951CA61CB71CC80CE0
:100ED000D91CEA1CFB1C8C899D89AE89BF89C80E70
:100EE000D91EEA1EFB1ED80120E831E541E050E0A2
:100EF0000E947413DC01CB018C0D9D1DAE1DBF1D26
:100F00008093EE049093EF04A093F004B093F10467
:100F100067960FB6F894DEBF0FBECDBFDF91CF91BD
:100F20001F910F91FF90EF90DF90CF90BF90AF9007
:100F30009F908F907F906F905F904F903F902F90F9
:100F40000C941B0AEF92FF920F931F93CF93DF93A2
:100F5000CDB7DEB768970FB6F894DEBF0FBECDBF32
:100F60007B012CE0E0E3F1E0DE011D9601900D92A3
:100F70002A95E1F78E010F5F1F4F2CE0F8011192C7
:100F80002A95E9F70E9423068A83DE011D9680E0F8
:100F9000F701408151819D91F80121918F0130E04D
:100FA000290F311D4217530740F0421B530BF70125
:100FB000518340838F5F8C3059F768960FB6F89451
:100FC000DEBF0FBECDBFDF91CF911F910F91FF907C
:100FD000EF9008954F925F926F927F928F929F92BF
:100FE000AF92BF92CF92DF92EF92FF92CF93DF93B7
:100FF00000D0CDB7DEB72B013C0181E090E0A0E04E
:10100000B0E020E8421629E5520620E6620620EF0D
:10101000720618F480E090E0DC0120E931E0829F64
:101020005001839FB00C929FB00C112480E3A81A4A
:1010300088EFB80AC12CD12C7601C39420E842165F
:1010400029E5520620E6620620EF720618F4C12C4C
:10105000D12C7601A701960160E879E580E690EF52
:101060000E94E61273016201C61AD70AE80AF90A59
:1010700081E090E0A0E0B0E0C11422ECD20627E1CC
:10108000E2062CEBF20618F480E090E0DC0144E686
:10109000489F9001499F300D1124A20EB31E21E0FC
:1010A00030E040E050E0C11482ECD80687E1E80669
:1010B0008CEBF80618F420E030E0A90160E072EC57
:1010C00087E19CEB0E94E612A7019601261B370BD5
:1010D000480B590BCA01B90120E83FE146E857E047
:1010E0000E941E13220F331F220F331FA20EB31EA6
:1010F00020E833E341EE51E00E941E137501E20E39
:10110000F31E20E831E541E050E00E941E134B0140
:101110005C013A832983BE016F5F7F4FC7010E9444
:10112000A207D82EC501B40120E13EE040E050E026
:101130000E941E1329013A014B015C0167ED71E029
:1011400084E191E00E942E096D2D70E06F5F7F4F6A
:1011500042E084E191E00E94410969817A816F5FF8
:101160007F4F42E087E191E00E94410944E0B701EE
:101170008AE191E00E94410942E0B2018FE191E0F1
:101180000E944109C501B4012CE330E040E050E089
:101190000E941E1349015A016B017C0142E0B40117
:1011A00082E291E00E94410942E0B60185E291E0CD
:1011B0000E94410984E191E00F900F90DF91CF915F
:1011C000FF90EF90DF90CF90BF90AF909F908F9067
:1011D0007F906F905F904F9008950F931F930E94A0
:1011E0000F0A0091EE041091EF042091F004309169
:1011F000F104600F711F821F931F1F910F910C94B8
:10120000EA07FB01480F591F8417950729F0219120
:10121000DC012D93CD01F8CF0895480F591F841795
:10122000950721F0FC016193CF01F9CF0895FB01EF
:10123000480F591F8417950759F0DC013D91CD01E6
:101240002191321740F02317A8F781E090E008952C
:1012500080E090E008958FEF9FEF0895FC01DB019F
:101260008D91BD01882311F08193F9CF10820895EB
:10127000FC019F01281B390B41914111FACFC90193
:1012800008959F92AF92BF92CF92DF92EF92FF921A
:101290000F931F93CF93DF9300D000D01F92CDB751
:1012A000DEB7FC016B019E012F5F3F4F8E010A5F8D
:1012B0001F4FEE24E394F12C9AE0992E9E9C50014E
:1012C0009F9CB00C1124C601B5010E94F612B70113
:1012D0000E94F612D9016D939D01C61AD10867FDCF
:1012E000D3947501A017B10749F760E070E084E07E
:1012F00090E050E0D8012E918D01211105C06115BB
:10130000710511F4009741F4841795072CF4205DC2
:10131000219361E070E004C0841795070CF43196C6
:10132000019740F70F900F900F900F900F90DF9163
:10133000CF911F910F91FF90EF90DF90CF90BF90D2
:10134000AF909F90089588EC80937C0086E880930E
:101350007A00089580917A008295869586958370AB
:1013600091E08927817090E00895EAE7F0E08081BC
:10137000806480830895809178002091790030E026
:10138000322F2227A901330F660B770B9A01AB018D
:10139000282BA5E6B0E00E94741324E630E040E07C
:1013A00050E00E944013DA01C90181519140A10926
:1013B000B10908951F920F920FB60F9211248F93C7
:1013C0009F93AF93BF9380914C0490914D04A09153
:1013D0004E04B0914F040196A11DB11D80934C04A1
:1013E00090934D04A0934E04B0934F04BF91AF91DE
:1013F0009F918F910F900FBE0F901F90189583E2D1
:1014000094EF9093890080938800109280008CE084
:1014100080938100789482E080936F0008952FB7C5
:10142000F89460914C0470914D0480914E04909119
:101430004F042FBF08958FB7F89410924C04109268
:101440004D0410924E0410924F048FBF08950E94D5
:101450004910789408950C940D12CF93DF93EC010A
:101460008991882319F00E940D12FACFDF91CF9154
:101470000895CF93C82F90E024E0959587952A95FD
:10148000E1F78A3010F4805D01C0895C0E940D1282
:101490008C2F8F708A3010F0895C01C0805DCF91F5
:1014A0000C940D12CF93C82F892F0E94390A8C2FCC
:1014B000CF910C94390A2F923F924F925F926F9284
:1014C0007F928F929F92AF92BF92CF92DF92EF92D4
:1014D000FF920F931F93CF93DF93CDB7DEB7639740
:1014E0000FB6F894DEBF0FBECDBF6B017C0197FF36
:1014F0000DC0F094E094D094C094C11CD11CE11CA8
:10150000F11C81E090E09B8B8A8B02C01B8A1A8AB7
:10151000FE0131965F018E01055F1F4FF98BE88B4D
:1015200066246394712C812C912CAAE0B0E0930185
:10153000A4010E9474131B012C01C701B601910183
:10154000A2010E9440139301A4010E944013E88964
:10155000F9892193F98BE88B822F220F990BAA0B23
:10156000BB0BC81AD90AEA0AFB0A310142010E175D
:101570001F07D9F68A899B89892B19F08DE20E9471
:101580000D1220E030E0F80182918F01811106C038
:101590002115310519F4EA15FB0529F4805D0E9437
:1015A0000D1221E030E00A151B0569F763960FB6AE
:1015B000F894DEBF0FBECDBFDF91CF911F910F9189
:1015C000FF90EF90DF90CF90BF90AF909F908F9063
:1015D0007F906F905F904F903F902F9008950C9464
:1015E000E3110C940A12FF920F931F93CF93DF9392
:1015F000EC01062FF72E18820E94E31110E08823D9
:10160000D9F00E94B7118823B9F00E94BE11803230
:1016100010F089931F5FE02FFF2D482F50E021919C
:10162000222339F0022E000C330B42175307B9F76F
:1016300002C08D3051F71882812FDF91CF911F9119
:101640000F91FF9008950F931F93CF93DF938C0119
:10165000EC01699170E080E090E00E945B0A0C5F11
:101660001F4F8EE20E940D12699170E080E090E0C1
:101670000E945B0AC017D107A1F782EF91E0DF91CA
:10168000CF911F910F910C942D0ACF93DF93EC0112
:1016900082E20E942B0ACE010E942D0A82E2DF9193
:1016A000CF910C942B0A8BEE91E00C942D0ADC0167
:1016B000809150048D3229F48FEF9FEFE1E5F4E043
:1016C00004C081E090E0E0E5F4E011961C921E92E7
:1016D0006AE040812D913C9111974423C1F0629FB3
:1016E000A001639F500D112411965C934E9321919C
:1016F00030ED320F3A30B8F4022E000C330B205389
:101700003109240F351F11963C932E93E2CF289F69
:10171000A001299F500D389F500D11244D935C93CB
:1017200081E090E0089580E090E008950C942B0A09
:101730000C942D0A0C94390A0C94520A0C945B0AEE
:101740000C94E3110C940A12FF920F931F93CF9302
:10175000DF93EC01062FF72E18820E94E31110E0B0
:101760008823D9F00E94B7118823B9F00E94BE11D6
:10177000803210F089931F5FE02FFF2D482F50E03B
:101780002191222339F0022E000C330B421753070C
:10179000B9F702C08D3051F71882812FDF91CF91B8
:1017A0001F910F91FF90089565EF71E080E594E03F
:1017B0000E94A40B882349F0E82FF0E0E15BFB4F87
:1017C00080818F3289F3803279F308950F931F93CC
:1017D000CF93DF9300D000D01F92CDB7DEB765EF77
:1017E00071E080E594E00E94A40B68EF71E080E571
:1017F00094E00E94DC0E892B09F0BBC165EF71E01B
:1018000080E594E00E94A40B63E773E080E594E038
:101810000E94DC0E892B09F081C265EF71E080E542
:1018200094E00E94A40B6DEF71E080E594E00E94CB
:10183000DC0E892B09F072C280E193E00E942D0A30
:1018400082EF91E00E942D0A84E092E00E942D0A2E
:1018500082EF91E00E942D0A8EE092E00E942D0A14
:1018600086EF94E00E94450B8CE20E942B0A82EFE7
:1018700091E00E942D0A8BE192E00E942D0A82E005
:1018800095E00E94450B8CE20E942B0A82EF91E0CA
:101890000E942D0A8FE292E00E942D0A8EE095E0D0
:1018A0000E94450B8CE20E942B0A82EF91E00E947D
:1018B0002D0A84E492E00E942D0A60911A0570912D
:1018C0001B0580911C0590911D050E94EA078C0163
:1018D000FC01128682E20E942B0AC8010E942D0A96
:1018E00082E20E942B0A8CE20E942B0A82EF91E096
:1018F0000E942D0A8CE592E00E942D0A80911E051F
:101900000E94390A0FE115E08AE30E942B0AF801D0
:1019100081918F010E94390AF5E004321F07A1F777
:1019200080E792E00E942D0A82EF91E00E942D0A4A
:1019300083E792E00E942D0A84E295E00E94450B25
:1019400082EF91E00E942D0A83E393E00E942D0A2A
:1019500082EF91E00E942D0A87E892E00E942D0A12
:1019600060919B0470919C04072E000C880B990BCE
:101970000E945B0A8CE20E942B0A82EF91E00E9497
:101980002D0A85E992E00E942D0A60919D047091D4
:101990009E04072E000C880B990B0E945B0A8CE2B8
:1019A0000E942B0A82EF91E00E942D0A83EA92E0C6
:1019B0000E942D0A60919F047091A004072E000CD4
:1019C000880B990B0E945B0A8CE20E942B0A82EF23
:1019D00091E00E942D0A81EB92E00E942D0A609115
:1019E000A1047091A204072E000C880B990B0E9491
:1019F0005B0A8CE20E942B0A82EF91E00E942D0A82
:101A00008FEB92E00E942D0A60910001709101011C
:101A1000072E000C880B990B0E945B0A8CE20E9437
:101A20002B0A82EF91E00E942D0A80ED92E00E9445
:101A30002D0A809100019091010120919B04309129
:101A40009C04821793071CF08BED92E020C020913C
:101A50009D0430919E04821793071CF083EE92E060
:101A600016C02091A1043091A204281739071CF454
:101A70008BEE92E00CC020919F043091A0042817B7
:101A800039071CF482EF92E002C08AEF92E00E94D4
:101A90002D0A8CE20E942B0A82EF91E00E942D0A0F
:101AA00082E093E00E942D0A82EF91E00E942D0ACD
:101AB00010E00E94B805181708F048C0812F90E088
:101AC000A0E0B0E09E012B5F3F4FAE014F5F5F4F44
:101AD000BC01CD010E94D105112339F08CE20E9496
:101AE0002B0A82EF91E00E942D0A8CE093E00E9485
:101AF0002D0A82EF91E00E942D0A82E193E00E947C
:101B00002D0A82E20E942B0A69817A818B819C8155
:101B10000E94EA070E942D0A82E20E942B0A8CE2B0
:101B20000E942B0A85E293E00E942D0A6D8170E0ED
:101B300080E090E00E945B0A82EF91E00E942D0A13
:101B400081E393E00E942D0A1F5FB3CF82EF91E003
:101B50000E942D0A87E393E00E942D0A82EF91E014
:101B60000E942D0A85E393E00E942D0A82EF91E006
:101B700017C16BE373E080E594E00E94DC0E892BD3
:101B800009F0D8C065EF71E080E594E00E94A40BF5
:101B900063E773E080E594E00E94DC0E892B09F096
:101BA000BDC060E473E080E594E00E94A40B64E4AF
:101BB00073E080E594E00E94DC0E892B89F56CE4EB
:101BC00073E080E594E00E94A40B60E573E080E59B
:101BD00094E00E94DC0E892B09F0A0C065EF71E053
:101BE00080E594E00E94A40B67E573E080E594E053
:101BF0000E94DC0E892B29F48FE593E00E942D0AC8
:101C00008FC066E673E080E594E00E94DC0E892BCD
:101C100009F084C08FE593E00E942D0A0E948301A1
:101C20006DE673E080E594E00E94DC0E892B09F0FC
:101C300075C060E473E080E594E00E94A40B65E762
:101C400073E080E594E00E94DC0E892B09F066C009
:101C50006DE773E080E594E00E94A40B60E873E018
:101C600080E594E00E94DC0E892B91F465EF71E031
:101C700080E594E00E94A40BCE0101960E94570BD0
:101C8000892B09F44BC089819A810E94F6004FC0CC
:101C90006AE873E080E594E00E94DC0E892B89F409
:101CA00065EF71E080E594E00E94A40BCE010196FF
:101CB0000E94570B892B91F189819A810E940F0113
:101CC00036C064E973E080E594E00E94DC0E892B65
:101CD00089F465EF71E080E594E00E94A40BCE01E9
:101CE00001960E94570B892BC9F089819A810E9425
:101CF0002B011DC06EE973E080E594E00E94DC0ECC
:101D0000892B61F465EF71E080E594E00E94A40BFB
:101D1000CE0101960E94570B892B29F40E94530B88
:101D20000E94D40B3FC089819A810E944001892B77
:101D3000A9F1F4CF68EA73E080E594E00E94DC0E3C
:101D4000892B61F765EF71E080E594E00E94A40BB8
:101D500063E773E080E594E00E94DC0E892BF1F6E6
:101D600065EF71E080E594E00E94A40B6DE673E0FE
:101D700080E594E00E94DC0E892B81F665EF71E02E
:101D800080E594E00E94A40B60EB73E080E594E0B2
:101D90000E94DC0E892B11F60E949B058FE593E0D3
:101DA0000E942D0A0F900F900F900F900F90DF91CF
:101DB000CF911F910F910895DC01FB019D91992313
:101DC00041F08191891784F09817C4F78FEF9FEF46
:101DD000089581E090E02081211102C080E090E030
:101DE000919581959109089581E090E00895DC0135
:101DF00090E020E061507109422F50E0FD01E40FB6
:101E0000F51F4617570720F48081980F2F5FF4CFF6
:101E1000919590830895611571058105910541F0B3
:101E200060932C0170932D0180932E0190932F01CC
:101E3000211531054105510541F0209328013093CA
:101E4000290140932A0150932B0108954F925F92EC
:101E50006F927F928F929F92AF92BF92CF92DF92BA
:101E6000EF92FF92CF93DF9300D000D0CDB7DEB7D3
:101E70002B013C0129833A834B835C83C09028016A
:101E8000D0902901E0902A01F0902B01A701960142
:101E900044275527A9E6B0E90E9474136701EE2490
:101EA000FF244B015C018C0C9D1CAE1CBF1C80925E
:101EB000280190922901A0922A01B0922B01C09092
:101EC0002C01D0902D01E0902E01F0902F01A70160
:101ED000960144275527A0E5B6E40E9474136701D4
:101EE000EE24FF24C60ED71EE81EF91EC0922C0158
:101EF000D0922D01E0922E01F0922F01D40199276A
:101F00008827BC01CD016C0D7D1D8E1D9F1D298173
:101F10003A814B815C8124193509460957090E9491
:101F20001E13CB01840D951D0F900F900F900F90F5
:101F3000DF91CF91FF90EF90DF90CF90BF90AF9067
:101F40009F908F907F906F905F904F900895CF9368
:101F5000DB01FC0120812D3221F401966FEF7FEF30
:101F600002C061E070E011961C921E92FC01CAE072
:101F700020818D919C9111972223C1F0C89FA001CF
:101F8000C99F500D112411965C934E93219180EDC1
:101F9000820F8A30B8F4022E000C330B2053310923
:101FA000240F351F11963C932E93E2CF869F90010C
:101FB000879F300D969F300D11242D933C9381E027
:101FC00090E002C080E090E0CF9108958091F2040B
:101FD000833561F48091F304853441F481E090E02D
:101FE0002091F404223521F080E002C080E090E0EE
:101FF000E2EFF4E020E03191230F35E0EA32F3071D
:10200000D1F7222311F080E090E00895CF93DF9381
:10201000CDB7DEB7E7970FB6F894DEBF0FBECDBFE2
:1020200087E3ECE3F1E0DE01119601900D928A95D1
:10203000E1F767E370E0CE0101960E94F70E47E3F7
:10204000BE016F5F7F4F80E090E00E942C03E79617
:102050000FB6F894DEBF0FBECDBFDF91CF910895CC
:102060000E947503892BE1F747E362EF74E080E09B
:1020700090E00E9460030E94E60F892B49F40E94C1
:10208000061047E362EF74E080E090E00C94600398
:1020900008951092C00087E690E09093C500809369
:1020A000C400E1ECF0E088E1808386E08093C20028
:1020B0008081806A808308951F920F920FB60F92DD
:1020C00011242F933F938F939F93EF93FF938091CE
:1020D0009604882309F4F0C08091C600909195047D
:1020E000992309F4E3C090EE980F9F3518F08D30D6
:1020F00009F059C0209192049091930430E0291B7B
:102100003109215031092F733327232B61F0E091DE
:102110009304F0E0E75DFA4F8083909193049F5F12
:102120009F7390939304209190049091910430E0D8
:10213000291B3109215031092F733327232B89F0B3
:10214000E0919104F0E0E759FA4F80839091910477
:102150009F5F9F73909391049091C10090629093C0
:10216000C1008D3009F0C5C0809190042091910488
:1021700090E0821B910901978F739927892B69F051
:10218000E0919104F0E0E759FA4F8AE08083809172
:1021900091048F5F8F7380939104809194048F5F7B
:1021A00080939404A6C0883011F08F37C1F58091D8
:1021B00093042091920490E0821B91098F739927D8
:1021C000892B09F496C0E0919304F0E0E75DFA4FA3
:1021D00080818091930481508F73809393048091C8
:1021E00090042091910490E0821B910901978F73D4
:1021F0009927892B09F47DC0E0919104F0E0E7591B
:10220000FA4F8FE78083809191048F5F8F73809363
:1022100091048091C10080628093C1006AC08430C3
:1022200009F067C0809193042091920490E0821B92
:1022300091098F739927892B31F1E0919304F0E094
:10224000E75DFA4F80818D30F1F08091920420910A
:10225000930490E0821B910901978F739927892B32
:1022600091F0E0919304F0E0E75DFA4F8DE0808318
:10227000809193048F5F8F73809393048091940473
:102280008F5F80939404809192042091930490E056
:10229000821B910901978F739927892B51F1E09146
:1022A0009304F0E0E75DFA4F84E019C0833009F54C
:1022B00081E0809395041DC0809192042091930445
:1022C00090E0821B910901978F739927892B79F0F0
:1022D000E0919304F0E08091C600E75DFA4F8083BF
:1022E000809193048F5F8F738093930402C08091D9
:1022F000C600FF91EF919F918F913F912F910F9089
:102300000FBE0F901F9018951F920F920FB60F924D
:1023100011242F938F939F93EF93FF9380919104B8
:102320002091900490E0821B91098F739927892B4B
:1023300079F0E0919004F0E0E759FA4F80818093C2
:10234000C600809190048F5F8F738093900405C0C6
:102350008091C1008F7D8093C100FF91EF919F918B
:102360008F912F910F900FBE0F901F901895809115
:10237000930490919204891B8F7308958091930424
:102380002091920490E0821B91098F739927892BE9
:10239000C1F0E0919204F0E0E75DFA4F8081909106
:1023A00092049F5F9F739093920490919604992357
:1023B00049F08D3039F490919404915090939404A5
:1023C000089580E0089581E08093960480919304BD
:1023D0002091920490E0821B91098F739927892B99
:1023E000B1F0E0919204F0E0E75DFA4F8081843033
:1023F00071F410929504E0919204F0E0E75DFA4FD9
:102400008081809192048F5F8F738093920480917A
:10241000950408958091940408950FB607FE0EC0A8
:10242000209190049091910430E0291B31092150B2
:1024300031092F733327232B99F30DC0209190047A
:102440009091910430E0291B3109215031092F73FB
:102450003327232B61F0E0919104F0E0E759FA4F24
:102460008083809191048F5F8F738093910480911A
:10247000C10080628093C10008951F93CF93DF93C2
:10248000EC0180E011E0180FFE01E80FF11D8081E2
:10249000882321F00E940D12812FF4CFDF91CF917C
:1024A0001F9108951F93CF93DF93EC0180E011E01B
:1024B000180FFE01E80FF11D8491882321F00E947E
:1024C0000D12812FF4CFDF91CF911F9108950E94BB
:1024D000CD010E9430100E9415060E941D040E942A
:1024E00089010E94270A0E9479030E94A3090E9481
:1024F00077010E94F20083E791E00E942D0A84E9AF
:1025000091E00E942D0A82EF91E00E942D0A80E066
:102510000E944A050E94B50968E873E181E090E0F5
:102520000E94A002C0E00E9481010E94980381E005
:1025300090E00E948702892B09F10E94BB099093C9
:102540000101809300010091A1041091A204209147
:102550009F043091A00440919D0450919E0460918D
:102560009B0470919C040E945C000E94B50968EE77
:1025700073E081E090E00E94A002D5CFC11109C0B4
:102580000E94A00B882379F28EE991E00E942D0A27
:102590001BC00E94A20B882359F00E94E60B0E94E8
:1025A000A00B811111C087EB91E00E94980BBACF6C
:1025B0000E947503892B11F40E94E2040E947503A6
:1025C000892B11F40E94E801C1E0ADCFDB018F93AC
:1025D0009F930E947413BF91AF91A29F800D911D94
:1025E000A39F900DB29F900D11240895AA1BBB1BB1
:1025F00051E107C0AA1FBB1FA617B70710F0A61B03
:10260000B70B881F991F5A95A9F780959095BC0123
:10261000CD01089597FB072E16F4009407D077FD9F
:1026200009D00E94F61207FC05D03EF490958195E2
:102630009F4F0895709561957F4F0895A1E21A2EDE
:10264000AA1BBB1BFD010DC0AA1FBB1FEE1FFF1F56
:10265000A217B307E407F50720F0A21BB30BE40BA6
:10266000F50B661F771F881F991F1A9469F76095ED
:102670007095809590959B01AC01BD01CF010895A7
:10268000052E97FB1EF400940E94571357FD07D0A8
:102690000E941E1307FC03D04EF40C945713509560
:1026A0004095309521953F4F4F4F5F4F089590953E
:1026B0008095709561957F4F8F4F9F4F0895EE0FD6
:1026C000FF1F0590F491E02D0994A29FB001B39FE4
:1026D000C001A39F700D811D1124911DB29F700D2B
:1026E000811D1124911D08950E946513A59F900DD1
:1026F000B49F900DA49F800D911D11240895F8940E
:02270000FFCF09
:10270200030B443100802500002D00040B443000EF
:10271200802500002D0002060024F400010C6174E3
:082722006D6567613332380078
:10272A00580041535500FF03FE030000010000C09A
:10273A00A801640030302F30302F30303030203054
:10274A00303A30303A303000E5559A15B53B121F11
:10275A001F1C1F1E1F1E1F1F1E1F1E1F5345520018
:10276A0053616E647900000000000000446F7567D1
:10277A006C617300000000005F554E415353494796
:10278A004E45440000000000444F5553414E5553F6
:10279A004100005345523438362050726F6A6563DF
:1027AA00742033202D20496E746567726174696FD5
:1027BA006E0D0A006A617265645F68616D00436F3D
:1027CA006E6E656374696F6E2045737461626C69BD
:1027DA00736865640D0A00436F6E6E656374696F92
:1027EA006E204C6F73740D0A002E002D000D0A41E5
:1027FA004C41524D3A200030302F30302F3030309B
:10280A00302030303A30303A303000494E56414C60
:10281A0049440D0A002F200047455420006465767C
:10282A0069636500202022767064223A7B002020AA
:10283A002020226D6F64656C223A0020202020221D
:10284A006D616E756661637475726572223A0020F5
:10285A002020202273657269616C5F6E756D6265F6
:10286A0072223A0020202020226D616E7566616313
:10287A00747572655F64617465223A0020202020B5
:10288A00226D61635F61646472657373223A220028
:10289A00222C002020202022636F756E7472795FCB
:1028AA00636F6465223A0020202274637269745F40
:1028BA006869223A00202022747761726E5F686923
:1028CA00223A0020202274637269745F6C6F223A84
:1028DA0000202022747761726E5F6C6F223A0020AA
:1028EA00202274656D7065726174757265223A0092
:1028FA002020227374617465223A00435249545F5E
:10290A004849005741524E5F4849004E4F524D4187
:10291A004C005741524E5F4C4F00435249545F4C52
:10292A004F002020226C6F67223A5B002020202073
:10293A007B002020202020202274696D6573746139
:10294A006D70223A00226576656E746E756D223A54
:10295A0000202020207D0020205D005055542000BA
:10296A002F203F006465766963653F002F203D0094
:10297A0072657365743D002266616C736522004F4F
:10298A004B41590D0A0022747275652200646576FE
:10299A006963652F00636F6E6669673F003D2000BB
:1029AA0074637269745F68693D00747761726E5FFF
:1029BA0068693D0074637269745F6C6F3D00747777
:1029CA0061726E5F6C6F3D0044454C455445200072
:0429DA006C6F6700B7
:00000001FF
