:100000000C9447000C9464000C9464000C946400FD
:100010000C9464000C9464000C9479250C94640096
:100020000C9464000C9464000C9464000C94A21C66
:100030000C9464000C9464000C94E8060C94640026
:100040000C9464000C9464000C94AF250C94D72697
:100050000C9464000C9464000C94B80D0C9464002F
:100060000C9464000C9464008B03BE031904FB031E
:10007000C803D403E003EC0319040904F91B181C9A
:10008000261C301C4A1C541C5F1C781C821C11242A
:100090001FBECFEFD8E0DEBFCDBF13E0A0E0B1E0E0
:1000A000E0EEF0E502C005900D92A03BB107D9F754
:1000B00025E0A0EBB3E001C01D92A33BB207E1F73E
:1000C0000E9434040C945A280C940000CF93DF93C0
:1000D000CDB7DEB727970FB6F894DEBF0FBECDBF02
:1000E00060E371E080E00E94161861E471E080E056
:1000F0000E9416186AE671E080E00E9416186EE70A
:1001000071E080E00E94161861E871E080E00E94D2
:10011000161863E871E080E00E94371867E871E024
:1001200080E00E9416186AE871E080E00E943718AB
:1001300060E971E080E00E94161860E075E080E000
:100140000E94371862E971E080E00E94161864E9A5
:1001500071E080E00E94371860E971E080E00E9461
:1001600016186CE075E080E00E94371862E971E0D3
:1001700080E00E94161861EA71E080E00E94371862
:1001800060E971E080E00E94161868E175E080E0A7
:100190000E94371862E971E080E00E9416186FEA49
:1001A00071E080E00E94371860E971E080E00E9411
:1001B00016188091240590912505A0912605B091EF
:1001C0002705AC01BD0180E00E944A1862E971E098
:1001D00080E00E94161860EC71E080E00E94371801
:1001E00060E971E080E00E94161868E275E080E046
:1001F0000E94751862E971E080E00E9416186CECAC
:1002000071E080E00E94371860E971E080E00E94B0
:1002100016186EE275E080E00E94371869ED71E013
:1002200080E00E9416186CED71E080E00E943718A3
:1002300060E971E080E00E9416188091A504909119
:10024000A604BC0180E00E94AB1862E971E080E086
:100250000E94161865EE71E080E00E94371860E990
:1002600071E080E00E9416188091A7049091A80484
:10027000BC0180E00E94AB1862E971E080E00E945E
:1002800016186EEE71E080E00E94371860E971E0A8
:1002900080E00E9416188091A9049091AA04BC01E4
:1002A00080E00E94AB1862E971E080E00E941618BD
:1002B00067EF71E080E00E94371860E971E080E04C
:1002C0000E9416188091AB049091AC04BC0180E0B0
:1002D0000E94AB1862E971E080E00E94161860E0AD
:1002E00072E080E00E94371860E971E080E00E94CF
:1002F00016180E94CB1BBC0180E00E94AB1862E97B
:1003000071E080E00E9416186CE072E080E00E94CC
:10031000371860E971E080E00E94161862E172E02F
:1003200080E00E94371862E971E080E00E941618B0
:1003300064E172E080E00E94371868E172E080E0DA
:100340000E9416181A82198259C089819A81092E31
:10035000000CAA0BBB0B9E01295F3F4FAE014D5F06
:100360005F4FBC01CD010E94A31061E871E080E005
:100370000E9416186BE172E080E00E94371860E975
:1003800071E080E00E9416188B819C81AD81BE8156
:10039000AC01BD0180E00E944A1862E971E080E092
:1003A0000E94161865E272E080E00E94371860E94A
:1003B00071E080E00E9416188F81882F90E0BC01C8
:1003C00080E00E94AB186BE272E080E00E94161899
:1003D0000E948A10882F90E09C0121503109898168
:1003E0009A812817390729F062E971E080E00E94BC
:1003F000161889819A8101969A8389830E948A10AE
:10040000282F30E089819A81821793070CF49DCFC1
:100410006DE272E080E00E9416186EE771E080E005
:100420000E94161880E00E941916000027960FB649
:10043000F894DEBF0FBECDBFDF91CF910895CF936B
:10044000DF93CDB7DEB760E371E080E00E9416185D
:100450006AE671E080E00E9416186EE771E080E0C5
:100460000E94161880E00E9419160000DF91CF91BB
:100470000895CF93DF93CDB7DEB760E372E080E0FD
:100480000E9416186AE671E080E00E9416186EE776
:1004900071E080E00E94161880E00E9419160000AA
:1004A000DF91CF910895CF93DF9300D01F92CDB706
:1004B000DEB78EE18A8319820EC0CE01039641E039
:1004C00050E0BC0180E00E9462168B818F3241F0C7
:1004D00089818F5F898399818A81981770F301C020
:1004E000000099818A81981710F080E00AC06AE4C0
:1004F00072E080E00E94D119882311F480E001C0ED
:1005000081E00F900F900F90DF91CF910895CF93DE
:10051000DF93CDB7DEB70E945302DF91CF910895EC
:10052000CF93DF93CDB7DEB70E945302882311F437
:1005300080E060C061E572E080E00E94D11988230C
:10054000C1F16AE572E080E00E94D119882319F0B8
:100550001092B10323C064E672E080E00E94D119DA
:10056000882321F081E08093B10318C06EE672E029
:1005700080E00E94D119882321F082E08093B103AA
:100580000DC068E772E080E00E94D119882321F055
:1005900083E08093B10302C080E02CC062EB73E083
:1005A00080E00E94701A882311F480E023C081E06B
:1005B00021C062E872E080E00E94D1198823C9F06E
:1005C0006AE872E080E00E94D119882319F0109245
:1005D000B4030DC062E972E080E00E94D119882363
:1005E00021F081E08093B40302C080E003C081E089
:1005F00001C080E0DF91CF910895CF93DF93CDB715
:10060000DEB70E945302882311F480E00AC069E932
:1006100072E080E00E94D119882311F480E001C0CB
:1006200081E0DF91CF910895CF93DF93CDB7DEB70F
:100630008091B403882329F00E941F020E9496250E
:100640004BC08091B103882F90E081309105D1F0AB
:10065000823091051CF4892B39F03EC0823091051F
:10066000F9F0039759F138C08091B2039091B30328
:100670000E940305892B19F40E941F022DC00E94BD
:1006800039022AC08091B2039091B3030E942C05D5
:10069000892B19F40E941F021FC00E9439021CC03E
:1006A0008091B2039091B3030E945905892B19F4EC
:1006B0000E941F0211C00E9439020EC08091B20335
:1006C0009091B3030E947D05892B19F40E941F02AB
:1006D00002C00E94390200000000DF91CF9108950E
:1006E000CF93DF93CDB7DEB78091B003882F90E032
:1006F000092E000CAA0BBB0B40E050E029E030E0D3
:10070000841B950B2817390708F493C08C5C9F4F06
:10071000FC010C9433281092B4036EE972E080E07F
:100720000E94D119882339F084E08093B50384E0D6
:100730008093B0037EC062EA72E080E00E94D1192B
:10074000882339F085E08093B50385E08093B0037A
:1007500070C066EA72E080E00E94D119882339F007
:1007600086E08093B50386E08093B00362C081E0A9
:100770008093B0035EC080E00E94271A80E00E9450
:100780009C16892BC1F70E9439021092B00351C008
:100790000E948702882321F481E08093B00349C03E
:1007A00087E08093B00345C00E949002882321F423
:1007B00081E08093B0033DC087E08093B00339C0EF
:1007C0000E94FD02882321F481E08093B00331C0B0
:1007D00087E08093B0032DC06DEA72E080E00E9454
:1007E000D119882321F481E08093B00322C083E0F3
:1007F0008093B0031EC080E00E94AF19882321F4CB
:1008000080E00E94271AF7CF000089E08093B003B0
:1008100010C08091B503843019F40E94660006C0B0
:100820008091B503853011F40E9414031092B00337
:1008300000000000DF91CF910895CF93DF93CDB7F3
:10084000DEB71092B0031092B4030000DF91CF9195
:100850000895CF93DF93CDB7DEB781E08093B003E7
:100860000000DF91CF910895EF92FF920F931F93B5
:10087000CF93DF9300D000D000D0CDB7DEB70E9479
:10088000EF1C0E944B0E0E94611F0E94A1060E9455
:10089000EF0E0E94C6110E94E31A0E94B31B0E9431
:1008A0005D220E94EA1B0E941D040E946D1049EB0C
:1008B00052E060EC72E084EC92E00E94B2141B8281
:1008C0001C821D821E829E012D5F3F4FAE014D5F37
:1008D0005F4FCE010396BC0188E295E00E940E2096
:1008E000000000EA1FE020E030E040E65AEE60E061
:1008F00070E088E295E00E94020D892B91F38AEC6A
:1009000092E00E94F51C0E94B7070E94EB1D0E9416
:10091000BA077C010E94BD078C010E94B7079701AE
:10092000A801BC0188E295E00E940E2083E00E94AD
:100930001C1085E00E94E71084E00E941C100E94B9
:10094000882580E00E941C1080E090E00E94AB05AA
:100950000E9416150E94C51B68E873E181E090E0D3
:100960000E9474070E9494250E946A0E81E090E024
:100970000E945B07892B11F10E94CB1B9A8389830C
:10098000E091AB04F091AC042091A9043091AA0449
:100990004091A7045091A8046091A5047091A60409
:1009A00089819A818F010E94EB1B0E94C51B68EE12
:1009B00073E081E090E00E947407D4CF80E00E9451
:1009C0009015882349F060E97FE180E00E94D0150E
:1009D00080E00E94D615C6CF80E00E949C161816B3
:1009E00019061CF40E947003BDCF0E94470E892B8C
:1009F00011F40E94B40F0E94470E892B09F0B2CF68
:100A00000E94BC06AFCFCF93DF9300D0CDB7DEB747
:100A10009A8389832091A7043091A80489819A81BF
:100A2000281739072CF489819A81811594401CF08C
:100A300081E090E00CC089819A819093A604809314
:100A4000A5040E9470060E94BC0680E090E00F9012
:100A50000F90DF91CF910895CF93DF9300D0CDB762
:100A6000DEB79A8389832091AB043091AC048981ED
:100A70009A81821793074CF02091A5043091A60427
:100A800089819A81281739071CF481E090E00CC015
:100A900089819A819093A8048093A7040E9470068C
:100AA0000E94BC0680E090E00F900F90DF91CF9104
:100AB0000895CF93DF9300D0CDB7DEB79A838983B3
:100AC0002091AB043091AC0489819A8182179307FD
:100AD0006CF489819A819093AA048093A9040E945E
:100AE00070060E94BC0680E090E002C081E090E0C9
:100AF0000F900F90DF91CF910895CF93DF9300D0A7
:100B0000CDB7DEB79A8389832091A9043091AA04D6
:100B100089819A8128173907B4F42091A70430916C
:100B2000A80489819A81821793076CF489819A813C
:100B30009093AC048093AB040E9470060E94BC06A4
:100B400080E090E002C081E090E00F900F90DF9194
:100B5000CF91089508958F929F92AF92BF92EF9296
:100B6000FF920F931F93CF93DF9300D000D01F927B
:100B7000CDB7DEB77C018091D5029091D602A091CD
:100B8000D702B091D80289839A83AB83BC8348EBA8
:100B900052E2BE016F5F7F4F83E00E94271548EB52
:100BA00052E2BE016F5F7F4F83E00E943E190E94B8
:100BB0009E140E94481B8C010E949E149801AC0157
:100BC00060E070E083E00E94F3170E949E140E9490
:100BD000481B8C0121E030E042E453E0BC0183E09B
:100BE0000E94F3170F5F1F4F88E195E00E94481B9A
:100BF0009C0148E155E0B80183E00E94F31788E1C9
:100C000095E00E94481B080F191F21E030E042E4E4
:100C100053E0B80183E00E94F317B8016F5F7F4F84
:100C2000C70124E0969587952A95E1F78A309105CA
:100C300010F0895C01C0805D8D8321E030E0AE0161
:100C40004B5F5F4F83E00E94F317B8016E5F7F4FE9
:100C50008E2D8F7097012F7033272A30310510F0B9
:100C6000895C01C0805D8D8321E030E0AE014B5F87
:100C70005F4F83E00E94F31783E00E9463190E9494
:100C80009E074B015C0125EF820E21E0921EA11C04
:100C9000B11C0E949E07681579058A059B05C9F756
:100CA00083E00E94D4158AE393E00E94F51CB7010B
:100CB00080E090E00E94231D8BE593E00E94F51CEC
:100CC0000F900F900F900F900F90DF91CF911F9189
:100CD0000F91FF90EF90BF90AF909F908F900895ED
:100CE00081E08093B60308958091A104813461F47A
:100CF0008091A204833541F481E090E02091A30427
:100D0000253521F080E002C080E090E0E1EAF4E0E7
:100D100020E03191230F34E0E43BF307D1F72223A5
:100D200011F080E090E0089562E170E082E091E0EF
:100D30000E94281E42E162E071E080E490E00C94A1
:100D4000FE0D0E94470E892BE1F742E161EA74E053
:100D500080E490E00E94320E0E947406892B49F4D0
:100D60000E94940642E161EA74E080E490E00E940F
:100D7000320E1092B60308950E94470E892B99F403
:100D80008091B603882379F062E170E081EA94E013
:100D90000E94281E42E161EA74E080E490E00E9433
:100DA000FE0D1092B60308958091B603882379F062
:100DB00062E170E081EA94E00E94281E42E161EA6B
:100DC00074E080E490E00E941B0E1092B603089538
:100DD0001F920F920FB60F9211242F933F938F9370
:100DE0009F93AF93BF932091C1033091C203809131
:100DF000B9039091BA032817390749F08091C103CC
:100E00009091C20301969093C2038093C1032091F5
:100E1000C3033091C4038091BB039091BC03281796
:100E2000390749F08091C3039091C40301969093D0
:100E3000C4038093C3038091BD039091BE03A0912E
:100E4000BF03B091C0030196A11DB11D8093BD03E6
:100E50009093BE03A093BF03B093C003BF91AF9123
:100E60009F918F913F912F910F900FBE0F901F90E8
:100E7000189589EF87BD82E084BD93E095BD789495
:100E800080936E001092BD031092BE031092BF03B8
:100E90001092C00308958230910550F4F894880FA1
:100EA000991FFC01EF53FC4F808191817894089544
:100EB00080E090E008958230910598F4880F991FA2
:100EC000FC01EF53FC4F20813181FC01E754FC4FC2
:100ED00081E090E0408151814217530721F080E08A
:100EE000089580E090E008950F931F93CF93DF93D0
:100EF000EC018B018091B7039091B803892B41F4E9
:100F00000E94390781E090E09093B8038093B70383
:100F1000C230D10570F48FB7F894CC0FDD1FFE01FD
:100F2000E754FC4F11830083CF53DC4F19821882A2
:100F30008FBFDF91CF911F910F9108958091B703DB
:100F40009091B803892B41F40E94390781E090E029
:100F50009093B8038093B703F8946091BD037091A8
:100F6000BE038091BF039091C0037894089583EDF0
:100F700093E0089587ED93E008958BED93E0089555
:100F80008FED93E0089583EE93E0089544E150E0FF
:100F900060E00E960C941D1B08952F923F924F9285
:100FA0005F926F927F928F929F92AF92BF92CF92F9
:100FB000DF92EF92FF920F931F93CF93DF93CDB702
:100FC000DEB7E6970FB6F894DEBF0FBECDBF8C013B
:100FD0002A013B0119011AAA19AA0E949E074B0176
:100FE0005C0182E00E949E16892BF9F40E949E0704
:100FF000DC01CB0188199909AA09BB0948165906D1
:101000006A067B0608F4A7C00E949E076B017C015C
:1010100023E3C20ED11CE11CF11C0E949E076C153B
:101020007D058E059F05C9F7DCCF48E050E0BE0185
:101030006D5D7F4F82E00E94FA16FFA08BA18BA707
:101040008CA18CA78DA18DA78EA18EA7E8A442E2CA
:1010500050E0BE016F5F7F4F82E00E94FA168981E7
:10106000823009F076C08F2D90E0982F88278E0D62
:10107000911D8334910509F06CC06D817E818F8153
:1010800098850E943928F10160837183828393835C
:1010900046E050E0B801685F7F4FCE014D960E9458
:1010A000271B892B09F059C0F10180819181A28110
:1010B000B381F80140815181628173818417950762
:1010C000A607B70708F449C0448155816681778136
:1010D000481759076A077B0708F43FC044E050E00F
:1010E000BE016F5E7F4FC8010E960E94111B8EECF1
:1010F000E82EF12C41E050E0BE01615D7F4F82E0BF
:101100000E94FA16F1E0EF1AF108A1F7C8018296E1
:101110009CAB8BABF801B696FEABEDAB1801FAE2D7
:101120002F0E311C08976C012E019BE2490E511CB9
:101130003801E2E16E0E711C5801F6E1AF0EB11CF0
:1011400048012EE1820E911C82E00E949E16892B9E
:1011500031F48AA924C18FEF22C180E020C141E08F
:1011600050E0BE01605D7F4F82E00E94FA1688A9C0
:10117000833309F4E0C0D0F48130B9F128F383302F
:1011800009F442C0863009F0F5C041E050E0BE01EC
:101190006F5C7F4F82E00E94FA1644E050E0B40199
:1011A00082E00E94FA16E12CF12C51C08A3309F436
:1011B0008DC030F4853359F0863309F45BC0DAC052
:1011C0008B3309F49EC08F3F09F4BECFD3C041E0FA
:1011D00050E0BE016F5C7F4F82E00E94FA1641E052
:1011E00050E0BE016E5C7F4F0BC041E050E0BE019D
:1011F0006F5C7F4F82E00E94FA1644E050E0B3013A
:1012000082E00E94FA16A0CF41E050E0BE016F5C80
:101210007F4F82E00E94FA1644E050E0B50182E080
:101220000E94FA16E12CF12C89A990E00497E816A7
:10123000F9060CF089CF41E050E0BE01615D7F4FBF
:1012400082E00E94FA168FEFE81AF80AEDCF89A91A
:1012500090E00497E816F9060CF076CF41E050E0F4
:10126000BE01615D7F4F82E00E94FA169FEFE91A8E
:10127000F90AEDCF41E050E0BE016F5C7F4F82E0A4
:101280000E94FA16F801828D811109C0838D8111A7
:1012900006C0848D811103C0858D882319F04C14FC
:1012A0005D0421F444E050E0B601AACF89A99FEF84
:1012B000980F99AB882309F447CF41E050E0BE0175
:1012C000615D7F4F82E00E94FA16F0CF41E050E06E
:1012D000BE016F5C7F4F82E00E94FA1644E050E04E
:1012E0006DA97EA982E00E94FA16F80166A177A195
:1012F00080A591A50E94392866A377A380A791A70E
:1013000023CF41E050E0BE016F5C7F4F82E00E943E
:10131000FA1644E050E0B10182E00E94FA16F801AA
:1013200062A573A584A595A50E94392862A773A715
:1013300084A795A709CF41E050E0BE016F5C7F4FC5
:1013400082E00E94FA1644E050E06BA97CA982E09A
:101350000E94FA16F80162A173A184A195A10E94CE
:10136000392862A373A384A395A366A777A780AB4C
:1013700091ABEACE41E050E0BE016F5C7F4F82E06E
:101380000E94FA1689A99FEF980F99AB882309F458
:10139000DBCE41E050E0BE01615D7F4FF0CFE696CD
:1013A0000FB6F894DEBF0FBECDBFDF91CF911F9176
:1013B0000F91FF90EF90DF90CF90BF90AF909F90F4
:1013C0008F907F906F905F904F903F902F900895F7
:1013D0000E96089542960895469608954A96089561
:1013E0004E96089580E3FB0180833296842F829588
:1013F0008F7090E1899F401911244A3014F4405DA8
:1014000001C0495C4293482F8111F0CF0895AF92FB
:10141000BF92DF92EF92FF920F931F93CF93DF93D0
:10142000CDB7DEB7AA970FB6F894DEBF0FBECDBF1B
:101430008C01D62EF42EE52E40E250E060E0CE0185
:1014400001960E941D1B8091D9029091DA02A09111
:10145000DB02B091DC028DA39EA3AFA3B8A743E447
:1014600050E0BE016B5D7F4F82E00E943E19892BE8
:1014700009F4FBC081E089838A8386E08B831C8228
:10148000F80164817581868197810E94392869A35A
:101490007AA38BA39CA344E050E0BE016F5D7F4F15
:1014A000CE0105960E94111BE986FA8680E890E03D
:1014B0009AA789A742E050E0BE01675D7F4FCE0149
:1014C0000B960E94111B2CE130E0AE014F5F5F4F85
:1014D00060E070E082E00E94F31740E250E060E0DC
:1014E000CE0101960E941D1B5801F8E0AF0EB11C01
:1014F00046E050E0B501CE0101960E94111B20E1AB
:1015000030E0AE014F5F5F4F6CE170E082E00E941F
:10151000F31740E250E060E0CE0101960E941D1BEF
:101520008CE2E82EF12C20E230E0AE014F5F5F4FFD
:10153000B70182E00E94F31780E2E80EF11CECEEA6
:10154000EE16F10481F783E6898392E89A8393E5A6
:101550009B838C8385E38D8381E08E83DF829DE393
:10156000988797E099878A8746E050E0B501CE01D9
:101570000B960E94111B8CE0898B84E493E00E94FF
:10158000481B8A5F8A8B64E473E0CE0143960E9415
:101590003E1BF8014385BE01675E7F4FC8010E9474
:1015A000F209F8014485BE01655E7F4FC8010E94C3
:1015B000F209F8014585BE01635E7F4FC8010E94B4
:1015C000F2092EE130E0AE014F5F5F4F6CEE70E04C
:1015D00082E00E94F317F3E0DF1227C082E38983E1
:1015E00084E08A83F80196859B8397859C83908904
:1015F0009D8391899E8396E39F838887828D8987C7
:10160000838D8A87848D8B87858D8C872CE030E055
:10161000AE014F5F5F4F6AE071E082E00E94F31716
:1016200066E171E080E090E004C06AE071E080E093
:1016300090E027E3298326E02A8331E03B8333E0EF
:101640003C832D832FE02E832AE32F832BE32887EF
:101650002FEF298729E030E0AE014F5F5F4F82E036
:101660000E94F31782E00E946319AA960FB6F894BD
:10167000DEBF0FBECDBFDF91CF911F910F91FF90C5
:10168000EF90DF90BF90AF9008952F923F924F92CE
:101690005F926F927F928F929F92AF92BF92CF9202
:1016A000DF92EF92FF920F931F93CF93DF9300D0BF
:1016B00000D0CDB7DEB78C0120ED37E040E050E040
:1016C00061E070E080E090E00E94571EA0E0B0E092
:1016D000F80184839583A683B78380839183A28353
:1016E000B38382E00E94D41564E470E082E00E943B
:1016F000CC15882309F42EC10E949E074B015C0182
:10170000212C312C7801F2E4EF0EF11C48EE442E2E
:1017100043E0542E612C712C52E0C52ED7018C91E0
:10172000833009F4FEC081111FC0F80184819581C6
:10173000A681B7810196A11DB11D84839583A683DF
:10174000B7830E949E07681979098A099B09A3013A
:1017500092010E94F227A90161E0C8010E94070AD4
:1017600081E0D7018C93C5C08430F1F4F801848105
:101770009581A681B7810196A11DB11D84839583B2
:10178000A683B7830E949E07681979098A099B0975
:10179000A30192010E94F227A90163E0C8010E94FF
:1017A000070AD701CC92A5C0813051F5F80142ADAE
:1017B00053AD64AD75AD9E012F5F3F4FC8010E94D0
:1017C000CD07D82EF2E08F138FC089819A81AB812B
:1017D000BC81F80184839583A683B7830E949E070A
:1017E000681979098A099B09A30192010E94F227CD
:1017F000A90163E0C8010E94070AD701DC9279C001
:10180000823009F076C0F80142AD53AD64AD75ADDC
:101810009E012F5F3F4FC8010E94CD07D82EF5E0F3
:101820008F135CC0E3E0D701EC93F80182A193A190
:10183000A4A1B5A1892B8A2B8B2B41F484E893E0DA
:10184000A0E0B0E082A393A3A4A3B5A3F80186A16E
:1018500097A1A0A5B1A5892B8A2B8B2B61F482A11E
:1018600093A1A4A1B5A1B695A7959795879586A3B1
:1018700097A3A0A7B1A7F80182A593A5A4A5B5A594
:10188000892B8A2B8B2BA9F482A193A1A4A1B5A1AA
:10189000AC01BD0123E076956795579547952A954C
:1018A000D1F7841B950BA60BB70B82A793A7A4A710
:1018B000B5A7F80186A197A1A0A5B1A586A797A76E
:1018C000A0ABB1AB82A593A5A4A5B5A582AB93AB04
:1018D000A4ABB5AB22242394312C0BC0F6E08F13BC
:1018E00003C0D7011C9205C0BFEFDB1202C0F70195
:1018F0001082F1E02F16310409F410CF0E949E07E8
:10190000DC01CB0188199909AA09BB09F80126A9AC
:1019100037A940AD51AD281739074A075B0708F0D2
:10192000FDCE82E00E94D415F80184819581A681C4
:10193000B7810196A11DB11D84839583A683B783CA
:101940000E949E07F801FE966083718382839383D1
:10195000C10102C080E090E00F900F900F900F90B7
:10196000DF91CF911F910F91FF90EF90DF90CF907B
:10197000BF90AF909F908F907F906F905F904F90AF
:101980003F902F900895CF92DF92EF92FF920F93A6
:101990001F93CF93DF93EC016B011AA21BA21CA231
:1019A0001DA21EA21FA218A619A61AA61BA61CA637
:1019B0001DA62EAB3FAB48AF59AFEAAEFBAE0CAFA6
:1019C0001DAF8C01085F1F4F46E050E060E0C8018A
:1019D0000E941D1BCE010E94C60746E050E0B601E2
:1019E000C8010E94111BFE01EE5BFF4F1082CE0169
:1019F000DF91CF911F910F91FF90EF90DF90CF90EB
:101A00000C94450BEF92FF920F931F93780189017D
:101A10009A01AB01BC0185EC93E00E94C30C1F91BD
:101A20000F91FF90EF900895CF92DF92EF92FF9287
:101A30000F931F93CF93DF93EC010E949E076B01DE
:101A40007C018E01025C1F4FF80180819181A2818F
:101A5000B381A7019601281B390B4A0B5B0BCA0106
:101A6000B901683E33E073078105910508F441C070
:101A700028EE33E040E050E00E94F227C61AD70A71
:101A8000E80AF90AF801C082D182E282F3828EA5C7
:101A90009FA5A8A9B9A969017A01CC0CDD1CEE1C8F
:101AA000FF1C8C159D05AE05BF0528F41EA61FA6BC
:101AB00018AA19AA08C0821B930BA40BB50B8EA7FA
:101AC0009FA7A8ABB9AB8AA99BA9ACA9BDA98C1546
:101AD0009D05AE05BF0528F41AAA1BAA1CAA1DAABB
:101AE00008C0821B930BA40BB50B8AAB9BABACABB2
:101AF000BDAB8EA59FA5A8A9B9A9892B8A2B8B2B35
:101B000069F4FE01EE5BFF4F8081833039F484E09D
:101B10008083CE010E94450B019602C080E090E0D8
:101B20004AA95BA96CA97DA9452B462B472B81F4BB
:101B3000FE01EE5BFF4F2081233011F0211108C020
:101B40001082CE010E94C607CE010E94450B03966B
:101B5000DF91CF911F910F91FF90EF90DF90CF9089
:101B6000089585EC93E00C94140DFA9AF99A08956F
:101B70001F920F920FB60F9211242F933F934F9302
:101B80005F936F937F938F939F93AF93BF93EF93E5
:101B9000FF93E091F7048091B604E81720F0FB98DA
:101BA0001092B3041AC08091B4049091B50492BD10
:101BB00081BD81E08E0F8093F704F0E0E954FB4F84
:101BC000808180BD8091B4049091B504019690937A
:101BD000B5048093B4040E94B50DFF91EF91BF91BD
:101BE000AF919F918F917F916F915F914F913F91B5
:101BF0002F910F900FBE0F901F9018952091B30456
:101C00002111FCCF9093B5048093B40481E08093BC
:101C1000B3041092F7044093B604962FA7EBB4E0F8
:101C2000FB018E2F891B841718F481918D93F9CFB6
:101C30007894FB9A0895FB01861B970B50E0DC011A
:101C4000AE0FBF1F9F01261B370B2417350748F423
:101C5000F999FECFB2BDA1BD219120BDFA9AF99AA2
:101C6000EECF08952091B3042111FCCFFB01861B18
:101C7000970B2E2F261B241748F49C012E0F3F1F75
:101C800032BD21BDF89A20B52193F3CF08958091FC
:101C9000B30490E0089560E070E080E090E00E947E
:101CA0007407219A29980895299A089529980895E2
:101CB000909309048093080410920C0410920B0472
:101CC00010920A0460E070E080E090E00E947407E7
:101CD0000C94560E8091080490910904892B09F404
:101CE00052C080E090E00E945B07892B09F44BC052
:101CF00080910A04811134C020910B0430910C04AE
:101D0000E0910804F0910904E20FF31F8081803212
:101D1000E9F03CF481111DC010920C0410920B04E8
:101D200008958D3239F08E32A1F40E94540E6AEF7C
:101D300070E004C00E94540E6EEE72E080E090E00D
:101D40000E94740781E080930A04089568EE73E0AE
:101D50000BC02F5F3F4F30930C0420930B0408956A
:101D60000E94560E64E670E080E090E00E947407E6
:101D700010920A0480910B0490910C0401969093A8
:101D80000C0480930B04089585B18695817090E0D2
:101D900008958031910504F527E0289FA001299F2F
:101DA000500D1124FA01E05FFB4F80818132A0F4D5
:101DB00080E090E020E0FA01E80FF91FE05FFB4FC0
:101DC0003081230F019687309105A9F781E090E0DB
:101DD000222321F080E0089580E090E008956F9242
:101DE0007F928F929F92AF92BF92CF92DF92EF92AB
:101DF000FF920F931F93CF93DF930E94470E892B7F
:101E0000E1F700E814E0C0E8D0E0BE0160577C4F85
:101E100047E0CE010E94320EF80111928F01279601
:101E2000C03FD10591F740E1E42E44E0F42E870154
:101E3000C0E0D0E0D12CB12C77247A94CE010E945E
:101E4000C90E892B41F0F8018081871520F4BC2E42
:101E5000782EDD24D3942196095F1F4FC031D10520
:101E600069F7DD2009F46AC0B0920F0470920E0485
:101E7000CB2DD0E08E010F5F1F4F872C2FE0A22EBD
:101E800037E0932E6801FFE0CF22DD24C6010E94D7
:101E9000C90E892B61F4B0920D048E010150110915
:101EA000609780E1A82EB12C97E0692E3AC09C9CE7
:101EB000F0019D9CF00D1124E05FFB4F4081242F29
:101EC00030E0882D90E001968F7199272817390707
:101ED00011F7C0920F0440930E04AA940F5F1F4F96
:101EE000AA20C9F2842ECECFF701208130E0872DC1
:101EF00090E04F968F7199272817390731F5C092D6
:101F00000D04689CF001699CF00D1124E05FFB4F0B
:101F1000708001501109F7E0EF0EF11C0C171D073E
:101F2000A1F0C801B5010E94DE276C014C01992483
:101F3000C4010E94C90E892BB9F607C08FE08093B7
:101F40000F0410920E0410920D04DF91CF911F9197
:101F50000F91FF90EF90DF90CF90BF90AF909F9048
:101F60008F907F906F900895EF92FF921F93CF9381
:101F7000DF930E94470E892B39F5E0E8F4E0C0E0DA
:101F8000D0E081918823E1F017E01C9FC0011D9FE4
:101F9000900D11249C01205F3B4F790167E070E0B8
:101FA000C9010E94281EC19FC001112447E0B7014A
:101FB00080589F4F0E94FE0DC058DB4F188204C00E
:101FC0002196C031D105E9F6DF91CF911F91FF90A5
:101FD000EF900895EF92FF921F93CF93DF93E0E885
:101FE000F4E0C0E0D0E081918823E1F017E01C9F8D
:101FF000C0011D9F900D11249C01205F3B4F790172
:1020000067E070E0C9010E94281EC19FC001112431
:1020100047E0B70180589F4F0E941B0EC058DB4F0E
:10202000188204C02196C031D105E9F6DF91CF9125
:102030001F91FF90EF900895EF92FF920F931F93DF
:10204000CF93DF93E82EC0910F04D0E02196CF709C
:10205000DD2780910D0490E00E94C90EF82E80913A
:102060000E048F5F813218F480930E0402C0109228
:102070000E0487E08C9F80018D9F100D1124005F5E
:102080001B4F80910E04F80180830E94C811F80153
:102090006183728383839483E582C0930F0467E036
:1020A00070E0C8010E94281EC058DB4F81E0888381
:1020B00080910F0490910D04891308C0FF2031F026
:1020C00090E001968F70992780930D04DF91CF9156
:1020D0001F910F91FF90EF900895E0E1F4E0A0E8E8
:1020E000B4E08FEF4FEF5FEFBA0191E0808385831B
:1020F00041835283638374839D93379624E0E03851
:10210000F207A1F78FE080930F0410920D04109254
:102110000E0408950F931F93CF93DF9300910D0446
:10212000C02F10E0D0E0CE010E94C90E892B29F00B
:102130002196CF701F5F0C13F5CF812FDF91CF91C8
:102140001F910F910895AF92BF92CF92DF92EF92BD
:10215000FF920F931F93CF93DF936B017C018A0152
:1021600059010E948A1090E0A0E0B0E0C816D9069C
:10217000EA06FB06F8F480910D0490E0C80ED91E23
:102180008FE0C822DD2487E08C9DF0018D9DF00D4D
:102190001124E05FFB4F81819281A381B481E8012A
:1021A00088839983AA83BB838581F501808381E03D
:1021B00090E002C080E090E0DF91CF911F910F91FD
:1021C000FF90EF90DF90CF90BF90AF9008954F9227
:1021D0005F926F927F928F929F92AF92BF92CF92B7
:1021E000DF92EF92FF920F931F93CF93DF93CDB7C0
:1021F000DEB7CA57D1090FB6F894DEBF0FBECDBF08
:10220000F82E8091DD029091DE02A091DF02B09164
:10221000E002E9968CAF9DAFAEAFBFAFE99783E028
:102220000E949715882329F06BE770E083E00E94F5
:10223000CC1550E3E52E6E0101E4C00ED11C63E223
:10224000462E512C612C712CFF2009F482C0F6011E
:102250000E2D11920A95E9F7F601408251826282B1
:1022600073820BE710E09E012B583F4F40E350E094
:10227000B60183E00E94A816C09709F06AC00E94C8
:102280009E074B015C01F9EE8F0EF3E09F1EA11C2F
:10229000B11C0E949E07681579058A059B05C9F740
:1022A00083E00E949E16009709F451C08E010758E2
:1022B0001F4F9E012F583F4FAC01BE016F5F7F4FF4
:1022C00083E00E941B17C09709F041C069A5862FC3
:1022D00090E0A0E0B0E0BA2FA92F982F88272AA578
:1022E000820F911DA11DB11DBA2FA92F982F8827EC
:1022F0002BA5820F911DA11DB11DBA2FA92F982FBB
:1023000088274CA550E060E070E040585341694197
:102310007C4B8A019B01080F191F2A1F3B1FC90113
:10232000B8010E949B130E94EE118BE493E00E947F
:10233000F51C0E949E140E94F51C88E593E00E9403
:10234000F51C83E00E94D41581E090E007C0FA9468
:102350007BCF83E00E94D41580E090E0C658DF4F29
:102360000FB6F894DEBF0FBECDBFDF91CF911F91A6
:102370000F91FF90EF90DF90CF90BF90AF909F9024
:102380008F907F906F905F904F9008950C94C71C32
:102390000C94D71C6093F8047093F9048093FA04AA
:1023A0009093FB040C94E31C9C0160E971E00E9493
:1023B000CA27892B79F0C90183709927892B61F489
:1023C000C90164E670E00E94CA279C0181E0232BCA
:1023D00021F402C081E0089580E008952F923F9299
:1023E0004F925F926F927F928F929F92AF92BF9225
:1023F000CF92DF92EF92FF920F931F93CF93DF93D1
:10240000CDB7DEB767970FB6F894DEBF0FBECDBF6E
:102410002CE0E1EEF2E0AE014F5F5F4F1A01DA010E
:1024200001900D922A95E1F7DC012C91220F2056A4
:10243000322F330F330F230F11963C9111973153E5
:10244000230F2D8713962C911397022E000C330B1C
:10245000205331096AE0629FA001639F500D11244F
:102460001496CC900C2C000CDD08B0E3CB1AD108EC
:10247000C40ED51E860101501109FC012681022ED1
:10248000000C330B20533109E8EEF3E02E9FA0013E
:102490002F9F500D3E9F500D1124DC0117962C915B
:1024A0001797022E000C330B2053310974E6729FEC
:1024B0007001739FF00C1124E40EF51E18964C91D8
:1024C0001897042E000C550B40535109649F90013E
:1024D000659F300D1124E20EF31E19962C91199769
:1024E000F701E20FF11D27FDFA95AF0158507A016F
:1024F0001B962C911B97220F2056322F330F330F30
:10250000230F1C963C911C973053230F298B1E964A
:102510002C911E97220F2056322F330F330F230F8B
:102520001F963C911F973053230F2A8B51962C9165
:102530005197220F2056322F330F330F230F52960D
:102540008C918053280F2B8BCA010E94D4118823B1
:1025500021F05D85523008F08601C70160E971E025
:102560000E94CA27FC01DB0120E839E540E650EF74
:102570000E944F282B013C01CF0164E670E00E94CD
:10258000CA27FC01DB0120E032EC47E15CEB0E9452
:102590004F284B015C01DF01B695A795B695A7952D
:1025A00020E83FE146E857E00E944F286B017C019C
:1025B000DF01A370BB2720E833E341EE51E00E9426
:1025C0004F286C8B7D8B8E8B9F8BF1018E2F821908
:1025D0009D85891720F48191080F111DF7CFA989D6
:1025E0002A2F30E0A0E1BEE00E9440286D877E8760
:1025F0008F87988BBA892B2F30E0ACE3B0E00E9434
:1026000040282D853E854F855889260F371F481F46
:10261000591FDA01C9013B89830F911DA11DB11D0D
:10262000480E591E6A1E7B1E840C951CA61CB71CE6
:10263000C80CD91CEA1CFB1C8C899D89AE89BF89FA
:10264000C80ED91EEA1EFB1ED80120E831E541E084
:1026500050E00E944F28DC01CB018C0D9D1DAE1D6A
:10266000BF1D8093F8049093F904A093FA04B093EB
:10267000FB0467960FB6F894DEBF0FBECDBFDF91A7
:10268000CF911F910F91FF90EF90DF90CF90BF906F
:10269000AF909F908F907F906F905F904F903F9002
:1026A0002F900C94E31CEF92FF920F931F93CF9304
:1026B000DF93CDB7DEB768970FB6F894DEBF0FBED5
:1026C000CDBF7B012CE0E1EEF2E0DE011D96019032
:1026D0000D922A95E1F78E010F5F1F4F2CE0F80154
:1026E00011922A95E9F70E94D4118A83DE011D9682
:1026F00080E0F701408151819D91F80121918F0186
:1027000030E0290F311D4217530740F0421B530B95
:10271000F701518340838F5F8C3059F768960FB66D
:10272000F894DEBF0FBECDBFDF91CF911F910F9107
:10273000FF90EF9008954F925F926F927F928F92E9
:102740009F92AF92BF92CF92DF92EF92FF92CF9380
:10275000DF9300D0CDB7DEB72B013C0181E090E0E4
:10276000A0E0B0E020E8421629E5520620E6620625
:1027700020EF720618F480E090E0DC0120E931E0FF
:10278000829F5001839FB00C929FB00C112480E374
:10279000A81A88EFB80AC12CD12C7601C39420E87E
:1027A000421629E5520620E6620620EF720618F46A
:1027B000C12CD12C7601A701960160E879E580E66D
:1027C00090EF0E94BA2773016201C61AD70AE80A7D
:1027D000F90A81E090E0A0E0B0E0C11422ECD2065A
:1027E00027E1E2062CEBF20618F480E090E0DC0131
:1027F00044E6489F9001499F300D1124A20EB31E5C
:1028000021E030E040E050E0C11482ECD80687E1DE
:10281000E8068CEBF80618F420E030E0A90160E04F
:1028200072EC87E19CEB0E94BA27A7019601261B58
:10283000370B480B590BCA01B90120E83FE146E8C4
:1028400057E00E94F227220F331F220F331FA20EE0
:10285000B31E20E833E341EE51E00E94F2277501F8
:10286000E20EF31E20E831E541E050E00E94F2273D
:102870004B015C013A832983BE016F5F7F4FC70123
:102880000E945313D82EC501B40120E13EE040E080
:1028900050E00E94F22729013A014B015C016EE5EC
:1028A00073E084E191E00E943E1B6D2D70E06F5F4C
:1028B0007F4F42E084E191E00E94511B69817A815F
:1028C0006F5F7F4F42E087E191E00E94511B44E03F
:1028D000B7018AE191E00E94511B42E0B2018FE111
:1028E00091E00E94511BC501B4012CE330E040E0AF
:1028F00050E00E94F22749015A016B017C0142E03D
:10290000B40182E291E00E94511B42E0B60185E2EF
:1029100091E00E94511B84E191E00F900F90DF91B4
:10292000CF91FF90EF90DF90CF90BF90AF909F90AE
:102930008F907F906F905F904F9008950F931F93AB
:102940000E94D71C0091F8041091F9042091FA0418
:102950003091FB04600F711F821F931F1F910F9115
:102960000C949B13EF92FF920F931F93CF93DF93DF
:102970008C01EB017A01009721F0209711F0452B93
:1029800029F482E793E00E94F51CFFCF67E873E02B
:102990000E940D1E892B29F482E793E00E94F51C0A
:1029A00044C061E973E0CE010E940D1E892BA1F3A2
:1029B0006AE973E0C7010E940D1E892B69F34CE0A0
:1029C00050E0B80180E095E00E94111B10920B05C9
:1029D0004CE050E0BE018CE095E00E94111B10928B
:1029E00017054CE050E0B70188E195E00E94111B0B
:1029F00010922305F80180818E7F809328058181C4
:102A000080932905828180932A05888180932B05F4
:102A1000898180932C058A8180932D05DF91CF9148
:102A20001F910F91FF90EF900895FFCF0E940A270A
:102A3000882361F00E9411278435C1F782EA93E070
:102A40000E94F51C8FEF90E00C94AB050895EF9277
:102A5000FF921F93CF93DF9300D000D000D0CDB76B
:102A6000DEB7182F7A0186E0EDEEF2E0DE01119676
:102A700001900D928A95E1F7FB0181818F778C831C
:102A800082818D8383818E83812F0E945D23BE018D
:102A90006F5F7F4F812F0E944F23B701812F0E94CC
:102AA0006B23B701812F0E94262362E8812F0E94A9
:102AB000F72261E0812F0E94092381E026960FB65C
:102AC000F894DEBF0FBECDBFDF91CF911F91FF9075
:102AD000EF9008950E94222391E0823209F090E065
:102AE000892F08950E942223882341F08C3131F0F0
:102AF00091E08A3109F490E0892F089580E00895EB
:102B00000E94222391E0843109F090E0892F0895FA
:102B10000E94222391E0873109F090E0892F0895E7
:102B20000E94222391E0811190E0892F08950C9456
:102B30009015CF93C82F60E10E9409236FEF8C2F6F
:102B4000CF910C9414230F931F93CF93DF93C82F2F
:102B5000D62F8A010E9499156D2F8C2F0E94F72283
:102B60000115110511F0B8010AC06091900470912F
:102B700091046F5F7F4F70939104609390048C2F4A
:102B80000E94262361E08C2F0E94092381E0DF91BF
:102B9000CF911F910F910895AB0162E00C94A315A2
:102BA000AB0161E00C94A3150C949915CF93C82F39
:102BB0000E942223833131F462E08C2F0E9409238A
:102BC00081E001C080E0CF9108950F931F93CF93D0
:102BD000FB0190819F3F51F491819F3F91F492813D
:102BE0009F3F79F493819F3F61F41DC0911109C00B
:102BF0009181911106C09281911103C09381992313
:102C000099F04115510579F08A01BF01C82F0E9442
:102C10005D23B8018C2F0E946B2364E08C2F0E94EF
:102C2000092391E001C090E0892FCF911F910F916E
:102C3000089568E00C940923CF92DF92EF92FF92FF
:102C40000F931F93CF93C82F7B018A0141305840C7
:102C500010F000E018E08C2F0E94E6236C018C2F0E
:102C60000E942223873111F08C3121F4C016D10645
:102C700090F302C000E010E0A801B7018C2F0E9481
:102C8000872460E28C2F0E9409238C2F0E94192335
:102C900084FD0BC08C2F0E9422238111F6CF8C2F34
:102CA0000E94991580E090E005C060E18C2F0E94A1
:102CB0001423C801CF911F910F91FF90EF90DF90E7
:102CC000CF900895CF92DF92EF92FF921F93CF9310
:102CD000DF93182F6B017A010E94CE24EC0100973C
:102CE00089F4812F0E9422238431E9F08823D9F0CE
:102CF000C1E0D0E08C3111F4C0E0D0E0D195C195B5
:102D0000D10911C0E816F9060CF4E7011C161D06DE
:102D100054F420E0AE01B601812F0E94482560E402
:102D2000812F0E940923CE01DF91CF911F91FF9047
:102D3000EF90DF90CF9008950C94CE240C94CE2485
:102D400021E041E050E00E94482581E090E00895B4
:102D5000CF92DF92EF92FF920F931F93CF93F901DF
:102D60009081911109C09181911106C092819111B8
:102D700003C093819923A1F10115110589F17A010D
:102D80004130584018F0E12C98E0F92EE114F1049C
:102D900039F16B01C82FBF010E945D23B8018C2F50
:102DA0000E946B23A701B6018C2F0E94872460E24A
:102DB0008C2F0E9409238C2F0E94192384FD0AC0A6
:102DC0008C2F0E94192383FFF6CF68E18C2F0E947D
:102DD000142306C060E18C2F0E941423C70102C097
:102DE00080E090E0CF911F910F91FF90EF90DF90E6
:102DF000CF900895EF92FF921F93CF93DF934115E9
:102E0000510589F0EA017B01182F0E94CE248C170E
:102E10009D0708F4EC0120E0AE01B701812F0E946C
:102E20004825CE0102C080E090E0DF91CF911F9154
:102E3000FF90EF9008958F929F92BF92CF92DF9272
:102E4000EF92FF920F931F93CF93DF93CDB7DEB72F
:102E500028970FB6F894DEBF0FBECDBF452B09F4FF
:102E60007EC049016B01B82E0E94FB247C018B2D92
:102E70000E94FC228770833059F1843009F445C0E8
:102E8000823009F065C028E030E0AE014F5F5F4F4F
:102E9000B7018B2D0E949B2188E0E80EF11C8981EF
:102EA000F40180838A8181838B8182838C818383F7
:102EB0008D8190E0982F88272E81820F911DF80137
:102EC000918380830F8110E0102F002788851AC01E
:102ED00026E030E0AE014F5F5F4FB7018B2D0E94BF
:102EE0009B21F6E0EF0EF11C8981F40180838A8139
:102EF00081838B8182838C8183830D8110E0102FED
:102F000000278E81080F111D16C022E030E0AE01AF
:102F10004F5F5F4FB7018B2D0E949B21F2E0EF0EB8
:102F2000F11C098110E0902F88270A8110E00250DF
:102F30001109080F191F9801A601B7018B2D0E94D6
:102F40009B21B701600F711F8B2D0E94EA2402C0E4
:102F500000E010E060E48B2D0E94092302C000E035
:102F600010E0C80128960FB6F894DEBF0FBECDBFA3
:102F7000DF91CF911F910F91FF90EF90DF90CF9055
:102F8000BF909F908F9008951F93CF93DF93182F3A
:102F9000EA014130584018F42097F9F002C0C0E02F
:102FA000D8E0AE01812F0E94872460E2812F0E9429
:102FB0000923812F0E94192384FD09C0812F0E94BB
:102FC000192383FFF6CF812F0E94991506C060E177
:102FD000812F0E941423CE0102C080E090E0DF9197
:102FE000CF911F910895CF92DF92EF92FF921F939E
:102FF000CF93DF93182F7B016A01E9010E94E6233A
:103000008C179D0720F4812F0E94E623EC019E017E
:10301000A601B701812F0E943C24CE01DF91CF9100
:103020001F91FF90EF90DF90CF9008951F93CF9363
:10303000DF93182FEB01CB010E94481BAC01BE01AE
:10304000812FDF91CF911F910C941C16CF93DF93AA
:103050001F92CDB7DEB7698341E050E0BE016F5FDC
:103060007F4F0E941C160F90DF91CF9108950F9310
:103070001F93CF93C82F8B0162E20E942618B801DC
:103080008C2F0E94161862E28C2FCF911F910F9106
:103090000C942618CF93C82FCB01BA010E949B1322
:1030A000FC011286BC018C2FCF910C943718CF9362
:1030B000DF93D82FC62F70E084E0759567958A95C9
:1030C000E1F76A3010F4605D01C0695C8D2F0E94E9
:1030D00026186C2F6F706A3010F0695C01C0605D5B
:1030E0008D2FDF91CF910C942618EF92FF920F93C2
:1030F0001F93CF93C82F7B0162E20E942618F7012D
:1031000061918F018C2F0E945718F6E0EF0EF11C91
:103110006AE38C2F0E942618F80161918F018C2F91
:103120000E9457180E151F0599F762E28C2FCF9158
:103130001F910F91FF90EF900C942618CF93DF937F
:10314000C82FD62F672F0E9457186D2F8C2FDF9115
:10315000CF910C9457182F923F924F925F926F929B
:103160007F928F929F92AF92BF92CF92DF92EF9217
:10317000FF920F931F93CF93DF93CDB7DEB7629784
:103180000FB6F894DEBF0FBECDBF782E7B0177FF60
:1031900008C0F194E194F10881E090E0998B888B6C
:1031A00002C0198A188AFE0131961F018E01055F3F
:1031B0001F4F6F0188248394912CA12CB12CAAE07D
:1031C000B0E09401A5010E944F286A8B472E582E2B
:1031D000692EB7010F2C000C880B990B2A89342D0E
:1031E000452D562D0E9414289401A5010E941428F3
:1031F000F60121936F01E21AF10827FDF3948A8802
:10320000942CA52CB62C0E171F07C9F6888999890E
:10321000892B21F06DE2872D0E94261880E090E036
:10322000F80162918F01611105C0009719F42E1603
:103230003F0641F4605DF8016083872D0E942618E7
:1032400081E090E02016310659F762960FB6F894A7
:10325000DEBF0FBECDBFDF91CF911F910F91FF90C9
:10326000EF90DF90CF90BF90AF909F908F907F9026
:103270006F905F904F903F902F9008950F931F9302
:10328000CF93FB019081911109C09181911106C0EA
:103290009281911103C09381992379F041155105D1
:1032A00061F08A01BF01C82F0E945D23B8018C2FF5
:1032B0000E946B2381E090E002C080E090E0CF911B
:1032C0001F910F910895CF93C82F60E20E940923A8
:1032D0008C2F0E94192384FD0CC08C2F0E9419236F
:1032E00083FFF6CF68E18C2F0E94142380E090E0EA
:1032F00006C060E18C2F0E94142381E090E0CF9102
:103300000895EF92FF920F931F93CF93DF931F9235
:10331000CDB7DEB7182FE12CF12C812F0E94CE24DF
:10332000E816F90688F401E0970141E050E0BE019B
:103330006F5F7F4F812F0E94132589818A3031F082
:103340008FEFE81AF80AE9CF80E001C081E00F9022
:10335000DF91CF911F910F91FF90EF9008951F93F0
:10336000CF93DF931F92CDB7DEB7182F0E94CE24E4
:10337000892B89F021E041E050E0BE016F5F7F4F73
:10338000812F0E944825998181E09D3029F09A3053
:1033900019F080E001C081E00F90DF91CF911F9183
:1033A00008958F929F92AF92BF92CF92DF92EF9249
:1033B000FF920F931F93CF93DF931F92CDB7DEB78A
:1033C000182F5B010E94CE247C01C5010E94481B7E
:1033D000E816F90668F175016701CA18DB084701AC
:1033E000F7018081882399F001E0960141E050E0E7
:1033F000BE016F5F7F4F812F0E9413258FEFE81A68
:10340000F80AF40190818981981731F311C0C11431
:10341000D10461F041E050E0BE016F5F7F4F812F2A
:103420000E946216F1E0CF1AD108F1CF81E001C00D
:1034300080E00F90DF91CF911F910F91FF90EF905F
:10344000DF90CF90BF90AF909F908F9008951F9383
:10345000CF93DF931F92CDB7DEB7182F812F0E9435
:10346000CE24892BC1F141E050E0BE016F5F7F4F58
:10347000812F0E94621689818D30D1F4812F0E94A4
:10348000CE24892B59F321E041E050E0BE016F5F6B
:103490007F4F812F0E94482589818A30E1F441E0E5
:1034A00050E0BE016F5F7F4F812F0E94621613C0F4
:1034B0008A30A1F6812F0E94CE24892B79F221E057
:1034C00041E050E0BE016F5F7F4F812F0E94482591
:1034D00089818D3021F30F90DF91CF911F91089555
:1034E000BF92CF92DF92EF92FF920F931F93CF93F1
:1034F000DF931F92CDB7DEB7C82E8B01FB0111827F
:1035000010820E94CE24892B09F451C0D12CEE24C4
:10351000E394F12C2AE0B22E8C2D0E94CE24892B2C
:10352000B9F121E041E050E0BE016F5F7F4F8C2D8B
:103530000E94482589818D3231F4D11038C0EE24A3
:10354000EA94FE2C1CC090ED980F9A3090F4F8018C
:1035500040815181B49E9001B59E300D1124082EFA
:10356000000C990BC097820F931F91838083D39493
:1035700006C08A3069F08D3059F0803249F041E060
:1035800050E0BE016F5F7F4F8C2D0E946216C4CF4A
:10359000F801208131812E9DC0012F9D900D3E9D0F
:1035A000900D11249183808381E0D11001C080E0CF
:1035B0000F90DF91CF911F910F91FF90EF90DF90CF
:1035C000CF90BF9008959FB7F894229B2A9A229A91
:1035D000259A239A2D988CB580618CBD8CB580641A
:1035E0008CBD109292049FBF08958091920408951B
:1035F00090919204911109C09FB7F8948CBD6DBD54
:1036000081E0809392049FBF2A9808958EBD0000A8
:103610000DB407FEFDCF8EB508952A9A109292043C
:103620000895FB01480F591F8417950729F0219130
:10363000DC012D93CD01F8CF0895480F591F841751
:10364000950721F0FC016193CF01F9CF0895FB01AB
:10365000480F591F8417950759F0DC013D91CD01A2
:103660002191321740F02317A8F781E090E00895E8
:1036700080E090E008958FEF9FEF0895FC01DB015B
:103680008D91BD01882311F08193F9CF10820895A7
:10369000FC019F01281B390B41914111FACFC9014F
:1036A00008959F92AF92BF92CF92DF92EF92FF92D6
:1036B0000F931F93CF93DF9300D000D01F92CDB70D
:1036C000DEB7FC016B019E012F5F3F4F8E010A5F49
:1036D0001F4FEE24E394F12C9AE0992E9E9C50010A
:1036E0009F9CB00C1124C601B5010E94CA27B701E6
:1036F0000E94CA27D9016D939D01C61AD10867FDA2
:10370000D3947501A017B10749F760E070E084E039
:1037100090E050E0D8012E918D01211105C0611576
:10372000710511F4009741F4841795072CF4205D7E
:10373000219361E070E004C0841795070CF4319682
:10374000019740F70F900F900F900F900F90DF911F
:10375000CF911F910F91FF90EF90DF90CF90BF908E
:10376000AF909F90089588EC80937C0086E88093CA
:103770007A00089580917A00829586958695837067
:1037800091E08927817090E00895EAE7F0E0808178
:10379000806480830895809178002091790030E0E2
:1037A000322F2227A901330F660B770B9A01AB0149
:1037B000282BA5E6B0E00E944F2824E630E040E048
:1037C00050E00E941428DA01C90181519140A109F9
:1037D000B109089508950F931F93E0919304F09118
:1037E0009404E930F10508F09BC0E25CFF4F0C94B3
:1037F00033288417950764F08CEA93E00E94580EF2
:1038000086E00E941C1086E090E00E94AB0525C077
:10381000081719070CF48EC08CEA93E00E94580E2A
:1038200088E00E941C1088E090E00E94AB050BC06D
:10383000841795070CF7081719070CF47BC08CEA5E
:1038400093E00E94580E86E090E065C084179507CB
:10385000FCF28CEA93E00E94580E83E090E05BC09B
:103860008617970764F08EEA93E00E94580E85E071
:103870000E941C1085E090E00E94AB0512C08417E6
:1038800095070CF057C082E493E00E94580E82E046
:1038900090E041C08617970794F38EEA93E00E9468
:1038A000580E85E090E037C0861797070CF042C0AD
:1038B0008CEA93E00E94580E84E090E02CC0281718
:1038C000390764F08EEA93E00E94580E87E00E9468
:1038D0001C1087E090E00E94AB0511C00817190783
:1038E0004CF582E493E00E94580E81E090E013C012
:1038F000281739079CF38EEA93E00E94580E88E05F
:1039000090E009C028173907ACF48CEA93E00E94D4
:10391000580E87E090E090939404809393040AC03B
:10392000109294041092930482E493E01F910F91FB
:103930000C94580E1F910F910895109294041092B8
:10394000930408951F920F920FB60F9211248F9334
:103950009F93AF93BF938091950490919604A0910B
:103960009704B09198040196A11DB11D8093950410
:1039700090939604A0939704B0939804BF91AF914D
:103980009F918F910F900FBE0F901F90189583E21B
:1039900094EF9093890080938800109280008CE0CF
:1039A00080938100789482E080936F0008952FB710
:1039B000F894609195047091960480919704909189
:1039C00098042FBF08958FB7F89410929504109221
:1039D000960410929704109298048FBF08950E9445
:1039E0009C25789408950C946027CF93DF93EC0185
:1039F0008991882319F00E946027FACFDF91CF9137
:103A00000895CF93C82F90E024E0959587952A9547
:103A1000E1F78A3010F4805D01C0895C0E94602764
:103A20008C2F8F708A3010F0895C01C0805DCF913F
:103A30000C946027CF93C82F892F0E94011D8C2FD3
:103A4000CF910C94011D2F923F924F925F926F92F3
:103A50007F928F929F92AF92BF92CF92DF92EF921E
:103A6000FF920F931F93CF93DF93CDB7DEB763978A
:103A70000FB6F894DEBF0FBECDBF6B017C0197FF80
:103A80000DC0F094E094D094C094C11CD11CE11CF2
:103A9000F11C81E090E09B8B8A8B02C01B8A1A8A02
:103AA000FE0131965F018E01055F1F4FF98BE88B98
:103AB00066246394712C812C912CAAE0B0E09301D0
:103AC000A4010E944F281B012C01C701B6019101DE
:103AD000A2010E9414289301A4010E941428E889DD
:103AE000F9892193F98BE88B822F220F990BAA0B6E
:103AF000BB0BC81AD90AEA0AFB0A310142010E17A8
:103B00001F07D9F68A899B89892B19F08DE20E94BB
:103B1000602720E030E0F80182918F01811106C01A
:103B20002115310519F4EA15FB0529F4805D0E9481
:103B3000602721E030E00A151B0569F763960FB690
:103B4000F894DEBF0FBECDBFDF91CF911F910F91D3
:103B5000FF90EF90DF90CF90BF90AF909F908F90AD
:103B60007F906F905F904F903F902F9008950C94AE
:103B700036270C945D27FF920F931F93CF93DF930B
:103B8000EC01062FF72E18820E94362710E08823BA
:103B9000D9F00E940A278823B9F00E9411278032A9
:103BA00010F089931F5FE02FFF2D482F50E02191E7
:103BB000222339F0022E000C330B42175307B9F7BA
:103BC00002C08D3051F71882812FDF91CF911F9164
:103BD0000F91FF9008950F931F93CF93DF938C0164
:103BE000EC01699170E080E090E00E94231D0C5F81
:103BF0001F4F8EE20E946027699170E080E090E0A4
:103C00000E94231DC017D107A1F78BE593E0DF9138
:103C1000CF911F910F910C94F51CDC01FB019D913C
:103C2000992341F08191891784F09817C4F78FEF99
:103C30009FEF089581E090E02081211102C080E093
:103C400090E0919581959109089581E090E0089523
:103C5000DC0190E020E061507109422F50E0FD014D
:103C6000E40FF51F4617570720F48081980F2F5F48
:103C7000F4CF9195908308956115710581059105A3
:103C800041F060932C0170932D0180932E0190934D
:103C90002F01211531054105510541F020932801DF
:103CA0003093290140932A0150932B0108954F929C
:103CB0005F926F927F928F929F92AF92BF92CF92BC
:103CC000DF92EF92FF92CF93DF9300D000D0CDB779
:103CD000DEB72B013C0129833A834B835C83C09080
:103CE0002801D0902901E0902A01F0902B01A70132
:103CF000960144275527A9E6B0E90E944F2867019D
:103D0000EE24FF244B015C018C0C9D1CAE1CBF1CDF
:103D10008092280190922901A0922A01B0922B0151
:103D2000C0902C01D0902D01E0902E01F0902F0139
:103D3000A701960144275527A0E5B6E40E944F2825
:103D40006701EE24FF24C60ED71EE81EF91EC0929E
:103D50002C01D0922D01E0922E01F0922F01D4017E
:103D600099278827BC01CD016C0D7D1D8E1D9F1DDF
:103D700029813A814B815C8124193509460957090B
:103D80000E94F227CB01840D951D0F900F900F908C
:103D90000F90DF91CF91FF90EF90DF90CF90BF9089
:103DA000AF909F908F907F906F905F904F9008950D
:103DB000CF93DB01FC0120812D3221F401966FEFBE
:103DC0007FEF02C061E070E011961C921E92FC0130
:103DD000CAE020818D919C9111972223C1F0C89F48
:103DE000A001C99F500D112411965C934E9321910F
:103DF00080ED820F8A30B8F4022E000C330B205372
:103E00003109240F351F11963C932E93E2CF869FE4
:103E10009001879F300D969F300D11242D933C9378
:103E200081E090E002C080E090E0CF910895809121
:103E3000FC04833561F48091FD04853441F481E014
:103E400090E02091FE04223521F080E002C080E065
:103E500090E0ECEFF4E020E03191230F35E0E43323
:103E6000F307D1F7222311F080E090E00895CF937B
:103E7000DF93CDB7DEB7E7970FB6F894DEBF0FBE7E
:103E8000CDBF87E3E3EFF2E0DE01119601900D92E2
:103E90008A95E1F767E370E0CE0101960E94281E43
:103EA00047E3BE016F5F7F4F80E090E00E94FE0D10
:103EB000E7960FB6F894DEBF0FBECDBFDF91CF916E
:103EC00008950E94470E892BE1F747E36CEF74E0F9
:103ED00080E090E00E94320E0E94171F892B49F467
:103EE0000E94371F47E36CEF74E080E090E00C9491
:103EF000320E0895AF92BF92DF92EF92FF920F932E
:103F00001F93CF93DF93EC01D62EE72E8A01809189
:103F100099048333F9F4A62EB72E7E01E40EF51E24
:103F2000CE15DF0509F45EC062E080E50E94F81A54
:103F300080EF0E94061B8D2F0E94061B8C2F0E9473
:103F4000061B2196F50181915F010E94061B0E94CC
:103F50000D1BE6CF62E080E50E94F81AC115F4E07F
:103F6000DF0718F4FC2EC4E00DC0C11528E0D2070D
:103F700058F4FC2ED45033E0D695C7953A95E1F726
:103F8000C07ECC6080E018C0CE019770892FFC2ED7
:103F9000C115E0E6DE0740F426E0D695C7952A95E0
:103FA000E1F7C07EC46108C0D05696E0D695C795AB
:103FB0009A95E1F7C07ECC610E94061B8F2D0E946E
:103FC000061B8C2F0E94061BCD2DDE2D7E01E00EE0
:103FD000F11ECE15DF0521F089910E94061BF9CF55
:103FE0000E940D1BC801DF91CF911F910F91FF908F
:103FF000EF90DF90BF90AF900895CF93DF931F9223
:10400000CDB7DEB7698341E050E0BE016F5F7F4FFF
:104010000E947A1F0F90DF91CF9108958F929F9207
:10402000AF92BF92CF92DF92EF92FF920F931F93C6
:10403000CF93DF93EC018B016A017901FA01608172
:1040400081E090E00E94FD1FF601618182E090E036
:104050000E94FD1FF601628183E090E00E94FD1F37
:10406000F601638184E090E00E94FD1F0E949E079C
:104070004B015C01F2E08F0E911CA11CB11C0E944F
:104080009E07681579058A059B05C9F7688189E04F
:1040900090E00E94FD1F69818AE090E00E94FD1F70
:1040A0006A818BE090E00E94FD1F6B818CE090E0C4
:1040B0000E94FD1F6C818DE090E00E94FD1F6D81CC
:1040C0008EE090E00E94FD1F0E949E074B015C0164
:1040D00022E0820E911CA11CB11C0E949E07681553
:1040E00079058A059B05C9F7F701608185E090E0B5
:1040F0000E94FD1FF701618186E090E00E94FD1F94
:10410000F701628187E090E00E94FD1FF701638163
:1041100088E090E00E94FD1F0E949E076B017C01D9
:10412000F2E0CF0ED11CE11CF11C0E949E076C1521
:104130007D058E059F05C9F7F80160818FE090E04D
:104140000E94FD1FF801618180E190E00E94FD1F47
:10415000F801628181E190E00E94FD1FF801638116
:1041600082E190E00E94FD1F0E949E076B017C018E
:10417000F2E0CF0ED11CE11CF11C0E949E076C15D1
:104180007D058E059F05C9F765E58AE190E00E94EF
:10419000FD1F65E58BE190E00E94FD1F80E0DF914F
:1041A000CF911F910F91FF90EF90DF90CF90BF9034
:1041B000AF909F908F900895AF92BF92DF92EF9251
:1041C000FF920F931F93CF93DF93EC01D62EE72E30
:1041D0008A0180919904833301F5A62EB72E7E01C2
:1041E000E40EF51ECE15DF0509F460C062E080E53F
:1041F0000E94F81A8FE00E94061B8D2F0E94061B5A
:104200008C2F0E94061B219680E00E94061BF50160
:1042100081935F010E940D1BE5CF62E080E50E9463
:10422000F81AC115F4E0DF0718F4FC2EC0E00DC049
:10423000C11528E0D20758F4FC2ED45033E0D695AF
:10424000C7953A95E1F7C07EC86080E018C0CE01FE
:104250009770892FFC2EC115E0E6DE0740F426E0BA
:10426000D695C7952A95E1F7C07EC06108C0D056A3
:1042700096E0D695C7959A95E1F7C07EC8610E94F1
:10428000061B8F2D0E94061B8C2F0E94061BCD2D16
:10429000DE2D7E01E00EF11ECE15DF0529F080E057
:1042A0000E94061B8993F8CF0E940D1BC801DF9165
:1042B000CF911F910F91FF90EF90DF90BF90AF9043
:1042C0000895CF93DF931F92CDB7DEB741E050E062
:1042D000BE016F5F7F4F0E94DC2089810F90DF91CC
:1042E000CF91089590E00496982F8827860F971F06
:1042F0000C9461219B0190E00496982F8827642FED
:10430000820F931F0E94FD1F0895FB01BA0190E0E8
:104310000496982F8827A9018E0F9F1F0C94DC20EC
:10432000FB01BA0190E00496982F8827A9018E0F0F
:104330009F1F0C947A1FAF92BF92CF92DF92EF92A1
:10434000FF920F931F93CF93DF9300D0CDB7DEB7CB
:104350007A836983BA01A901A981BA81B770E82F6C
:10436000F0E0EE0FFF1FE65DFC4FE080F180CD0135
:104370008E0D9F1D9D01240F351F2130384080F088
:104380006A015B0100E018E00A1B1B0BA8010E94F8
:10439000DC20A601401B510BB501600F711FC70146
:1043A0000F900F90DF91CF911F910F91FF90EF90A1
:1043B000DF90CF90BF90AF900C94DC20682F80E00E
:1043C00090E00C94FD1F80E090E00C946121CF926E
:1043D000DF92EF92FF9283E38093990460E880E09C
:1043E00090E00E94FD1F0E949E076B017C0122E06D
:1043F000C20ED11CE11CF11C0E949E076C157D05AC
:104400008E059F05C9F780E10E94DE210E94E3210D
:10441000803121F01092990480E00FC082E10E9467
:10442000DE210E94E3218231A9F780E00E94DE2193
:104430000E94E3218111EECF81E0FF90EF90DF90A9
:10444000CF900895CF92DF92EF92FF9287E380930F
:10445000990460E880E090E00E94FD1F0E949E07A2
:104460006B017C0122E0C20ED11CE11CF11C0E94F8
:104470009E076C157D058E059F05C9F788E00E9493
:10448000DE210E94E321883021F01092990480E01F
:104490000FC080E10E94DE210E94E3218031A9F754
:1044A00080E00E94DE210E94E3218111EECF81E0B5
:1044B000FF90EF90DF90CF9008950E94E721811147
:1044C00002C00C942222089544E050E0BC0181E037
:1044D00090E00C947A1F44E050E0BC0181E090E051
:1044E0000C94DC2044E050E0BC0185E090E00C94AA
:1044F0007A1F44E050E0BC0185E090E00C94DC20A1
:1045000046E050E0BC0189E090E00C947A1F46E060
:1045100050E0BC0189E090E00C94DC2044E050E0E5
:10452000BC018FE090E00C947A1F44E050E0BC01A5
:104530008FE090E00C94DC20682F85E190E00C94F3
:10454000FD1F85E190E00C946121CF93C82F692F66
:1045500087E190E00E94FD1F6C2F88E190E0CF91F1
:104560000C94FD1FCF93DF9387E190E00E946121BF
:10457000C82FD0E0DC2FCC2788E190E00E94612199
:104580009E01280F311DC901DF91CF91089544E0AC
:1045900050E0BC018AE290E00C947A1F44E050E0C5
:1045A000BC018AE290E00C94DC20CF93C82F692FE5
:1045B0008EE290E00E94FD1F6C2F8FE290E0CF9181
:1045C0000C94FD1FCF93DF938EE290E00E94612157
:1045D000C82FD0E0DC2FCC278FE290E00E94612131
:1045E0009E01280F311DC901DF91CF910895462FFB
:1045F00060E070E00C947A2160E070E00C9472212D
:10460000462F61E070E00C947A2161E070E00C9438
:104610007221CF93C82F0E9400238C2F0E94052364
:104620008111FBCFCF910895462F62E070E00C948A
:104630007A2162E070E00C947221462F63E070E012
:104640000C947A2163E070E00C947221CF93DF9395
:10465000C82FD62F472F64E070E00E947A214D2F9B
:1046600065E070E08C2FDF91CF910C947A211F933D
:10467000CF93DF93182F64E070E00E947221C82F5F
:10468000D0E065E070E0812F0E947221DC2FCC2702
:104690009E01282BC901DF91CF911F910895AB0195
:1046A00026E030E066E070E00C949021AB0126E05B
:1046B00030E066E070E00C948521AB0124E030E04E
:1046C0006CE070E00C949021AB0124E030E06CE0F1
:1046D00070E00C948521CF93DF93C82FD62F472FFE
:1046E00060E170E00E947A214D2F61E170E08C2F33
:1046F000DF91CF910C947A211F93CF93DF93182FE2
:1047000060E170E00E947221C82FD0E061E170E0AA
:10471000812F0E947221DC2FCC279E01282BC901FA
:10472000DF91CF911F910895CF93DF93C82FD62F9C
:10473000472F62E170E00E947A214D2F63E170E023
:104740008C2FDF91CF910C947A211F93CF93DF931D
:10475000182F62E170E00E947221C82FD0E063E15F
:1047600070E0812F0E947221DC2FCC279E01282B24
:10477000C901DF91CF911F910895CF93DF93C82F87
:10478000D62F472F60E270E00E947A214D2F61E220
:1047900070E08C2FDF91CF910C947A211F93CF93EF
:1047A000DF93182F60E270E00E947221C82FD0E0E2
:1047B00061E270E0812F0E947221DC2FCC279E01E4
:1047C000282BC901DF91CF911F910895FF920F937C
:1047D0001F93CF93DF93F82EC0E0D0E08F2D0E947F
:1047E000CE238C01892B21F08F2D0E94CE23EC014A
:1047F000C017D10799F7CE01DF91CF911F910F918B
:10480000FF900895CF93DF93C82FD62F472F62E2F2
:1048100070E00E947A214D2F63E270E08C2FDF91CF
:10482000CF910C947A211F93CF93DF93182F62E2DC
:1048300070E00E947221C82FD0E063E270E0812F07
:104840000E947221DC2FCC279E01282BC901DF9109
:10485000CF911F910895CF93DF93C82FD62F472F65
:1048600064E270E00E947A214D2F65E270E08C2FA7
:10487000DF91CF910C947A219F92AF92BF92CF9209
:10488000DF92EF92FF920F931F93CF93DF93982EB7
:104890007B016A0189010E941324E80EF91E970129
:1048A0003770E92DF0E0EE0FFF1FEE5CFC4FA080AB
:1048B000B180C9018A0D9B1DA901400F511F4130D4
:1048C000584080F0C0E0D8E0C21BD30BAE01B60167
:1048D0000E947A1FA8014C1B5D0BB6016C0F7D1F57
:1048E000C50102C0A801B6010E947A1FB701600F7E
:1048F000711F892DDF91CF911F910F91FF90EF9044
:10490000DF90CF90BF90AF909F900C942B249A0192
:10491000AB0160E070E00C943C241F93CF93DF93D5
:10492000182F64E270E00E947221C82FD0E065E287
:1049300070E0812F0E947221DC2FCC279E01282B52
:10494000C901DF91CF911F910895CF93DF93C82FB5
:10495000D62F472F66E270E00E947A214D2F67E242
:1049600070E08C2FDF91CF910C947A211F93CF931D
:10497000DF93182F66E270E00E947221C82FD0E00A
:1049800067E270E0812F0E947221DC2FCC279E010C
:10499000282BC901DF91CF911F910895FF920F93AA
:1049A0001F93CF93DF93F82EC0E0D0E08F2D0E94AD
:1049B000B6248C01892B21F08F2D0E94B624EC01A6
:1049C000C017D10799F7CE01DF91CF911F910F91B9
:1049D000FF900895CF93DF93C82FD62F472F68E21B
:1049E00070E00E947A214D2F69E270E08C2FDF91F8
:1049F000CF910C947A211F93CF93DF93182F68E205
:104A000070E00E947221C82FD0E069E270E0812F2F
:104A10000E947221DC2FCC279E01282BC901DF9137
:104A2000CF911F910895CF92DF92EF92FF920F9353
:104A30001F93CF93DF93182F6B017A01E9010E9436
:104A4000FB248C0F9D1FEC01D7709701A601BE01BE
:104A5000812F0E949B21011112C0BE016E0D7F1D8E
:104A6000812F0E94EA2460E4812FDF91CF911F9172
:104A70000F91FF90EF90DF90CF900C940923DF917E
:104A8000CF911F910F91FF90EF90DF90CF900895FD
:104A90000F93022F20E030E00E9413250F9108951C
:104AA000CF93DF93C82FD62F472F6AE270E00E9482
:104AB0007A214D2F6BE270E08C2FDF91CF910C9417
:104AC0007A211F93CF93DF93182F6AE270E00E9440
:104AD0007221C82FD0E06BE270E0812F0E9472211A
:104AE000DC2FCC279E01282BC901DF91CF911F918C
:104AF00008951F920F920FB60F9211240E94540E28
:104B000082E00E941C100E94EA0F0E94D406FBCF94
:104B10009FB7F894A895E0E6F0E0808188618083F3
:104B20008FE480839FBF0895A895089580916000C9
:104B30008B7080936000FFCF1092C00087E690E0FA
:104B40009093C5008093C400E1ECF0E088E180839D
:104B500086E08093C2008081806A808308951F92DE
:104B60000F920FB60F9211242F933F938F939F9321
:104B7000EF93FF938091A004882309F4F0C0809103
:104B8000C60090919F04992309F4E3C090EE980F1A
:104B90009F3518F08D3009F059C020919C049091F8
:104BA0009D0430E0291B3109215031092F7333272F
:104BB000232B61F0E0919D04F0E0ED5CFA4F8083DF
:104BC00090919D049F5F9F7390939D0420919A0400
:104BD00090919B0430E0291B3109215031092F733A
:104BE0003327232B89F0E0919B04F0E0ED58FA4F36
:104BF000808390919B049F5F9F7390939B049091FF
:104C0000C10090629093C1008D3009F0C5C08091C1
:104C10009A0420919B0490E0821B910901978F7365
:104C20009927892B69F0E0919B04F0E0ED58FA4F49
:104C30008AE0808380919B048F5F8F7380939B04B5
:104C400080919E048F5F80939E04A6C0883011F0EF
:104C50008F37C1F580919D0420919C0490E0821BC8
:104C600091098F739927892B09F496C0E0919D04CF
:104C7000F0E0ED5CFA4F808180919D0481508F734C
:104C800080939D0480919A0420919B0490E0821B64
:104C9000910901978F739927892B09F47DC0E091C1
:104CA0009B04F0E0ED58FA4F8FE7808380919B04DE
:104CB0008F5F8F7380939B048091C100806280938B
:104CC000C1006AC0843009F067C080919D042091C2
:104CD0009C0490E0821B91098F739927892B31F1F5
:104CE000E0919D04F0E0ED5CFA4F80818D30F1F0B1
:104CF00080919C0420919D0490E0821B9109019772
:104D00008F739927892B91F0E0919D04F0E0ED5C81
:104D1000FA4F8DE0808380919D048F5F8F73809325
:104D20009D0480919E048F5F80939E0480919C04DB
:104D300020919D0490E0821B910901978F73992720
:104D4000892B51F1E0919D04F0E0ED5CFA4F84E095
:104D500019C0833009F581E080939F041DC08091C4
:104D60009C0420919D0490E0821B910901978F7310
:104D70009927892B79F0E0919D04F0E08091C6009D
:104D8000ED5CFA4F808380919D048F5F8F738093D9
:104D90009D0402C08091C600FF91EF919F918F9179
:104DA0003F912F910F900FBE0F901F9018951F925B
:104DB0000F920FB60F9211242F938F939F93EF931F
:104DC000FF9380919B0420919A0490E0821B9109AB
:104DD0008F739927892B79F0E0919A04F0E0ED58D0
:104DE000FA4F80818093C60080919A048F5F8F7301
:104DF00080939A0405C08091C1008F7D8093C1008B
:104E0000FF91EF919F918F912F910F900FBE0F9077
:104E10001F90189580919D0490919C04891B8F731D
:104E2000089580919D0420919C0490E0821B91093B
:104E30008F739927892BC1F0E0919C04F0E0ED5C21
:104E4000FA4F808190919C049F5F9F7390939C0484
:104E50009091A004992349F08D3039F490919E04EB
:104E6000915090939E04089580E0089581E080938E
:104E7000A00480919D0420919C0490E0821B9109E4
:104E80008F739927892BB1F0E0919C04F0E0ED5CE1
:104E9000FA4F8081843071F410929F04E0919C0459
:104EA000F0E0ED5CFA4F808180919C048F5F8F73FE
:104EB00080939C0480919F04089580919E0408959E
:104EC0000FB607FE0EC020919A0490919B0430E02B
:104ED000291B3109215031092F733327232B99F3D3
:104EE0000DC020919A0490919B0430E0291B310958
:104EF000215031092F733327232B61F0E0919B045C
:104F0000F0E0ED58FA4F808380919B048F5F8F73A0
:104F100080939B048091C10080628093C1000895BA
:104F20001F93CF93DF93EC0180E011E0180FFE0197
:104F3000E80FF11D8081882321F00E946027812FD6
:104F4000F4CFDF91CF911F9108951F93CF93DF93FB
:104F5000EC0180E011E0180FFE01E80FF11D8491D3
:104F6000882321F00E946027812FF4CFDF91CF9119
:104F70001F910895DB018F939F930E944F28BF914B
:104F8000AF91A29F800D911DA39F900DB29F900D98
:104F900011240895AA1BBB1B51E107C0AA1FBB1F08
:104FA000A617B70710F0A61BB70B881F991F5A95B5
:104FB000A9F780959095BC01CD01089597FB072E28
:104FC00016F4009407D077FD09D00E94CA2707FC89
:104FD00005D03EF4909581959F4F08957095619509
:104FE0007F4F0895A1E21A2EAA1BBB1BFD010DC025
:104FF000AA1FBB1FEE1FFF1FA217B307E407F50789
:1050000020F0A21BB30BE40BF50B661F771F881F64
:10501000991F1A9469F760957095809590959B01FA
:10502000AC01BD01CF010895052E97FB1EF400943D
:105030000E942B2857FD07D00E94F22707FC03D0BF
:105040004EF40C942B2850954095309521953F4F68
:105050004F4F5F4F089590958095709561957F4F64
:105060008F4F9F4F0895EE0FFF1F0590F491E02D95
:10507000099469279627692778278727782708952D
:10508000A29FB001B39FC001A39F700D811D112489
:10509000911DB29F700D811D1124911D08950E94D4
:1050A0004028A59F900DB49F900DA49F800D911D49
:0850B00011240895F894FFCFCC
:1050B800030B443100802500002D00040B44300010
:1050C800802500002D0002060024F400010C617404
:0850D8006D6567613332380099
:1050E0004B0041535500FF03FE030000010000C0C8
:1050F000A801640030302F30302F30303030203075
:10510000303A30303A303000E5559A15B53B121F31
:10511000485454502F312E3120323030204F4B0A1A
:1051200000436F6E74656E742D547970653A20611A
:1051300070706C69636174696F6E2F766E642E6136
:1051400070692B6A736F6E0D0A00436F6E6E656334
:1051500074696F6E3A20636C6F73650D0A000D0AF7
:10516000007B00767064003A7B006D6F64656C00B4
:105170003A002C006D616E756661637475726572BC
:105180000073657269616C5F6E756D626572006D4A
:10519000616E75666163747572655F6461746500E4
:1051A0006D61635F6164647265737300636F756ED4
:1051B0007472795F636F6465007D2C00746372693B
:1051C000745F686900747761726E5F686900746308
:1051D0007269745F6C6F00747761726E5F6C6F00E0
:1051E00074656D7065726174757265007374617455
:1051F000650020006C6F67003A5B0074696D657331
:1052000074616D70006576656E74007D005D7D0073
:10521000485454502F312E312034303020426164B4
:1052200020526571756573740A00646576696365FB
:10523000002F636F6E6669673F0074637269745F05
:1052400068693D00747761726E5F68693D007463E0
:105250007269745F6C6F3D00747761726E5F6C6F22
:105260003D003F72657365743D002266616C736535
:105270002200227472756522002F6C6F670047450B
:1052800054005055540044454C4554450020485462
:1052900054502F312E310D0A006A6C68616D320056
:1052A00068616D006A61726564006C6F63616C2097
:1052B00069703A2000EF010101FFFFFFFFC0A80164
:1052C000011F1C1F1E1F1E1F1F1E1F1E1F01005E11
:1052D0000000005345520053616E647900000000E5
:1052E000000000446F75676C617300000000005F90
:1052F000554E41535349474E454400000000004479
:105300004F5553414E555341000000600048007016
:10531000007800400048005000580D0A414C4152AE
:105320004D3A200057495A6E65740074696D6520C6
:1053300073796E63656420005554430D0A00303064
:105340002F30302F303030302030303A30303A305B
:10535000300050726F6A656374206E6F74207369D9
:10536000676E65640D0A0066697273746E616D65BF
:10537000006C6173746E616D650061737572697440
:10538000650054657374696E670D0A002D002E0068
:00000001FF
