:100000000C9447000C9464000C9464000C946400FD
:100010000C9464000C9464000C9442260C946400CC
:100020000C9464000C9464000C9464000C946B1D9C
:100030000C9464000C9464000C94B1070C9464005C
:100040000C9464000C9464000C9478260C94A02703
:100050000C9464000C9464000C94810E0C94640065
:100060000C9464000C9464003C046A04E104BC0435
:1000700089049504A104AD04E104CA04C21CE11C76
:10008000EF1CF91C131D1D1D281D411D4B1D1124A6
:100090001FBECFEFD8E0DEBFCDBF14E0A0E0B1E0DF
:1000A000E2E7F2E502C005900D92AA3BB107D9F74D
:1000B00026E0AAEBB4E001C01D92AD3BB207E1F728
:1000C0000E9402050C9423290C940000CF93DF9327
:1000D00000D0CDB7DEB70E94941C9A83898320910B
:1000E000AF053091B00589819A81821793071CF082
:1000F00080E391E026C02091B1053091B20589815D
:100100009A81821793071CF088E391E01AC020912E
:10011000B3053091B40589819A81281739071CF0FD
:1001200080E491E00EC02091B5053091B60589813B
:100130009A81281739071CF088E491E002C080E515
:1001400091E00F900F90DF91CF910895CF93DF93BF
:10015000CDB7DEB727970FB6F894DEBF0FBECDBF81
:1001600067E571E080E00E94DF1868E671E080E0FA
:100170000E94DF1861E971E080E00E94DF1865EA03
:1001800071E080E00E94DF1868EA71E080E00E9480
:10019000DF186AEA71E080E00E9400196EEA71E0FF
:1001A00080E00E94DF1861EB71E080E00E9400199E
:1001B00067EB71E080E00E94DF186AE076E080E0A3
:1001C0000E94001969EB71E080E00E94DF186BEB80
:1001D00071E080E00E94001967EB71E080E00E940E
:1001E000DF1866E176E080E00E94001969EB71E0BB
:1001F00080E00E94DF1868EC71E080E00E94001946
:1002000067EB71E080E00E94DF1862E276E080E058
:100210000E94001969EB71E080E00E94DF1866ED32
:1002200071E080E00E94001967EB71E080E00E94BD
:10023000DF1880912E0690912F06A0913006B09184
:100240003106AC01BD0180E00E94131969EB71E039
:1002500080E00E94DF1867EE71E080E00E940019E4
:1002600067EB71E080E00E94DF1862E376E080E0F7
:100270000E943E1969EB71E080E00E94DF1863EF95
:1002800071E080E00E94001967EB71E080E00E945D
:10029000DF1868E376E080E00E94001960E072E019
:1002A00080E00E94DF1863E072E080E00E940019A5
:1002B00067EB71E080E00E94DF188091AF059091BC
:1002C000B005BC0180E00E94741969EB71E080E028
:1002D0000E94DF186CE072E080E00E94001967EB7A
:1002E00071E080E00E94DF188091B1059091B20525
:1002F000BC0180E00E94741969EB71E080E00E940B
:10030000DF1865E172E080E00E94001967EB71E0A0
:1003100080E00E94DF188091B3059091B405BC0184
:1003200080E00E94741969EB71E080E00E94DF18A0
:100330006EE172E080E00E94001967EB71E080E0FE
:100340000E94DF188091B5059091B605BC0180E050
:100350000E94741969EB71E080E00E94DF1867E287
:1003600072E080E00E94001967EB71E080E00E947B
:10037000DF180E94941CBC0180E00E94741969EB94
:1003800071E080E00E94DF1863E372E080E00E9489
:10039000001967EB71E080E00E94DF180E946600A0
:1003A000BC0180E00E94001969EB71E080E00E94CE
:1003B000DF1869E372E080E00E9400196DE372E0EB
:1003C00080E00E94DF181A8219825CC089819A81BC
:1003D000092E000CAA0BBB0B9E01295F3F4FAE01FB
:1003E0004D5F5F4FBC01CD010E946C1168EA71E066
:1003F00080E00E94DF1860E472E080E00E94001953
:1004000067EB71E080E00E94DF188B819C81AD81F9
:10041000BE81BC01CD010E946414BC0180E00E9439
:10042000001969EB71E080E00E94DF186AE472E075
:1004300080E00E94001967EB71E080E00E94DF1805
:100440008F81882F90E0BC0180E00E94741960E5E4
:1004500072E080E00E94DF180E945311882F90E024
:100460009C012150310989819A812817390729F087
:1004700069EB71E080E00E94DF1889819A81019622
:100480009A8389830E945311282F30E089819A81B1
:10049000821793070CF49ACF62E572E080E00E9425
:1004A000DF1865EA71E080E00E94DF1880E00E94BA
:1004B000E216000027960FB6F894DEBF0FBECDBF40
:1004C000DF91CF910895CF93DF93CDB7DEB767E586
:1004D00071E080E00E94DF1861E971E080E00E9435
:1004E000DF1865EA71E080E00E94DF1880E00E947A
:1004F000E2160000DF91CF910895CF93DF93CDB73F
:10050000DEB765E572E080E00E94DF1861E971E026
:1005100080E00E94DF1865EA71E080E00E94DF1849
:1005200080E00E94E2160000DF91CF910895CF9302
:10053000DF9300D01F92CDB7DEB78EE18A83198298
:100540000EC0CE01039641E050E0BC0180E00E9465
:100550002B178B818F3241F089818F5F898399813D
:100560008A81981770F301C0000099818A819817D9
:1005700010F080E00AC06FE672E080E00E949A1AF4
:10058000882311F480E001C081E00F900F900F905C
:10059000DF91CF910895CF93DF93CDB7DEB70E945F
:1005A0009702DF91CF910895CF93DF93CDB7DEB758
:1005B000E4970FB6F894DEBF0FBECDBF0E9497023E
:1005C0008823B9F486E792E00E94BE1D4EE150E018
:1005D000CE010196BC0180E00E942B171F8ECE0138
:1005E00001960E94BE1D85EA91E00E94BE1D80E03A
:1005F00096C067EA72E080E00E949A1A882309F4A4
:100600006DC060EB72E080E00E949A1A882339F096
:100610008AEB92E00E94BE1D1092BB0444C069EDBB
:1006200072E080E00E949A1A882341F083EE92E003
:100630000E94BE1D81E08093BB0435C062E073E080
:1006400080E00E949A1A882341F08CE093E00E9497
:10065000BE1D82E08093BB0426C06BE273E080E0A5
:100660000E949A1A882341F085E393E00E94BE1D00
:1006700083E08093BB0417C084E593E00E94BE1D15
:10068000CE01809644E150E0BC0180E00E942B172F
:100690001CAACE0180960E94BE1D85EA91E00E94B0
:1006A000BE1D80E03CC06CEB74E080E00E94391B12
:1006B000882311F480E033C08091BC049091BD0484
:1006C000092E000CAA0BBB0BBC01CD010E94EC1D36
:1006D00085EA91E00E94BE1D81E021C06CE873E0D4
:1006E00080E00E949A1A8823C9F064E973E080E0F0
:1006F0000E949A1A882319F01092BE040DC06CE96A
:1007000073E080E00E949A1A882321F081E08093B0
:10071000BE0402C080E003C081E001C080E0E49636
:100720000FB6F894DEBF0FBECDBFDF91CF91089515
:10073000CF93DF9300D0CDB7DEB70E949702882316
:1007400011F480E017C063EA73E080E00E949A1A17
:10075000882311F480E00EC0CE010196BC0180E038
:100760000E9469178981803211F080E003C00E94E5
:10077000361181E00F900F90DF91CF910895CF93C4
:10078000DF93CDB7DEB78091BE04882329F00E94A5
:1007900063020E945F264BC08091BB04882F90E0CB
:1007A00081309105D1F0823091051CF4892B39F00C
:1007B0003EC082309105F9F0039759F138C080911D
:1007C000BC049091BD040E94D105892B19F40E94AC
:1007D00063022DC00E947D022AC08091BC049091CA
:1007E000BD040E94F505892B19F40E9463021FC005
:1007F0000E947D021CC08091BC049091BD040E94A7
:100800002206892B19F40E94630211C00E947D0206
:100810000EC08091BC049091BD040E944606892BB5
:1008200019F40E94630202C00E947D0200000000D1
:10083000DF91CF910895CF93DF93CDB7DEB7E397E4
:100840000FB6F894DEBF0FBECDBF8091BA04882FDB
:1008500090E0092E000CAA0BBB0B40E050E029E011
:1008600030E0841B950B2817390708F4AAC08C5C6C
:100870009F4FFC010C94FC2868EA73E080E00E9422
:100880009A1A882339F084E08093BF0484E080932F
:10089000BA0497C06CEA73E080E00E949A1A882339
:1008A00039F085E08093BF0485E08093BA0489C065
:1008B00060EB73E080E00E949A1A882339F086E0AA
:1008C0008093BF0486E08093BA047BC081E080936C
:1008D000BA0477C042E350E0CE010196BC0180E04B
:1008E0000E942B171BAACE0101960E94BE1D85EA0D
:1008F00091E00E94BE1D03C080E00E94F01A80E0DB
:100900000E946517892BC1F70E947D021092BA04DC
:1009100058C00E94CB02882321F481E08093BA045E
:1009200050C087E08093BA044CC00E94D402882350
:1009300021F481E08093BA0444C087E08093BA0434
:1009400040C00E949803882321F481E08093BA0478
:1009500038C087E08093BA0434C067EB73E080E06E
:100960000E949A1A882321F481E08093BA0429C056
:1009700083E08093BA0425C080E00E94781A88231F
:1009800021F480E00E94F01AF7CF000089E0809304
:10099000BA0417C08091BF04843019F40E94A600E5
:1009A0000DC08091BF04853019F40E94BF0306C0BA
:1009B0008091BF04863011F40E9463021092BA0441
:1009C00000000000E3960FB6F894DEBF0FBECDBF67
:1009D000DF91CF910895CF93DF93CDB7DEB710921B
:1009E000BA041092BE040000DF91CF910895CF9316
:1009F000DF93CDB7DEB781E08093BA040000DF91CA
:100A0000CF910895EF92FF920F931F93CF93DF93AF
:100A100000D000D000D0CDB7DEB70E94B81D0E9434
:100A2000140F0E942A200E946A070E94B80F0E9499
:100A30008F120E94AC1B0E947C1C0E9426230E94E5
:100A4000B31C0E94EB040E94361143EC53E06AECA5
:100A500073E08EEC93E00E947B151B821C821D824A
:100A60001E829E012D5F3F4FAE014D5F5F4FCE0155
:100A70000396BC0182E396E00E94D720000000EAC2
:100A80001FE020E030E040E65AEE60E070E082E3F4
:100A900096E00E94CB0D892B91F384ED93E00E94A8
:100AA000BE1D0E9480080E94B41E0E9483087C0123
:100AB0000E9486088C010E9480089701A801BC0151
:100AC00082E396E00E94D72083E00E94E51085E053
:100AD0000E94B01184E00E94E5100E94512680E03F
:100AE0000E94E51080E090E00E9474060E94DF15ED
:100AF0000E948E1C68E873E181E090E00E943D084E
:100B00000E945D260E94330F81E090E00E9424083D
:100B1000892B11F10E94941C9A838983E091B50579
:100B2000F091B6052091B3053091B4054091B1051F
:100B30005091B2056091AF057091B00589819A819D
:100B40008F010E94B41C0E948E1C68EE73E081E04D
:100B500090E00E943D08D4CF80E00E94591688237F
:100B600049F060E97FE180E00E94991680E00E94F0
:100B70009F16C6CF80E00E946517181619061CF450
:100B80000E941B04BDCF0E94100F892B11F40E94FC
:100B90007D100E94100F892B09F0B2CF0E948507AB
:100BA000AFCFCF93DF9300D0CDB7DEB79A838983E1
:100BB0002091B1053091B20589819A8128173907B2
:100BC0006CF489819A819093B0058093AF050E945F
:100BD00039070E94850780E090E002C081E090E044
:100BE0000F900F90DF91CF910895CF93DF9300D0B6
:100BF000CDB7DEB79A8389832091AF053091B005D8
:100C000089819A8182179307B4F42091B5053091B8
:100C1000B60589819A81281739076CF489819A81F0
:100C20009093B2058093B1050E9439070E94850711
:100C300080E090E002C081E090E00F900F90DF91A3
:100C4000CF910895CF93DF9300D0CDB7DEB79A83CD
:100C500089832091B5053091B60589819A818217E3
:100C600093076CF489819A819093B4058093B305BE
:100C70000E9439070E94850780E090E002C081E071
:100C800090E00F900F90DF91CF910895CF93DF9375
:100C900000D0CDB7DEB79A8389832091B305309118
:100CA000B40589819A8128173907B4F42091B105D8
:100CB0003091B20589819A81821793076CF48981FA
:100CC0009A819093B6058093B5050E9439070E94DA
:100CD000850780E090E002C081E090E00F900F90E7
:100CE000DF91CF91089508958F929F92AF92BF9216
:100CF000EF92FF920F931F93CF93DF9300D000D01A
:100D00001F92CDB7DEB77C018091DF039091E003A5
:100D1000A091E103B091E20389839A83AB83BC8302
:100D200048EB52E2BE016F5F7F4F83E00E94F015F7
:100D300048EB52E2BE016F5F7F4F83E00E94071ACB
:100D40000E9467150E94111C8C010E946715980172
:100D5000AC0160E070E083E00E94BC180E9467155F
:100D60000E94111C8C0121E030E04CE454E0BC01F5
:100D700083E00E94BC180F5F1F4F82E296E00E9442
:100D8000111C9C0142E256E0B80183E00E94BC18AD
:100D900082E296E00E94111C080F191F21E030E04A
:100DA0004CE454E0B80183E00E94BC18B8016F5FC6
:100DB0007F4FC70124E0969587952A95E1F78A3001
:100DC000910510F0895C01C0805D8D8321E030E0E9
:100DD000AE014B5F5F4F83E00E94BC18B8016E5FAD
:100DE0007F4F8E2D8F7097012F7033272A3031055A
:100DF00010F0895C01C0805D8D8321E030E0AE01A0
:100E00004B5F5F4F83E00E94BC1883E00E942C1A66
:100E10000E9467084B015C0125EF820E21E0921EC3
:100E2000A11CB11C0E946708681579058A059B05FD
:100E3000C9F783E00E949D1684E494E00E94BE1DE1
:100E4000B70180E090E00E94EC1D85E694E00E94EE
:100E5000BE1D0F900F900F900F900F90DF91CF91CC
:100E60001F910F91FF90EF90BF90AF909F908F9048
:100E7000089581E08093C00408958091AB0581348A
:100E800061F48091AC05833541F481E090E02091DC
:100E9000AD05253521F080E002C080E090E0EBEA6E
:100EA000F5E020E03191230F35E0EE3BF307D1F779
:100EB000222311F080E090E0089562E170E082E08A
:100EC00091E00E94F11E42E162E071E080E490E076
:100ED0000C94C70E0E94100F892BE1F742E16BEAD8
:100EE00075E080E490E00E94FB0E0E943D07892B94
:100EF00049F40E945D0742E16BEA75E080E490E00E
:100F00000E94FB0E1092C00408950E94100F892BBE
:100F100099F48091C004882379F062E170E08BEA53
:100F200095E00E94F11E42E16BEA75E080E490E0FA
:100F30000E94C70E1092C00408958091C0048823B7
:100F400079F062E170E08BEA95E00E94F11E42E1E7
:100F50006BEA75E080E490E00E94E40E1092C00419
:100F600008951F920F920FB60F9211242F933F9363
:100F70008F939F93AF93BF932091CB043091CC0478
:100F80008091C3049091C4042817390749F08091D7
:100F9000CB049091CC0401969093CC048093CB0425
:100FA0002091CD043091CE048091C5049091C60467
:100FB0002817390749F08091CD049091CE0401960D
:100FC0009093CE048093CD048091C7049091C8047F
:100FD000A091C904B091CA040196A11DB11D8093CE
:100FE000C7049093C804A093C904B093CA04BF91E6
:100FF000AF919F918F913F912F910F900FBE0F90C6
:101000001F90189589EF87BD82E084BD93E095BD60
:10101000789480936E001092C7041092C8041092C6
:10102000C9041092CA0408958230910550F4F894CE
:10103000880F991FFC01E553FB4F808191817894C3
:10104000089580E090E008958230910598F4880F2B
:10105000991FFC01E553FB4F20813181FC01ED53C9
:10106000FB4F81E090E0408151814217530721F00E
:1010700080E0089580E090E008950F931F93CF9350
:10108000DF93EC018B018091C1049091C204892B04
:1010900041F40E94020881E090E09093C2048093A2
:1010A000C104C230D10570F48FB7F894CC0FDD1FA6
:1010B000FE01ED53FB4F11830083C553DB4F1982B3
:1010C00018828FBFDF91CF911F910F91089580916A
:1010D000C1049091C204892B41F40E94020881E06E
:1010E00090E09093C2048093C104F8946091C70487
:1010F0007091C8048091C9049091CA0478940895AD
:101100008DED94E0089581EE94E0089585EE94E0ED
:10111000089589EE94E008958DEE94E0089544E1F9
:1011200050E060E00E960C94E61B08952F923F92DB
:101130004F925F926F927F928F929F92AF92BF92E7
:10114000CF92DF92EF92FF920F931F93CF93DF9393
:10115000CDB7DEB7E6970FB6F894DEBF0FBECDBFB2
:101160008C012A013B0119011AAA19AA0E946708D9
:101170004B015C0182E00E946717892BF9F40E9401
:101180006708DC01CB0188199909AA09BB0948162F
:1011900059066A067B0608F4A7C00E9467086B011F
:1011A0007C0123E3C20ED11CE11CF11C0E946708E4
:1011B0006C157D058E059F05C9F7DCCF48E050E032
:1011C000BE016D5D7F4F82E00E94C317FFA08BA11F
:1011D0008BA78CA18CA78DA18DA78EA18EA7E8A42B
:1011E00042E250E0BE016F5F7F4F82E00E94C31772
:1011F0008981823009F076C08F2D90E0982F882762
:101200008E0D911D8334910509F06CC06D817E8136
:101210008F8198850E940229F10160837183828306
:10122000938346E050E0B801685F7F4FCE014D9652
:101230000E94F01B892B09F059C0F1018081918136
:10124000A281B381F8014081518162817381841749
:101250009507A607B70708F449C044815581668100
:101260007781481759076A077B0708F43FC044E0B5
:1012700050E0BE016F5E7F4FC8010E960E94DA1BE0
:101280008EECE82EF12C41E050E0BE01615D7F4F15
:1012900082E00E94C317F1E0EF1AF108A1F7C8013C
:1012A00082969CAB8BABF801B696FEABEDAB18010A
:1012B000FAE22F0E311C08976C012E019BE2490EB9
:1012C000511C3801E2E16E0E711C5801F6E1AF0EBF
:1012D000B11C48012EE1820E911C82E00E9467172A
:1012E000892B31F48AA924C18FEF22C180E020C16B
:1012F00041E050E0BE01605D7F4F82E00E94C31775
:1013000088A9833309F4E0C0D0F48130B9F128F31F
:10131000833009F442C0863009F0F5C041E050E066
:10132000BE016F5C7F4F82E00E94C31744E050E033
:10133000B40182E00E94C317E12CF12C51C08A3322
:1013400009F48DC030F4853359F0863309F45BC05D
:10135000DAC08B3309F49EC08F3F09F4BECFD3C0EF
:1013600041E050E0BE016F5C7F4F82E00E94C317F6
:1013700041E050E0BE016E5C7F4F0BC041E050E0A9
:10138000BE016F5C7F4F82E00E94C31744E050E0D3
:10139000B30182E00E94C317A0CF41E050E0BE013C
:1013A0006F5C7F4F82E00E94C31744E050E0B501BC
:1013B00082E00E94C317E12CF12C89A990E00497E8
:1013C000E816F9060CF089CF41E050E0BE01615DFE
:1013D0007F4F82E00E94C3178FEFE81AF80AEDCF23
:1013E00089A990E00497E816F9060CF076CF41E061
:1013F00050E0BE01615D7F4F82E00E94C3179FEF06
:10140000E91AF90AEDCF41E050E0BE016F5C7F4F71
:1014100082E00E94C317F801828D811109C0838D7B
:10142000811106C0848D811103C0858D882319F038
:101430004C145D0421F444E050E0B601AACF89A920
:101440009FEF980F99AB882309F447CF41E050E014
:10145000BE01615D7F4F82E00E94C317F0CF41E083
:1014600050E0BE016F5C7F4F82E00E94C31744E0F2
:1014700050E06DA97EA982E00E94C317F80166A121
:1014800077A180A591A50E94022966A377A380A7D2
:1014900091A723CF41E050E0BE016F5C7F4F82E017
:1014A0000E94C31744E050E0B10182E00E94C317DC
:1014B000F80162A573A584A595A50E94022962A7DB
:1014C00073A784A795A709CF41E050E0BE016F5CE8
:1014D0007F4F82E00E94C31744E050E06BA97CA9D3
:1014E00082E00E94C317F80162A173A184A195A1B3
:1014F0000E94022962A373A384A395A366A777A77A
:1015000080AB91ABEACE41E050E0BE016F5C7F4F13
:1015100082E00E94C31789A99FEF980F99AB882397
:1015200009F4DBCE41E050E0BE01615D7F4FF0CFBA
:10153000E6960FB6F894DEBF0FBECDBFDF91CF9118
:101540001F910F91FF90EF90DF90CF90BF90AF90E1
:101550009F908F907F906F905F904F903F902F90D3
:1015600008950E96089542960895469608954A96CF
:1015700008954E96089580E3FB0180833296842F70
:1015800082958F7090E1899F401911244A3014F49C
:10159000405D01C0495C4293482F8111F0CF08950E
:1015A000AF92BF92DF92EF92FF920F931F93CF9370
:1015B000DF93CDB7DEB7AA970FB6F894DEBF0FBEA4
:1015C000CDBF8C01D62EF42EE52E40E250E060E037
:1015D000CE0101960E94E61B8091E3039091E40303
:1015E000A091E503B091E6038DA39EA3AFA3B8A796
:1015F00043E450E0BE016B5D7F4F82E00E94071A1A
:10160000892B09F4FBC081E089838A8386E08B8380
:101610001C82F80164817581868197810E9402296C
:1016200069A37AA38BA39CA344E050E0BE016F5D45
:101630007F4FCE0105960E94DA1BE986FA8680E884
:1016400090E09AA789A742E050E0BE01675D7F4F16
:10165000CE010B960E94DA1B2CE130E0AE014F5F09
:101660005F4F60E070E082E00E94BC1840E250E012
:1016700060E0CE0101960E94E61B5801F8E0AF0E33
:10168000B11C46E050E0B501CE0101960E94DA1B84
:1016900020E130E0AE014F5F5F4F6CE170E082E02F
:1016A0000E94BC1840E250E060E0CE0101960E942A
:1016B000E61B8CE2E82EF12C20E230E0AE014F5F19
:1016C0005F4FB70182E00E94BC1880E2E80EF11C77
:1016D000ECEEEE16F10481F783E6898392E89A83B3
:1016E00093E59B838C8385E38D8381E08E83DF820A
:1016F0009DE3988797E099878A8746E050E0B50197
:10170000CE010B960E94DA1B8CE0898B8EE494E06C
:101710000E94111C8A5F8A8B6EE474E0CE014396AE
:101720000E94071CF8014385BE01675E7F4FC80118
:101730000E94BB0AF8014485BE01655E7F4FC80167
:101740000E94BB0AF8014585BE01635E7F4FC80158
:101750000E94BB0A2EE130E0AE014F5F5F4F6CEE9E
:1017600070E082E00E94BC18F3E0DF1227C082E341
:10177000898384E08A83F80196859B8397859C837F
:1017800090899D8391899E8396E39F838887828D2C
:101790008987838D8A87848D8B87858D8C872CE0C4
:1017A00030E0AE014F5F5F4F6AE071E082E00E947F
:1017B000BC1866E171E080E090E004C06AE071E08E
:1017C00080E090E027E3298326E02A8331E03B8311
:1017D00033E03C832D832FE02E832AE32F832BE3FA
:1017E00028872FEF298729E030E0AE014F5F5F4F58
:1017F00082E00E94BC1882E00E942C1AAA960FB6C2
:10180000F894DEBF0FBECDBFDF91CF911F910F9136
:10181000FF90EF90DF90BF90AF9008952F923F928E
:101820004F925F926F927F928F929F92AF92BF92F0
:10183000CF92DF92EF92FF920F931F93CF93DF939C
:1018400000D000D0CDB7DEB78C0120ED37E040E00E
:1018500050E061E070E080E090E00E94201FA0E096
:10186000B0E0F80184839583A683B7838083918356
:10187000A283B38382E00E949D1664E470E082E05C
:101880000E949516882309F42EC10E9467084B0117
:101890005C01212C312C7801F2E4EF0EF11C48EEB2
:1018A000442E43E0542E612C712C52E0C52ED701FA
:1018B0008C91833009F4FEC081111FC0F80184812E
:1018C0009581A681B7810196A11DB11D8483958361
:1018D000A683B7830E946708681979098A099B095A
:1018E000A30192010E94BB28A90161E0C8010E94E6
:1018F000D00A81E0D7018C93C5C08430F1F4F8019F
:1019000084819581A681B7810196A11DB11D848333
:101910009583A683B7830E946708681979098A09A5
:101920009B09A30192010E94BB28A90163E0C801A1
:101930000E94D00AD701CC92A5C0813051F5F801A0
:1019400042AD53AD64AD75AD9E012F5F3F4FC801F1
:101950000E949608D82EF2E08F138FC089819A8159
:10196000AB81BC81F80184839583A683B7830E94F1
:101970006708681979098A099B09A30192010E94E5
:10198000BB28A90163E0C8010E94D00AD701DC92FC
:1019900079C0823009F076C0F80142AD53AD64AD34
:1019A00075AD9E012F5F3F4FC8010E949608D82E4B
:1019B000F5E08F135CC0E3E0D701EC93F80182A15E
:1019C00093A1A4A1B5A1892B8A2B8B2B41F484E888
:1019D00093E0A0E0B0E082A393A3A4A3B5A3F80191
:1019E00086A197A1A0A5B1A5892B8A2B8B2B61F489
:1019F00082A193A1A4A1B5A1B695A7959795879526
:101A000086A397A3A0A7B1A7F80182A593A5A4A533
:101A1000B5A5892B8A2B8B2BA9F482A193A1A4A114
:101A2000B5A1AC01BD0123E0769567955795479523
:101A30002A95D1F7841B950BA60BB70B82A793A70A
:101A4000A4A7B5A7F80186A197A1A0A5B1A586A7CF
:101A500097A7A0ABB1AB82A593A5A4A5B5A582AB72
:101A600093ABA4ABB5AB22242394312C0BC0F6E08E
:101A70008F1303C0D7011C9205C0BFEFDB1202C059
:101A8000F7011082F1E02F16310409F410CF0E9403
:101A90006708DC01CB0188199909AA09BB09F8017B
:101AA00026A937A940AD51AD281739074A075B076A
:101AB00008F0FDCE82E00E949D16F8018481958198
:101AC000A681B7810196A11DB11D84839583A6834C
:101AD000B7830E946708F801FE9660837183828352
:101AE0009383C10102C080E090E00F900F900F90AF
:101AF0000F90DF91CF911F910F91FF90EF90DF90AA
:101B0000CF90BF90AF909F908F907F906F905F909D
:101B10004F903F902F900895CF92DF92EF92FF92D7
:101B20000F931F93CF93DF93EC016B011AA21BA2BB
:101B30001CA21DA21EA21FA218A619A61AA61BA6A9
:101B40001CA61DA62EAB3FAB48AF59AFEAAEFBAE0D
:101B50000CAF1DAF8C01085F1F4F46E050E060E006
:101B6000C8010E94E61BCE010E948F0846E050E0AB
:101B7000B601C8010E94DA1BFE01EE5BFF4F108226
:101B8000CE01DF91CF911F910F91FF90EF90DF90E9
:101B9000CF900C940E0CEF92FF920F931F9378014D
:101BA00089019A01AB01BC018FEC94E00E948C0D7D
:101BB0001F910F91FF90EF900895CF92DF92EF92D7
:101BC000FF920F931F93CF93DF93EC010E9467085E
:101BD0006B017C018E01025C1F4FF80180819181B5
:101BE000A281B381A7019601281B390B4A0B5B0B1D
:101BF000CA01B901683E33E073078105910508F415
:101C000041C028EE33E040E050E00E94BB28C61AF5
:101C1000D70AE80AF90AF801C082D182E282F38287
:101C20008EA59FA5A8A9B9A969017A01CC0CDD1CD4
:101C3000EE1CFF1C8C159D05AE05BF0528F41EA6E5
:101C40001FA618AA19AA08C0821B930BA40BB50BD8
:101C50008EA79FA7A8ABB9AB8AA99BA9ACA9BDA920
:101C60008C159D05AE05BF0528F41AAA1BAA1CAA4F
:101C70001DAA08C0821B930BA40BB50B8AAB9BABB0
:101C8000ACABBDAB8EA59FA5A8A9B9A9892B8A2B02
:101C90008B2B69F4FE01EE5BFF4F8081833039F4BA
:101CA00084E08083CE010E940E0C019602C080E089
:101CB00090E04AA95BA96CA97DA9452B462B472B2F
:101CC00081F4FE01EE5BFF4F2081233011F02111E2
:101CD00008C01082CE010E948F08CE010E940E0C17
:101CE0000396DF91CF911F910F91FF90EF90DF90BE
:101CF000CF9008958FEC94E00C94DD0DFA9AF99A48
:101D000008951F920F920FB60F9211242F933F93B5
:101D10004F935F936F937F938F939F93AF93BF93F3
:101D2000EF93FF93E09101068091C005E81720F042
:101D3000FB981092BD051AC08091BE059091BF0519
:101D400092BD81BD81E08E0F80930106F0E0EF53DC
:101D5000FA4F808180BD8091BE059091BF050196AC
:101D60009093BF058093BE050E947E0EFF91EF9178
:101D7000BF91AF919F918F917F916F915F914F91A3
:101D80003F912F910F900FBE0F901F9018952091AB
:101D9000BD052111FCCF9093BF058093BE0581E066
:101DA0008093BD05109201064093C005962FA1ECCB
:101DB000B5E0FB018E2F891B841718F481918D9358
:101DC000F9CF7894FB9A0895FB01861B970B50E09E
:101DD000DC01AE0FBF1F9F01261B370B24173507F1
:101DE00048F4F999FECFB2BDA1BD219120BDFA9A68
:101DF000F99AEECF08952091BD052111FCCFFB018A
:101E0000861B970B2E2F261B241748F49C012E0FA0
:101E10003F1F32BD21BDF89A20B52193F3CF08951D
:101E20008091BD0590E0089560E070E080E090E072
:101E30000E943D08219A29980895299A0895299881
:101E40000895909313058093120510921605109231
:101E500015051092140560E070E080E090E00E94AB
:101E60003D080C941F0F8091120590911305892B4A
:101E700009F452C080E090E00E942408892B09F404
:101E80004BC080911405811134C02091150530910B
:101E90001605E0911205F0911305E20FF31F808102
:101EA0008032E9F03CF481111DC0109216051092A9
:101EB000150508958D3239F08E32A1F40E941D0F60
:101EC0006AEF70E004C00E941D0F6EEE72E080E0C9
:101ED00090E00E943D0881E080931405089568EE2B
:101EE00073E00BC02F5F3F4F30931605209315050D
:101EF00008950E941F0F64E670E080E090E00E9469
:101F00003D081092140580911505909116050196D3
:101F10009093160580931505089585B18695817077
:101F200090E008958031910504F527E0289FA001F5
:101F3000299F500D1124FA01E65EFA4F808181320B
:101F4000A0F480E090E020E0FA01E80FF91FE65EDF
:101F5000FA4F3081230F019687309105A9F781E070
:101F600090E0222321F080E0089580E090E0089541
:101F70006F927F928F929F92AF92BF92CF92DF9299
:101F8000EF92FF920F931F93CF93DF930E94100F56
:101F9000892BE1F70AE815E0C0E8D0E0BE016656FB
:101FA0007B4F47E0CE010E94FB0EF80111928F019A
:101FB0002796C03FD10591F74AE1E42E45E0F42E83
:101FC0008701C0E0D0E0D12CB12C77247A94CE01E7
:101FD0000E94920F892B41F0F8018081871520F42F
:101FE000BC2E782EDD24D3942196095F1F4FC0317B
:101FF000D10569F7DD2009F46AC0B0921905709225
:102000001805CB2DD0E08E010F5F1F4F872C2FE0DE
:10201000A22E37E0932E6801FFE0CF22DD24C60117
:102020000E94920F892B61F4B09217058E01015026
:102030001109609780E1A82EB12C97E0692E3AC073
:102040009C9CF0019D9CF00D1124E65EFA4F4081AE
:10205000242F30E0882D90E001968F719927281762
:10206000390711F7C092190540931805AA940F5F1C
:102070001F4FAA20C9F2842ECECFF701208130E075
:10208000872D90E04F968F7199272817390731F5E2
:10209000C0921705689CF001699CF00D1124E65E62
:1020A000FA4F708001501109F7E0EF0EF11C0C1788
:1020B0001D07A1F0C801B5010E94A7286C014C01C1
:1020C0009924C4010E94920F892BB9F607C08FE0B2
:1020D000809319051092180510921705DF91CF9182
:1020E0001F910F91FF90EF90DF90CF90BF90AF9036
:1020F0009F908F907F906F900895EF92FF921F9323
:10210000CF93DF930E94100F892B39F5EAE8F5E0B1
:10211000C0E0D0E081918823E1F017E01C9FC0016E
:102120001D9F900D11249C01265E3A4F790167E0B6
:1021300070E0C9010E94F11EC19FC001112447E057
:10214000B70180589F4F0E94C70EC657DA4F1882BA
:1021500004C02196C031D105E9F6DF91CF911F91DE
:10216000FF90EF900895EF92FF921F93CF93DF932C
:10217000EAE8F5E0C0E0D0E081918823E1F017E0E3
:102180001C9FC0011D9F900D11249C01265E3A4F9B
:10219000790167E070E0C9010E94F11EC19FC00192
:1021A000112447E0B70180589F4F0E94E40EC657A4
:1021B000DA4F188204C02196C031D105E9F6DF91CB
:1021C000CF911F91FF90EF900895EF92FF920F93A0
:1021D0001F93CF93DF93E82EC0911905D0E021968D
:1021E000CF70DD278091170590E00E94920FF82EA6
:1021F000809118058F5F813218F48093180502C012
:102200001092180587E08C9F80018D9F100D11247E
:10221000065E1A4F80911805F80180830E94911282
:10222000F8016183728383839483E582C0931905E7
:1022300067E070E0C8010E94F11EC657DA4F81E0E6
:1022400088838091190590911705891308C0FF2094
:1022500031F090E001968F70992780931705DF91F8
:10226000CF911F910F91FF90EF900895EAE1F5E073
:10227000AAE8B5E08FEF4FEF5FEFBA0191E08083FE
:10228000858341835283638374839D93379625E0CE
:10229000EA38F207A1F78FE080931905109217052D
:1022A0001092180508950F931F93CF93DF93009119
:1022B0001705C02F10E0D0E0CE010E94920F892BAD
:1022C00029F02196CF701F5F0C13F5CF812FDF917E
:1022D000CF911F910F910895AF92BF92CF92DF924D
:1022E000EF92FF920F931F93CF93DF936B017C01CB
:1022F0008A0159010E94531190E0A0E0B0E0C81695
:10230000D906EA06FB06F8F48091170590E0C80E9E
:10231000D91E8FE0C822DD2487E08C9DF0018D9DC1
:10232000F00D1124E65EFA4F81819281A381B48180
:10233000E80188839983AA83BB838581F501808323
:1023400081E090E002C080E090E0DF91CF911F91AA
:102350000F91FF90EF90DF90CF90BF90AF900895D6
:102360004F925F926F927F928F929F92AF92BF92A5
:10237000CF92DF92EF92FF920F931F93CF93DF9351
:10238000CDB7DEB7CA57D1090FB6F894DEBF0FBE7E
:10239000CDBFF82E8091E7039091E803A091E90367
:1023A000B091EA03E9968CAF9DAFAEAFBFAFE997AE
:1023B00083E00E946016882329F06BE770E083E0D9
:1023C0000E94951650E3E52E6E0101E4C00ED11C6B
:1023D00063E2462E512C612C712CFF2009F482C03F
:1023E000F6010E2D11920A95E9F7F601408251820D
:1023F000628273820BE710E09E012B583F4F40E34F
:1024000050E0B60183E00E947117C09709F06AC0DE
:102410000E9467084B015C01F9EE8F0EF3E09F1EEE
:10242000A11CB11C0E946708681579058A059B05E7
:10243000C9F783E00E946717009709F451C08E0125
:1024400007581F4F9E012F583F4FAC01BE016F5FD1
:102450007F4F83E00E94E417C09709F041C069A54F
:10246000862F90E0A0E0B0E0BA2FA92F982F882700
:102470002AA5820F911DA11DB11DBA2FA92F982F3A
:1024800088272BA5820F911DA11DB11DBA2FA92F41
:10249000982F88274CA550E060E070E040585341E9
:1024A00069417C4B8A019B01080F191F2A1F3B1FA2
:1024B000C901B8010E9464140E94B71285E594E036
:1024C0000E94BE1D0E9467150E94BE1D82E694E018
:1024D0000E94BE1D83E00E949D1681E090E007C02F
:1024E000FA947BCF83E00E949D1680E090E0C6586E
:1024F000DF4F0FB6F894DEBF0FBECDBFDF91CF9197
:102500001F910F91FF90EF90DF90CF90BF90AF9011
:102510009F908F907F906F905F904F9008950C9454
:10252000901D0C94A01D6093020670930306809387
:102530000406909305060C94AC1D9C0160E971E0C3
:102540000E949328892B79F0C90183709927892BE0
:1025500061F4C90164E670E00E9493289C0181E067
:10256000232B21F402C081E0089580E008952F928A
:102570003F924F925F926F927F928F929F92AF9213
:10258000BF92CF92DF92EF92FF920F931F93CF9360
:10259000DF93CDB7DEB767970FB6F894DEBF0FBEF7
:1025A000CDBF2CE0EBEEF3E0AE014F5F5F4F1A01C1
:1025B000DA0101900D922A95E1F7DC012C91220FAE
:1025C0002056322F330F330F230F11963C91119762
:1025D0003153230F2D8713962C911397022E000C45
:1025E000330B205331096AE0629FA001639F500DB5
:1025F00011241496CC900C2C000CDD08B0E3CB1AFF
:10260000D108C40ED51E860101501109FC01268196
:10261000022E000C330B20533109E8EEF3E02E9F1D
:10262000A0012F9F500D3E9F500D1124DC011796E5
:102630002C911797022E000C330B2053310974E6AE
:10264000729F7001739FF00C1124E40EF51E189612
:102650004C911897042E000C550B40535109649F60
:102660009001659F300D1124E20EF31E19962C91F6
:102670001997F701E20FF11D27FDFA95AF015850A8
:102680007A011B962C911B97220F2056322F330F65
:10269000330F230F1C963C911C973053230F298B2B
:1026A0001E962C911E97220F2056322F330F330F78
:1026B000230F1F963C911F973053230F2A8B51965F
:1026C0002C915197220F2056322F330F330F230FA7
:1026D00052968C918053280F2B8BCA010E949D1219
:1026E000882321F05D85523008F08601C70160E93A
:1026F00071E00E949328FC01DB0120E839E540E607
:1027000050EF0E9418292B013C01CF0164E670E0D4
:102710000E949328FC01DB0120E032EC47E15CEBF6
:102720000E9418294B015C01DF01B695A795B6956B
:10273000A79520E83FE146E857E00E9418296B0181
:102740007C01DF01A370BB2720E833E341EE51E0B9
:102750000E9418296C8B7D8B8E8B9F8BF1018E2FA5
:1027600082199D85891720F48191080F111DF7CFDB
:10277000A9892A2F30E0A0E1BEE00E9409296D87D7
:102780007E878F87988BBA892B2F30E0ACE3B0E03F
:102790000E9409292D853E854F855889260F371FB0
:1027A000481F591FDA01C9013B89830F911DA11DE3
:1027B000B11D480E591E6A1E7B1E840C951CA61C5A
:1027C000B71CC80CD91CEA1CFB1C8C899D89AE89DE
:1027D000BF89C80ED91EEA1EFB1ED80120E831E5CC
:1027E00041E050E00E941829DC01CB018C0D9D1DB9
:1027F000AE1DBF1D8093020690930306A0930406AE
:10280000B093050667960FB6F894DEBF0FBECDBF36
:10281000DF91CF911F910F91FF90EF90DF90CF90BC
:10282000BF90AF909F908F907F906F905F904F90F0
:102830003F902F900C94AC1DEF92FF920F931F933B
:10284000CF93DF93CDB7DEB768970FB6F894DEBFAE
:102850000FBECDBF7B012CE0EBEEF3E0DE011D9659
:1028600001900D922A95E1F78E010F5F1F4F2CE02A
:10287000F80111922A95E9F70E949D128A83DE01E0
:102880001D9680E0F701408151819D91F8012191D1
:102890008F0130E0290F311D4217530740F0421BD2
:1028A000530BF701518340838F5F8C3059F7689643
:1028B0000FB6F894DEBF0FBECDBFDF91CF911F9151
:1028C0000F91FF90EF9008954F925F926F927F92D9
:1028D0008F929F92AF92BF92CF92DF92EF92FF9230
:1028E000CF93DF9300D0CDB7DEB72B013C0181E061
:1028F00090E0A0E0B0E020E8421629E5520620E68C
:10290000620620EF720618F480E090E0DC0120E916
:1029100031E0829F5001839FB00C929FB00C112434
:1029200080E3A81A88EFB80AC12CD12C7601C39491
:1029300020E8421629E5520620E6620620EF7206DC
:1029400018F4C12CD12C7601A701960160E879E535
:1029500080E690EF0E94832873016201C61AD70AAD
:10296000E80AF90A81E090E0A0E0B0E0C11422ECAE
:10297000D20627E1E2062CEBF20618F480E090E0A4
:10298000DC0144E6489F9001499F300D1124A20EBE
:10299000B31E21E030E040E050E0C11482ECD806E4
:1029A00087E1E8068CEBF80618F420E030E0A90196
:1029B00060E072EC87E19CEB0E948328A7019601FE
:1029C000261B370B480B590BCA01B90120E83FE120
:1029D00046E857E00E94BB28220F331F220F331F07
:1029E000A20EB31E20E833E341EE51E00E94BB2863
:1029F0007501E20EF31E20E831E541E050E00E944F
:102A0000BB284B015C013A832983BE016F5F7F4F76
:102A1000C7010E941C14D82EC501B40120E13EE07C
:102A200040E050E00E94BB2829013A014B015C01C3
:102A300068E674E084E191E00E94071C6D2D70E06F
:102A40006F5F7F4F42E084E191E00E941A1C698130
:102A50007A816F5F7F4F42E087E191E00E941A1C0C
:102A600044E0B7018AE191E00E941A1C42E0B20101
:102A70008FE191E00E941A1CC501B4012CE330E003
:102A800040E050E00E94BB2849015A016B017C01E3
:102A900042E0B40182E291E00E941A1C42E0B601D9
:102AA00085E291E00E941A1C84E191E00F900F9062
:102AB000DF91CF91FF90EF90DF90CF90BF90AF90DC
:102AC0009F908F907F906F905F904F9008950F939D
:102AD0001F930E94A01D00910206109103062091F1
:102AE000040630910506600F711F821F931F1F910E
:102AF0000F910C946414EF92FF920F931F93CF9356
:102B0000DF938C01EB017A01009721F0209711F0FF
:102B1000452B29F48CE794E00E94BE1DFFCF61E9AC
:102B200074E00E94D61E892B29F48CE794E00E9461
:102B3000BE1D44C06BE974E0CE010E94D61E892BF5
:102B4000A1F364EA74E0C7010E94D61E892B69F3E1
:102B50004CE050E0B8018AE096E00E94DA1B109247
:102B600015064CE050E0BE0186E196E00E94DA1BBB
:102B7000109221064CE050E0B70182E296E00E94FC
:102B8000DA1B10922D06F80180818E7F8093320629
:102B9000818180933306828180933406888180937B
:102BA00035068981809336068A8180933706DF91C6
:102BB000CF911F910F91FF90EF900895FFCF0E944A
:102BC000D327882361F00E94DA278435C1F78CEA85
:102BD00094E00E94BE1D8FEF90E00C94740608955F
:102BE000EF92FF921F93CF93DF9300D000D000D0DD
:102BF000CDB7DEB7182F7A0186E0E7EFF3E0DE010C
:102C0000119601900D928A95E1F7FB0181818F77F2
:102C10008C8382818D8383818E83812F0E942624E1
:102C2000BE016F5F7F4F812F0E941824B701812F53
:102C30000E943424B701812F0E94EF2362E8812F84
:102C40000E94C02361E0812F0E94D22381E026965A
:102C50000FB6F894DEBF0FBECDBFDF91CF911F91AD
:102C6000FF90EF9008950E94EB2391E0823209F0EB
:102C700090E0892F08950E94EB23882341F08C3146
:102C800031F091E08A3109F490E0892F089580E0D5
:102C900008950E94EB2391E0843109F090E0892FA0
:102CA00008950E94EB2391E0873109F090E0892F8D
:102CB00008950E94EB2391E0811190E0892F0895FF
:102CC0000C945916CF93C82F60E10E94D2236FEF66
:102CD0008C2FCF910C94DD230F931F93CF93DF9311
:102CE000C82FD62F8A010E9462166D2F8C2F0E944A
:102CF000C0230115110511F0B8010AC060919A05B1
:102D000070919B056F5F7F4F70939B0560939A0551
:102D10008C2F0E94EF2361E08C2F0E94D22381E050
:102D2000DF91CF911F910F910895AB0162E00C9458
:102D30006C16AB0161E00C946C160C946216CF9388
:102D4000C82F0E94EB23833131F462E08C2F0E9464
:102D5000D22381E001C080E0CF9108950F931F93AB
:102D6000CF93FB0190819F3F51F491819F3F91F45C
:102D700092819F3F79F493819F3F61F41DC091112F
:102D800009C09181911106C09281911103C0938174
:102D9000992399F04115510579F08A01BF01C82F97
:102DA0000E942624B8018C2F0E94342464E08C2FCA
:102DB0000E94D22391E001C090E0892FCF911F9112
:102DC0000F91089568E00C94D223CF92DF92EF9296
:102DD000FF920F931F93CF93C82F7B018A0141303D
:102DE000584010F000E018E08C2F0E94AF246C01D6
:102DF0008C2F0E94EB23873111F08C3121F4C01607
:102E0000D10690F302C000E010E0A801B7018C2FBA
:102E10000E94502560E28C2F0E94D2238C2F0E94AA
:102E2000E22384FD0BC08C2F0E94EB238111F6CF8F
:102E30008C2F0E94621680E090E005C060E18C2F2C
:102E40000E94DD23C801CF911F910F91FF90EF9059
:102E5000DF90CF900895CF92DF92EF92FF921F9371
:102E6000CF93DF93182F6B017A010E949725EC0115
:102E7000009789F4812F0E94EB238431E9F08823A5
:102E8000D9F0C1E0D0E08C3111F4C0E0D0E0D195B0
:102E9000C195D10911C0E816F9060CF4E7011C161A
:102EA0001D0654F420E0AE01B601812F0E941126C8
:102EB00060E4812F0E94D223CE01DF91CF911F9138
:102EC000FF90EF90DF90CF9008950C9497250C948D
:102ED000972521E041E050E00E94112681E090E03A
:102EE0000895CF92DF92EF92FF920F931F93CF93AB
:102EF000F9019081911109C09181911106C09281CF
:102F0000911103C093819923A1F10115110589F154
:102F10007A014130584018F0E12C98E0F92EE11484
:102F2000F10439F16B01C82FBF010E942624B801BA
:102F30008C2F0E943424A701B6018C2F0E945025AB
:102F400060E28C2F0E94D2238C2F0E94E22384FD0A
:102F50000AC08C2F0E94E22383FFF6CF68E18C2FFA
:102F60000E94DD2306C060E18C2F0E94DD23C70193
:102F700002C080E090E0CF911F910F91FF90EF9001
:102F8000DF90CF900895EF92FF921F93CF93DF933E
:102F90004115510589F0EA017B01182F0E94972500
:102FA0008C179D0708F4EC0120E0AE01B701812FDA
:102FB0000E941126CE0102C080E090E0DF91CF9107
:102FC0001F91FF90EF9008958F929F92BF92CF92A2
:102FD000DF92EF92FF920F931F93CF93DF93CDB7C2
:102FE000DEB728970FB6F894DEBF0FBECDBF452BD6
:102FF00009F47EC049016B01B82E0E94C4257C01F2
:103000008B2D0E94C5238770833059F1843009F4D9
:1030100045C0823009F065C028E030E0AE014F5F66
:103020005F4FB7018B2D0E94642288E0E80EF11CEF
:103030008981F40180838A8181838B8182838C8161
:1030400083838D8190E0982F88272E81820F911D98
:10305000F801918380830F8110E0102F002788856D
:103060001AC026E030E0AE014F5F5F4FB7018B2DF5
:103070000E946422F6E0EF0EF11C8981F401808346
:103080008A8181838B8182838C8183830D8110E08F
:10309000102F00278E81080F111D16C022E030E08E
:1030A000AE014F5F5F4FB7018B2D0E946422F2E0AB
:1030B000EF0EF11C098110E0902F88270A8110E0A3
:1030C00002501109080F191F9801A601B7018B2D95
:1030D0000E946422B701600F711F8B2D0E94B325DF
:1030E00002C000E010E060E48B2D0E94D22302C0F9
:1030F00000E010E0C80128960FB6F894DEBF0FBEBE
:10310000CDBFDF91CF911F910F91FF90EF90DF9096
:10311000CF90BF909F908F9008951F93CF93DF9390
:10312000182FEA014130584018F42097F9F002C0F6
:10313000C0E0D8E0AE01812F0E94502560E2812FCF
:103140000E94D223812F0E94E22384FD09C0812F97
:103150000E94E22383FFF6CF812F0E94621606C0F1
:1031600060E1812F0E94DD23CE0102C080E090E06B
:10317000DF91CF911F910895CF92DF92EF92FF924E
:103180001F93CF93DF93182F7B016A01E9010E94FF
:10319000AF248C179D0720F4812F0E94AF24EC01EF
:1031A0009E01A601B701812F0E940525CE01DF9166
:1031B000CF911F91FF90EF90DF90CF9008951F93D4
:1031C000CF93DF93182FEB01CB010E94111CAC01B0
:1031D000BE01812FDF91CF911F910C94E516CF9303
:1031E000DF931F92CDB7DEB7698341E050E0BE01A7
:1031F0006F5F7F4F0E94E5160F90DF91CF9108958A
:103200000F931F93CF93C82F8B0162E20E94EF1898
:10321000B8018C2F0E94DF1862E28C2FCF911F9192
:103220000F910C94EF18CF93C82FCB01BA010E94D5
:103230006414FC011286BC018C2FCF910C940019F0
:10324000CF93DF93D82FC62F70E084E075956795F4
:103250008A95E1F76A3010F4605D01C0695C8D2FDA
:103260000E94EF186C2F6F706A3010F0695C01C01B
:10327000605D8D2FDF91CF910C94EF18EF92FF924C
:103280000F931F93CF93C82F7B0162E20E94EF1828
:10329000F70161918F018C2F0E942019F6E0EF0E4B
:1032A000F11C6AE38C2F0E94EF18F80161918F01E5
:1032B0008C2F0E9420190E151F0599F762E28C2FA2
:1032C000CF911F910F91FF90EF900C94EF18CF9337
:1032D000DF93C82FD62F672F0E9420196D2F8C2FB8
:1032E000DF91CF910C9420192F923F924F925F92D1
:1032F0006F927F928F929F92AF92BF92CF92DF9206
:10330000EF92FF920F931F93CF93DF93CDB7DEB76A
:1033100062970FB6F894DEBF0FBECDBF782E7B014B
:1033200077FF08C0F194E194F10881E090E0998B77
:10333000888B02C0198A188AFE0131961F018E01FE
:10334000055F1F4F6F0188248394912CA12CB12C11
:10335000AAE0B0E09401A5010E9418296A8B472ECB
:10336000582E692EB7010F2C000C880B990B2A8957
:10337000342D452D562D0E94DD289401A5010E9473
:10338000DD28F60121936F01E21AF10827FDF3947D
:103390008A88942CA52CB62C0E171F07C9F688898D
:1033A0009989892B21F06DE2872D0E94EF1880E02A
:1033B00090E0F80162918F01611105C0009719F446
:1033C0002E163F0641F4605DF8016083872D0E9450
:1033D000EF1881E090E02016310659F762960FB69B
:1033E000F894DEBF0FBECDBFDF91CF911F910F913B
:1033F000FF90EF90DF90CF90BF90AF909F908F9015
:103400007F906F905F904F903F902F9008950F9313
:103410001F93CF93FB019081911109C0918191116C
:1034200006C09281911103C09381992379F04115CF
:10343000510561F08A01BF01C82F0E942624B801FE
:103440008C2F0E94342481E090E002C080E090E064
:10345000CF911F910F910895CF93C82F60E20E94E2
:10346000D2238C2F0E94E22384FD0CC08C2F0E945B
:10347000E22383FFF6CF68E18C2F0E94DD2380E0FA
:1034800090E006C060E18C2F0E94DD2381E090E097
:10349000CF910895EF92FF920F931F93CF93DF93F5
:1034A0001F92CDB7DEB7182FE12CF12C812F0E948F
:1034B0009725E816F90688F401E0970141E050E00D
:1034C000BE016F5F7F4F812F0E94DC2589818A308A
:1034D00031F08FEFE81AF80AE9CF80E001C081E00F
:1034E0000F90DF91CF911F910F91FF90EF90089572
:1034F0001F93CF93DF931F92CDB7DEB7182F0E9493
:103500009725892B89F021E041E050E0BE016F5FF3
:103510007F4F812F0E941126998181E09D3029F0F3
:103520009A3019F080E001C081E00F90DF91CF91D7
:103530001F9108958F929F92AF92BF92CF92DF9288
:10354000EF92FF920F931F93CF93DF931F92CDB70C
:10355000DEB7182F5B010E9497257C01C5010E94F0
:10356000111CE816F90668F175016701CA18DB0835
:103570004701F7018081882399F001E0960141E03D
:1035800050E0BE016F5F7F4F812F0E94DC258FEFDF
:10359000E81AF80AF40190818981981731F311C073
:1035A000C114D10461F041E050E0BE016F5F7F4F74
:1035B000812F0E942B17F1E0CF1AD108F1CF81E0C3
:1035C00001C080E00F90DF91CF911F910F91FF908C
:1035D000EF90DF90CF90BF90AF909F908F90089525
:1035E0001F93CF93DF931F92CDB7DEB7182F812F94
:1035F0000E949725892BC1F141E050E0BE016F5F29
:103600007F4F812F0E942B1789818D30D1F4812F1C
:103610000E949725892B59F321E041E050E0BE013B
:103620006F5F7F4F812F0E94112689818A30E1F4DC
:1036300041E050E0BE016F5F7F4F812F0E942B174A
:1036400013C08A30A1F6812F0E949725892B79F229
:1036500021E041E050E0BE016F5F7F4F812F0E946B
:10366000112689818D3021F30F90DF91CF911F9129
:103670000895BF92CF92DF92EF92FF920F931F9324
:10368000CF93DF931F92CDB7DEB7C82E8B01FB011E
:10369000118210820E949725892B09F451C0D12CE8
:1036A000EE24E394F12C2AE0B22E8C2D0E94972573
:1036B000892BB9F121E041E050E0BE016F5F7F4FFF
:1036C0008C2D0E94112689818D3231F4D11038C0A1
:1036D000EE24EA94FE2C1CC090ED980F9A3090F4E2
:1036E000F80140815181B49E9001B59E300D1124A6
:1036F000082E000C990BC097820F931F9183808333
:10370000D39406C08A3069F08D3059F0803249F088
:1037100041E050E0BE016F5F7F4F8C2D0E942B1760
:10372000C4CFF801208131812E9DC0012F9D900DC5
:103730003E9D900D11249183808381E0D11001C0C2
:1037400080E00F90DF91CF911F910F91FF90EF904C
:10375000DF90CF90BF9008959FB7F894229B2A9A4C
:10376000229A259A239A2D988CB580618CBD8CB5B0
:1037700080648CBD10929C059FBF089580919C052C
:10378000089590919C05911109C09FB7F8948CBD44
:103790006DBD81E080939C059FBF2A9808958EBDE2
:1037A00000000DB407FEFDCF8EB508952A9A109241
:1037B0009C050895FB01480F591F8417950729F0B0
:1037C0002191DC012D93CD01F8CF0895480F591FA9
:1037D0008417950721F0FC016193CF01F9CF08957B
:1037E000FB01480F591F8417950759F0DC013D91E3
:1037F000CD012191321740F02317A8F781E090E026
:10380000089580E090E008958FEF9FEF0895FC0108
:10381000DB018D91BD01882311F08193F9CF1082D6
:103820000895FC019F01281B390B41914111FACFEA
:10383000C90108959F92AF92BF92CF92DF92EF920B
:10384000FF920F931F93CF93DF9300D000D01F926E
:10385000CDB7DEB7FC016B019E012F5F3F4F8E019C
:103860000A5F1F4FEE24E394F12C9AE0992E9E9C60
:1038700050019F9CB00C1124C601B5010E949328F1
:10388000B7010E949328D9016D939D01C61AD108F2
:1038900067FDD3947501A017B10749F760E070E0A8
:1038A00084E090E050E0D8012E918D01211105C0F7
:1038B0006115710511F4009741F4841795072CF4F4
:1038C000205D219361E070E004C0841795070CF43B
:1038D0003196019740F70F900F900F900F900F9037
:1038E000DF91CF911F910F91FF90EF90DF90CF90DC
:1038F000BF90AF909F90089588EC80937C0086E8FD
:1039000080937A00089580917A00829586958695B5
:10391000837091E08927817090E00895EAE7F0E0F4
:10392000808180648083089580917800209179005F
:1039300030E0322F2227A901330F660B770B9A0153
:10394000AB01282BA5E6B0E00E94182924E630E060
:1039500040E050E00E94DD28DA01C9018151914028
:10396000A109B109089508950F931F93E0919D0552
:10397000F0919E05E930F10508F09BC0E25CFF4F35
:103980000C94FC288417950764F086EB94E00E9461
:10399000210F86E00E94E51086E090E00E94740608
:1039A00025C0081719070CF48EC086EB94E00E941E
:1039B000210F88E00E94E51088E090E00E947406E4
:1039C0000BC0841795070CF7081719070CF47BC078
:1039D00086EB94E00E94210F86E090E065C084179A
:1039E0009507FCF286EB94E00E94210F83E090E0C3
:1039F0005BC08617970764F088EB94E00E94210F64
:103A000085E00E94E51085E090E00E94740612C0F7
:103A1000841795070CF057C08CE494E00E94210FA6
:103A200082E090E041C08617970794F388EB94E01A
:103A30000E94210F85E090E037C0861797070CF0B1
:103A400042C086EB94E00E94210F84E090E02CC0FD
:103A50002817390764F088EB94E00E94210F87E073
:103A60000E94E51087E090E00E94740611C00817DC
:103A700019074CF58CE494E00E94210F81E090E05E
:103A800013C0281739079CF388EB94E00E94210F9C
:103A900088E090E009C028173907ACF486EB94E081
:103AA0000E94210F87E090E090939E0580939D05F2
:103AB0000AC010929E0510929D058CE494E01F911F
:103AC0000F910C94210F1F910F91089510929E0554
:103AD00010929D0508951F920F920FB60F92112418
:103AE0008F939F93AF93BF9380919F059091A00573
:103AF000A091A105B091A2050196A11DB11D8093D1
:103B00009F059093A005A093A105B093A205BF9136
:103B1000AF919F918F910F900FBE0F901F901895AE
:103B200083E294EF90938900809388001092800044
:103B30008CE080938100789482E080936F000895F8
:103B40002FB7F89460919F057091A0058091A10511
:103B50009091A2052FBF08958FB7F89410929F05FA
:103B60001092A0051092A1051092A2058FBF089592
:103B70000E946526789408950C942928CF93DF93AA
:103B8000EC018991882319F00E942928FACFDF914E
:103B9000CF910895CF93C82F90E024E09595879515
:103BA0002A95E1F78A3010F4805D01C0895C0E949B
:103BB00029288C2F8F708A3010F0895C01C0805DBD
:103BC000CF910C942928CF93C82F892F0E94CA1D0A
:103BD0008C2FCF910C94CA1D2F923F924F925F92DF
:103BE0006F927F928F929F92AF92BF92CF92DF920D
:103BF000EF92FF920F931F93CF93DF93CDB7DEB772
:103C000063970FB6F894DEBF0FBECDBF6B017C018A
:103C100097FF0DC0F094E094D094C094C11CD11CC7
:103C2000E11CF11C81E090E09B8B8A8B02C01B8A17
:103C30001A8AFE0131965F018E01055F1F4FF98BD5
:103C4000E88B66246394712C812C912CAAE0B0E05F
:103C50009301A4010E9418291B012C01C701B60180
:103C60009101A2010E94DD289301A4010E94DD2898
:103C7000E889F9892193F98BE88B822F220F990B20
:103C8000AA0BBB0BC81AD90AEA0AFB0A3101420186
:103C90000E171F07D9F68A899B89892B19F08DE2A7
:103CA0000E94292820E030E0F80182918F018111E3
:103CB00006C02115310519F4EA15FB0529F4805DCC
:103CC0000E94292821E030E00A151B0569F7639658
:103CD0000FB6F894DEBF0FBECDBFDF91CF911F911D
:103CE0000F91FF90EF90DF90CF90BF90AF909F909B
:103CF0008F907F906F905F904F903F902F9008959E
:103D00000C94FF270C942628FF920F931F93CF93B8
:103D1000DF93EC01062FF72E18820E94FF2710E098
:103D20008823D9F00E94D3278823B9F00E94DA278C
:103D3000803210F089931F5FE02FFF2D482F50E055
:103D40002191222339F0022E000C330B4217530726
:103D5000B9F702C08D3051F71882812FDF91CF91D2
:103D60001F910F91FF9008950F931F93CF93DF93AF
:103D70008C01EC01699170E080E090E00E94EC1D04
:103D80000C5F1F4F8EE20E942928699170E080E04D
:103D900090E00E94EC1DC017D107A1F785E694E0E2
:103DA000DF91CF911F910F910C94BE1DDC01FB019F
:103DB0009D91992341F08191891784F09817C4F758
:103DC0008FEF9FEF089581E090E02081211102C0E4
:103DD00080E090E0919581959109089581E090E0CF
:103DE0000895DC0190E020E061507109422F50E01D
:103DF000FD01E40FF51F4617570720F48081980F47
:103E00002F5FF4CF91959083089561157105810519
:103E1000910541F060932C0170932D0180932E0148
:103E200090932F01211531054105510541F0209353
:103E300028013093290140932A0150932B010895C2
:103E40004F925F926F927F928F929F92AF92BF92AA
:103E5000CF92DF92EF92FF92CF93DF9300D000D00A
:103E6000CDB7DEB72B013C0129833A834B835C83BA
:103E7000C0902801D0902901E0902A01F0902B01F8
:103E8000A701960144275527A9E6B0E90E94182901
:103E90006701EE24FF244B015C018C0C9D1CAE1CC1
:103EA000BF1C8092280190922901A0922A01B09211
:103EB0002B01C0902C01D0902D01E0902E01F090AC
:103EC0002F01A701960144275527A0E5B6E40E94DB
:103ED00018296701EE24FF24C60ED71EE81EF91E1E
:103EE000C0922C01D0922D01E0922E01F0922F0170
:103EF000D40199278827BC01CD016C0D7D1D8E1D35
:103F00009F1D29813A814B815C812419350946091D
:103F100057090E94BB28CB01840D951D0F900F906F
:103F20000F900F90DF91CF91FF90EF90DF90CF90A7
:103F3000BF90AF909F908F907F906F905F904F90C9
:103F40000895CF93DB01FC0120812D3221F40196ED
:103F50006FEF7FEF02C061E070E011961C921E923D
:103F6000FC01CAE020818D919C9111972223C1F020
:103F7000C89FA001C99F500D112411965C934E93C8
:103F8000219180ED820F8A30B8F4022E000C330BA1
:103F900020533109240F351F11963C932E93E2CF05
:103FA000869F9001879F300D969F300D11242D9391
:103FB0003C9381E090E002C080E090E0CF910895D2
:103FC00080910606833561F480910706853441F4BB
:103FD00081E090E020910806223521F080E002C0C7
:103FE00080E090E0E6E0F6E020E03191230F36E05B
:103FF000EE33F307D1F7222311F080E090E008952B
:10400000CF93DF93CDB7DEB7E7970FB6F894DEBF57
:104010000FBECDBF87E3EDEFF3E0DE011196019017
:104020000D928A95E1F767E370E0CE0101960E9458
:10403000F11E47E3BE016F5F7F4F80E090E00E947A
:10404000C70EE7960FB6F894DEBF0FBECDBFDF9167
:10405000CF9108950E94100F892BE1F747E366E0A6
:1040600076E080E090E00E94FB0E0E94E01F892B2A
:1040700049F40E94002047E366E076E080E090E0AB
:104080000C94FB0E0895AF92BF92DF92EF92FF92D5
:104090000F931F93CF93DF93EC01D62EE72E8A0167
:1040A0008091A3058333F9F4A62EB72E7E01E40E8A
:1040B000F51ECE15DF0509F45EC062E080E50E94C2
:1040C000C11B80EF0E94CF1B8D2F0E94CF1B8C2F16
:1040D0000E94CF1B2196F50181915F010E94CF1BA9
:1040E0000E94D61BE6CF62E080E50E94C11BC1158D
:1040F000F4E0DF0718F4FC2EC4E00DC0C11528E081
:10410000D20758F4FC2ED45033E0D695C7953A9593
:10411000E1F7C07ECC6080E018C0CE019770892F97
:10412000FC2EC115E0E6DE0740F426E0D695C795E3
:104130002A95E1F7C07EC46108C0D05696E0D695B6
:10414000C7959A95E1F7C07ECC610E94CF1B8F2D59
:104150000E94CF1B8C2F0E94CF1BCD2DDE2D7E0108
:10416000E00EF11ECE15DF0521F089910E94CF1BD4
:10417000F9CF0E94D61BC801DF91CF911F910F91FB
:10418000FF90EF90DF90BF90AF900895CF93DF93B3
:104190001F92CDB7DEB7698341E050E0BE016F5F8B
:1041A0007F4F0E9443200F90DF91CF9108958F920F
:1041B0009F92AF92BF92CF92DF92EF92FF920F93B6
:1041C0001F93CF93DF93EC018B016A017901FA0110
:1041D000608181E090E00E94C620F601618182E06A
:1041E00090E00E94C620F601628183E090E00E9488
:1041F000C620F601638184E090E00E94C6200E9400
:1042000067084B015C01F2E08F0E911CA11CB11CF0
:104210000E946708681579058A059B05C9F76881BA
:1042200089E090E00E94C62069818AE090E00E94C7
:10423000C6206A818BE090E00E94C6206B818CE0F2
:1042400090E00E94C6206C818DE090E00E94C62024
:104250006D818EE090E00E94C6200E9467084B01AD
:104260005C0122E0820E911CA11CB11C0E94670817
:10427000681579058A059B05C9F7F701608185E016
:1042800090E00E94C620F701618186E090E00E94E4
:10429000C620F701628187E090E00E94C620F70106
:1042A000638188E090E00E94C6200E9467086B014D
:1042B0007C01F2E0CF0ED11CE11CF11C0E946708CA
:1042C0006C157D058E059F05C9F7F80160818FE0AB
:1042D00090E00E94C620F801618180E190E00E9498
:1042E000C620F801628181E190E00E94C620F801B9
:1042F000638182E190E00E94C6200E9467086B0102
:104300007C01F2E0CF0ED11CE11CF11C0E94670879
:104310006C157D058E059F05C9F765E58AE190E07E
:104320000E94C62065E58BE190E00E94C62080E0F7
:10433000DF91CF911F910F91FF90EF90DF90CF9081
:10434000BF90AF909F908F900895AF92BF92DF92F1
:10435000EF92FF920F931F93CF93DF93EC01D62E32
:10436000E72E8A018091A305833301F5A62EB72E8F
:104370007E01E40EF51ECE15DF0509F460C062E093
:1043800080E50E94C11B8FE00E94CF1B8D2F0E94F1
:10439000CF1B8C2F0E94CF1B219680E00E94CF1B49
:1043A000F50181935F010E94D61BE5CF62E080E5B5
:1043B0000E94C11BC115F4E0DF0718F4FC2EC0E019
:1043C0000DC0C11528E0D20758F4FC2ED45033E0BC
:1043D000D695C7953A95E1F7C07EC86080E018C0D1
:1043E000CE019770892FFC2EC115E0E6DE0740F460
:1043F00026E0D695C7952A95E1F7C07EC06108C032
:10440000D05696E0D695C7959A95E1F7C07EC861DB
:104410000E94CF1B8F2D0E94CF1B8C2F0E94CF1B81
:10442000CD2DDE2D7E01E00EF11ECE15DF0529F02B
:1044300080E00E94CF1B8993F8CF0E94D61BC80151
:10444000DF91CF911F910F91FF90EF90DF90BF9080
:10445000AF900895CF93DF931F92CDB7DEB741E0C1
:1044600050E0BE016F5F7F4F0E94A52189810F90B0
:10447000DF91CF91089590E00496982F8827860FBA
:10448000971F0C942A229B0190E00496982F88276E
:10449000642F820F931F0E94C6200895FB01BA016A
:1044A00090E00496982F8827A9018E0F9F1F0C94E7
:1044B000A521FB01BA0190E00496982F8827A90155
:1044C0008E0F9F1F0C944320AF92BF92CF92DF922A
:1044D000EF92FF920F931F93CF93DF9300D0CDB74E
:1044E000DEB77A836983BA01A901A981BA81B7705D
:1044F000E82FF0E0EE0FFF1FEC5CFB4FE080F18057
:10450000CD018E0D9F1D9D01240F351F2130384098
:1045100080F06A015B0100E018E00A1B1B0BA80198
:104520000E94A521A601401B510BB501600F711F10
:10453000C7010F900F90DF91CF911F910F91FF90C6
:10454000EF90DF90CF90BF90AF900C94A521682F93
:1045500080E090E00C94C62080E090E00C942A2249
:10456000CF92DF92EF92FF9283E38093A30560E8FE
:1045700080E090E00E94C6200E9467086B017C01E9
:1045800022E0C20ED11CE11CF11C0E9467086C15D0
:104590007D058E059F05C9F780E10E94A7220E9434
:1045A000AC22803121F01092A30580E00FC082E19F
:1045B0000E94A7220E94AC228231A9F780E00E94CB
:1045C000A7220E94AC228111EECF81E0FF90EF90F4
:1045D000DF90CF900895CF92DF92EF92FF9287E322
:1045E0008093A30560E880E090E00E94C6200E94CE
:1045F00067086B017C0122E0C20ED11CE11CF11C9A
:104600000E9467086C157D058E059F05C9F788E037
:104610000E94A7220E94AC22883021F01092A305AC
:1046200080E00FC080E10E94A7220E94AC2280316E
:10463000A9F780E00E94A7220E94AC228111EECF50
:1046400081E0FF90EF90DF90CF9008950E94B0221C
:10465000811102C00C94EB22089544E050E0BC01AB
:1046600081E090E00C94432044E050E0BC0181E004
:1046700090E00C94A52144E050E0BC0185E090E07E
:104680000C94432044E050E0BC0185E090E00C94A1
:10469000A52146E050E0BC0189E090E00C94432065
:1046A00046E050E0BC0189E090E00C94A52144E094
:1046B00050E0BC018FE090E00C94432044E050E0D7
:1046C000BC018FE090E00C94A521682F85E190E07B
:1046D0000C94C62085E190E00C942A22CF93C82F39
:1046E000692F87E190E00E94C6206C2F88E190E05E
:1046F000CF910C94C620CF93DF9387E190E00E9486
:104700002A22C82FD0E0DC2FCC2788E190E00E943D
:104710002A229E01280F311DC901DF91CF910895F2
:1047200044E050E0BC018AE290E00C94432044E075
:1047300050E0BC018AE290E00C94A521CF93C82FF1
:10474000692F8EE290E00E94C6206C2F8FE290E0ED
:10475000CF910C94C620CF93DF938EE290E00E941D
:104760002A22C82FD0E0DC2FCC278FE290E00E94D5
:104770002A229E01280F311DC901DF91CF91089592
:10478000462F60E070E00C94432260E070E00C94EF
:104790003B22462F61E070E00C94432261E070E020
:1047A0000C943B22CF93C82F0E94C9238C2F0E94C8
:1047B000CE238111FBCFCF910895462F62E070E0A8
:1047C0000C94432262E070E00C943B22462F63E09D
:1047D00070E00C94432263E070E00C943B22CF9392
:1047E000DF93C82FD62F472F64E070E00E9443224A
:1047F0004D2F65E070E08C2FDF91CF910C94432218
:104800001F93CF93DF93182F64E070E00E943B2248
:10481000C82FD0E065E070E0812F0E943B22DC2FA2
:10482000CC279E01282BC901DF91CF911F910895BC
:10483000AB0126E030E066E070E00C945922AB0159
:1048400026E030E066E070E00C944E22AB0124E0FC
:1048500030E06CE070E00C945922AB0124E030E0D1
:104860006CE070E00C944E22CF93DF93C82FD62FCC
:10487000472F60E170E00E9443224D2F61E170E01C
:104880008C2FDF91CF910C9443221F93CF93DF9312
:10489000182F60E170E00E943B22C82FD0E061E158
:1048A00070E0812F0E943B22DC2FCC279E01282B19
:1048B000C901DF91CF911F910895CF93DF93C82F46
:1048C000D62F472F62E170E00E9443224D2F63E113
:1048D00070E08C2FDF91CF910C9443221F93CF93E4
:1048E000DF93182F62E170E00E943B22C82FD0E0D6
:1048F00063E170E0812F0E943B22DC2FCC279E01D8
:10490000282BC901DF91CF911F910895CF93DF9399
:10491000C82FD62F472F60E270E00E9443224D2F10
:1049200061E270E08C2FDF91CF910C9443221F93B2
:10493000CF93DF93182F60E270E00E943B22C82FD4
:10494000D0E061E270E0812F0E943B22DC2FCC2777
:104950009E01282BC901DF91CF911F910895FF92ED
:104960000F931F93CF93DF93F82EC0E0D0E08F2DED
:104970000E9497248C01892B21F08F2D0E9497246F
:10498000EC01C017D10799F7CE01DF91CF911F91AC
:104990000F91FF900895CF93DF93C82FD62F472F05
:1049A00062E270E00E9443224D2F63E270E08C2FA0
:1049B000DF91CF910C9443221F93CF93DF93182F55
:1049C00062E270E00E943B22C82FD0E063E270E018
:1049D000812F0E943B22DC2FCC279E01282BC9016E
:1049E000DF91CF911F910895CF93DF93C82FD62FDA
:1049F000472F64E270E00E9443224D2F65E270E091
:104A00008C2FDF91CF910C9443229F92AF92BF9253
:104A1000CF92DF92EF92FF920F931F93CF93DF938A
:104A2000982E7B016A0189010E94DC24E80EF91EA0
:104A300097013770E92DF0E0EE0FFF1FE45CFB4FAC
:104A4000A080B180C9018A0D9B1DA901400F511F93
:104A50004130584080F0C0E0D8E0C21BD30BAE011B
:104A6000B6010E944320A8014C1B5D0BB6016C0FE0
:104A70007D1FC50102C0A801B6010E944320B701F5
:104A8000600F711F892DDF91CF911F910F91FF90C2
:104A9000EF90DF90CF90BF90AF909F900C94F42454
:104AA0009A01AB0160E070E00C9405251F93CF9351
:104AB000DF93182F64E270E00E943B22C82FD0E001
:104AC00065E270E0812F0E943B22DC2FCC279E0103
:104AD000282BC901DF91CF911F910895CF93DF93C8
:104AE000C82FD62F472F66E270E00E9443224D2F39
:104AF00067E270E08C2FDF91CF910C9443221F93DB
:104B0000CF93DF93182F66E270E00E943B22C82FFC
:104B1000D0E067E270E0812F0E943B22DC2FCC279F
:104B20009E01282BC901DF91CF911F910895FF921B
:104B30000F931F93CF93DF93F82EC0E0D0E08F2D1B
:104B40000E947F258C01892B21F08F2D0E947F25CB
:104B5000EC01C017D10799F7CE01DF91CF911F91DA
:104B60000F91FF900895CF93DF93C82FD62F472F33
:104B700068E270E00E9443224D2F69E270E08C2FC2
:104B8000DF91CF910C9443221F93CF93DF93182F83
:104B900068E270E00E943B22C82FD0E069E270E03A
:104BA000812F0E943B22DC2FCC279E01282BC9019C
:104BB000DF91CF911F910895CF92DF92EF92FF92F4
:104BC0000F931F93CF93DF93182F6B017A01E901A5
:104BD0000E94C4258C0F9D1FEC01D7709701A60180
:104BE000BE01812F0E946422011112C0BE016E0D10
:104BF0007F1D812F0E94B32560E4812FDF91CF912B
:104C00001F910F91FF90EF90DF90CF900C94D223E3
:104C1000DF91CF911F910F91FF90EF90DF90CF9098
:104C200008950F93022F20E030E00E94DC250F91C1
:104C30000895CF93DF93C82FD62F472F6AE270E0F5
:104C40000E9443224D2F6BE270E08C2FDF91CF91B9
:104C50000C9443221F93CF93DF93182F6AE270E0E6
:104C60000E943B22C82FD0E06BE270E0812F0E94AF
:104C70003B22DC2FCC279E01282BC901DF91CF914D
:104C80001F9108951F920F920FB60F9211240E9448
:104C90001D0F82E00E94E5100E94B3100E949D0744
:104CA000FBCF9FB7F894A895E0E6F0E0808188619B
:104CB00080838FE480839FBF0895A8950895809195
:104CC00060008B7080936000FFCF1092C00087E679
:104CD00090E09093C5008093C400E1ECF0E088E19F
:104CE000808386E08093C2008081806A80830895FB
:104CF0001F920F920FB60F9211242F933F938F9311
:104D00009F93EF93FF938091AA05882309F4F0C045
:104D10008091C6009091A905992309F4E3C090EE13
:104D2000980F9F3518F08D3009F059C02091A605D5
:104D30009091A70530E0291B3109215031092F73CB
:104D40003327232B61F0E091A705F0E0E35CF94FF6
:104D500080839091A7059F5F9F739093A7052091F3
:104D6000A4059091A50530E0291B31092150310996
:104D70002F733327232B89F0E091A505F0E0E3584A
:104D8000F94F80839091A5059F5F9F739093A50530
:104D90009091C10090629093C1008D3009F0C5C020
:104DA0008091A4052091A50590E0821B91090197AF
:104DB0008F739927892B69F0E091A505F0E0E358FE
:104DC000F94F8AE080838091A5058F5F8F73809370
:104DD000A5058091A8058F5F8093A805A6C088309F
:104DE00011F08F37C1F58091A7052091A60590E0BD
:104DF000821B91098F739927892B09F496C0E09142
:104E0000A705F0E0E35CF94F80818091A705815010
:104E10008F738093A7058091A4052091A50590E04C
:104E2000821B910901978F739927892B09F47DC003
:104E3000E091A505F0E0E358F94F8FE7808380917A
:104E4000A5058F5F8F738093A5058091C100806257
:104E50008093C1006AC0843009F067C08091A705C3
:104E60002091A60590E0821B91098F739927892BC9
:104E700031F1E091A705F0E0E35CF94F80818D30DE
:104E8000F1F08091A6052091A70590E0821B910981
:104E900001978F739927892B91F0E091A705F0E096
:104EA000E35CF94F8DE080838091A7058F5F8F735E
:104EB0008093A7058091A8058F5F8093A8058091B6
:104EC000A6052091A70590E0821B910901978F7399
:104ED0009927892B51F1E091A705F0E0E35CF94FA8
:104EE00084E019C0833009F581E08093A9051DC0D5
:104EF0008091A6052091A70590E0821B910901975A
:104F00008F739927892B79F0E091A705F0E08091C4
:104F1000C600E35CF94F80838091A7058F5F8F7394
:104F20008093A70502C08091C600FF91EF919F91E9
:104F30008F913F912F910F900FBE0F901F9018955A
:104F40001F920F920FB60F9211242F938F939F935E
:104F5000EF93FF938091A5052091A40590E0821B1B
:104F600091098F739927892B79F0E091A405F0E0DE
:104F7000E358F94F80818093C6008091A4058F5F2C
:104F80008F738093A40505C08091C1008F7D8093AD
:104F9000C100FF91EF919F918F912F910F900FBEC4
:104FA0000F901F9018958091A7059091A605891BD9
:104FB0008F7308958091A7052091A60590E0821B2C
:104FC00091098F739927892BC1F0E091A605F0E034
:104FD000E35CF94F80819091A6059F5F9F7390934A
:104FE000A6059091AA05992349F08D3039F4909146
:104FF000A80591509093A805089580E0089581E058
:105000008093AA058091A7052091A60590E0821BB8
:1050100091098F739927892BB1F0E091A605F0E0F3
:10502000E35CF94F8081843071F41092A905E0911E
:10503000A605F0E0E35CF94F80818091A6058F5FC3
:105040008F738093A6058091A90508958091A80586
:1050500008950FB607FE0EC02091A4059091A505F6
:1050600030E0291B3109215031092F733327232BBD
:1050700099F30DC02091A4059091A50530E0291B5E
:105080003109215031092F733327232B61F0E0912F
:10509000A505F0E0E358F94F80838091A5058F5F67
:1050A0008F738093A5058091C10080628093C100B9
:1050B00008951F93CF93DF93EC0180E011E0180F68
:1050C000FE01E80FF11D8081882321F00E9429282C
:1050D000812FF4CFDF91CF911F9108951F93CF932C
:1050E000DF93EC0180E011E0180FFE01E80FF11DE5
:1050F0008491882321F00E942928812FF4CFDF9109
:10510000CF911F910895DB018F939F930E941829DF
:10511000BF91AF91A29F800D911DA39F900DB29F53
:10512000900D11240895AA1BBB1B51E107C0AA1FB3
:10513000BB1FA617B70710F0A61BB70B881F991F38
:105140005A95A9F780959095BC01CD01089597FBDC
:10515000072E16F4009407D077FD09D00E949328FB
:1051600007FC05D03EF4909581959F4F089570956A
:1051700061957F4F0895A1E21A2EAA1BBB1BFD016A
:105180000DC0AA1FBB1FEE1FFF1FA217B307E40726
:10519000F50720F0A21BB30BE40BF50B661F771F7E
:1051A000881F991F1A9469F760957095809590955E
:1051B0009B01AC01BD01CF010895052E97FB1EF4A4
:1051C00000940E94F42857FD07D00E94BB2807FCDA
:1051D00003D04EF40C94F4285095409530952195C9
:1051E0003F4F4F4F5F4F0895909580957095619513
:1051F0007F4F8F4F9F4F0895EE0FFF1F0590F49143
:10520000E02D09946927962769277827872778272B
:105210000895A29FB001B39FC001A39F700D811D8F
:105220001124911DB29F700D811D1124911D0895AF
:105230000E940929A59F900DB49F900DA49F800DF9
:0A524000911D11240895F894FFCF8A
:10524A00030B443100802500002D00040B4430007C
:10525A00802500002D0002060024F400010C617470
:08526A006D6567613332380005
:105272004B0041535500FF03FE030000010000C034
:10528200A801640030302F30302F303030302030E1
:10529200303A30303A303000E5559A15B53B121F9E
:1052A200435249545F4849005741524E5F484900B2
:1052B200435249545F4C4F005741524E5F4C4F008E
:1052C2004E4F524D414C00485454502F312E3120F4
:1052D200323030204F4B0A00436F6E74656E742D6E
:1052E200547970653A206170706C69636174696F9A
:1052F2006E2F766E642E6170692B6A736F6E0D0A63
:1053020000436F6E6E656374696F6E3A20636C6FF3
:1053120073650D0A000D0A007B00767064003A7B0B
:10532200006D6F64656C003A002C006D616E7566ED
:10533200616374757265720073657269616C5F6E28
:10534200756D626572006D616E756661637475720A
:10535200655F64617465006D61635F616464726559
:10536200737300636F756E7472795F636F64650047
:105372007D2C0074637269745F686900747761726E
:105382006E5F68690074637269745F6C6F00747732
:1053920061726E5F6C6F0074656D706572617475B9
:1053A2007265007374617465006C6F67003A5B002C
:1053B20074696D657374616D70006576656E7400F5
:1053C2007D005D7D00485454502F312E3120343001
:1053D200302042616420526571756573740A0064FD
:1053E20065766963650052657475726E6564203016
:1053F2002066726F6D2070726F63657373207075B3
:1054020074206669727374206966207374617465AE
:105412006D656E740D0A002F636F6E6669673F00DB
:1054220074637269745F68693D0055706461746980
:105432006E672074637269745F6869207769746843
:105442002076616C75653A2000747761726E5F68D0
:10545200693D005570646174696E6720747761728A
:105462006E5F686920776974682076616C75653A49
:10547200200074637269745F6C6F3D0055706461E3
:1054820074696E672074637269745F6C6F207769E8
:1054920074682076616C75653A2000747761726E6B
:1054A2005F6C6F3D005570646174696E672074773C
:1054B20061726E5F6C6F20776974682076616C75BB
:1054C200653A200052657475726E656420302066FC
:1054D20072696D2070726F636573732070757420CA
:1054E20066696E616C20656C736520696E207468F4
:1054F2006520636F6E6669673F0D0A003F726573D0
:1055020065743D002266616C7365220022747275B7
:105512006522002F6C6F67004745540050555400B8
:1055220044454C4554450020485454502F312E31A7
:105532000D0A006A6C68616D320068616D006A6113
:10554200726564006C6F63616C2069703A2000EFD1
:10555200010101FFFFFFFFC0A801011F1C1F1E1F49
:105562001E1F1F1E1F1E1F01005E0000005345521A
:105572000053616E647900000000000000446F7502
:10558200676C617300000000005F554E4153534940
:10559200474E45440000000000444F5553414E55CC
:1055A200534100000060004800700078004000484D
:1055B200005000580D0A414C41524D3A20005749C3
:1055C2005A6E65740074696D652073796E636564E3
:1055D20020005554430D0A0030302F30302F303028
:1055E20030302030303A30303A30300050726F6A0A
:1055F200656374206E6F74207369676E65640D0A4B
:105602000066697273746E616D65006C6173746EAD
:10561200616D6500617375726974650054657374B8
:0A562200696E670D0A002D002E00CE
:00000001FF
