:100000000C9434000C9451000C9451000C94510049
:100010000C9451000C9451000C9451000C9451001C
:100020000C9451000C9451000C9451000C94050256
:100030000C9451000C9451000C9453000C945100FA
:100040000C9451000C9451000C94A4060C94D50609
:100050000C9451000C9451000C9451000C945100DC
:100060000C9451000C94510011241FBECFEFD8E026
:10007000DEBFCDBF11E0A0E0B1E0E0E3F0E102C0FF
:1000800005900D92A637B107D9F722E0A6E7B1E0B7
:1000900001C01D92A131B207E1F70E949A010C94B0
:1000A00002080C9400001F920F920FB60F921124B9
:1000B0002F933F938F939F9380917C0190917D012B
:1000C00020917801309179018217930728F40196E5
:1000D00090937D0180937C0180917E0190917F01BE
:1000E00020917A0130917B018217930728F40196C1
:1000F00090937F0180937E019F918F913F912F91EB
:100100000F900FBE0F901F9018953FB7F894FC0109
:10011000EE0FFF1FE458FE4F408151812FB7932F00
:100120009078922B9FBFCA0108952091760130915B
:100130007701232B99F429EF27BD24B5226024BD34
:1001400025B5236025BDEEE6F0E020812260208306
:1001500021E030E030937701209376012FB7F894B7
:10016000880F991FFC01E858FE4F71836083FC01E2
:10017000E458FE4F118210829FB7822F8078892B1E
:100180008FBF0895880F991FDC01A458BE4FFC0152
:10019000E858FE4F81E090E04D915C9120813181E3
:1001A0004217530711F080E090E008959093840186
:1001B00080938301109282011092810181E08093EB
:1001C000800160E070E080E090E00E9495000E9475
:1001D000610208958091830190918401892B09F433
:1001E000A8C080E090E00E94C200892B09F4A1C061
:1001F00080918001813021F0823009F447C0089558
:1002000080E090E00E94C200892BC9F0E091830158
:10021000F09184018091810190918201E80FF91F92
:100220008081803261F082E0809380010E946102CF
:1002300064E670E080E090E00E949500089580E020
:1002400090E00E94C200892B09F473C020918301C1
:10025000309184018091810190918201F901E80F30
:10026000F91F4081403209F064C00196F901E80F9E
:10027000F91F2081222329F090938201809381012C
:1002800008951092820110928101089580E090E01B
:100290000E94C200892B09F44CC0E0918301F091C7
:1002A000840180918101909182010196DF01A80F64
:1002B000B91F2C91222329F0909382018093810110
:1002C00004C0109282011092810181E0809380012C
:1002D0008091810190918201E80FF91F80818D3218
:1002E00029F08E3261F08032E1F412C00E945F0288
:1002F0006EEE72E080E090E00E94950008950E940A
:100300005F026AEF70E080E090E00E94950008953F
:100310000E94610268EE73E080E090E00E94950028
:1003200008950E94610260E070E080E090E00E9429
:10033000950008950E94C7050E945C020E94680211
:1003400080E291E00E94D60088E291E00E9497024C
:100350008CE391E00E94CD0560E177E281E090E0DE
:100360000E949500812C912C540105C08FEF881AB2
:10037000980AA80AB80A81E090E00E94C200892B7E
:10038000A9F360E177E281E090E00E949500C12C42
:10039000D12C760107C00E94EA008FEFC81AD80A54
:1003A000E80AF80A81E090E00E94C200892B99F3E4
:1003B000C501B4010E94FB058CE591E00E94CD05CA
:1003C000C701B6010E94FB058EE591E00E94CD05B4
:1003D00060E070E081E090E00E94950081E090E0B4
:1003E0000E94C200892B71F064EF71E081E090E01F
:1003F0000E9495000E9447050E94CD058AE591E084
:100400000E94CD050E94EA00E9CF1F920F920FB61D
:100410000F9211248F939F93AF93BF938091850187
:1004200090918601A0918701B09188010196A11D4C
:10043000B11D8093850190938601A0938701B093AD
:100440008801BF91AF919F918F910F900FBE0F9038
:100450001F90189584EF8093890083E28093880031
:10046000E1E8F0E08081886080838081846080831F
:10047000EFE6F0E080818260808308953FB7F894D2
:10048000609185017091860180918701909188012A
:100490002FB73078232B2FBF08958FB7F894109281
:1004A00085011092860110928701109288019FB7F2
:1004B0008078892B8FBF0895219A29980895299AC9
:1004C00008952998089585B18695817090E00895E2
:1004D0000C942A020F931F930E943E0200918D01FB
:1004E00010918E0120918F0130919001600F711F4A
:1004F000821F931F1F910F9108959C0160E971E085
:100500000E949307892B79F0C90183709927892B61
:1005100061F4C90164E670E00E9493079C0181E0E8
:10052000232B21F402C081E0089580E008952F92EA
:100530003F924F925F926F927F928F929F92AF9273
:10054000BF92CF92DF92EF92FF920F931F93CF93C0
:10055000DF93CDB7DEB767970FB6F894DEBF0FBE57
:10056000CDBF2CE0E4E1F1E0AE014F5F5F4F1A0137
:10057000DA0101900D922A95E1F7DC012C91220F0E
:100580002056322F330F330F230F11963C911197C2
:100590003153230F2D8713962C911397022E000CA5
:1005A000330B205331096AE0629FA001639F500D15
:1005B00011241496CC900C2C000CDD08B0E3CB1A5F
:1005C000D108C40ED51E860101501109FC012681F7
:1005D000022E000C330B20533109E8EEF3E02E9F7E
:1005E000A0012F9F500D3E9F500D1124DC01179646
:1005F0002C911797022E000C330B2053310974E60F
:10060000729F7001739FF00C1124E40EF51E189672
:100610004C911897042E000C550B40535109649FC0
:100620009001659F300D1124E20EF31E19962C9156
:100630001997F701E20FF11D27FDFA95AF01585008
:100640007A011B962C911B97220F2056322F330FC5
:10065000330F230F1C963C911C973053230F298B8B
:100660001E962C911E97220F2056322F330F330FD8
:10067000230F1F963C911F973053230F2A8B5196BF
:100680002C915197220F2056322F330F330F230F07
:1006900052968C918053280F2B8BCA010E947D02A9
:1006A000882321F05D85523008F08601C70160E99A
:1006B00071E00E949307FC01DB0120E839E540E688
:1006C00050EF0E94F7072B013C01CF0164E670E078
:1006D0000E949307FC01DB0120E032EC47E15CEB78
:1006E0000E94F7074B015C01DF01B695A795B6950F
:1006F000A79520E83FE146E857E00E94F7076B0125
:100700007C01DF01A370BB2720E833E341EE51E019
:100710000E94F7076C8B7D8B8E8B9F8BF1018E2F48
:1007200082199D85891720F48191080F111DF7CF3B
:10073000A9892A2F30E0A0E1BEE00E94E8076D877A
:100740007E878F87988BBA892B2F30E0ACE3B0E09F
:100750000E94E8072D853E854F855889260F371F53
:10076000481F591FDA01C9013B89830F911DA11D43
:10077000B11D480E591E6A1E7B1E840C951CA61CBA
:10078000B71CC80CD91CEA1CFB1C8C899D89AE893E
:10079000BF89C80ED91EEA1EFB1ED80120E831E52C
:1007A00041E050E00E94F707DC01CB018C0D9D1D5C
:1007B000AE1DBF1D80938D0190938E01A0938F017C
:1007C000B093900167960FB6F894DEBF0FBECDBF11
:1007D000DF91CF911F910F91FF90EF90DF90CF901D
:1007E000BF90AF909F908F907F906F905F904F9051
:1007F0003F902F900C944D02EF92FF920F931F9316
:10080000CF93DF93CDB7DEB768970FB6F894DEBF0E
:100810000FBECDBF7B012CE0E4E1F1E0DE011D96CF
:1008200001900D922A95E1F78E010F5F1F4F2CE08A
:10083000F80111922A95E9F70E947D028A83DE0170
:100840001D9680E0F701408151819D91F801219131
:100850008F0130E0290F311D4217530740F0421B32
:10086000530BF701518340838F5F8C3059F76896A3
:100870000FB6F894DEBF0FBECDBFDF91CF911F91B1
:100880000F91FF90EF9008954F925F926F927F9239
:100890008F929F92AF92BF92CF92DF92EF92FF9290
:1008A000CF93DF9300D0CDB7DEB72B013C0181E0C1
:1008B00090E0A0E0B0E020E8421629E5520620E6EC
:1008C000620620EF720618F480E090E0DC0120E977
:1008D00031E0829F5001839FB00C929FB00C112495
:1008E00080E3A81A88EFB80AC12CD12C7601C394F2
:1008F00020E8421629E5520620E6620620EF72063D
:1009000018F4C12CD12C7601A701960160E879E595
:1009100080E690EF0E94830773016201C61AD70A2E
:10092000E80AF90A81E090E0A0E0B0E0C11422EC0E
:10093000D20627E1E2062CEBF20618F480E090E004
:10094000DC0144E6489F9001499F300D1124A20E1E
:10095000B31E21E030E040E050E0C11482ECD80644
:1009600087E1E8068CEBF80618F420E030E0A901F6
:1009700060E072EC87E19CEB0E948307A70196017F
:10098000261B370B480B590BCA01B90120E83FE180
:1009900046E857E00E94A707220F331F220F331F9C
:1009A000A20EB31E20E833E341EE51E00E94A707F8
:1009B0007501E20EF31E20E831E541E050E00E94AF
:1009C000A7074B015C013A832983BE016F5F7F4F0C
:1009D000C7010E94FC03D82EC501B40120E13EE00E
:1009E00040E050E00E94A70729013A014B015C0159
:1009F00061E671E080E091E00E945B056D2D70E0A2
:100A00006F5F7F4F42E080E091E00E946505698161
:100A10007A816F5F7F4F42E083E091E00E9465053D
:100A200044E0B70186E091E00E94650542E0B20132
:100A30008BE091E00E946505C501B4012CE330E034
:100A400040E050E00E94A70749015A016B017C0178
:100A500042E0B4018EE091E00E94650542E0B601FB
:100A600081E191E00E94650580E091E00F900F9098
:100A7000DF91CF91FF90EF90DF90CF90BF90AF903C
:100A80009F908F907F906F905F904F9008950F93FD
:100A90001F930E943E0200918D0110918E012091C2
:100AA0008F0130919001600F711F821F931F1F9162
:100AB0000F910C944404FC01DB018D91BD0188234E
:100AC00011F08193F9CF108208959F92AF92BF9257
:100AD000CF92DF92EF92FF920F931F93CF93DF930A
:100AE00000D000D01F92CDB7DEB7FC016B019E0194
:100AF0002F5F3F4F8E010A5F1F4FEE24E394F12CCE
:100B00009AE0992E9E9C50019F9CB00C1124C60126
:100B1000B5010E949307B7010E949307D9016D9315
:100B20009D01C61AD10867FDD3947501A017B107BE
:100B300049F760E070E084E090E050E0D8012E9149
:100B40008D01211105C06115710511F4009741F463
:100B5000841795072CF4205D219361E070E004C0B8
:100B6000841795070CF43196019740F70F900F907A
:100B70000F900F900F90DF91CF911F910F91FF90E9
:100B8000EF90DF90CF90BF90AF909F9008950E941C
:100B90009106789408950C942907CF93DF93EC0184
:100BA0008991882319F00E942907FACFDF91CF910C
:100BB0000895CF93C82F90E024E0959587952A95C6
:100BC000E1F78A3010F4805D01C0895C0E9429073A
:100BD0008C2F8F708A3010F0895C01C0805DCF91BE
:100BE0000C942907CF93C82F892F0E94D9058C2FE9
:100BF000CF910C94D9052F923F924F925F926F92B2
:100C00007F928F929F92AF92BF92CF92DF92EF929C
:100C1000FF920F931F93CF93DF93CDB7DEB7639708
:100C20000FB6F894DEBF0FBECDBF6B017C0197FFFE
:100C30000DC0F094E094D094C094C11CD11CE11C70
:100C4000F11C81E090E09B8B8A8B02C01B8A1A8A80
:100C5000FE0131965F018E01055F1F4FF98BE88B16
:100C600066246394712C812C912CAAE0B0E093014E
:100C7000A4010E94F7071B012C01C701B6019101D5
:100C8000A2010E94C9079301A4010E94C907E88933
:100C9000F9892193F98BE88B822F220F990BAA0BEC
:100CA000BB0BC81AD90AEA0AFB0A310142010E1726
:100CB0001F07D9F68A899B89892B11F08DE201C023
:100CC00080E20E94290720E030E0F80182918F0144
:100CD000811106C02115310519F4EA15FB0529F427
:100CE000805D0E94290721E030E00A151B0569F7A5
:100CF00063960FB6F894DEBF0FBECDBFDF91CF91E4
:100D00001F910F91FF90EF90DF90CF90BF90AF9029
:100D10009F908F907F906F905F904F903F902F901B
:100D200008951092C00087E690E09093C5008093EC
:100D3000C400E1ECF0E088E1808386E08093C200AB
:100D40008081806A808308951F920F920FB60F9260
:100D500011242F938F939F93EF93FF9380918B0197
:100D600020918C0190E0821B910901978F73992744
:100D7000892B79F0E0918C01F0E08091C600EF566C
:100D8000FE4F808380918C018F5F8F7380938C01E5
:100D900002C08091C600FF91EF919F918F912F919A
:100DA0000F900FBE0F901F9018951F920F920FB6C5
:100DB0000F9211242F938F939F93EF93FF93809122
:100DC0008A012091890190E0821B91098F739927F4
:100DD000892B79F0E0918901F0E0EF52FE4F80819C
:100DE0008093C600809189018F5F8F738093890102
:100DF00005C08091C1008F7D8093C100FF91EF916C
:100E00009F918F912F910F900FBE0F901F9018956B
:100E100080918C0190918B01891B8F730895809133
:100E20008C0120918B0190E0821B91098F7399278F
:100E3000892B69F0E0918B01F0E0EF56FE4F808145
:100E400090918B019F5F9F7390938B01089580E039
:100E500008950FB607FE0EC02091890190918A0176
:100E600030E0291B3109215031092F733327232BFF
:100E700099F30DC02091890190918A0130E0291BDE
:100E80003109215031092F733327232B61F0E09171
:100E90008A01F0E0EF52FE4F808380918A018F5FDC
:100EA0008F7380938A018091C10080628093C1001A
:100EB00008951F93CF93DF93EC0180E011E0180FAA
:100EC000FE01E80FF11D8081882321F00E9429078F
:100ED000812FF4CFDF91CF911F9108951F93CF936E
:100EE000DF93EC0180E011E0180FFE01E80FF11D27
:100EF0008491882321F00E942907812FF4CFDF916C
:100F0000CF911F910895DB018F939F930E94F70764
:100F1000BF91AF91A29F800D911DA39F900DB29F95
:100F2000900D11240895AA1BBB1B51E107C0AA1FF5
:100F3000BB1FA617B70710F0A61BB70B881F991F7A
:100F40005A95A9F780959095BC01CD010895A1E22D
:100F50001A2EAA1BBB1BFD010DC0AA1FBB1FEE1F33
:100F6000FF1FA217B307E407F50720F0A21BB30B7E
:100F7000E40BF50B661F771F881F991F1A9469F7FA
:100F800060957095809590959B01AC01BD01CF0156
:100F90000895052E97FB1EF400940E94E00757FD6C
:100FA00007D00E94A70707FC03D04EF40C94E0077B
:100FB00050954095309521953F4F4F4F5F4F089585
:100FC00090958095709561957F4F8F4F9F4F0895B5
:100FD000A29FB001B39FC001A39F700D811D11247A
:100FE000911DB29F700D811D1124911D08950E94C5
:100FF000E807A59F900DB49F900DA49F800D911DB3
:0810000011240895F894FFCFBC
:10100800030B443100802500002D00040B44300000
:10101800802500002D0002060024F400010C6174F4
:081028006D6567613332380089
:1010300030302F30302F303030302030303A3030B8
:101040003A3030001F1C1F1E1F1E1F1F1E1F1E1F99
:101050002D2D2D202D2E2D0030312F30312F3230DF
:1010600031392030303A30303A3030005345522058
:101070003438362050726F6A6563742031202D2019
:101080004A617265642048616D0A0D0020000D0AF6
:101090000030302F30302F303030302030303A3088
:0610A000303A3030000080
:00000001FF
