:100000000C9434000C9451000C9451000C94510049
:100010000C9451000C9451000C9451000C9451001C
:100020000C9451000C9451000C9451000C943D031D
:100030000C9451000C9451000C949C000C945100B1
:100040000C9451000C9451000C9421080C9452080B
:100050000C9451000C9451000C9451000C945100DC
:100060000C9451000C94510011241FBECFEFD8E026
:10007000DEBFCDBF11E0A0E0B1E0EAE2F3E102C0F3
:1000800005900D92A837B107D9F722E0A8E7B1E0B3
:1000900001C01D92A331B207E1F70E9491020C94B6
:1000A0007F090C940000CF93DF93CDB7DEB787E4D0
:1000B00090E029EFFC01208384E490E024E430E028
:1000C000F90120812260FC01208385E490E025E491
:1000D00030E0F90120812360FC0120838EE690E06E
:1000E0002EE630E0F90120812260FC01208300002F
:1000F000DF91CF910895CF93DF93CDB7DEB78FE532
:1001000090E0FC0180818078DF91CF910895CF93BA
:10011000DF931F92CDB7DEB789838FE590E02FE59F
:1001200030E0F90130812981232BFC01208300007C
:100130000F90DF91CF9108951F920F9200905F0072
:100140000F9211242F933F938F939F93EF93FF93DD
:10015000CF93DF9300D0CDB7DEB71A8219822FC0BC
:1001600089819A81880F991F88589E4FFC012081B0
:10017000318189819A81880F991F84589E4FFC0193
:100180008081918128173907A8F489819A81880F85
:10019000991F88589E4FFC01808191819C012F5F9F
:1001A0003F4F89819A81880F991F88589E4FFC0183
:1001B0003183208389819A8101969A8389838981F9
:1001C0009A8102976CF200000F900F90DF91CF910F
:1001D000FF91EF919F918F913F912F910F900092FE
:1001E0005F000F901F901895CF93DF9300D000D041
:1001F0001F92CDB7DEB79D838C830E947B008983DD
:10020000F8948C819D81880F991F88589E4FFC011E
:10021000808191819B838A8389810E9487008A8162
:100220009B810F900F900F900F900F90DF91CF91C7
:100230000895CF93DF9300D000D01F92CDB7DEB7E3
:100240009B838A837D836C8380918001909181015F
:10025000892B41F40E94530081E090E0909381014A
:10026000809380010E947B008983F8948A819B811E
:10027000880F991F84589E4F2C813D81FC0131834A
:1002800020838A819B81880F991F88589E4FFC018B
:100290001182108289810E94870000000F900F90C8
:1002A0000F900F900F90DF91CF910895CF93DF9330
:1002B00000D000D0CDB7DEB79C838B831A82198221
:1002C0008B819C81880F991F88589E4FFC0120814B
:1002D00031818B819C81880F991F84589E4FFC012E
:1002E000808191812817390721F481E090E09A8379
:1002F000898389819A810F900F900F900F90DF91E1
:10030000CF910895CF93DF931F92CDB7DEB7898346
:100310008981082E000C990B8D32910531F08E32B7
:10032000910561F0809799F01BC00E94DC036EEE8E
:1003300072E080E090E00E9419011BC00E94DC0383
:100340006AEF70E080E090E00E94190112C00E9404
:10035000DE0368EE73E080E090E00E94190109C0BE
:100360000E94DE0360E070E080E090E00E941901EE
:10037000000000000F90DF91CF910895CF93DF939D
:1003800000D0CDB7DEB79A83898389819A81909313
:10039000830180938201109285011092840181E093
:1003A0008093860160E070E080E090E00E94190197
:1003B0000E94DE0300000F900F90DF91CF9108950F
:1003C000CF93DF93CDB7DEB7809182019091830107
:1003D000892B09F49CC080E090E00E945601892B93
:1003E00009F497C080918601882F90E081309105B3
:1003F00021F0029709F455C091C080E090E00E947E
:100400005601892BD1F02091820130918301809196
:10041000840190918501820F931FFC0180818032BD
:1004200061F082E0809386010E94DE0364E670E062
:1004300080E090E00E9419016EC080E090E00E9490
:100440005601892B09F467C0209182013091830104
:100450008091840190918501820F931FFC0180811E
:10046000803209F058C0209182013091830180913F
:100470008401909185010196820F931FFC01808178
:10048000882351F080918401909185010196909389
:100490008501809384013FC01092850110928401F0
:1004A0003AC080E090E00E945601892BB1F1209182
:1004B00082013091830180918401909185010196A0
:1004C000820F931FFC018081882351F08091840169
:1004D000909185010196909385018093840104C0D9
:1004E000109285011092840181E080938601209111
:1004F0008201309183018091840190918501820F66
:10050000931FFC0180810E948201000006C0000050
:1005100005C0000003C0000001C00000DF91CF91C2
:100520000895CF93DF93CDB7DEB728970FB6F89431
:10053000DEBF0FBECDBF0E9444070E94D9030E94B8
:10054000E50384E191E00E94BE018CE191E00E940C
:10055000140480E391E00E944A0719821A821B82E8
:100560001C8260E177E281E090E00E9419010BC0FB
:1005700089819A81AB81BC810196A11DB11D8983BE
:100580009A83AB83BC8381E090E00E945601892B63
:1005900079F31D821E821F82188660E177E281E076
:1005A00090E00E9419010DC00E94E0018D819E81A2
:1005B000AF81B8850196A11DB11D8D839E83AF8348
:1005C000B88781E090E00E945601892B69F3898108
:1005D0009A81AB81BC81BC01CD010E94780780E586
:1005E00091E00E944A078D819E81AF81B885BC0150
:1005F000CD010E94780782E591E00E944A0760E001
:1006000070E081E090E00E94190181E090E00E949A
:100610005601892B71F064EF71E081E090E00E9457
:1006200019010E94C4060E944A0785E591E00E94D4
:100630004A070E94E001E9CFCF93DF93CDB7DEB741
:100640008FE590E0FC0180818078DF91CF91089563
:10065000CF93DF931F92CDB7DEB789838FE590E00C
:100660002FE530E0F90130812981232BFC01208323
:1006700000000F90DF91CF9108951F920F9200908C
:100680005F000F9211248F939F93AF93BF93CF93EB
:10069000DF93CDB7DEB78091870190918801A0915B
:1006A0008901B0918A010196A11DB11D8093870136
:1006B00090938801A0938901B0938A010000DF9193
:1006C000CF91BF91AF919F918F910F9000925F005A
:1006D0000F901F901895CF93DF93CDB7DEB789E8C1
:1006E00090E024EFFC01208388E890E023E2FC0105
:1006F000208381E890E021E830E0F9012081286042
:10070000FC01208381E890E021E830E0F9012081BC
:100710002460FC0120838FE690E02FE630E0F901B1
:1007200020812260FC0120830000DF91CF91089599
:10073000CF93DF9300D000D01F92CDB7DEB70E94D9
:100740001C038983F8948091870190918801A0917E
:100750008901B0918A018A839B83AC83BD8389819F
:100760000E9428038A819B81AC81BD81BC01CD019F
:100770000F900F900F900F900F90DF91CF910895F1
:10078000CF93DF931F92CDB7DEB70E941C038983FE
:10079000F8941092870110928801109289011092AA
:1007A0008A0189810E94280300000F90DF91CF9178
:1007B0000895219A29980895299A089529980895C5
:1007C00085B18695817090E008950C946B030F932A
:1007D0001F930E94980300918F0110919001209126
:1007E000910130919201600F711F821F931F1F9121
:1007F0000F9108959C0160E971E00E941009892B16
:1008000079F0C90183709927892B61F4C90164E6E5
:1008100070E00E9410099C0181E0232B21F402C0AA
:1008200081E0089580E008952F923F924F925F9269
:100830006F927F928F929F92AF92BF92CF92DF92F0
:10084000EF92FF920F931F93CF93DF93CDB7DEB755
:1008500067970FB6F894DEBF0FBECDBF2CE0E7E57B
:10086000F1E0AE014F5F5F4F1A01DA0101900D9286
:100870002A95E1F7DC012C91220F2056322F330FFD
:10088000330F230F11963C9111973153230F2D876E
:1008900013962C911397022E000C330B2053310921
:1008A0006AE0629FA001639F500D11241496CC90C2
:1008B0000C2C000CDD08B0E3CB1AD108C40ED51EF9
:1008C000860101501109FC012681022E000C330B18
:1008D00020533109E8EEF3E02E9FA0012F9F500D29
:1008E0003E9F500D1124DC0117962C911797022E74
:1008F000000C330B2053310974E6729F7001739F13
:10090000F00C1124E40EF51E18964C911897042E45
:10091000000C550B40535109649F9001659F300DA9
:100920001124E20EF31E19962C911997F701E20F8C
:10093000F11D27FDFA95AF0158507A011B962C91B5
:100940001B97220F2056322F330F330F230F1C9685
:100950003C911C973053230F298B1E962C911E9788
:10096000220F2056322F330F330F230F1F963C9147
:100970001F973053230F2A8B51962C915197220F9A
:100980002056322F330F330F230F52968C91805302
:10099000280F2B8BCA010E94FA03882321F05D8562
:1009A000523008F08601C70160E971E00E94100929
:1009B000FC01DB0120E839E540E650EF0E947409B4
:1009C0002B013C01CF0164E670E00E941009FC019C
:1009D000DB0120E032EC47E15CEB0E9474094B0143
:1009E0005C01DF01B695A795B695A79520E83FE194
:1009F00046E857E00E9474096B017C01DF01A37097
:100A0000BB2720E833E341EE51E00E9474096C8B70
:100A10007D8B8E8B9F8BF1018E2F82199D8589177F
:100A200020F48191080F111DF7CFA9892A2F30E0FA
:100A3000A0E1BEE00E9465096D877E878F87988B55
:100A4000BA892B2F30E0ACE3B0E00E9465092D8518
:100A50003E854F855889260F371F481F591FDA01D9
:100A6000C9013B89830F911DA11DB11D480E591E5F
:100A70006A1E7B1E840C951CA61CB71CC80CD91CB6
:100A8000EA1CFB1C8C899D89AE89BF89C80ED91EC2
:100A9000EA1EFB1ED80120E831E541E050E00E944B
:100AA0007409DC01CB018C0D9D1DAE1DBF1D809313
:100AB0008F0190939001A0939101B093920167965A
:100AC0000FB6F894DEBF0FBECDBFDF91CF911F915F
:100AD0000F91FF90EF90DF90CF90BF90AF909F90DD
:100AE0008F907F906F905F904F903F902F900C94DD
:100AF000C003EF92FF920F931F93CF93DF93CDB775
:100B0000DEB768970FB6F894DEBF0FBECDBF7B018E
:100B10002CE0E7E5F1E0DE011D9601900D922A95AB
:100B2000E1F78E010F5F1F4F2CE0F80111922A951B
:100B3000E9F70E94FA038A83DE011D9680E0F7013F
:100B4000408151819D91F80121918F0130E0290F61
:100B5000311D4217530740F0421B530BF7015183DD
:100B600040838F5F8C3059F768960FB6F894DEBFDC
:100B70000FBECDBFDF91CF911F910F91FF90EF90EE
:100B800008954F925F926F927F928F929F92AF9251
:100B9000BF92CF92DF92EF92FF92CF93DF9300D07C
:100BA000CDB7DEB72B013C0181E090E0A0E0B0E0E2
:100BB00020E8421629E5520620E6620620EF72067A
:100BC00018F480E090E0DC0120E931E0829F5001E0
:100BD000839FB00C929FB00C112480E3A81A88EF79
:100BE000B80AC12CD12C7601C39420E8421629E51D
:100BF000520620E6620620EF720618F4C12CD12CB2
:100C00007601A701960160E879E580E690EF0E9401
:100C1000000973016201C61AD70AE80AF90A81E0DD
:100C200090E0A0E0B0E0C11422ECD20627E1E20699
:100C30002CEBF20618F480E090E0DC0144E6489FDB
:100C40009001499F300D1124A20EB31E21E030E027
:100C500040E050E0C11482ECD80687E1E8068CEB56
:100C6000F80618F420E030E0A90160E072EC87E1BA
:100C70009CEB0E940009A7019601261B370B480B2D
:100C8000590BCA01B90120E83FE146E857E00E944C
:100C90002409220F331F220F331FA20EB31E20E898
:100CA00033E341EE51E00E9424097501E20EF31E88
:100CB00020E831E541E050E00E9424094B015C014D
:100CC0003A832983BE016F5F7F4FC7010E94790578
:100CD000D82EC501B40120E13EE040E050E00E9482
:100CE000240929013A014B015C0163E671E080E0CF
:100CF00091E00E94D8066D2D70E06F5F7F4F42E05B
:100D000080E091E00E94E20669817A816F5F7F4F07
:100D100042E083E091E00E94E20644E0B70186E011
:100D200091E00E94E20642E0B2018BE091E00E9475
:100D3000E206C501B4012CE330E040E050E00E943F
:100D4000240949015A016B017C0142E0B4018EE0A3
:100D500091E00E94E20642E0B60181E191E00E944A
:100D6000E20680E091E00F900F90DF91CF91FF902D
:100D7000EF90DF90CF90BF90AF909F908F907F903B
:100D80006F905F904F9008950F931F930E94980368
:100D900000918F0110919001209191013091920169
:100DA000600F711F821F931F1F910F910C94C1053B
:100DB000FC01DB018D91BD01882311F08193F9CFF6
:100DC000108208959F92AF92BF92CF92DF92EF92DE
:100DD000FF920F931F93CF93DF9300D000D01F9209
:100DE000CDB7DEB7FC016B019E012F5F3F4F8E0137
:100DF0000A5F1F4FEE24E394F12C9AE0992E9E9CFB
:100E000050019F9CB00C1124C601B5010E9410092D
:100E1000B7010E941009D9016D939D01C61AD1082E
:100E200067FDD3947501A017B10749F760E070E042
:100E300084E090E050E0D8012E918D01211105C091
:100E40006115710511F4009741F4841795072CF48E
:100E5000205D219361E070E004C0841795070CF4D5
:100E60003196019740F70F900F900F900F900F90D1
:100E7000DF91CF911F910F91FF90EF90DF90CF9076
:100E8000BF90AF909F9008950E940E0878940895A7
:100E90000C94A608CF93DF93EC018991882319F075
:100EA0000E94A608FACFDF91CF910895CF93C82F63
:100EB00090E024E0959587952A95E1F78A3010F423
:100EC000805D01C0895C0E94A6088C2F8F708A30DB
:100ED00010F0895C01C0805DCF910C94A608CF937F
:100EE000C82F892F0E9456078C2FCF910C9456073C
:100EF0002F923F924F925F926F927F928F929F922A
:100F0000AF92BF92CF92DF92EF92FF920F931F9317
:100F1000CF93DF93CDB7DEB763970FB6F894DEBFFC
:100F20000FBECDBF6B017C0197FF0DC0F094E09424
:100F3000D094C094C11CD11CE11CF11C81E090E054
:100F40009B8B8A8B02C01B8A1A8AFE0131965F0135
:100F50008E01055F1F4FF98BE88B66246394712C1B
:100F6000812C912CAAE0B0E09301A4010E947409A5
:100F70001B012C01C701B6019101A2010E94460983
:100F80009301A4010E944609E889F9892193F98B0C
:100F9000E88B822F220F990BAA0BBB0BC81AD90A18
:100FA000EA0AFB0A310142010E171F07D9F68A89A6
:100FB0009B89892B11F08DE201C080E20E94A60876
:100FC00020E030E0F80182918F01811106C02115E7
:100FD000310519F4EA15FB0529F4805D0E94A60885
:100FE00021E030E00A151B0569F763960FB6F89407
:100FF000DEBF0FBECDBFDF91CF911F910F91FF904C
:10100000EF90DF90CF90BF90AF909F908F907F90A8
:101010006F905F904F903F902F9008951092C00076
:1010200087E690E09093C5008093C400E1ECF0E087
:1010300088E1808386E08093C2008081806A80831B
:1010400008951F920F920FB60F9211242F938F9332
:101050009F93EF93FF9380918D0120918E0190E0FB
:10106000821B910901978F739927892B79F0E09161
:101070008E01F0E08091C600ED56FE4F8083809196
:101080008E018F5F8F7380938E0102C08091C600A6
:10109000FF91EF919F918F912F910F900FBE0F9025
:1010A0001F9018951F920F920FB60F9211242F9335
:1010B0008F939F93EF93FF9380918C0120918B01ED
:1010C00090E0821B91098F739927892B79F0E09129
:1010D0008B01F0E0ED52FE4F80818093C60080913D
:1010E0008B018F5F8F7380938B0105C08091C1004E
:1010F0008F7D8093C100FF91EF919F918F912F91F0
:101100000F900FBE0F901F90189580918E019091B7
:101110008D01891B8F73089580918E0120918D011F
:1011200090E0821B91098F739927892B69F0E091D8
:101130008D01F0E0ED56FE4F808190918D019F5F13
:101140009F7390938D01089580E008950FB607FE78
:101150000EC020918B0190918C0130E0291B310948
:10116000215031092F733327232B99F30DC0209180
:101170008B0190918C0130E0291B310921503109FC
:101180002F733327232B61F0E0918C01F0E0ED52B7
:10119000FE4F808380918C018F5F8F7380938C01D1
:1011A0008091C10080628093C10008951F93CF9306
:1011B000DF93EC0180E011E0180FFE01E80FF11D54
:1011C0008081882321F00E94A608812FF4CFDF912F
:1011D000CF911F9108951F93CF93DF93EC0180E08F
:1011E00011E0180FFE01E80FF11D8491882321F012
:1011F0000E94A608812FF4CFDF91CF911F9108950F
:10120000DB018F939F930E947409BF91AF91A29FBE
:10121000800D911DA39F900DB29F900D11240895F4
:10122000AA1BBB1B51E107C0AA1FBB1FA617B7070C
:1012300010F0A61BB70B881F991F5A95A9F7809528
:101240009095BC01CD010895A1E21A2EAA1BBB1BEB
:10125000FD010DC0AA1FBB1FEE1FFF1FA217B30782
:10126000E407F50720F0A21BB30BE40BF50B661F98
:10127000771F881F991F1A9469F76095709580955C
:1012800090959B01AC01BD01CF010895052E97FB00
:101290001EF400940E945D0957FD07D00E942409A6
:1012A00007FC03D04EF40C945D09509540953095A1
:1012B00021953F4F4F4F5F4F0895909580957095C2
:1012C00061957F4F8F4F9F4F0895A29FB001B39FAD
:1012D000C001A39F700D811D1124911DB29F700D3F
:1012E000811D1124911D08950E946509A59F900DEF
:1012F000B49F900DA49F800D911D11240895F89422
:02130000FFCF1D
:10130200030B443100802500002D00040B44300003
:10131200802500002D0002060024F400010C6174F7
:081322006D656761333238008C
:10132A0030302F30302F303030302030303A3030BB
:10133A003A3030002D2D2D202D2E2D0030312F301A
:10134A00312F323031392030303A30303A303000B3
:10135A00534552203438362050726F6A65637420C0
:10136A0031202D204A617265642048616D0A0D00A2
:10137A0020000D0A000D001F1C1F1E1F1E1F1F1E0E
:10138A001F1E1F30302F30302F3030303020303099
:08139A003A30303A3030000017
:00000001FF
