:100000000C9444000C9461000C9461000C94610009
:100010000C9461000C9461000C9461000C946100DC
:100020000C9461000C9461000C9461000C946100CC
:100030000C9461000C9461000C9461000C946100BC
:100040000C9461000C9461000C9427020C945802EB
:100050000C9461000C9461000C9461000C9461009C
:100060000C9461000C94610026012B0130013501D4
:100070003A013F01440149014E01530158015D011C
:10008000620167016C01710111241FBECFEFD8E03E
:10009000DEBFCDBF11E0A0E0B1E0E4E4F6E002C0D5
:1000A00005900D92A434B107D9F721E0A4E4B1E0A2
:1000B00001C01D92A83CB207E1F70E9463000C94B6
:1000C0000C030C940000CF93DF93CDB7DEB70E94F2
:1000D0000E0284E290E024E230E0F9012081226007
:1000E000FC01208380E091E00E94B9008AE00E9438
:1000F000E50089E191E00E94B9008EED90EC0E944C
:100100008A0189E191E00E94B9008CE191E00E94AE
:10011000A001FBCFCF93DF9300D000D000D0CDB7AC
:10012000DEB79E838D831A82198212C01C821B82C5
:1001300005C08B819C8101969C838B838B819C81E4
:10014000883E9340B0F389819A8101969A8389838E
:1001500029813A818D819E812817390738F3000063
:1001600026960FB6F894DEBF0FBECDBFDF91CF91BC
:100170000895CF93DF9300D000D0CDB7DEB79C8336
:100180008B831A8219820FC02B813C8189819A81CD
:10019000820F931FFC0180810E94120289819A8143
:1001A00001969A8389832B813C8189819A81820F70
:1001B000931FFC018081882339F700000F900F9076
:1001C0000F900F90DF91CF910895CF93DF93CDB72C
:1001D000DEB729970FB6F894DEBF0FBECDBF898773
:1001E000898582958F708B8389858F708C838B81B5
:1001F000082E000C990B9E838D838C81082E000C99
:10020000990B98878F831A82198275C089819A8188
:10021000880F991F9E012F5F3F4F820F931F0496F7
:10022000FC0180819181092E000CAA0BBB0B40E0E0
:1002300050E02FE030E0841B950B2817390708F4B5
:1002400055C08C5C9F4FFC010C94060384E291E046
:100250000E94B9004BC086E291E00E94B90046C0FE
:1002600088E291E00E94B90041C08AE291E00E94D8
:10027000B9003CC08CE291E00E94B90037C08EE228
:1002800091E00E94B90032C080E391E00E94B90081
:100290002DC082E391E00E94B90028C084E391E080
:1002A0000E94B90023C086E391E00E94B9001EC0FD
:1002B00088E391E00E94B90019C08AE391E00E94AE
:1002C000B90014C08CE391E00E94B9000FC08EE326
:1002D00091E00E94B9000AC080E491E00E94B90058
:1002E00005C082E491E00E94B900000089819A81F2
:1002F00001969A83898389819A8102970CF486CF2B
:10030000000029960FB6F894DEBF0FBECDBFDF9177
:10031000CF910895CF93DF9300D0CDB7DEB79A8306
:10032000898389819A81892F99270E94E500898193
:100330000E94E50000000F900F90DF91CF9108958B
:10034000CF93DF9300D0CDB7DEB79A83898359C0AE
:1003500089819A81FC018081082E000C990B8D32D5
:10036000910531F08E329105F1F08097B9F144C0DA
:1003700085E290E025E230E0F90120812260FC0175
:1003800020838EEE92E00E948A0085E290E025E2D2
:1003900030E0F90120812D7FFC01208384E690E08C
:1003A0000E948A0029C085E290E025E230E0F90150
:1003B00020812260FC0120838AEF90E00E948A0065
:1003C00085E290E025E230E0F90120812D7FFC01FB
:1003D000208384E690E00E948A000EC085E290E0CF
:1003E00025E230E0F90120812D7FFC01208388EE99
:1003F00093E00E948A00000089819A8101969A8385
:10040000898389819A81FC018081882309F0A0CFAA
:1004100000000F900F90DF91CF9108950E94140279
:10042000789408950C94AC021092C00087E690E096
:100430009093C5008093C400E1ECF0E088E18083F4
:1004400086E08093C2008081806A808308951F9235
:100450000F920FB60F9211242F938F939F93EF93C8
:10046000FF93809146012091470190E0821B910902
:1004700001978F739927892B79F0E0914701F0E07C
:100480008091C600E85BFE4F8083809147018F5FBB
:100490008F738093470102C08091C600FF91EF9156
:1004A0009F918F912F910F900FBE0F901F901895D5
:1004B0001F920F920FB60F9211242F938F939F9339
:1004C000EF93FF93809145012091440190E0821BBE
:1004D00091098F739927892B79F0E0914401F0E01D
:1004E000E857FE4F80818093C600809144018F5F62
:1004F0008F738093440105C08091C1008F7D8093EC
:10050000C100FF91EF919F918F912F910F900FBE9E
:100510000F901F9018958091470190914601891B7B
:100520008F730895809147012091460190E0821BCE
:1005300091098F739927892B69F0E0914601F0E0CA
:10054000E85BFE4F8081909146019F5F9F7390937F
:100550004601089580E008950FB607FE0EC0209171
:1005600044019091450130E0291B310921503109A6
:100570002F733327232B99F30DC0209144019091C1
:10058000450130E0291B3109215031092F733327F0
:10059000232B61F0E0914501F0E0E857FE4F8083A6
:1005A000809145018F5F8F73809345018091C100D9
:1005B00080628093C10008951F93CF93DF93EC0175
:1005C00080E011E0180FFE01E80FF11D8081882303
:1005D00021F00E94AC02812FF4CFDF91CF911F91C7
:1005E00008951F93CF93DF93EC0180E011E0180F83
:1005F000FE01E80FF11D8491882321F00E94AC02D6
:10060000812FF4CFDF91CF911F910895EE0FFF1F3F
:0C0610000590F491E02D0994F894FFCFC0
:10061C00030B443100802500002D00040B443000F6
:10062C00802500002D0002060024F400010C6174EA
:08063C006D656761333238007F
:1006440053455234383620485733202D204A61729E
:1006540065642048616D0A0D000A0D002D2D2D20C2
:100664002D2E2D00300031003200330034003500CF
:10067400360037003800390041004200430044008E
:0406840045004600E7
:00000001FF
