:100000000C9475000C9492000C9492000C94920045
:100010000C9492000C9492000C9492000C94920018
:100020000C9492000C9492000C9492000C94920008
:100030000C9492000C9492000C9492000C949200F8
:100040000C9492000C9492000C9460010C94910119
:100050000C9492000C9492000C9492000C949200D8
:100060000C9492000C949200AA00AC00AE00B00078
:10007000B200B400B600B800BA00BC00C100C300B2
:10008000C500C700C900CB00CD00CF00D100D30010
:10009000D500D700D900DB00DD00DF00E100E30080
:1000A000E500E700E900EB00ED00EF00F100F300F0
:1000B000F500F700F900FB00FD00FF00010103015E
:1000C000050107010B010D010F01110113011501BC
:1000D000170119011B011D012001240128012C0118
:1000E0003001340138013C01400111241FBECFEF23
:1000F000D8E0DEBFCDBF11E0A0E0B1E0EEE5F5E075
:1001000002C005900D92AA38B107D9F722E0AAE8FB
:10011000B1E001C01D92AE30B207E1F70E94420289
:100120000C9499020C940000CF93DF93EC01899119
:10013000882319F00E944C01FACFDF91CF910895E6
:10014000DB018134910508F0A3C0FC01EC5CFF4F9A
:100150000C94930280E311C081E30FC082E30DC0D1
:1001600083E30BC084E309C085E307C086E305C0D1
:1001700087E303C088E301C089E38C9311961C9246
:10018000089581E36EC081E359C081E372C081E3C9
:1001900074C081E376C081E33BC081E352C081E358
:1001A00054C081E356C081E358C082E35AC082E361
:1001B0005CC082E343C082E360C082E362C082E34A
:1001C00027C082E33EC082E340C082E342C082E3B4
:1001D00044C083E346C083E348C083E34AC083E36B
:1001E0002DC083E34EC083E313C083E32AC083E3BF
:1001F0002CC083E32EC083E330C084E332C084E3A9
:1002000034C084E336C084E338C084E317C084E399
:100210008C9385E338C084E314C084E316C084E380
:1002200018C084E31AC085E31CC085E31EC085E3C3
:1002300020C085E322C085E324C085E38C9323C0DE
:1002400085E38C9386E31FC085E38C9387E31BC013
:1002500085E38C9388E317C085E38C9389E313C00F
:1002600086E38C9380E30FC086E38C9381E30BC01D
:1002700086E38C9382E307C086E38C9383E303C019
:1002800086E38C9384E311968C93119712961C92BB
:10029000089503D07894089598C01092C00083E325
:1002A00090E09093C5008093C400E1ECF0E088E119
:1002B000808386E08093C2008081806A8083089575
:1002C0001F920F920FB60F9211242F938F939F932B
:1002D000EF93FF9380918C0120918D0190E0821B20
:1002E000910901978F739927892B79F0E0918D01FE
:1002F000F0E08091C600E257FE4F808380918D012F
:100300008F5F8F7380938D0102C08091C600FF9133
:10031000EF919F918F912F910F900FBE0F901F9093
:1003200018951F920F920FB60F9211242F938F934F
:100330009F93EF93FF9380918B0120918A0190E02E
:10034000821B91098F739927892B79F0E0918A019B
:10035000F0E0E253FE4F80818093C60080918A01D5
:100360008F5F8F7380938A0105C08091C1008F7D5C
:100370008093C100FF91EF919F918F912F910F90EA
:100380000FBE0F901F90189580918D0190918C0158
:10039000891B8F73089580918D0120918C0190E0CD
:1003A000821B91098F739927892B69F0E0918C0149
:1003B000F0E0E257FE4F808190918C019F5F9F7328
:1003C00090938C01089580E008950FB607FE0EC04B
:1003D00020918A0190918B0130E0291B3109215035
:1003E00031092F733327232B99F30DC020918A01F4
:1003F00090918B0130E0291B3109215031092F7375
:100400003327232B61F0E0918B01F0E0E253FE4FA4
:10041000808380918B018F5F8F7380938B0180919C
:10042000C10080628093C10008951F93CF93DF9332
:10043000C82FD92F90E011E0190FEC2FFD2FE90FF5
:10044000F11D8081882319F0C0DF912FF4CFDF9157
:10045000CF911F9108951F93CF93DF93C82FD92F6A
:1004600090E011E0190FEC2FFD2FE90FF11DC89559
:10047000802D882319F0A9DF912FF3CFDF91CF9141
:100480001F910895CF93DF9300D01F92CDB7DEB7B1
:100490000E94490180E091E00E9494008CE191E08B
:1004A0000E9494008DE391E00E9494001A821982C8
:1004B0001B82BE016F5F7F4F88E090E00E94A0002A
:1004C00088E491E00E949400CE0101960E9494007D
:1004D0008CE591E00E949400BE016F5F7F4F80E148
:1004E00090E00E94A00083E691E00E949400CE017B
:1004F00001960E9494008CE591E00E949400BE0158
:100500006F5F7F4F80E290E00E94A00086E791E05D
:100510000E949400CE0101960E9494008CE591E027
:100520000E949400FFCFEE0FFF1F0590F491E02D85
:060530000994F894FFCFCE
:10053600030B443100004B00002D00040B44300037
:10054600004B00002D0002060024F400010C61742B
:080556006D6567613332380066
:10055E0048656C6C6F20576F726C642066726F6D9D
:10056E002041746D6567613332380A005345523449
:10057E003836202D2D20486F6D65776F726B2041B8
:10058E00737369676E6D656E7420310A004A61720D
:10059E0065642048616D0A00636861722073697A30
:1005AE006520286269747329203D200020626974D9
:1005BE00730A00696E742073697A65202862697403
:1005CE007329203D20006C6F6E672073697A652059
:0A05DE00286269747329203D200093
:00000001FF
