:100000000C9475000C9492000C9492000C94920045
:100010000C9492000C9492000C9492000C94920018
:100020000C9492000C9492000C9492000C94920008
:100030000C9492000C9492000C9492000C949200F8
:100040000C9492000C9492000C9487050C94B805C3
:100050000C9492000C9492000C9492000C949200D8
:100060000C9492000C94920053015E01690174019A
:100070007F018A019501A001AB01B601C101D20146
:10008000E301F401050216022702380249025A026E
:100090006B027C028D029E02AF02C002D102E2021C
:1000A000F3020403150326033703480359036A03C5
:1000B0007B038C039D03AE03BF03D003E103F20374
:1000C00003041404250436044704580469047A041C
:1000D0008B049C04AD04BE04CF04E004F1040205CB
:1000E0001305240535054605570511241FBECFEF1E
:1000F000D8E0DEBFCDBF11E0A0E0B1E0EAE0FDE076
:1001000002C005900D92AA38B107D9F722E0AAE8FB
:10011000B1E001C01D92AE30B207E1F70E94CD0000
:100120000C946F060C940000CF93DF9300D000D0A6
:10013000CDB7DEB79C838B831A8219820FC02B81C7
:100140003C8189819A81820F931FFC0180810E94EA
:10015000730589819A8101969A8389832B813C81D9
:1001600089819A81820F931FFC018081882339F74E
:1001700000000F900F900F900F90DF91CF91089596
:10018000CF93DF9300D0CDB7DEB79A838983000089
:100190000F900F90DF91CF910895CF93DF9300D010
:1001A0001F92CDB7DEB70E94700580E091E00E94FB
:1001B00094008CE191E00E9494008DE391E00E9414
:1001C00094001A8219821B82CE010196BC0188E03C
:1001D00090E00E94340188E491E00E949400CE01F6
:1001E00001960E9494008CE591E00E949400CE015B
:1001F0000196BC0180E190E00E94340183E691E029
:100200000E949400CE0101960E9494008CE591E03A
:100210000E949400CE010196BC0180E290E00E9411
:10022000340186E791E00E949400CE0101960E947D
:1002300094008CE591E00E94940084E290E024E236
:1002400030E0F90120812260FC01208380ED97E0FD
:100250000E94C00083E290E023E230E0F9012081B7
:100260002260FC012083F2CFCF93DF9300D000D037
:10027000CDB7DEB79A8389837C836B8389819A812A
:10028000092E000CAA0BBB0B40E050E020E430E04C
:10029000841B950B2817390708F41AC48C5C9F4FF0
:1002A000FC010C9469068B819C8120E3FC01208376
:1002B0008B819C810196FC0110820AC48B819C81F8
:1002C00021E3FC0120838B819C810196FC0110823B
:1002D000FFC38B819C8122E3FC0120838B819C8165
:1002E0000196FC011082F4C38B819C8123E3FC0105
:1002F00020838B819C810196FC011082E9C38B8154
:100300009C8124E3FC0120838B819C810196FC016C
:100310001082DEC38B819C8125E3FC0120838B81CD
:100320009C810196FC011082D3C38B819C8126E3C2
:10033000FC0120838B819C810196FC011082C8C343
:100340008B819C8127E3FC0120838B819C8101961A
:10035000FC011082BDC38B819C8128E3FC012083BA
:100360008B819C810196FC011082B2C38B819C81A0
:1003700029E3FC0120838B819C810196FC01108282
:10038000A7C38B819C8121E3FC0120838B819C810D
:10039000019620E3FC0120838B819C810296FC0165
:1003A000108296C38B819C8121E3FC0120838B8189
:1003B0009C81019621E3FC0120838B819C81029624
:1003C000FC01108285C38B819C8121E3FC01208389
:1003D0008B819C81019622E3FC0120838B819C818F
:1003E0000296FC01108274C38B819C8121E3FC0185
:1003F00020838B819C81019623E3FC0120838B81E8
:100400009C810296FC01108263C38B819C8121E355
:10041000FC0120838B819C81019624E3FC012083D5
:100420008B819C810296FC01108252C38B819C813E
:1004300021E3FC0120838B819C81019625E3FC0153
:1004400020838B819C810296FC01108241C38B81A9
:100450009C8121E3FC0120838B819C81019626E312
:10046000FC0120838B819C810296FC01108230C3A9
:100470008B819C8121E3FC0120838B819C810196EF
:1004800027E3FC0120838B819C810296FC01108272
:100490001FC38B819C8121E3FC0120838B819C8184
:1004A000019628E3FC0120838B819C810296FC014C
:1004B00010820EC38B819C8121E3FC0120838B8100
:1004C0009C81019629E3FC0120838B819C8102960B
:1004D000FC011082FDC28B819C8122E3FC01208300
:1004E0008B819C81019620E3FC0120838B819C8180
:1004F0000296FC011082ECC28B819C8122E3FC01FC
:1005000020838B819C81019621E3FC0120838B81D8
:100510009C810296FC011082DBC28B819C8122E3CC
:10052000FC0120838B819C81019622E3FC012083C6
:100530008B819C810296FC011082CAC28B819C81B6
:1005400022E3FC0120838B819C81019623E3FC0143
:1005500020838B819C810296FC011082B9C28B8121
:100560009C8122E3FC0120838B819C81019624E302
:10057000FC0120838B819C810296FC011082A8C221
:100580008B819C8122E3FC0120838B819C810196DD
:1005900025E3FC0120838B819C810296FC01108263
:1005A00097C28B819C8122E3FC0120838B819C81FB
:1005B000019626E3FC0120838B819C810296FC013D
:1005C000108286C28B819C8122E3FC0120838B8177
:1005D0009C81019627E3FC0120838B819C810296FC
:1005E000FC01108275C28B819C8122E3FC01208377
:1005F0008B819C81019628E3FC0120838B819C8167
:100600000296FC01108264C28B819C8122E3FC0172
:1006100020838B819C81019629E3FC0120838B81BF
:100620009C810296FC01108253C28B819C8123E342
:10063000FC0120838B819C81019620E3FC012083B7
:100640008B819C810296FC01108242C28B819C812D
:1006500023E3FC0120838B819C81019621E3FC0133
:1006600020838B819C810296FC01108231C28B8198
:100670009C8123E3FC0120838B819C81019622E3F2
:10068000FC0120838B819C810296FC01108220C298
:100690008B819C8123E3FC0120838B819C810196CB
:1006A00023E3FC0120838B819C810296FC01108254
:1006B0000FC28B819C8123E3FC0120838B819C8171
:1006C000019624E3FC0120838B819C810296FC012E
:1006D0001082FEC18B819C8123E3FC0120838B81EE
:1006E0009C81019625E3FC0120838B819C810296ED
:1006F000FC011082EDC18B819C8123E3FC012083EE
:100700008B819C81019626E3FC0120838B819C8157
:100710000296FC011082DCC18B819C8123E3FC01E9
:1007200020838B819C81019627E3FC0120838B81B0
:100730009C810296FC011082CBC18B819C8123E3BA
:10074000FC0120838B819C81019628E3FC0120839E
:100750008B819C810296FC011082BAC18B819C81A5
:1007600023E3FC0120838B819C81019629E3FC011A
:1007700020838B819C810296FC011082A9C18B8110
:100780009C8124E3FC0120838B819C81019620E3E2
:10079000FC0120838B819C810296FC01108298C110
:1007A0008B819C8124E3FC0120838B819C810196B9
:1007B00021E3FC0120838B819C810296FC01108245
:1007C00087C18B819C8124E3FC0120838B819C81E8
:1007D000019622E3FC0120838B819C810296FC011F
:1007E000108276C18B819C8124E3FC0120838B8164
:1007F0009C81019623E3FC0120838B819C810296DE
:10080000FC01108265C18B819C8124E3FC01208363
:100810008B819C81019624E3FC0120838B819C8148
:100820000296FC01108254C18B819C8124E3FC015F
:1008300020838B819C81019625E3FC0120838B81A1
:100840009C810296FC01108243C18B819C8124E330
:10085000FC0120838B819C81019626E3FC0120838F
:100860008B819C810296FC01108232C18B819C811C
:1008700024E3FC0120838B819C81019627E3FC010A
:1008800020838B819C810296FC01108221C18B8187
:100890009C8124E3FC0120838B819C81019628E3C9
:1008A000FC0120838B819C810296FC01108210C187
:1008B0008B819C8124E3FC0120838B819C810196A8
:1008C00029E3FC0120838B819C810296FC0110822C
:1008D000FFC08B819C8125E3FC0120838B819C815F
:1008E000019620E3FC0120838B819C810296FC0110
:1008F0001082EEC08B819C8125E3FC0120838B81DB
:100900009C81019621E3FC0120838B819C810296CE
:10091000FC011082DDC08B819C8125E3FC012083DA
:100920008B819C81019622E3FC0120838B819C8139
:100930000296FC011082CCC08B819C8125E3FC01D6
:1009400020838B819C81019623E3FC0120838B8192
:100950009C810296FC011082BBC08B819C8125E3A7
:10096000FC0120838B819C81019624E3FC01208380
:100970008B819C810296FC011082AAC08B819C8194
:1009800025E3FC0120838B819C81019625E3FC01FA
:1009900020838B819C810296FC01108299C08B81FF
:1009A0009C8125E3FC0120838B819C81019626E3B9
:1009B000FC0120838B819C810296FC01108288C0FF
:1009C0008B819C8125E3FC0120838B819C81019696
:1009D00027E3FC0120838B819C810296FC0110821D
:1009E00077C08B819C8125E3FC0120838B819C81D6
:1009F000019628E3FC0120838B819C810296FC01F7
:100A0000108266C08B819C8125E3FC0120838B8151
:100A10009C81019629E3FC0120838B819C810296B5
:100A2000FC01108255C08B819C8126E3FC01208350
:100A30008B819C81019620E3FC0120838B819C812A
:100A40000296FC01108244C08B819C8126E3FC014C
:100A500020838B819C81019621E3FC0120838B8183
:100A60009C810296FC01108233C08B819C8126E31D
:100A7000FC0120838B819C81019622E3FC01208371
:100A80008B819C810296FC01108222C08B819C810B
:100A900026E3FC0120838B819C81019623E3FC01EA
:100AA00020838B819C810296FC01108211C08B8176
:100AB0009C8126E3FC0120838B819C81019624E3A9
:100AC000FC0120838B819C810296FC011082000036
:100AD00000000F900F900F900F90DF91CF9108952D
:100AE00003D07894089598C01092C00083E390E0FA
:100AF0009093C5008093C400E1ECF0E088E180832E
:100B000086E08093C2008081806A808308951F926E
:100B10000F920FB60F9211242F938F939F93EF9301
:100B2000FF9380918C0120918D0190E0821B9109AF
:100B300001978F739927892B79F0E0918D01F0E06F
:100B40008091C600E257FE4F808380918D018F5FB8
:100B50008F7380938D0102C08091C600FF91EF9149
:100B60009F918F912F910F900FBE0F901F9018950E
:100B70001F920F920FB60F9211242F938F939F9372
:100B8000EF93FF9380918B0120918A0190E0821B6B
:100B900091098F739927892B79F0E0918A01F0E010
:100BA000E253FE4F80818093C60080918A018F5F5F
:100BB0008F7380938A0105C08091C1008F7D8093DF
:100BC000C100FF91EF919F918F912F910F900FBED8
:100BD0000F901F90189580918D0190918C01891B29
:100BE0008F73089580918D0120918C0190E0821B7C
:100BF00091098F739927892B69F0E0918C01F0E0BE
:100C0000E257FE4F808190918C019F5F9F7390937C
:100C10008C01089580E008950FB607FE0EC0209164
:100C20008A0190918B0130E0291B31092150310953
:100C30002F733327232B99F30DC020918A019091B4
:100C40008B0130E0291B3109215031092F733327E3
:100C5000232B61F0E0918B01F0E0E253FE4F8083A3
:100C600080918B018F5F8F7380938B018091C10086
:100C700080628093C10008951F93CF93DF93C82FA4
:100C8000D92F90E011E0190FEC2FFD2FE90FF11D86
:100C90008081882319F0C0DF912FF4CFDF91CF91AD
:100CA0001F9108951F93CF93DF93C82FD92F90E002
:100CB00011E0190FEC2FFD2FE90FF11DC895802DC4
:100CC000882319F0A9DF912FF3CFDF91CF911F91E6
:100CD0000895EE0FFF1F0590F491E02D0994F8940C
:020CE000FFCF44
:100CE200030B443100004B00002D00040B44300084
:100CF200004B00002D0002060024F400010C617478
:080D02006D65676133323800B2
:100D0A0048656C6C6F20576F726C642066726F6DE9
:100D1A002041746D6567613332380A005345523495
:100D2A003836202D2D20486F6D65776F726B204104
:100D3A00737369676E6D656E7420310A004A617259
:100D4A0065642048616D0A00636861722073697A7C
:100D5A006520286269747329203D20002062697425
:100D6A00730A00696E742073697A6520286269744F
:100D7A007329203D20006C6F6E672073697A6520A5
:0A0D8A00286269747329203D2000DF
:00000001FF
