:100000000C9434000C9451000C9451000C94510049
:100010000C9451000C9451000C9451000C9451001C
:100020000C9451000C9451000C9451000C947207E4
:100030000C9451000C9451000C9452090C945100F2
:100040000C9451000C9451000C94FB090C942C0A54
:100050000C9451000C9451000C94BD000C94510070
:100060000C9451000C94510011241FBECFEFD8E026
:10007000DEBFCDBF11E0A0E0B1E0E2EBF7E102C0EE
:1000800005900D92A23CB107D9F723E0A2ECB1E0B4
:1000900001C01D92AF36B207E1F70E94DA0A0C9454
:1000A000C30B0C940000CF93DF930E943501892B82
:1000B000E1F742E162EC71E080E490E00E941F0110
:1000C0008091C201813489F48091C301833569F440
:1000D0008091C401853549F491E080E02091C5010B
:1000E000211190E0C92FD82F02C0C0E0D0E062E11A
:1000F00070E082EC91E00E945201892B11F0CD2B2F
:10010000E1F462E170E080E091E00E943E0162E192
:1001100070E080E091E00E943E0142E160E071E029
:1001200080E490E00E94000142E162EC71E080E432
:1001300090E00E941F011092D401DF91CF910895A9
:100140000E943501181619069CF08091D40188236D
:1001500079F062E170E082EC91E00E943E0142E1C0
:1001600062EC71E080E490E00E9400011092D40102
:10017000089581E08093D40108951F920F920FB6E5
:100180000F9211242F933F938F939F93EF93FF939D
:10019000E091D9018091D801E81720F5F0E0E6520E
:1001A000FE4F90812091D6013091D7018FB7807892
:1001B000F894F999FECF32BD21BD90BDFA9AF99A13
:1001C0009FB7892B8FBF8091D6019091D70101965F
:1001D0009093D7018093D6018091D9018F5F80934E
:1001E000D90103C0FB981092D501FF91EF919F9127
:1001F0008F913F912F910F900FBE0F901F901895E8
:100200002091D5012130E1F39093D7018093D6015D
:1002100081E08093D5011092D901FB01AAEDB1E0F4
:10022000242F30E0CD018A5D9140821793071CF4A2
:1002300081918D93F7CF4093D801FB9A0895209137
:10024000D5012130E1F3FB019C0150E0CF01861B79
:10025000970B8417950744F432BD21BDF89A80B5F9
:1002600081932F5F3F4FF2CF08952091D50181E018
:1002700090E0213011F080E090E008959C01FC01B5
:1002800090E061507109AF01421B530B46175707AD
:1002900018F48191980FF7CFF901E60FF71F9195A8
:1002A00090830895680F791F20E08617970729F03B
:1002B000FC013191CF01230FF8CF81E090E02223A0
:1002C00011F080E090E00895CF93DF930E94350114
:1002D000892BE1F747E36AE172E080E090E00E9459
:1002E0001F0180911A02833589F480911B028534A5
:1002F00069F480911C02823549F491E080E02091FC
:100300001D02211190E0C92FD82F02C0C0E0D0E01B
:1003100067E370E08AE192E00E945201892B11F0BC
:10032000CD2BD1F467E370E082E191E00E943E01C1
:1003300047E362E171E080E090E00E9400010E94EA
:100340003501892BE1F747E36AE172E080E090E054
:10035000DF91CF910C941F01DF91CF91089590937D
:100360005202809351021092550210925402109240
:10037000530260E070E080E090E00E94BE090C94BF
:1003800020028091510290915202892B09F452C0AF
:1003900080E090E00E94A509892B09F44BC0809170
:1003A0005302811134C02091540230915502E091E2
:1003B0005102F0915202E20FF31F80818032E9F086
:1003C0003CF481111DC01092550210925402089500
:1003D0008D3239F08E32A1F40E941E026AEF70E075
:1003E00004C00E941E026EEE72E080E090E00E9467
:1003F000BE0981E080935302089568EE73E00BC05C
:100400002F5F3F4F309355022093540208950E946E
:10041000200264E670E080E090E00E94BE09109245
:100420005302809154029091550201969093550287
:10043000809354020895219A29980895299A08953D
:100440002998089585B18695817090E0089580314E
:10045000910504F527E0289FA001299F500D112444
:10046000FA01E75AFD4F80818132A0F480E090E0EC
:1004700020E0FA01E80FF91FE75AFD4F3081230F02
:10048000019687309105A9F781E090E0222321F0C1
:1004900080E0089580E090E008956F927F928F92BF
:1004A0009F92AF92BF92CF92DF92EF92FF920F9303
:1004B0001F93CF93DF930E943501892BE1F709EC5D
:1004C00012E0C0E8D0E0BE0167527E4F47E0CE01A7
:1004D0000E941F01F80111928F012796C03FD1059C
:1004E00091F749E5E42E42E0F42E8701C0E0D0E028
:1004F000D12CB12C77247A94CE010E942702892B2B
:1005000041F0F8018081871520F4BC2E782EDD247F
:10051000D3942196095F1F4FC031D10569F7DD20C3
:1005200009F46AC0B092580270925702CB2DD0E005
:100530008E010F5F1F4F872C2FE0A22E37E0932EE6
:100540006801FFE0CF22DD24C6010E942702892B2B
:1005500061F4B09256028E0101501109609780E15A
:10056000A82EB12C97E0692E3AC09C9CF0019D9C6E
:10057000F00D1124E75AFD4F4081242F30E0882DE3
:1005800090E001968F7199272817390711F7C092CB
:10059000580240935702AA940F5F1F4FAA20C9F236
:1005A000842ECECFF701208130E0872D90E04F964A
:1005B0008F7199272817390731F5C0925602689C28
:1005C000F001699CF00D1124E75AFD4F7080015035
:1005D0001109F7E0EF0EF11C0C171D07A1F0C8017F
:1005E000B5010E94540B6C014C019924C4010E9476
:1005F0002702892BB9F607C08FE08093580210922A
:10060000570210925602DF91CF911F910F91FF90E8
:10061000EF90DF90CF90BF90AF909F908F907F90A2
:100620006F900895EF92FF921F93CF93DF930E94F4
:100630003501892B39F5E9ECF2E0C0E0D0E0819199
:100640008823E1F017E01C9FC0011D9F900D11242D
:100650009C01275A3D4F790167E070E0C9010E9473
:100660003E01C19FC001112447E0B70180589F4F50
:100670000E940001C753DD4F188204C02196C0318B
:10068000D105E9F6DF91CF911F91FF90EF9008958A
:10069000EF92FF920F931F93CF93DF93E82EC091B9
:1006A0005802D0E02196CF70DD278091560290E06D
:1006B0000E942702F82E809157028F5F813218F432
:1006C0008093570202C01092570287E08C9F8001EE
:1006D0008D9F100D1124075A1D4F80915702F8016C
:1006E00080830E941504F80161837283838394835D
:1006F000E582C093580267E070E0C8010E943E01A5
:10070000C753DD4F81E08883809158029091560253
:10071000891308C0FF2031F090E001968F7099276F
:1007200080935602DF91CF911F910F91FF90EF9030
:100730000895E9E5F2E0A9ECB2E08FEF4FEF5FEF4B
:10074000BA0191E0808385834183528363837483FC
:100750009D93379622E0E93CF207A1F78FE0809362
:100760005802109256021092570208950F931F9349
:10077000CF93DF9300915602C02F10E0D0E0CE015E
:100780000E942702892B29F02196CF701F5F0C133E
:10079000F5CF812FDF91CF911F910F910895AF92E7
:1007A000BF92CF92DF92EF92FF920F931F93CF935E
:1007B000DF936B017C018A0159010E94B60390E02E
:1007C000A0E0B0E0C816D906EA06FB06F8F480916E
:1007D000560290E0C80ED91E8FE0C822DD2487E0C3
:1007E0008C9DF0018D9DF00D1124E75AFD4F818104
:1007F0009281A381B481E80188839983AA83BB8312
:100800008581F501808381E090E002C080E090E086
:10081000DF91CF911F910F91FF90EF90DF90CF90DC
:10082000BF90AF9008950C9497070F931F930E9469
:10083000A6070091EB021091EC022091ED0230919D
:10084000EE02600F711F821F931F1F910F91089579
:100850009C0160E971E00E94400B892B79F0C9018D
:1008600083709927892B61F4C90164E670E00E94C6
:10087000400B9C0181E0232B21F402C081E008950C
:1008800080E008952F923F924F925F926F927F92F5
:100890008F929F92AF92BF92CF92DF92EF92FF9290
:1008A0000F931F93CF93DF93CDB7DEB767970FB644
:1008B000F894DEBF0FBECDBF2CE0EDE5F1E0AE0158
:1008C0004F5F5F4F1A01DA0101900D922A95E1F70F
:1008D000DC012C91220F2056322F330F330F230FC0
:1008E00011963C9111973153230F2D8713962C911C
:1008F0001397022E000C330B205331096AE0629FDC
:10090000A001639F500D11241496CC900C2C000C68
:10091000DD08B0E3CB1AD108C40ED51E8601015004
:100920001109FC012681022E000C330B20533109E2
:10093000E8EEF3E02E9FA0012F9F500D3E9F500D3B
:100940001124DC0117962C911797022E000C330B03
:100950002053310974E6729F7001739FF00C1124CB
:10096000E40EF51E18964C911897042E000C550BAA
:1009700040535109649F9001659F300D1124E20E90
:10098000F31E19962C911997F701E20FF11D27FD1F
:10099000FA95AF0158507A011B962C911B97220FA4
:1009A0002056322F330F330F230F1C963C911C9788
:1009B0003053230F298B1E962C911E97220F205601
:1009C000322F330F330F230F1F963C911F97305355
:1009D000230F2A8B51962C915197220F2056322F9C
:1009E000330F330F230F52968C918053280F2B8B8C
:1009F000CA010E942804882321F05D85523008F046
:100A00008601C70160E971E00E94400BFC01DB0137
:100A100020E839E540E650EF0E94B80B2B013C017D
:100A2000CF0164E670E00E94400BFC01DB0120E096
:100A300032EC47E15CEB0E94B80B4B015C01DF013B
:100A4000B695A795B695A79520E83FE146E857E00B
:100A50000E94B80B6B017C01DF01A370BB2720E86B
:100A600033E341EE51E00E94B80B6C8B7D8B8E8B93
:100A70009F8BF1018E2F82199D85891720F481911A
:100A8000080F111DF7CFA9892A2F30E0A0E1BEE0A1
:100A90000E94A90B6D877E878F87988BBA892B2F31
:100AA00030E0ACE3B0E00E94A90B2D853E854F8578
:100AB0005889260F371F481F591FDA01C9013B8982
:100AC000830F911DA11DB11D480E591E6A1E7B1E6C
:100AD000840C951CA61CB71CC80CD91CEA1CFB1C5A
:100AE0008C899D89AE89BF89C80ED91EEA1EFB1E5E
:100AF000D80120E831E541E050E00E94B80BDC016C
:100B0000CB018C0D9D1DAE1DBF1D8093EB029093FC
:100B1000EC02A093ED02B093EE0267960FB6F89444
:100B2000DEBF0FBECDBFDF91CF911F910F91FF9020
:100B3000EF90DF90CF90BF90AF909F908F907F907D
:100B40006F905F904F903F902F900C94B207EF9270
:100B5000FF920F931F93CF93DF93CDB7DEB76897C4
:100B60000FB6F894DEBF0FBECDBF7B012CE0EDE5E4
:100B7000F1E0DE011D9601900D922A95E1F78E01BC
:100B80000F5F1F4F2CE0F80111922A95E9F70E94A0
:100B900028048A83DE011D9680E0F701408151819F
:100BA0009D91F80121918F0130E0290F311D4217ED
:100BB000530740F0421B530BF701518340838F5F73
:100BC0008C3059F768960FB6F894DEBF0FBECDBFD4
:100BD000DF91CF911F910F91FF90EF9008954F9269
:100BE0005F926F927F928F929F92AF92BF92CF92BD
:100BF000DF92EF92FF92CF93DF9300D0CDB7DEB7B5
:100C00002B013C0181E090E0A0E0B0E020E842163A
:100C100029E5520620E6620620EF720618F480E00D
:100C200090E0DC0120E931E0829F5001839FB00C0D
:100C3000929FB00C112480E3A81A88EFB80AC12C47
:100C4000D12C7601C39420E8421629E5520620E60D
:100C5000620620EF720618F4C12CD12C7601A70190
:100C6000960160E879E580E690EF0E94300B730111
:100C70006201C61AD70AE80AF90A81E090E0A0E00A
:100C8000B0E0C11422ECD20627E1E2062CEBF2061A
:100C900018F480E090E0DC0144E6489F9001499F11
:100CA000300D1124A20EB31E21E030E040E050E0F0
:100CB000C11482ECD80687E1E8068CEBF80618F43C
:100CC00020E030E0A90160E072EC87E19CEB0E943B
:100CD000300BA7019601261B370B480B590BCA0195
:100CE000B90120E83FE146E857E00E94680B220F77
:100CF000331F220F331FA20EB31E20E833E341EE51
:100D000051E00E94680B7501E20EF31E20E831E508
:100D100041E050E00E94680B4B015C013A8329835B
:100D2000BE016F5F7F4FC7010E94A705D82EC50186
:100D3000B40120E13EE040E050E00E94680B290150
:100D40003A014B015C0166EA71E089E491E00E949E
:100D500006076D2D70E06F5F7F4F42E089E491E000
:100D60000E94100769817A816F5F7F4F42E08CE4B7
:100D700091E00E94100744E0B7018FE491E00E94E7
:100D8000100742E0B20184E591E00E941007C5011E
:100D9000B4012CE330E040E050E00E94680B4901D0
:100DA0005A016B017C0142E0B40187E591E00E94A9
:100DB000100742E0B6018AE591E00E94100789E43D
:100DC00091E00F900F90DF91CF91FF90EF90DF9027
:100DD000CF90BF90AF909F908F907F906F905F90DB
:100DE0004F9008950F931F930E94A6070091EB0266
:100DF0001091EC022091ED023091EE02600F711F14
:100E0000821F931F1F910F910C94EF05FC01DB01D2
:100E10008D91BD01882311F08193F9CF108208953F
:100E20009F92AF92BF92CF92DF92EF92FF920F9379
:100E30001F93CF93DF9300D000D01F92CDB7DEB7C2
:100E4000FC016B019E012F5F3F4F8E010A5F1F4F18
:100E5000EE24E394F12C9AE0992E9E9C50019F9CE5
:100E6000B00C1124C601B5010E94400BB7010E94CD
:100E7000400BD9016D939D01C61AD10867FDD3942B
:100E80007501A017B10749F760E070E084E090E0D9
:100E900050E0D8012E918D01211105C06115710519
:100EA00011F4009741F4841795072CF4205D2193E9
:100EB00061E070E004C0841795070CF43196019747
:100EC00040F70F900F900F900F900F90DF91CF9100
:100ED0001F910F91FF90EF90DF90CF90BF90AF9058
:100EE0009F9008951F920F920FB60F9211248F9327
:100EF0009F93AF93BF938091D9029091DA02A09112
:100F0000DB02B091DC020196A11DB11D8093D902D4
:100F10009093DA02A093DB02B093DC02BF91AF9111
:100F20009F918F910F900FBE0F901F90189583E2A5
:100F300094EF9093890080938800109280008CE059
:100F40008093810082E080936F0008952FB7F8941A
:100F50006091D9027091DA028091DB029091DC02FB
:100F60002FBF08958FB7F8941092D9021092DA0229
:100F70001092DB021092DC028FBF08950E94E809F4
:100F8000789408950C94800ACF93DF93EC018991B3
:100F9000882319F00E94800AFACFDF91CF9108953B
:100FA000CF93C82F90E024E0959587952A95E1F797
:100FB0008A3010F4805D01C0895C0E94800A8C2F09
:100FC0008F708A3010F0895C01C0805DCF910C94E5
:100FD000800ACF93C82F892F0E94D0078C2FCF91E2
:100FE0000C94D0072F923F924F925F926F927F9214
:100FF0008F929F92AF92BF92CF92DF92EF92FF9229
:101000000F931F93CF93DF93CDB7DEB763970FB6E0
:10101000F894DEBF0FBECDBF6B017C0197FF0DC002
:10102000F094E094D094C094C11CD11CE11CF11C3C
:1010300081E090E09B8B8A8B02C01B8A1A8AFE019A
:1010400031965F018E01055F1F4FF98BE88B662497
:101050006394712C812C912CAAE0B0E09301A4013F
:101060000E94B80B1B012C01C701B6019101A2011E
:101070000E948A0B9301A4010E948A0BE889F989D6
:101080002193F98BE88B822F220F990BAA0BBB0BB4
:10109000C81AD90AEA0AFB0A310142010E171F07D2
:1010A000D9F68A899B89892B11F08DE201C080E2F3
:1010B0000E94800A20E030E0F80182918F018111C6
:1010C00006C02115310519F4EA15FB0529F4805DE8
:1010D0000E94800A21E030E00A151B0569F763963B
:1010E0000FB6F894DEBF0FBECDBFDF91CF911F9139
:1010F0000F91FF90EF90DF90CF90BF90AF909F90B7
:101100008F907F906F905F904F903F902F900895B9
:101110002F923F924F925F926F927F928F929F9207
:10112000AF92BF92CF92DF92EF92FF920F931F93F5
:10113000CF93DF93CDB7DEB764970FB6F894DEBFD9
:101140000FBECDBF8C016115710509F492C0812CD1
:10115000912C5401CB01A0E0B0E0898B9A8BAB8B32
:10116000BC8BDE0111961D0189899A89AB89BC89E6
:1011700088169906AA06BB0608F07BC0812F0E943C
:10118000D007802F807F0E94D00780E20E94C20794
:1011900061017801412C512C320141E0B601C701B7
:1011A0000E941F01BFEFEB1AFB0AEFEF4E1A5E0A17
:1011B0006E0A7E0AFFEF8F1A9F0AAF0ABF0A89895B
:1011C0009A89AB89BC8988169906AA06BB0650F095
:1011D00068019FE0C922DD2400E010E032016C0CC0
:1011E0007D1C09C0AFEFCA1ADA0AC7018F709927B0
:1011F000892B99F6EDCF0C151D0518F0061517056E
:1012000028F08AEB91E00E94C4070BC0F801EC19AA
:10121000FD09E20DF31D80810E94D00780E20E944B
:10122000C2070F5F1F4F0031110529F700E010E0E2
:10123000C016D10631F080E20E94C2070F5F1F4F37
:10124000F7CF8101C801821993098415950558F4D7
:10125000F80181918F0190EE980F903608F08EE2A0
:101260000E94C207EFCF8EEB91E00E94C407870176
:101270007BCF64960FB6F894DEBF0FBECDBFDF9173
:10128000CF911F910F91FF90EF90DF90CF90BF9083
:10129000AF909F908F907F906F905F904F903F9016
:1012A0002F9008951F920F920FB60F9211242F9333
:1012B0003F938F939F932091E3023091E4028091BA
:1012C000DF029091E0022817390749F08091E3028C
:1012D0009091E40201969093E4028093E3022091BE
:1012E000E5023091E6028091E1029091E202281736
:1012F000390749F08091E5029091E60201969093BA
:10130000E6028093E5029F918F913F912F910F907C
:101310000FBE0F901F90189589EF87BD82E084BDA6
:1013200093E095BD80936E0008958230910550F44E
:10133000F894880F991FFC01ED51FD4F8081918138
:101340007894089580E090E008958230910598F4B3
:10135000880F991FFC01ED51FD4F20813181FC0167
:10136000E152FD4F81E090E04081518142175307E7
:1013700021F080E0089580E090E008950F931F939E
:10138000CF93DF93EC018B018091DD029091DE021F
:10139000892B41F40E948C0981E090E09093DE0259
:1013A0008093DD02C230D10570F48FB7F894CC0F72
:1013B000DD1FFE01E152FD4F11830083CD51DD4F52
:1013C000198218828FBFDF91CF911F910F910895DD
:1013D0001092C00087E690E09093C5008093C4000F
:1013E000E1ECF0E088E1808386E08093C2008081B8
:1013F000806A808308951F920F920FB60F92112476
:101400002F938F939F93EF93FF938091E902209105
:10141000EA0290E0821B910901978F739927892B2B
:1014200079F0E091EA02F0E08091C600E151FD4FD1
:1014300080838091EA028F5F8F738093EA0202C0FB
:101440008091C600FF91EF919F918F912F910F9006
:101450000FBE0F901F9018951F920F920FB60F920C
:1014600011242F938F939F93EF93FF938091E80222
:101470002091E70290E0821B91098F739927892BB5
:1014800079F0E091E702F0E0E15DFC4F808180932C
:10149000C6008091E7028F5F8F738093E70205C0DB
:1014A0008091C1008F7D8093C100FF91EF919F914A
:1014B0008F912F910F900FBE0F901F9018958091D4
:1014C000EA029091E902891B8F7308958091EA02E4
:1014D0002091E90290E0821B91098F739927892B53
:1014E00069F0E091E902F0E0E151FD4F80819091D7
:1014F000E9029F5F9F739093E902089580E0089549
:101500000FB607FE0EC02091E7029091E80230E08E
:10151000291B3109215031092F733327232B99F3CC
:101520000DC02091E7029091E80230E0291B3109BB
:10153000215031092F733327232B61F0E091E8020A
:10154000F0E0E15DFC4F80838091E8028F5F8F7354
:101550008093E8028091C10080628093C100089569
:101560001F93CF93DF93EC0180E011E0180FFE0191
:10157000E80FF11D8081882321F00E94800A812FCD
:10158000F4CFDF91CF911F9108951F93CF93DF93F5
:10159000EC0180E011E0180FFE01E80FF11D8491CD
:1015A000882321F00E94800A812FF4CFDF91CF9110
:1015B0001F9108950E94BE070E9453000E941B02C3
:1015C0000E944D020E9413040E94640189E691E08A
:1015D0000E94C4078EE192E00E94C40786E891E071
:1015E0000E94C4078AE292E00E94C40786E891E064
:1015F0000E94C40782EC91E00E94C40786E891E053
:101600000E94C40789E891E00E94AF0182E991E05D
:101610000E94420481E08093CE010E94B9008AEAD0
:101620000E9448038BEB0E9448038CEC0E94480305
:10163000C0E0D0E00E94A0000E94C1010E941203FD
:101640000E943501892BB1F7CD2B19F0C1E0D0E014
:10165000F1CF60E071E080E090E00E948808F6CF72
:10166000DB018F939F930E94B80BBF91AF91A29F14
:10167000800D911DA39F900DB29F900D1124089590
:10168000AA1BBB1B51E107C0AA1FBB1FA617B707A8
:1016900010F0A61BB70B881F991F5A95A9F78095C4
:1016A0009095BC01CD01089597FB072E16F4009488
:1016B00007D077FD09D00E94400B07FC05D03EF40F
:1016C000909581959F4F0895709561957F4F0895EE
:1016D000A1E21A2EAA1BBB1BFD010DC0AA1FBB1F36
:1016E000EE1FFF1FA217B307E407F50720F0A21BA8
:1016F000B30BE40BF50B661F771F881F991F1A9415
:1017000069F760957095809590959B01AC01BD013E
:10171000CF010895052E97FB1EF400940E94A10BA3
:1017200057FD07D00E94680B07FC03D04EF40C94C1
:10173000A10B50954095309521953F4F4F4F5F4FEE
:10174000089590958095709561957F4F8F4F9F4F2D
:101750000895A29FB001B39FC001A39F700D811D8A
:101760001124911DB29F700D811D1124911D0895AA
:101770000E94A90BA59F900DB49F900DA49F800D72
:0A178000911D11240895F894FFCF85
:10178A00030B443100802500002D00040B44300077
:10179A00802500002D0002060024F400010C61746B
:0817AA006D6567613332380000
:1017B20041535500FF03FE030000010000C0A801D1
:1017C2006400534552004A617265640000000000E3
:1017D200000048616D00000000000000000031328E
:1017E20033343536373839000000000000004A61D2
:1017F2007248616D555341000030302F30302F3028
:101802003030302030303A30303A3030001F1C1F38
:101812001E1F1E1F1F1E1F1E1F5345522034383607
:101822002050726F6A6563742032202D204A6172E3
:1018320065642048616D0A0D002D2D2D202D2E2D61
:10184200200030312F30312F323031392030303AD0
:1018520030303A30300030302F30302F30303030AE
:101862002030303A30303A303000202020000D0A4B
:02187200000074
:00000001FF
