:100000000C9434000C9451000C9451000C94510049
:100010000C9451000C9451000C9451000C9451001C
:100020000C9451000C9451000C9451000C9451000C
:100030000C9451000C9451000C9451000C945100FC
:100040000C9451000C9451000C94E5020C940D0496
:100050000C9451000C9451000C9451000C945100DC
:100060000C9451000C94510011241FBECFEFD8E026
:10007000DEBFCDBF11E0A0E0B1E0E2EEFEE002C0E5
:1000800005900D92A232B107D9F721E0A2E2B1E0CA
:1000900001C01D92A93AB207E1F70E9453000C94E7
:1000A0005B070C940000CF93DF93CDB7DEB70E94BF
:1000B00054010E949B020E94790082E091E00E941C
:1000C0005A010E94860000000E94A9000197E1F7F2
:1000D0000E94CE00DC01CB01BC01CD010E94880151
:1000E0008BE191E00E945A0188EE93E00E94720237
:1000F000E8CFCF93DF93CDB7DEB78CE790E028EC65
:10010000FC0120830000DF91CF910895CF93DF930E
:10011000CDB7DEB78AE790E02AE730E0F901208129
:100120002660FC0120838AE790E02AE730E0F901AD
:1001300020812068FC0120838AE790E02AE730E0F4
:10014000F90120812064FC0120830000DF91CF9120
:100150000895CF93DF9300D0CDB7DEB78AE790E064
:10016000FC018081082E000C990B80749927082EC1
:10017000892F000C881F990B000C881F991F9A83E8
:10018000898321E089819A81892B09F020E0822FDF
:1001900090E00F900F90DF91CF910895CF93DF9370
:1001A000CDB7DEB760970FB6F894DEBF0FBECDBFF8
:1001B00088E790E0FC018081082E000C990BAA0BC7
:1001C000BB0B9927AA27BB2789839A83AB83BC8360
:1001D00089E790E0FC018081082E000C990B982F94
:1001E0008827092E000CAA0BBB0B8D839E83AF833F
:1001F000B88729813A814B815C818D819E81AF8155
:10020000B885822B932BA42BB52B89879A87AB8734
:10021000BC8769857A858B859C850E946206DC0196
:10022000CB0120E030E04AEC52E4BC01CD010E9459
:10023000EE06DC01CB0120E030E048EC52E4BC01EA
:10024000CD010E94B805DC01CB01BC01CD010E94AB
:100250002A06DC01CB01BC01CD010E946206DC0153
:10026000CB0120E030E848E853E4BC01CD010E9416
:100270004B05DC01CB01BC01CD010E942A06DC014B
:10028000CB018D879E87AF87B88B8D859E85AF8587
:10029000B889BC01CD0160960FB6F894DEBF0FBEE1
:1002A000CDBFDF91CF9108950E94D2027894089536
:1002B0000C949604CF93DF93EC018991882319F075
:1002C0000E949604FACFDF91CF910895CF93C82F63
:1002D00090E024E0959587952A95E1F78A3010F40F
:1002E000805D01C0895C0E9496048C2F8F708A30DB
:1002F00010F0895C01C0805DCF910C949604CF937F
:10030000C82F892F0E9466018C2FCF910C94660113
:100310002F923F924F925F926F927F928F929F9215
:10032000AF92BF92CF92DF92EF92FF920F931F9303
:10033000CF93DF93CDB7DEB763970FB6F894DEBFE8
:100340000FBECDBF6B017C0197FF0DC0F094E09410
:10035000D094C094C11CD11CE11CF11C81E090E040
:100360009B8B8A8B02C01B8A1A8AFE0131965F0121
:100370008E01055F1F4FF98BE88B66246394712C07
:10038000812C912CAAE0B0E09301A4010E940F05FA
:100390001B012C01C701B6019101A2010E94F004CA
:1003A0009301A4010E94F004E889F9892193F98B53
:1003B000E88B822F220F990BAA0BBB0BC81AD90A04
:1003C000EA0AFB0A310142010E171F07D9F68A8992
:1003D0009B89892B19F08DE20E94960420E030E081
:1003E000F80182918F01811106C02115310519F4A0
:1003F000EA15FB0529F4805D0E94960421E030E0B7
:100400000A151B0569F763960FB6F894DEBF0FBE99
:10041000CDBFDF91CF911F910F91FF90EF90DF90B3
:10042000CF90BF90AF909F908F907F906F905F9094
:100430004F903F902F9008950C946C040C9493046B
:10044000FF920F931F93CF93DF93EC01062FF72EAC
:1004500018820E946C0410E08823D9F00E944004A6
:100460008823B9F00E944704803210F089931F5FFF
:10047000E02FFF2D482F50E02191222339F0022E4A
:10048000000C330B42175307B9F702C08D3051F7F8
:100490001882812FDF91CF911F910F91FF900895C6
:1004A0000F931F93CF93DF938C01EC01699170E060
:1004B00080E090E00E9488010C5F1F4F8EE20E9456
:1004C0009604699170E080E090E00E948801C01776
:1004D000D107A1F78EE191E0DF91CF911F910F91AC
:1004E0000C945A01CF93DF9300D000D0CDB7DEB784
:1004F0001C821B822B813C8128173907A8F41A82A1
:10050000198229813A81283E334038F429813A8181
:100510002F5F3F4F3A832983F4CF2B813C812F5F9C
:100520003F4F3C832B83E6CF0F900F900F900F909F
:10053000DF91CF910895219A29980895299A0895D5
:100540002998089585B18695817090E008950F935C
:100550001F93CF93DF938C010E94A002E801899141
:100560008823D9F08E3229F40E949E028AEF90E00F
:1005700006C08D3259F40E949E028EEE92E00E94D7
:1005800072020E94A00284E690E004C0803239F733
:1005900088EE93E00E947202E2CFDF91CF911F912B
:1005A0000F9108951092C00087E690E09093C500E7
:1005B0008093C400E1ECF0E088E1808386E08093E2
:1005C000C2008081806A808308951F920F920FB6C7
:1005D0000F9211242F933F938F939F93EF93FF9349
:1005E00080912801882309F4F0C08091C600909181
:1005F0002701992309F4E3C090EE980F9F3518F076
:100600008D3009F059C0209124019091250130E0EE
:10061000291B3109215031092F733327232B61F016
:10062000E0912501F0E0E75DFE4F80839091250188
:100630009F5F9F7390932501209122019091230148
:1006400030E0291B3109215031092F733327232B27
:1006500089F0E0912301F0E0E759FE4F808390910B
:1006600023019F5F9F73909323019091C10090623B
:100670009093C1008D3009F0C5C080912201209176
:10068000230190E0821B910901978F739927892B91
:1006900069F0E0912301F0E0E759FE4F8AE08083A2
:1006A000809123018F5F8F738093230180912601B6
:1006B0008F5F80932601A6C0883011F08F37C1F577
:1006C000809125012091240190E0821B91098F7374
:1006D0009927892B09F496C0E0912501F0E0E75DA8
:1006E000FE4F80818091250181508F738093250179
:1006F000809122012091230190E0821B91090197B2
:100700008F739927892B09F47DC0E0912301F0E0D4
:10071000E759FE4F8FE78083809123018F5F8F73AE
:10072000809323018091C10080628093C1006AC0E0
:10073000843009F067C0809125012091240190E068
:10074000821B91098F739927892B31F1E091250143
:10075000F0E0E75DFE4F80818D30F1F08091240163
:100760002091250190E0821B910901978F739927B1
:10077000892B91F0E0912501F0E0E75DFE4F8DE0DF
:100780008083809125018F5F8F73809325018091F5
:1007900026018F5F809326018091240120912501FD
:1007A00090E0821B910901978F739927892B51F152
:1007B000E0912501F0E0E75DFE4F84E019C0833051
:1007C00009F581E0809327011DC0809124012091CB
:1007D000250190E0821B910901978F739927892B3E
:1007E00079F0E0912501F0E08091C600E75DFE4FD1
:1007F0008083809125018F5F8F738093250102C0D4
:100800008091C600FF91EF919F918F913F912F9121
:100810000F900FBE0F901F9018951F920F920FB65A
:100820000F9211242F938F939F93EF93FF938091B7
:1008300023012091220190E0821B91098F73992757
:10084000892B79F0E0912201F0E0E759FE4F808199
:100850008093C600809122018F5F8F738093220165
:1008600005C08091C1008F7D8093C100FF91EF9101
:100870009F918F912F910F900FBE0F901F90189501
:100880008091250190912401891B8F730895809197
:1008900025012091240190E0821B91098F739927F3
:1008A000892BC1F0E0912401F0E0E75DFE4F8081EB
:1008B000909124019F5F9F73909324019091280150
:1008C000992349F08D3039F49091260191509093FD
:1008D0002601089580E0089581E0809328018091A9
:1008E00025012091240190E0821B91098F739927A3
:1008F000892BB1F0E0912401F0E0E75DFE4F8081AB
:10090000843071F410922701E0912401F0E0E75D5A
:10091000FE4F8081809124018F5F8F73809324012B
:100920008091270108958091260108950FB607FE52
:100930000EC0209122019091230130E0291B310942
:10094000215031092F733327232B99F30DC02091A8
:1009500022019091230130E0291B310921503109F6
:100960002F733327232B61F0E0912301F0E0E75947
:10097000FE4F8083809123018F5F8F7380932301CB
:100980008091C10080628093C10008951F93CF932E
:10099000DF93EC0180E011E0180FFE01E80FF11D7C
:1009A0008081882321F00E949604812FF4CFDF916B
:1009B000CF911F9108951F93CF93DF93EC0180E0B7
:1009C00011E0180FFE01E80FF11D8491882321F03A
:1009D0000E949604812FF4CFDF91CF911F9108954B
:1009E000052E97FB1EF400940E94070557FD07D0C3
:1009F0000E941A0507FC03D04EF40C94070550958D
:100A00004095309521953F4F4F4F5F4F08959095FA
:100A10008095709561957F4F8F4F9F4F08950E94ED
:100A20003C05A59F900DB49F900DA49F800D911D36
:100A300011240895A1E21A2EAA1BBB1BFD010DC0B3
:100A4000AA1FBB1FEE1FFF1FA217B307E407F5077E
:100A500020F0A21BB30BE40BF50B661F771F881F5A
:100A6000991F1A9469F760957095809590959B01F0
:100A7000AC01BD01CF010895A29FB001B39FC00199
:100A8000A39F700D811D1124911DB29F700D811DBA
:100A90001124911D08955058BB27AA270E94630571
:100AA0000C94B4060E94A60638F00E94AD0620F011
:100AB00039F49F3F19F426F40C94A3060EF4E09544
:100AC000E7FB0C949D06E92F0E94C50658F3BA1760
:100AD000620773078407950720F079F4A6F50C9454
:100AE000E7060EF4E0950B2EBA2FA02D0B01B901ED
:100AF00090010C01CA01A0011124FF27591B99F094
:100B0000593F50F4503E68F11A16F040A22F232F9F
:100B1000342F4427585FF3CF469537952795A795EF
:100B2000F0405395C9F77EF41F16BA0B620B730B96
:100B3000840BBAF09150A1F0FF0FBB1F661F771F07
:100B4000881FC2F70EC0BA0F621F731F841F48F4BC
:100B5000879577956795B795F7959E3F08F0B0CF45
:100B60009395880F08F09927EE0F9795879508952C
:100B70000E94CC050C94B4060E94AD0658F00E9469
:100B8000A60640F029F45F3F29F00C949D06511110
:100B90000C94E8060C94A3060E94C50668F39923FA
:100BA000B1F3552391F3951B550BBB27AA27621769
:100BB0007307840738F09F5F5F4F220F331F441F76
:100BC000AA1FA9F335D00E2E3AF0E0E832D09150AA
:100BD0005040E695001CCAF72BD0FE2F29D0660F97
:100BE000771F881FBB1F261737074807AB07B0E8DA
:100BF00009F0BB0B802DBF01FF2793585F4F3AF0E0
:100C00009E3F510578F00C949D060C94E8065F3FDA
:100C1000E4F3983ED4F3869577956795B795F79565
:100C20009F5FC9F7880F911D9695879597F908954D
:100C3000E1E0660F771F881FBB1F621773078407E9
:100C4000BA0720F0621B730B840BBA0BEE1F88F7F8
:100C5000E09508950E9431066894B1110C94E8065D
:100C600008950E94CD0688F09F5798F0B92F9927D4
:100C7000B751B0F0E1F0660F771F881F991F1AF087
:100C8000BA95C9F714C0B13091F00E94E706B1E0FF
:100C900008950C94E706672F782F8827B85F39F0FE
:100CA000B93FCCF3869577956795B395D9F73EF420
:100CB00090958095709561957F4F8F4F9F4F0895C8
:100CC000E89409C097FB3EF49095809570956195E6
:100CD0007F4F8F4F9F4F9923A9F0F92F96E9BB279C
:100CE0009395F695879577956795B795F111F8CF18
:100CF000FAF4BB0F11F460FF1BC06F5F7F4F8F4F83
:100D00009F4F16C0882311F096E911C0772321F078
:100D10009EE8872F762F05C0662371F096E8862F10
:100D200070E060E02AF09A95660F771F881FDAF767
:100D3000880F9695879597F9089597F99F6780E8AA
:100D400070E060E008959FEF80EC089500240A941D
:100D50001616170618060906089500240A94121696
:100D60001306140605060895092E0394000C11F4C9
:100D7000882352F0BB0F40F4BF2B11F460FF04C076
:100D80006F5F7F4F8F4F9F4F089557FD9058440FCF
:100D9000551F59F05F3F71F04795880F97FB991FDA
:100DA00061F09F3F79F08795089512161306140697
:100DB000551FF2CF4695F1DF08C016161706180624
:100DC000991FF1CF86957105610508940895E894FF
:100DD000BB2766277727CB0197F908950E94010763
:100DE0000C94B4060E94A60638F00E94AD0620F0CE
:100DF000952311F00C949D060C94A30611240C94D9
:100E0000E8060E94C50670F3959FC1F3950F50E068
:100E1000551F629FF001729FBB27F00DB11D639FAC
:100E2000AA27F00DB11DAA1F649F6627B00DA11D52
:100E3000661F829F2227B00DA11D621F739FB00DF8
:100E4000A11D621F839FA00D611D221F749F332768
:100E5000A00D611D231F849F600D211D822F762F01
:100E60006A2F11249F5750409AF0F1F088234AF0DE
:100E7000EE0FFF1FBB1F661F771F881F915050404A
:100E8000A9F79E3F510580F00C949D060C94E8064E
:100E90005F3FE4F3983ED4F3869577956795B795D1
:100EA000F795E7959F5FC1F7FE2B880F911D9695EB
:0A0EB000879597F90895F894FFCF95
:100EBA00030B443100802500002D00040B44300050
:100ECA00802500002D0002060024F400010C617444
:080EDA006D65676133323800D9
:100EE200240053455234383620485734202D204AA6
:100EF200617265642048616D0A0D000A0D000D0AD9
:020F02000000ED
:00000001FF
