:100000000C9434000C943E000C943E000C943E0082
:100010000C943E000C943E000C943E000C943E0068
:100020000C943E000C943E000C943E000C943E0058
:100030000C943E000C943E000C943E000C943E0048
:100040000C943E000C943E000C943E000C943E0038
:100050000C943E000C943E000C943E000C943E0028
:100060000C943E000C943E0011241FBECFEFD8E04C
:10007000DEBFCDBF0E9477000C9490000C9400006E
:10008000CF93DF9300D000D000D0CDB7DEB71A8277
:1000900019821EC01C821B8211C01E821D8205C0D7
:1000A0008D819E8101969E838D838D819E81049793
:1000B000B8F38B819C8101969C838B838B819C817F
:1000C0008F3F910550F389819A8101969A838983A4
:1000D00089819A818F3F9105E8F2000026960FB63C
:1000E000F894DEBF0FBECDBFDF91CF910895CF93BF
:1000F000DF93CDB7DEB784E290E024E230E0F9018F
:1001000020812260FC0120830E94400083E290E075
:1001100023E230E0F90120812260FC012083F4CF4A
:04012000F894FFCF81
:00000001FF
